{"contracts/SC_20_21_13_28.sol":{"SC_20_21_13_28":{"abi":[{"inputs":[],"stateMutability":"nonpayable","type":"constructor"},{"anonymous":false,"inputs":[{"indexed":false,"internalType":"bool","name":"success","type":"bool"}],"name":"SignUpResult","type":"event"},{"inputs":[],"name":"calls","outputs":[{"internalType":"uint256","name":"","type":"uint256"}],"stateMutability":"view","type":"function"},{"inputs":[{"internalType":"string","name":"datasetID","type":"string"},{"internalType":"string","name":"doctorID","type":"string"},{"internalType":"string","name":"hospitalID","type":"string"},{"internalType":"string","name":"specialization","type":"string"},{"internalType":"string","name":"accessRights","type":"string"},{"internalType":"string","name":"location","type":"string"}],"name":"evaluate","outputs":[],"stateMutability":"nonpayable","type":"function"},{"inputs":[{"internalType":"string","name":"datasetID","type":"string"},{"internalType":"string","name":"doctorID","type":"string"},{"internalType":"string","name":"hospitalID","type":"string"},{"internalType":"string","name":"specialization","type":"string"},{"internalType":"string","name":"accessRights","type":"string"},{"internalType":"string","name":"location","type":"string"},{"internalType":"bytes","name":"signature","type":"bytes"}],"name":"evaluate2","outputs":[],"stateMutability":"nonpayable","type":"function"},{"inputs":[{"internalType":"bytes32","name":"_messageHash","type":"bytes32"}],"name":"getEthSignedMessageHash","outputs":[{"internalType":"bytes32","name":"","type":"bytes32"}],"stateMutability":"pure","type":"function"},{"inputs":[{"internalType":"string","name":"ID","type":"string"}],"name":"getEvaluationResult","outputs":[{"internalType":"string","name":"","type":"string"}],"stateMutability":"view","type":"function"},{"inputs":[{"internalType":"string","name":"_message","type":"string"}],"name":"getMessageHash","outputs":[{"internalType":"bytes32","name":"","type":"bytes32"}],"stateMutability":"pure","type":"function"},{"inputs":[],"name":"getSender","outputs":[{"internalType":"address","name":"","type":"address"}],"stateMutability":"view","type":"function"},{"inputs":[],"name":"publicKey","outputs":[{"internalType":"address","name":"","type":"address"}],"stateMutability":"view","type":"function"},{"inputs":[{"internalType":"bytes32","name":"_ethSignedMessageHash","type":"bytes32"},{"internalType":"bytes","name":"_signature","type":"bytes"}],"name":"recoverSigner","outputs":[{"internalType":"address","name":"","type":"address"}],"stateMutability":"pure","type":"function"},{"inputs":[{"internalType":"bytes","name":"sig","type":"bytes"}],"name":"splitSignature","outputs":[{"internalType":"bytes32","name":"r","type":"bytes32"},{"internalType":"bytes32","name":"s","type":"bytes32"},{"internalType":"uint8","name":"v","type":"uint8"}],"stateMutability":"pure","type":"function"},{"inputs":[{"internalType":"address","name":"_signer","type":"address"},{"internalType":"string","name":"_message","type":"string"},{"internalType":"bytes","name":"signature","type":"bytes"}],"name":"verify","outputs":[{"internalType":"bool","name":"","type":"bool"}],"stateMutability":"pure","type":"function"}],"evm":{"bytecode":{"linkReferences":{},"object":"60806040523480156200001157600080fd5b506001600060405162000024906200066e565b90815260200160405180910390206040516200004090620006d5565b90815260200160405180910390208190555060018060405162000063906200066e565b90815260200160405180910390206040516200007f906200073c565b90815260200160405180910390208190555060016002604051620000a3906200066e565b9081526020016040518091039020604051620000bf90620007a3565b90815260200160405180910390208190555060016003604051620000e390620006d5565b9081526020016040518091039020604051620000ff906200080a565b90815260200160405180910390208190555060016003604051620001239062000871565b90815260200160405180910390206040516200013f90620008d8565b9081526020016040518091039020819055506000600481905550600160056040516200016b906200093f565b90815260200160405180910390206040516200018790620009a6565b9081526020016040518091039020604051620001a39062000a0d565b90815260200160405180910390208190555060016006604051620001c7906200093f565b90815260200160405180910390208190555060016006604051620001eb9062000a74565b908152602001604051809103902081905550600160066040516200020f9062000adb565b90815260200160405180910390208190555060086000815480929190620002369062000b2b565b919050555060096000600181526020019081526020016000206000815480929190620002629062000b2b565b9190505550600a6000600181526020019081526020016000206000600181526020019081526020016000206000815480929190620002a09062000b2b565b919050555060016005604051620002b7906200093f565b9081526020016040518091039020604051620002d39062000bc8565b9081526020016040518091039020604051620002ef906200073c565b90815260200160405180910390208190555060026006604051620003139062000c2f565b90815260200160405180910390208190555060016006604051620003379062000cbc565b90815260200160405180910390208190555060096000600181526020019081526020016000206000815480929190620003709062000b2b565b9190505550600a6000600181526020019081526020016000206000600281526020019081526020016000206000815480929190620003ae9062000b2b565b919050555060016005604051620003c5906200093f565b9081526020016040518091039020604051620003e19062000d23565b9081526020016040518091039020604051620003fd90620007a3565b90815260200160405180910390208190555060036006604051620004219062000d8a565b90815260200160405180910390208190555060016006604051620004459062000e17565b908152602001604051809103902081905550600960006001815260200190815260200160002060008154809291906200047e9062000b2b565b9190505550600a6000600181526020019081526020016000206000600381526020019081526020016000206000815480929190620004bc9062000b2b565b919050555060016005604051620004d39062000e7e565b9081526020016040518091039020604051620004ef9062000ee5565b90815260200160405180910390206040516200050b906200080a565b908152602001604051809103902081905550600260066040516200052f9062000e7e565b90815260200160405180910390208190555060016006604051620005539062000f4c565b90815260200160405180910390208190555060016006604051620005779062000fb3565b908152602001604051809103902081905550600860008154809291906200059e9062000b2b565b919050555060096000600281526020019081526020016000206000815480929190620005ca9062000b2b565b9190505550600a6000600281526020019081526020016000206000600181526020019081526020016000206000815480929190620006089062000b2b565b919050555062000fca565b600081905092915050565b7f646f633132330000000000000000000000000000000000000000000000000000600082015250565b60006200065660068362000613565b915062000663826200061e565b600682019050919050565b60006200067b8262000647565b9150819050919050565b7f686f73706974616c410000000000000000000000000000000000000000000000600082015250565b6000620006bd60098362000613565b9150620006ca8262000685565b600982019050919050565b6000620006e282620006ae565b9150819050919050565b7f43617264696f6c6f677900000000000000000000000000000000000000000000600082015250565b600062000724600a8362000613565b91506200073182620006ec565b600a82019050919050565b6000620007498262000715565b9150819050919050565b7f526561642d577269746500000000000000000000000000000000000000000000600082015250565b60006200078b600a8362000613565b9150620007988262000753565b600a82019050919050565b6000620007b0826200077c565b9150819050919050565b7f436c6f7564000000000000000000000000000000000000000000000000000000600082015250565b6000620007f260058362000613565b9150620007ff82620007ba565b600582019050919050565b60006200081782620007e3565b9150819050919050565b7f686f73706974616c420000000000000000000000000000000000000000000000600082015250565b60006200085960098362000613565b9150620008668262000821565b600982019050919050565b60006200087e826200084a565b9150819050919050565b7f4c6f63616c000000000000000000000000000000000000000000000000000000600082015250565b6000620008c060058362000613565b9150620008cd8262000888565b600582019050919050565b6000620008e582620008b1565b9150819050919050565b7f6163636573732d7375626a656374000000000000000000000000000000000000600082015250565b600062000927600e8362000613565b91506200093482620008ef565b600e82019050919050565b60006200094c8262000918565b9150819050919050565b7f6973417574686f72697a65640000000000000000000000000000000000000000600082015250565b60006200098e600c8362000613565b91506200099b8262000956565b600c82019050919050565b6000620009b3826200097f565b9150819050919050565b7f7472756500000000000000000000000000000000000000000000000000000000600082015250565b6000620009f560048362000613565b915062000a0282620009bd565b600482019050919050565b600062000a1a82620009e6565b9150819050919050565b7f6163636573732d7375626a6563746973417574686f72697a6564000000000000600082015250565b600062000a5c601a8362000613565b915062000a698262000a24565b601a82019050919050565b600062000a818262000a4d565b9150819050919050565b7f6163636573732d7375626a6563746973417574686f72697a6564747275650000600082015250565b600062000ac3601e8362000613565b915062000ad08262000a8b565b601e82019050919050565b600062000ae88262000ab4565b9150819050919050565b7f4e487b7100000000000000000000000000000000000000000000000000000000600052601160045260246000fd5b6000819050919050565b600062000b388262000b21565b91507fffffffffffffffffffffffffffffffffffffffffffffffffffffffffffffffff820362000b6d5762000b6c62000af2565b5b600182019050919050565b7f7370656369616c697a6174696f6e000000000000000000000000000000000000600082015250565b600062000bb0600e8362000613565b915062000bbd8262000b78565b600e82019050919050565b600062000bd58262000ba1565b9150819050919050565b7f6163636573732d7375626a6563747370656369616c697a6174696f6e00000000600082015250565b600062000c17601c8362000613565b915062000c248262000bdf565b601c82019050919050565b600062000c3c8262000c08565b9150819050919050565b7f6163636573732d7375626a6563747370656369616c697a6174696f6e4361726460008201527f696f6c6f67790000000000000000000000000000000000000000000000000000602082015250565b600062000ca460268362000613565b915062000cb18262000c46565b602682019050919050565b600062000cc98262000c95565b9150819050919050565b7f6861734163636573735269676874730000000000000000000000000000000000600082015250565b600062000d0b600f8362000613565b915062000d188262000cd3565b600f82019050919050565b600062000d308262000cfc565b9150819050919050565b7f6163636573732d7375626a656374686173416363657373526967687473000000600082015250565b600062000d72601d8362000613565b915062000d7f8262000d3a565b601d82019050919050565b600062000d978262000d63565b9150819050919050565b7f6163636573732d7375626a65637468617341636365737352696768747352656160008201527f642d577269746500000000000000000000000000000000000000000000000000602082015250565b600062000dff60278362000613565b915062000e0c8262000da1565b602782019050919050565b600062000e248262000df0565b9150819050919050565b7f6461746173657400000000000000000000000000000000000000000000000000600082015250565b600062000e6660078362000613565b915062000e738262000e2e565b600782019050919050565b600062000e8b8262000e57565b9150819050919050565b7f6c6f636174696f6e000000000000000000000000000000000000000000000000600082015250565b600062000ecd60088362000613565b915062000eda8262000e95565b600882019050919050565b600062000ef28262000ebe565b9150819050919050565b7f646174617365746c6f636174696f6e0000000000000000000000000000000000600082015250565b600062000f34600f8362000613565b915062000f418262000efc565b600f82019050919050565b600062000f598262000f25565b9150819050919050565b7f646174617365746c6f636174696f6e436c6f7564000000000000000000000000600082015250565b600062000f9b60148362000613565b915062000fa88262000f63565b601482019050919050565b600062000fc08262000f8c565b9150819050919050565b61261c8062000fda6000396000f3fe608060405234801561001057600080fd5b50600436106100a85760003560e01c806363ffab311161007157806363ffab31146101655780637b0091281461018357806397aba7f91461019f578063a7bb5803146101cf578063b446f3b214610201578063fa54080114610231576100a8565b80629fe9ac146100ad5780632dd34f0f146100c9578063305f72b7146100f9578063354fc470146101175780635e01eb5a14610147575b600080fd5b6100c760048036038101906100c29190611898565b610261565b005b6100e360048036038101906100de9190611a5c565b610b0e565b6040516100f09190611b02565b60405180910390f35b610101610b6c565b60405161010e9190611b36565b60405180910390f35b610131600480360381019061012c9190611b51565b610b72565b60405161013e9190611c19565b60405180910390f35b61014f610c22565b60405161015c9190611c4a565b60405180910390f35b61016d610c2a565b60405161017a9190611c4a565b60405180910390f35b61019d60048036038101906101989190611c65565b610c42565b005b6101b960048036038101906101b49190611dd0565b61150f565b6040516101c69190611c4a565b60405180910390f35b6101e960048036038101906101e49190611e2c565b61157e565b6040516101f893929190611ea0565b60405180910390f35b61021b60048036038101906102169190611b51565b6115e6565b6040516102289190611ed7565b60405180910390f35b61024b60048036038101906102469190611ef2565b611616565b6040516102589190611ed7565b60405180910390f35b610269611675565b6000600115156102b7737264d9fd1a56d865d8b7d96e5251a6efe820b4838b8b8b8b8b8b6040516020016102a296959493929190611fa7565b60405160208183030381529060405286610b0e565b1515146102f9576040517f08c379a00000000000000000000000000000000000000000000000000000000081526004016102f090612082565b60405180910390fd5b600160008960405161030b91906120a2565b90815260200160405180910390208860405161032791906120a2565b90815260200160405180910390205403610456576040518060400160405280600e81526020017f6163636573732d7375626a6563740000000000000000000000000000000000008152508282600c8110610384576103836120b9565b5b60200201819052506040518060400160405280600c81526020017f6973417574686f72697a65640000000000000000000000000000000000000000815250826001836103d09190612117565b600c81106103e1576103e06120b9565b5b60200201819052506040518060400160405280600481526020017f74727565000000000000000000000000000000000000000000000000000000008152508260028361042d9190612117565b600c811061043e5761043d6120b9565b5b60200201819052506003816104539190612117565b90505b6001808960405161046791906120a2565b90815260200160405180910390208760405161048391906120a2565b9081526020016040518091039020540361057d576040518060400160405280600e81526020017f6163636573732d7375626a6563740000000000000000000000000000000000008152508282600c81106104e0576104df6120b9565b5b60200201819052506040518060400160405280600e81526020017f7370656369616c697a6174696f6e0000000000000000000000000000000000008152508260018361052c9190612117565b600c811061053d5761053c6120b9565b5b602002018190525085826002836105549190612117565b600c8110610565576105646120b9565b5b602002018190525060038161057a9190612117565b90505b600160028960405161058f91906120a2565b9081526020016040518091039020866040516105ab91906120a2565b908152602001604051809103902054036106a5576040518060400160405280600e81526020017f6163636573732d7375626a6563740000000000000000000000000000000000008152508282600c8110610608576106076120b9565b5b60200201819052506040518060400160405280600f81526020017f6861734163636573735269676874730000000000000000000000000000000000815250826001836106549190612117565b600c8110610665576106646120b9565b5b6020020181905250848260028361067c9190612117565b600c811061068d5761068c6120b9565b5b60200201819052506003816106a29190612117565b90505b60016003886040516106b791906120a2565b9081526020016040518091039020856040516106d391906120a2565b908152602001604051809103902054036107cd576040518060400160405280600781526020017f64617461736574000000000000000000000000000000000000000000000000008152508282600c81106107305761072f6120b9565b5b60200201819052506040518060400160405280600881526020017f6c6f636174696f6e0000000000000000000000000000000000000000000000008152508260018361077c9190612117565b600c811061078d5761078c6120b9565b5b602002018190525083826002836107a49190612117565b600c81106107b5576107b46120b9565b5b60200201819052506003816107ca9190612117565b90505b60005b818110156109855760008382600c81106107ed576107ec6120b9565b5b602002015190506000846001846108049190612117565b600c8110610815576108146120b9565b5b6020020151905060008560028561082c9190612117565b600c811061083d5761083c6120b9565b5b602002015190506001600d8e60405161085691906120a2565b90815260200160405180910390208460405161087291906120a2565b90815260200160405180910390208360405161088e91906120a2565b9081526020016040518091039020540361096e576001600760006006866040516108b891906120a2565b9081526020016040518091039020548152602001908152602001600020600060066108f3878760405180602001604052806000815250611646565b60405161090091906120a2565b90815260200160405180910390205481526020019081526020016000206000600661092c878787611646565b60405161093991906120a2565b908152602001604051809103902054815260200190815260200160002060006101000a81548160ff0219169083151502179055505b50505060038161097e9190612117565b90506107d0565b506000600190506000600190505b6008548111610aca576000600190505b60096000838152602001908152602001600020548111610ab6576000600190505b600a60008481526020019081526020016000206000838152602001908152602001600020548111610aa257600760008481526020019081526020016000206000838152602001908152602001600020600082815260200190815260200160002060009054906101000a900460ff1615610a8a576000600760008581526020019081526020016000206000848152602001908152602001600020600083815260200190815260200160002060006101000a81548160ff021916908315150217905550610a8f565b600093505b8080610a9a9061214b565b9150506109c4565b508080610aae9061214b565b9150506109a3565b508080610ac29061214b565b915050610993565b507f05cd542ccd54cabc7cea4b1abd891216618e038cac6f207ce46adfcbf2e6550a81604051610afa9190611b02565b60405180910390a150505050505050505050565b600080610b1a846115e6565b90506000610b2782611616565b90508573ffffffffffffffffffffffffffffffffffffffff16610b4a828661150f565b73ffffffffffffffffffffffffffffffffffffffff1614925050509392505050565b60045481565b6060600c82604051610b8491906120a2565b90815260200160405180910390208054610b9d906121c2565b80601f0160208091040260200160405190810160405280929190818152602001828054610bc9906121c2565b8015610c165780601f10610beb57610100808354040283529160200191610c16565b820191906000526020600020905b815481529060010190602001808311610bf957829003601f168201915b50505050509050919050565b600033905090565b737264d9fd1a56d865d8b7d96e5251a6efe820b48381565b610c4a611675565b60006001600088604051610c5e91906120a2565b908152602001604051809103902087604051610c7a91906120a2565b90815260200160405180910390205403610da9576040518060400160405280600e81526020017f6163636573732d7375626a6563740000000000000000000000000000000000008152508282600c8110610cd757610cd66120b9565b5b60200201819052506040518060400160405280600c81526020017f6973417574686f72697a6564000000000000000000000000000000000000000081525082600183610d239190612117565b600c8110610d3457610d336120b9565b5b60200201819052506040518060400160405280600481526020017f747275650000000000000000000000000000000000000000000000000000000081525082600283610d809190612117565b600c8110610d9157610d906120b9565b5b6020020181905250600381610da69190612117565b90505b60018088604051610dba91906120a2565b908152602001604051809103902086604051610dd691906120a2565b90815260200160405180910390205403610ed0576040518060400160405280600e81526020017f6163636573732d7375626a6563740000000000000000000000000000000000008152508282600c8110610e3357610e326120b9565b5b60200201819052506040518060400160405280600e81526020017f7370656369616c697a6174696f6e00000000000000000000000000000000000081525082600183610e7f9190612117565b600c8110610e9057610e8f6120b9565b5b60200201819052508482600283610ea79190612117565b600c8110610eb857610eb76120b9565b5b6020020181905250600381610ecd9190612117565b90505b6001600288604051610ee291906120a2565b908152602001604051809103902085604051610efe91906120a2565b90815260200160405180910390205403610ff8576040518060400160405280600e81526020017f6163636573732d7375626a6563740000000000000000000000000000000000008152508282600c8110610f5b57610f5a6120b9565b5b60200201819052506040518060400160405280600f81526020017f686173416363657373526967687473000000000000000000000000000000000081525082600183610fa79190612117565b600c8110610fb857610fb76120b9565b5b60200201819052508382600283610fcf9190612117565b600c8110610fe057610fdf6120b9565b5b6020020181905250600381610ff59190612117565b90505b600160038760405161100a91906120a2565b90815260200160405180910390208460405161102691906120a2565b90815260200160405180910390205403611120576040518060400160405280600781526020017f64617461736574000000000000000000000000000000000000000000000000008152508282600c8110611083576110826120b9565b5b60200201819052506040518060400160405280600881526020017f6c6f636174696f6e000000000000000000000000000000000000000000000000815250826001836110cf9190612117565b600c81106110e0576110df6120b9565b5b602002018190525082826002836110f79190612117565b600c8110611108576111076120b9565b5b602002018190525060038161111d9190612117565b90505b60005b818110156112d85760008382600c81106111405761113f6120b9565b5b602002015190506000846001846111579190612117565b600c8110611168576111676120b9565b5b6020020151905060008560028561117f9190612117565b600c81106111905761118f6120b9565b5b602002015190506001600d8d6040516111a991906120a2565b9081526020016040518091039020846040516111c591906120a2565b9081526020016040518091039020836040516111e191906120a2565b908152602001604051809103902054036112c15760016007600060068660405161120b91906120a2565b908152602001604051809103902054815260200190815260200160002060006006611246878760405180602001604052806000815250611646565b60405161125391906120a2565b90815260200160405180910390205481526020019081526020016000206000600661127f878787611646565b60405161128c91906120a2565b908152602001604051809103902054815260200190815260200160002060006101000a81548160ff0219169083151502179055505b5050506003816112d19190612117565b9050611123565b506000600190506000600190505b600854811161141d576000600190505b60096000838152602001908152602001600020548111611409576000600190505b600a600084815260200190815260200160002060008381526020019081526020016000205481116113f557600760008481526020019081526020016000206000838152602001908152602001600020600082815260200190815260200160002060009054906101000a900460ff16156113dd576000600760008581526020019081526020016000206000848152602001908152602001600020600083815260200190815260200160002060006101000a81548160ff0219169083151502179055506113e2565b600093505b80806113ed9061214b565b915050611317565b5080806114019061214b565b9150506112f6565b5080806114159061214b565b9150506112e6565b50801561148a576040518060400160405280600681526020017f5065726d69740000000000000000000000000000000000000000000000000000815250600c8a60405161146a91906120a2565b90815260200160405180910390209081611484919061239f565b506114ec565b6040518060400160405280600481526020017f44656e7900000000000000000000000000000000000000000000000000000000815250600c8a6040516114d091906120a2565b908152602001604051809103902090816114ea919061239f565b505b600460008154809291906114ff9061214b565b9190505550505050505050505050565b60008060008061151e8561157e565b925092509250600186828585604051600081526020016040526040516115479493929190612471565b6020604051602081039080840390855afa158015611569573d6000803e3d6000fd5b50505060206040510351935050505092915050565b600080600060418451146115c7576040517f08c379a00000000000000000000000000000000000000000000000000000000081526004016115be90612502565b60405180910390fd5b6020840151925060408401519150606084015160001a90509193909250565b6000816040516020016115f991906120a2565b604051602081830303815290604052805190602001209050919050565b600081604051602001611629919061258f565b604051602081830303815290604052805190602001209050919050565b606083838360405160200161165d939291906125b5565b60405160208183030381529060405290509392505050565b604051806101800160405280600c905b60608152602001906001900390816116855790505090565b6000604051905090565b600080fd5b600080fd5b600080fd5b600080fd5b6000601f19601f8301169050919050565b7f4e487b7100000000000000000000000000000000000000000000000000000000600052604160045260246000fd5b611704826116bb565b810181811067ffffffffffffffff82111715611723576117226116cc565b5b80604052505050565b600061173661169d565b905061174282826116fb565b919050565b600067ffffffffffffffff821115611762576117616116cc565b5b61176b826116bb565b9050602081019050919050565b82818337600083830152505050565b600061179a61179584611747565b61172c565b9050828152602081018484840111156117b6576117b56116b6565b5b6117c1848285611778565b509392505050565b600082601f8301126117de576117dd6116b1565b5b81356117ee848260208601611787565b91505092915050565b600067ffffffffffffffff821115611812576118116116cc565b5b61181b826116bb565b9050602081019050919050565b600061183b611836846117f7565b61172c565b905082815260208101848484011115611857576118566116b6565b5b611862848285611778565b509392505050565b600082601f83011261187f5761187e6116b1565b5b813561188f848260208601611828565b91505092915050565b600080600080600080600060e0888a0312156118b7576118b66116a7565b5b600088013567ffffffffffffffff8111156118d5576118d46116ac565b5b6118e18a828b016117c9565b975050602088013567ffffffffffffffff811115611902576119016116ac565b5b61190e8a828b016117c9565b965050604088013567ffffffffffffffff81111561192f5761192e6116ac565b5b61193b8a828b016117c9565b955050606088013567ffffffffffffffff81111561195c5761195b6116ac565b5b6119688a828b016117c9565b945050608088013567ffffffffffffffff811115611989576119886116ac565b5b6119958a828b016117c9565b93505060a088013567ffffffffffffffff8111156119b6576119b56116ac565b5b6119c28a828b016117c9565b92505060c088013567ffffffffffffffff8111156119e3576119e26116ac565b5b6119ef8a828b0161186a565b91505092959891949750929550565b600073ffffffffffffffffffffffffffffffffffffffff82169050919050565b6000611a29826119fe565b9050919050565b611a3981611a1e565b8114611a4457600080fd5b50565b600081359050611a5681611a30565b92915050565b600080600060608486031215611a7557611a746116a7565b5b6000611a8386828701611a47565b935050602084013567ffffffffffffffff811115611aa457611aa36116ac565b5b611ab0868287016117c9565b925050604084013567ffffffffffffffff811115611ad157611ad06116ac565b5b611add8682870161186a565b9150509250925092565b60008115159050919050565b611afc81611ae7565b82525050565b6000602082019050611b176000830184611af3565b92915050565b6000819050919050565b611b3081611b1d565b82525050565b6000602082019050611b4b6000830184611b27565b92915050565b600060208284031215611b6757611b666116a7565b5b600082013567ffffffffffffffff811115611b8557611b846116ac565b5b611b91848285016117c9565b91505092915050565b600081519050919050565b600082825260208201905092915050565b60005b83811015611bd4578082015181840152602081019050611bb9565b60008484015250505050565b6000611beb82611b9a565b611bf58185611ba5565b9350611c05818560208601611bb6565b611c0e816116bb565b840191505092915050565b60006020820190508181036000830152611c338184611be0565b905092915050565b611c4481611a1e565b82525050565b6000602082019050611c5f6000830184611c3b565b92915050565b60008060008060008060c08789031215611c8257611c816116a7565b5b600087013567ffffffffffffffff811115611ca057611c9f6116ac565b5b611cac89828a016117c9565b965050602087013567ffffffffffffffff811115611ccd57611ccc6116ac565b5b611cd989828a016117c9565b955050604087013567ffffffffffffffff811115611cfa57611cf96116ac565b5b611d0689828a016117c9565b945050606087013567ffffffffffffffff811115611d2757611d266116ac565b5b611d3389828a016117c9565b935050608087013567ffffffffffffffff811115611d5457611d536116ac565b5b611d6089828a016117c9565b92505060a087013567ffffffffffffffff811115611d8157611d806116ac565b5b611d8d89828a016117c9565b9150509295509295509295565b6000819050919050565b611dad81611d9a565b8114611db857600080fd5b50565b600081359050611dca81611da4565b92915050565b60008060408385031215611de757611de66116a7565b5b6000611df585828601611dbb565b925050602083013567ffffffffffffffff811115611e1657611e156116ac565b5b611e228582860161186a565b9150509250929050565b600060208284031215611e4257611e416116a7565b5b600082013567ffffffffffffffff811115611e6057611e5f6116ac565b5b611e6c8482850161186a565b91505092915050565b611e7e81611d9a565b82525050565b600060ff82169050919050565b611e9a81611e84565b82525050565b6000606082019050611eb56000830186611e75565b611ec26020830185611e75565b611ecf6040830184611e91565b949350505050565b6000602082019050611eec6000830184611e75565b92915050565b600060208284031215611f0857611f076116a7565b5b6000611f1684828501611dbb565b91505092915050565b600081905092915050565b6000611f3582611b9a565b611f3f8185611f1f565b9350611f4f818560208601611bb6565b80840191505092915050565b7f2c00000000000000000000000000000000000000000000000000000000000000600082015250565b6000611f91600183611f1f565b9150611f9c82611f5b565b600182019050919050565b6000611fb38289611f2a565b9150611fbe82611f84565b9150611fca8288611f2a565b9150611fd582611f84565b9150611fe18287611f2a565b9150611fec82611f84565b9150611ff88286611f2a565b915061200382611f84565b915061200f8285611f2a565b915061201a82611f84565b91506120268284611f2a565b9150819050979650505050505050565b7f496e76616c6964207369676e6174757265000000000000000000000000000000600082015250565b600061206c601183611ba5565b915061207782612036565b602082019050919050565b6000602082019050818103600083015261209b8161205f565b9050919050565b60006120ae8284611f2a565b915081905092915050565b7f4e487b7100000000000000000000000000000000000000000000000000000000600052603260045260246000fd5b7f4e487b7100000000000000000000000000000000000000000000000000000000600052601160045260246000fd5b600061212282611b1d565b915061212d83611b1d565b9250828201905080821115612145576121446120e8565b5b92915050565b600061215682611b1d565b91507fffffffffffffffffffffffffffffffffffffffffffffffffffffffffffffffff8203612188576121876120e8565b5b600182019050919050565b7f4e487b7100000000000000000000000000000000000000000000000000000000600052602260045260246000fd5b600060028204905060018216806121da57607f821691505b6020821081036121ed576121ec612193565b5b50919050565b60008190508160005260206000209050919050565b60006020601f8301049050919050565b600082821b905092915050565b6000600883026122557fffffffffffffffffffffffffffffffffffffffffffffffffffffffffffffffff82612218565b61225f8683612218565b95508019841693508086168417925050509392505050565b6000819050919050565b600061229c61229761229284611b1d565b612277565b611b1d565b9050919050565b6000819050919050565b6122b683612281565b6122ca6122c2826122a3565b848454612225565b825550505050565b600090565b6122df6122d2565b6122ea8184846122ad565b505050565b5b8181101561230e576123036000826122d7565b6001810190506122f0565b5050565b601f82111561235357612324816121f3565b61232d84612208565b8101602085101561233c578190505b61235061234885612208565b8301826122ef565b50505b505050565b600082821c905092915050565b600061237660001984600802612358565b1980831691505092915050565b600061238f8383612365565b9150826002028217905092915050565b6123a882611b9a565b67ffffffffffffffff8111156123c1576123c06116cc565b5b6123cb82546121c2565b6123d6828285612312565b600060209050601f83116001811461240957600084156123f7578287015190505b6124018582612383565b865550612469565b601f198416612417866121f3565b60005b8281101561243f5784890151825560018201915060208501945060208101905061241a565b8683101561245c5784890151612458601f891682612365565b8355505b6001600288020188555050505b505050505050565b60006080820190506124866000830187611e75565b6124936020830186611e91565b6124a06040830185611e75565b6124ad6060830184611e75565b95945050505050565b7f696e76616c6964207369676e6174757265206c656e6774680000000000000000600082015250565b60006124ec601883611ba5565b91506124f7826124b6565b602082019050919050565b6000602082019050818103600083015261251b816124df565b9050919050565b7f19457468657265756d205369676e6564204d6573736167653a0a333200000000600082015250565b6000612558601c83611f1f565b915061256382612522565b601c82019050919050565b6000819050919050565b61258961258482611d9a565b61256e565b82525050565b600061259a8261254b565b91506125a68284612578565b60208201915081905092915050565b60006125c18286611f2a565b91506125cd8285611f2a565b91506125d98284611f2a565b915081905094935050505056fea264697066735822122027eb690f104c92e9517a113da16947dbe99b8d198b6afac4f88f1f174fb583c564736f6c63430008180033","opcodes":"PUSH1 0x80 PUSH1 0x40 MSTORE CALLVALUE DUP1 ISZERO PUSH3 0x11 JUMPI PUSH1 0x0 DUP1 REVERT JUMPDEST POP PUSH1 0x1 PUSH1 0x0 PUSH1 0x40 MLOAD PUSH3 0x24 SWAP1 PUSH3 0x66E JUMP JUMPDEST SWAP1 DUP2 MSTORE PUSH1 0x20 ADD PUSH1 0x40 MLOAD DUP1 SWAP2 SUB SWAP1 KECCAK256 PUSH1 0x40 MLOAD PUSH3 0x40 SWAP1 PUSH3 0x6D5 JUMP JUMPDEST SWAP1 DUP2 MSTORE PUSH1 0x20 ADD PUSH1 0x40 MLOAD DUP1 SWAP2 SUB SWAP1 KECCAK256 DUP2 SWAP1 SSTORE POP PUSH1 0x1 DUP1 PUSH1 0x40 MLOAD PUSH3 0x63 SWAP1 PUSH3 0x66E JUMP JUMPDEST SWAP1 DUP2 MSTORE PUSH1 0x20 ADD PUSH1 0x40 MLOAD DUP1 SWAP2 SUB SWAP1 KECCAK256 PUSH1 0x40 MLOAD PUSH3 0x7F SWAP1 PUSH3 0x73C JUMP JUMPDEST SWAP1 DUP2 MSTORE PUSH1 0x20 ADD PUSH1 0x40 MLOAD DUP1 SWAP2 SUB SWAP1 KECCAK256 DUP2 SWAP1 SSTORE POP PUSH1 0x1 PUSH1 0x2 PUSH1 0x40 MLOAD PUSH3 0xA3 SWAP1 PUSH3 0x66E JUMP JUMPDEST SWAP1 DUP2 MSTORE PUSH1 0x20 ADD PUSH1 0x40 MLOAD DUP1 SWAP2 SUB SWAP1 KECCAK256 PUSH1 0x40 MLOAD PUSH3 0xBF SWAP1 PUSH3 0x7A3 JUMP JUMPDEST SWAP1 DUP2 MSTORE PUSH1 0x20 ADD PUSH1 0x40 MLOAD DUP1 SWAP2 SUB SWAP1 KECCAK256 DUP2 SWAP1 SSTORE POP PUSH1 0x1 PUSH1 0x3 PUSH1 0x40 MLOAD PUSH3 0xE3 SWAP1 PUSH3 0x6D5 JUMP JUMPDEST SWAP1 DUP2 MSTORE PUSH1 0x20 ADD PUSH1 0x40 MLOAD DUP1 SWAP2 SUB SWAP1 KECCAK256 PUSH1 0x40 MLOAD PUSH3 0xFF SWAP1 PUSH3 0x80A JUMP JUMPDEST SWAP1 DUP2 MSTORE PUSH1 0x20 ADD PUSH1 0x40 MLOAD DUP1 SWAP2 SUB SWAP1 KECCAK256 DUP2 SWAP1 SSTORE POP PUSH1 0x1 PUSH1 0x3 PUSH1 0x40 MLOAD PUSH3 0x123 SWAP1 PUSH3 0x871 JUMP JUMPDEST SWAP1 DUP2 MSTORE PUSH1 0x20 ADD PUSH1 0x40 MLOAD DUP1 SWAP2 SUB SWAP1 KECCAK256 PUSH1 0x40 MLOAD PUSH3 0x13F SWAP1 PUSH3 0x8D8 JUMP JUMPDEST SWAP1 DUP2 MSTORE PUSH1 0x20 ADD PUSH1 0x40 MLOAD DUP1 SWAP2 SUB SWAP1 KECCAK256 DUP2 SWAP1 SSTORE POP PUSH1 0x0 PUSH1 0x4 DUP2 SWAP1 SSTORE POP PUSH1 0x1 PUSH1 0x5 PUSH1 0x40 MLOAD PUSH3 0x16B SWAP1 PUSH3 0x93F JUMP JUMPDEST SWAP1 DUP2 MSTORE PUSH1 0x20 ADD PUSH1 0x40 MLOAD DUP1 SWAP2 SUB SWAP1 KECCAK256 PUSH1 0x40 MLOAD PUSH3 0x187 SWAP1 PUSH3 0x9A6 JUMP JUMPDEST SWAP1 DUP2 MSTORE PUSH1 0x20 ADD PUSH1 0x40 MLOAD DUP1 SWAP2 SUB SWAP1 KECCAK256 PUSH1 0x40 MLOAD PUSH3 0x1A3 SWAP1 PUSH3 0xA0D JUMP JUMPDEST SWAP1 DUP2 MSTORE PUSH1 0x20 ADD PUSH1 0x40 MLOAD DUP1 SWAP2 SUB SWAP1 KECCAK256 DUP2 SWAP1 SSTORE POP PUSH1 0x1 PUSH1 0x6 PUSH1 0x40 MLOAD PUSH3 0x1C7 SWAP1 PUSH3 0x93F JUMP JUMPDEST SWAP1 DUP2 MSTORE PUSH1 0x20 ADD PUSH1 0x40 MLOAD DUP1 SWAP2 SUB SWAP1 KECCAK256 DUP2 SWAP1 SSTORE POP PUSH1 0x1 PUSH1 0x6 PUSH1 0x40 MLOAD PUSH3 0x1EB SWAP1 PUSH3 0xA74 JUMP JUMPDEST SWAP1 DUP2 MSTORE PUSH1 0x20 ADD PUSH1 0x40 MLOAD DUP1 SWAP2 SUB SWAP1 KECCAK256 DUP2 SWAP1 SSTORE POP PUSH1 0x1 PUSH1 0x6 PUSH1 0x40 MLOAD PUSH3 0x20F SWAP1 PUSH3 0xADB JUMP JUMPDEST SWAP1 DUP2 MSTORE PUSH1 0x20 ADD PUSH1 0x40 MLOAD DUP1 SWAP2 SUB SWAP1 KECCAK256 DUP2 SWAP1 SSTORE POP PUSH1 0x8 PUSH1 0x0 DUP2 SLOAD DUP1 SWAP3 SWAP2 SWAP1 PUSH3 0x236 SWAP1 PUSH3 0xB2B JUMP JUMPDEST SWAP2 SWAP1 POP SSTORE POP PUSH1 0x9 PUSH1 0x0 PUSH1 0x1 DUP2 MSTORE PUSH1 0x20 ADD SWAP1 DUP2 MSTORE PUSH1 0x20 ADD PUSH1 0x0 KECCAK256 PUSH1 0x0 DUP2 SLOAD DUP1 SWAP3 SWAP2 SWAP1 PUSH3 0x262 SWAP1 PUSH3 0xB2B JUMP JUMPDEST SWAP2 SWAP1 POP SSTORE POP PUSH1 0xA PUSH1 0x0 PUSH1 0x1 DUP2 MSTORE PUSH1 0x20 ADD SWAP1 DUP2 MSTORE PUSH1 0x20 ADD PUSH1 0x0 KECCAK256 PUSH1 0x0 PUSH1 0x1 DUP2 MSTORE PUSH1 0x20 ADD SWAP1 DUP2 MSTORE PUSH1 0x20 ADD PUSH1 0x0 KECCAK256 PUSH1 0x0 DUP2 SLOAD DUP1 SWAP3 SWAP2 SWAP1 PUSH3 0x2A0 SWAP1 PUSH3 0xB2B JUMP JUMPDEST SWAP2 SWAP1 POP SSTORE POP PUSH1 0x1 PUSH1 0x5 PUSH1 0x40 MLOAD PUSH3 0x2B7 SWAP1 PUSH3 0x93F JUMP JUMPDEST SWAP1 DUP2 MSTORE PUSH1 0x20 ADD PUSH1 0x40 MLOAD DUP1 SWAP2 SUB SWAP1 KECCAK256 PUSH1 0x40 MLOAD PUSH3 0x2D3 SWAP1 PUSH3 0xBC8 JUMP JUMPDEST SWAP1 DUP2 MSTORE PUSH1 0x20 ADD PUSH1 0x40 MLOAD DUP1 SWAP2 SUB SWAP1 KECCAK256 PUSH1 0x40 MLOAD PUSH3 0x2EF SWAP1 PUSH3 0x73C JUMP JUMPDEST SWAP1 DUP2 MSTORE PUSH1 0x20 ADD PUSH1 0x40 MLOAD DUP1 SWAP2 SUB SWAP1 KECCAK256 DUP2 SWAP1 SSTORE POP PUSH1 0x2 PUSH1 0x6 PUSH1 0x40 MLOAD PUSH3 0x313 SWAP1 PUSH3 0xC2F JUMP JUMPDEST SWAP1 DUP2 MSTORE PUSH1 0x20 ADD PUSH1 0x40 MLOAD DUP1 SWAP2 SUB SWAP1 KECCAK256 DUP2 SWAP1 SSTORE POP PUSH1 0x1 PUSH1 0x6 PUSH1 0x40 MLOAD PUSH3 0x337 SWAP1 PUSH3 0xCBC JUMP JUMPDEST SWAP1 DUP2 MSTORE PUSH1 0x20 ADD PUSH1 0x40 MLOAD DUP1 SWAP2 SUB SWAP1 KECCAK256 DUP2 SWAP1 SSTORE POP PUSH1 0x9 PUSH1 0x0 PUSH1 0x1 DUP2 MSTORE PUSH1 0x20 ADD SWAP1 DUP2 MSTORE PUSH1 0x20 ADD PUSH1 0x0 KECCAK256 PUSH1 0x0 DUP2 SLOAD DUP1 SWAP3 SWAP2 SWAP1 PUSH3 0x370 SWAP1 PUSH3 0xB2B JUMP JUMPDEST SWAP2 SWAP1 POP SSTORE POP PUSH1 0xA PUSH1 0x0 PUSH1 0x1 DUP2 MSTORE PUSH1 0x20 ADD SWAP1 DUP2 MSTORE PUSH1 0x20 ADD PUSH1 0x0 KECCAK256 PUSH1 0x0 PUSH1 0x2 DUP2 MSTORE PUSH1 0x20 ADD SWAP1 DUP2 MSTORE PUSH1 0x20 ADD PUSH1 0x0 KECCAK256 PUSH1 0x0 DUP2 SLOAD DUP1 SWAP3 SWAP2 SWAP1 PUSH3 0x3AE SWAP1 PUSH3 0xB2B JUMP JUMPDEST SWAP2 SWAP1 POP SSTORE POP PUSH1 0x1 PUSH1 0x5 PUSH1 0x40 MLOAD PUSH3 0x3C5 SWAP1 PUSH3 0x93F JUMP JUMPDEST SWAP1 DUP2 MSTORE PUSH1 0x20 ADD PUSH1 0x40 MLOAD DUP1 SWAP2 SUB SWAP1 KECCAK256 PUSH1 0x40 MLOAD PUSH3 0x3E1 SWAP1 PUSH3 0xD23 JUMP JUMPDEST SWAP1 DUP2 MSTORE PUSH1 0x20 ADD PUSH1 0x40 MLOAD DUP1 SWAP2 SUB SWAP1 KECCAK256 PUSH1 0x40 MLOAD PUSH3 0x3FD SWAP1 PUSH3 0x7A3 JUMP JUMPDEST SWAP1 DUP2 MSTORE PUSH1 0x20 ADD PUSH1 0x40 MLOAD DUP1 SWAP2 SUB SWAP1 KECCAK256 DUP2 SWAP1 SSTORE POP PUSH1 0x3 PUSH1 0x6 PUSH1 0x40 MLOAD PUSH3 0x421 SWAP1 PUSH3 0xD8A JUMP JUMPDEST SWAP1 DUP2 MSTORE PUSH1 0x20 ADD PUSH1 0x40 MLOAD DUP1 SWAP2 SUB SWAP1 KECCAK256 DUP2 SWAP1 SSTORE POP PUSH1 0x1 PUSH1 0x6 PUSH1 0x40 MLOAD PUSH3 0x445 SWAP1 PUSH3 0xE17 JUMP JUMPDEST SWAP1 DUP2 MSTORE PUSH1 0x20 ADD PUSH1 0x40 MLOAD DUP1 SWAP2 SUB SWAP1 KECCAK256 DUP2 SWAP1 SSTORE POP PUSH1 0x9 PUSH1 0x0 PUSH1 0x1 DUP2 MSTORE PUSH1 0x20 ADD SWAP1 DUP2 MSTORE PUSH1 0x20 ADD PUSH1 0x0 KECCAK256 PUSH1 0x0 DUP2 SLOAD DUP1 SWAP3 SWAP2 SWAP1 PUSH3 0x47E SWAP1 PUSH3 0xB2B JUMP JUMPDEST SWAP2 SWAP1 POP SSTORE POP PUSH1 0xA PUSH1 0x0 PUSH1 0x1 DUP2 MSTORE PUSH1 0x20 ADD SWAP1 DUP2 MSTORE PUSH1 0x20 ADD PUSH1 0x0 KECCAK256 PUSH1 0x0 PUSH1 0x3 DUP2 MSTORE PUSH1 0x20 ADD SWAP1 DUP2 MSTORE PUSH1 0x20 ADD PUSH1 0x0 KECCAK256 PUSH1 0x0 DUP2 SLOAD DUP1 SWAP3 SWAP2 SWAP1 PUSH3 0x4BC SWAP1 PUSH3 0xB2B JUMP JUMPDEST SWAP2 SWAP1 POP SSTORE POP PUSH1 0x1 PUSH1 0x5 PUSH1 0x40 MLOAD PUSH3 0x4D3 SWAP1 PUSH3 0xE7E JUMP JUMPDEST SWAP1 DUP2 MSTORE PUSH1 0x20 ADD PUSH1 0x40 MLOAD DUP1 SWAP2 SUB SWAP1 KECCAK256 PUSH1 0x40 MLOAD PUSH3 0x4EF SWAP1 PUSH3 0xEE5 JUMP JUMPDEST SWAP1 DUP2 MSTORE PUSH1 0x20 ADD PUSH1 0x40 MLOAD DUP1 SWAP2 SUB SWAP1 KECCAK256 PUSH1 0x40 MLOAD PUSH3 0x50B SWAP1 PUSH3 0x80A JUMP JUMPDEST SWAP1 DUP2 MSTORE PUSH1 0x20 ADD PUSH1 0x40 MLOAD DUP1 SWAP2 SUB SWAP1 KECCAK256 DUP2 SWAP1 SSTORE POP PUSH1 0x2 PUSH1 0x6 PUSH1 0x40 MLOAD PUSH3 0x52F SWAP1 PUSH3 0xE7E JUMP JUMPDEST SWAP1 DUP2 MSTORE PUSH1 0x20 ADD PUSH1 0x40 MLOAD DUP1 SWAP2 SUB SWAP1 KECCAK256 DUP2 SWAP1 SSTORE POP PUSH1 0x1 PUSH1 0x6 PUSH1 0x40 MLOAD PUSH3 0x553 SWAP1 PUSH3 0xF4C JUMP JUMPDEST SWAP1 DUP2 MSTORE PUSH1 0x20 ADD PUSH1 0x40 MLOAD DUP1 SWAP2 SUB SWAP1 KECCAK256 DUP2 SWAP1 SSTORE POP PUSH1 0x1 PUSH1 0x6 PUSH1 0x40 MLOAD PUSH3 0x577 SWAP1 PUSH3 0xFB3 JUMP JUMPDEST SWAP1 DUP2 MSTORE PUSH1 0x20 ADD PUSH1 0x40 MLOAD DUP1 SWAP2 SUB SWAP1 KECCAK256 DUP2 SWAP1 SSTORE POP PUSH1 0x8 PUSH1 0x0 DUP2 SLOAD DUP1 SWAP3 SWAP2 SWAP1 PUSH3 0x59E SWAP1 PUSH3 0xB2B JUMP JUMPDEST SWAP2 SWAP1 POP SSTORE POP PUSH1 0x9 PUSH1 0x0 PUSH1 0x2 DUP2 MSTORE PUSH1 0x20 ADD SWAP1 DUP2 MSTORE PUSH1 0x20 ADD PUSH1 0x0 KECCAK256 PUSH1 0x0 DUP2 SLOAD DUP1 SWAP3 SWAP2 SWAP1 PUSH3 0x5CA SWAP1 PUSH3 0xB2B JUMP JUMPDEST SWAP2 SWAP1 POP SSTORE POP PUSH1 0xA PUSH1 0x0 PUSH1 0x2 DUP2 MSTORE PUSH1 0x20 ADD SWAP1 DUP2 MSTORE PUSH1 0x20 ADD PUSH1 0x0 KECCAK256 PUSH1 0x0 PUSH1 0x1 DUP2 MSTORE PUSH1 0x20 ADD SWAP1 DUP2 MSTORE PUSH1 0x20 ADD PUSH1 0x0 KECCAK256 PUSH1 0x0 DUP2 SLOAD DUP1 SWAP3 SWAP2 SWAP1 PUSH3 0x608 SWAP1 PUSH3 0xB2B JUMP JUMPDEST SWAP2 SWAP1 POP SSTORE POP PUSH3 0xFCA JUMP JUMPDEST PUSH1 0x0 DUP2 SWAP1 POP SWAP3 SWAP2 POP POP JUMP JUMPDEST PUSH32 0x646F633132330000000000000000000000000000000000000000000000000000 PUSH1 0x0 DUP3 ADD MSTORE POP JUMP JUMPDEST PUSH1 0x0 PUSH3 0x656 PUSH1 0x6 DUP4 PUSH3 0x613 JUMP JUMPDEST SWAP2 POP PUSH3 0x663 DUP3 PUSH3 0x61E JUMP JUMPDEST PUSH1 0x6 DUP3 ADD SWAP1 POP SWAP2 SWAP1 POP JUMP JUMPDEST PUSH1 0x0 PUSH3 0x67B DUP3 PUSH3 0x647 JUMP JUMPDEST SWAP2 POP DUP2 SWAP1 POP SWAP2 SWAP1 POP JUMP JUMPDEST PUSH32 0x686F73706974616C410000000000000000000000000000000000000000000000 PUSH1 0x0 DUP3 ADD MSTORE POP JUMP JUMPDEST PUSH1 0x0 PUSH3 0x6BD PUSH1 0x9 DUP4 PUSH3 0x613 JUMP JUMPDEST SWAP2 POP PUSH3 0x6CA DUP3 PUSH3 0x685 JUMP JUMPDEST PUSH1 0x9 DUP3 ADD SWAP1 POP SWAP2 SWAP1 POP JUMP JUMPDEST PUSH1 0x0 PUSH3 0x6E2 DUP3 PUSH3 0x6AE JUMP JUMPDEST SWAP2 POP DUP2 SWAP1 POP SWAP2 SWAP1 POP JUMP JUMPDEST PUSH32 0x43617264696F6C6F677900000000000000000000000000000000000000000000 PUSH1 0x0 DUP3 ADD MSTORE POP JUMP JUMPDEST PUSH1 0x0 PUSH3 0x724 PUSH1 0xA DUP4 PUSH3 0x613 JUMP JUMPDEST SWAP2 POP PUSH3 0x731 DUP3 PUSH3 0x6EC JUMP JUMPDEST PUSH1 0xA DUP3 ADD SWAP1 POP SWAP2 SWAP1 POP JUMP JUMPDEST PUSH1 0x0 PUSH3 0x749 DUP3 PUSH3 0x715 JUMP JUMPDEST SWAP2 POP DUP2 SWAP1 POP SWAP2 SWAP1 POP JUMP JUMPDEST PUSH32 0x526561642D577269746500000000000000000000000000000000000000000000 PUSH1 0x0 DUP3 ADD MSTORE POP JUMP JUMPDEST PUSH1 0x0 PUSH3 0x78B PUSH1 0xA DUP4 PUSH3 0x613 JUMP JUMPDEST SWAP2 POP PUSH3 0x798 DUP3 PUSH3 0x753 JUMP JUMPDEST PUSH1 0xA DUP3 ADD SWAP1 POP SWAP2 SWAP1 POP JUMP JUMPDEST PUSH1 0x0 PUSH3 0x7B0 DUP3 PUSH3 0x77C JUMP JUMPDEST SWAP2 POP DUP2 SWAP1 POP SWAP2 SWAP1 POP JUMP JUMPDEST PUSH32 0x436C6F7564000000000000000000000000000000000000000000000000000000 PUSH1 0x0 DUP3 ADD MSTORE POP JUMP JUMPDEST PUSH1 0x0 PUSH3 0x7F2 PUSH1 0x5 DUP4 PUSH3 0x613 JUMP JUMPDEST SWAP2 POP PUSH3 0x7FF DUP3 PUSH3 0x7BA JUMP JUMPDEST PUSH1 0x5 DUP3 ADD SWAP1 POP SWAP2 SWAP1 POP JUMP JUMPDEST PUSH1 0x0 PUSH3 0x817 DUP3 PUSH3 0x7E3 JUMP JUMPDEST SWAP2 POP DUP2 SWAP1 POP SWAP2 SWAP1 POP JUMP JUMPDEST PUSH32 0x686F73706974616C420000000000000000000000000000000000000000000000 PUSH1 0x0 DUP3 ADD MSTORE POP JUMP JUMPDEST PUSH1 0x0 PUSH3 0x859 PUSH1 0x9 DUP4 PUSH3 0x613 JUMP JUMPDEST SWAP2 POP PUSH3 0x866 DUP3 PUSH3 0x821 JUMP JUMPDEST PUSH1 0x9 DUP3 ADD SWAP1 POP SWAP2 SWAP1 POP JUMP JUMPDEST PUSH1 0x0 PUSH3 0x87E DUP3 PUSH3 0x84A JUMP JUMPDEST SWAP2 POP DUP2 SWAP1 POP SWAP2 SWAP1 POP JUMP JUMPDEST PUSH32 0x4C6F63616C000000000000000000000000000000000000000000000000000000 PUSH1 0x0 DUP3 ADD MSTORE POP JUMP JUMPDEST PUSH1 0x0 PUSH3 0x8C0 PUSH1 0x5 DUP4 PUSH3 0x613 JUMP JUMPDEST SWAP2 POP PUSH3 0x8CD DUP3 PUSH3 0x888 JUMP JUMPDEST PUSH1 0x5 DUP3 ADD SWAP1 POP SWAP2 SWAP1 POP JUMP JUMPDEST PUSH1 0x0 PUSH3 0x8E5 DUP3 PUSH3 0x8B1 JUMP JUMPDEST SWAP2 POP DUP2 SWAP1 POP SWAP2 SWAP1 POP JUMP JUMPDEST PUSH32 0x6163636573732D7375626A656374000000000000000000000000000000000000 PUSH1 0x0 DUP3 ADD MSTORE POP JUMP JUMPDEST PUSH1 0x0 PUSH3 0x927 PUSH1 0xE DUP4 PUSH3 0x613 JUMP JUMPDEST SWAP2 POP PUSH3 0x934 DUP3 PUSH3 0x8EF JUMP JUMPDEST PUSH1 0xE DUP3 ADD SWAP1 POP SWAP2 SWAP1 POP JUMP JUMPDEST PUSH1 0x0 PUSH3 0x94C DUP3 PUSH3 0x918 JUMP JUMPDEST SWAP2 POP DUP2 SWAP1 POP SWAP2 SWAP1 POP JUMP JUMPDEST PUSH32 0x6973417574686F72697A65640000000000000000000000000000000000000000 PUSH1 0x0 DUP3 ADD MSTORE POP JUMP JUMPDEST PUSH1 0x0 PUSH3 0x98E PUSH1 0xC DUP4 PUSH3 0x613 JUMP JUMPDEST SWAP2 POP PUSH3 0x99B DUP3 PUSH3 0x956 JUMP JUMPDEST PUSH1 0xC DUP3 ADD SWAP1 POP SWAP2 SWAP1 POP JUMP JUMPDEST PUSH1 0x0 PUSH3 0x9B3 DUP3 PUSH3 0x97F JUMP JUMPDEST SWAP2 POP DUP2 SWAP1 POP SWAP2 SWAP1 POP JUMP JUMPDEST PUSH32 0x7472756500000000000000000000000000000000000000000000000000000000 PUSH1 0x0 DUP3 ADD MSTORE POP JUMP JUMPDEST PUSH1 0x0 PUSH3 0x9F5 PUSH1 0x4 DUP4 PUSH3 0x613 JUMP JUMPDEST SWAP2 POP PUSH3 0xA02 DUP3 PUSH3 0x9BD JUMP JUMPDEST PUSH1 0x4 DUP3 ADD SWAP1 POP SWAP2 SWAP1 POP JUMP JUMPDEST PUSH1 0x0 PUSH3 0xA1A DUP3 PUSH3 0x9E6 JUMP JUMPDEST SWAP2 POP DUP2 SWAP1 POP SWAP2 SWAP1 POP JUMP JUMPDEST PUSH32 0x6163636573732D7375626A6563746973417574686F72697A6564000000000000 PUSH1 0x0 DUP3 ADD MSTORE POP JUMP JUMPDEST PUSH1 0x0 PUSH3 0xA5C PUSH1 0x1A DUP4 PUSH3 0x613 JUMP JUMPDEST SWAP2 POP PUSH3 0xA69 DUP3 PUSH3 0xA24 JUMP JUMPDEST PUSH1 0x1A DUP3 ADD SWAP1 POP SWAP2 SWAP1 POP JUMP JUMPDEST PUSH1 0x0 PUSH3 0xA81 DUP3 PUSH3 0xA4D JUMP JUMPDEST SWAP2 POP DUP2 SWAP1 POP SWAP2 SWAP1 POP JUMP JUMPDEST PUSH32 0x6163636573732D7375626A6563746973417574686F72697A6564747275650000 PUSH1 0x0 DUP3 ADD MSTORE POP JUMP JUMPDEST PUSH1 0x0 PUSH3 0xAC3 PUSH1 0x1E DUP4 PUSH3 0x613 JUMP JUMPDEST SWAP2 POP PUSH3 0xAD0 DUP3 PUSH3 0xA8B JUMP JUMPDEST PUSH1 0x1E DUP3 ADD SWAP1 POP SWAP2 SWAP1 POP JUMP JUMPDEST PUSH1 0x0 PUSH3 0xAE8 DUP3 PUSH3 0xAB4 JUMP JUMPDEST SWAP2 POP DUP2 SWAP1 POP SWAP2 SWAP1 POP JUMP JUMPDEST PUSH32 0x4E487B7100000000000000000000000000000000000000000000000000000000 PUSH1 0x0 MSTORE PUSH1 0x11 PUSH1 0x4 MSTORE PUSH1 0x24 PUSH1 0x0 REVERT JUMPDEST PUSH1 0x0 DUP2 SWAP1 POP SWAP2 SWAP1 POP JUMP JUMPDEST PUSH1 0x0 PUSH3 0xB38 DUP3 PUSH3 0xB21 JUMP JUMPDEST SWAP2 POP PUSH32 0xFFFFFFFFFFFFFFFFFFFFFFFFFFFFFFFFFFFFFFFFFFFFFFFFFFFFFFFFFFFFFFFF DUP3 SUB PUSH3 0xB6D JUMPI PUSH3 0xB6C PUSH3 0xAF2 JUMP JUMPDEST JUMPDEST PUSH1 0x1 DUP3 ADD SWAP1 POP SWAP2 SWAP1 POP JUMP JUMPDEST PUSH32 0x7370656369616C697A6174696F6E000000000000000000000000000000000000 PUSH1 0x0 DUP3 ADD MSTORE POP JUMP JUMPDEST PUSH1 0x0 PUSH3 0xBB0 PUSH1 0xE DUP4 PUSH3 0x613 JUMP JUMPDEST SWAP2 POP PUSH3 0xBBD DUP3 PUSH3 0xB78 JUMP JUMPDEST PUSH1 0xE DUP3 ADD SWAP1 POP SWAP2 SWAP1 POP JUMP JUMPDEST PUSH1 0x0 PUSH3 0xBD5 DUP3 PUSH3 0xBA1 JUMP JUMPDEST SWAP2 POP DUP2 SWAP1 POP SWAP2 SWAP1 POP JUMP JUMPDEST PUSH32 0x6163636573732D7375626A6563747370656369616C697A6174696F6E00000000 PUSH1 0x0 DUP3 ADD MSTORE POP JUMP JUMPDEST PUSH1 0x0 PUSH3 0xC17 PUSH1 0x1C DUP4 PUSH3 0x613 JUMP JUMPDEST SWAP2 POP PUSH3 0xC24 DUP3 PUSH3 0xBDF JUMP JUMPDEST PUSH1 0x1C DUP3 ADD SWAP1 POP SWAP2 SWAP1 POP JUMP JUMPDEST PUSH1 0x0 PUSH3 0xC3C DUP3 PUSH3 0xC08 JUMP JUMPDEST SWAP2 POP DUP2 SWAP1 POP SWAP2 SWAP1 POP JUMP JUMPDEST PUSH32 0x6163636573732D7375626A6563747370656369616C697A6174696F6E43617264 PUSH1 0x0 DUP3 ADD MSTORE PUSH32 0x696F6C6F67790000000000000000000000000000000000000000000000000000 PUSH1 0x20 DUP3 ADD MSTORE POP JUMP JUMPDEST PUSH1 0x0 PUSH3 0xCA4 PUSH1 0x26 DUP4 PUSH3 0x613 JUMP JUMPDEST SWAP2 POP PUSH3 0xCB1 DUP3 PUSH3 0xC46 JUMP JUMPDEST PUSH1 0x26 DUP3 ADD SWAP1 POP SWAP2 SWAP1 POP JUMP JUMPDEST PUSH1 0x0 PUSH3 0xCC9 DUP3 PUSH3 0xC95 JUMP JUMPDEST SWAP2 POP DUP2 SWAP1 POP SWAP2 SWAP1 POP JUMP JUMPDEST PUSH32 0x6861734163636573735269676874730000000000000000000000000000000000 PUSH1 0x0 DUP3 ADD MSTORE POP JUMP JUMPDEST PUSH1 0x0 PUSH3 0xD0B PUSH1 0xF DUP4 PUSH3 0x613 JUMP JUMPDEST SWAP2 POP PUSH3 0xD18 DUP3 PUSH3 0xCD3 JUMP JUMPDEST PUSH1 0xF DUP3 ADD SWAP1 POP SWAP2 SWAP1 POP JUMP JUMPDEST PUSH1 0x0 PUSH3 0xD30 DUP3 PUSH3 0xCFC JUMP JUMPDEST SWAP2 POP DUP2 SWAP1 POP SWAP2 SWAP1 POP JUMP JUMPDEST PUSH32 0x6163636573732D7375626A656374686173416363657373526967687473000000 PUSH1 0x0 DUP3 ADD MSTORE POP JUMP JUMPDEST PUSH1 0x0 PUSH3 0xD72 PUSH1 0x1D DUP4 PUSH3 0x613 JUMP JUMPDEST SWAP2 POP PUSH3 0xD7F DUP3 PUSH3 0xD3A JUMP JUMPDEST PUSH1 0x1D DUP3 ADD SWAP1 POP SWAP2 SWAP1 POP JUMP JUMPDEST PUSH1 0x0 PUSH3 0xD97 DUP3 PUSH3 0xD63 JUMP JUMPDEST SWAP2 POP DUP2 SWAP1 POP SWAP2 SWAP1 POP JUMP JUMPDEST PUSH32 0x6163636573732D7375626A656374686173416363657373526967687473526561 PUSH1 0x0 DUP3 ADD MSTORE PUSH32 0x642D577269746500000000000000000000000000000000000000000000000000 PUSH1 0x20 DUP3 ADD MSTORE POP JUMP JUMPDEST PUSH1 0x0 PUSH3 0xDFF PUSH1 0x27 DUP4 PUSH3 0x613 JUMP JUMPDEST SWAP2 POP PUSH3 0xE0C DUP3 PUSH3 0xDA1 JUMP JUMPDEST PUSH1 0x27 DUP3 ADD SWAP1 POP SWAP2 SWAP1 POP JUMP JUMPDEST PUSH1 0x0 PUSH3 0xE24 DUP3 PUSH3 0xDF0 JUMP JUMPDEST SWAP2 POP DUP2 SWAP1 POP SWAP2 SWAP1 POP JUMP JUMPDEST PUSH32 0x6461746173657400000000000000000000000000000000000000000000000000 PUSH1 0x0 DUP3 ADD MSTORE POP JUMP JUMPDEST PUSH1 0x0 PUSH3 0xE66 PUSH1 0x7 DUP4 PUSH3 0x613 JUMP JUMPDEST SWAP2 POP PUSH3 0xE73 DUP3 PUSH3 0xE2E JUMP JUMPDEST PUSH1 0x7 DUP3 ADD SWAP1 POP SWAP2 SWAP1 POP JUMP JUMPDEST PUSH1 0x0 PUSH3 0xE8B DUP3 PUSH3 0xE57 JUMP JUMPDEST SWAP2 POP DUP2 SWAP1 POP SWAP2 SWAP1 POP JUMP JUMPDEST PUSH32 0x6C6F636174696F6E000000000000000000000000000000000000000000000000 PUSH1 0x0 DUP3 ADD MSTORE POP JUMP JUMPDEST PUSH1 0x0 PUSH3 0xECD PUSH1 0x8 DUP4 PUSH3 0x613 JUMP JUMPDEST SWAP2 POP PUSH3 0xEDA DUP3 PUSH3 0xE95 JUMP JUMPDEST PUSH1 0x8 DUP3 ADD SWAP1 POP SWAP2 SWAP1 POP JUMP JUMPDEST PUSH1 0x0 PUSH3 0xEF2 DUP3 PUSH3 0xEBE JUMP JUMPDEST SWAP2 POP DUP2 SWAP1 POP SWAP2 SWAP1 POP JUMP JUMPDEST PUSH32 0x646174617365746C6F636174696F6E0000000000000000000000000000000000 PUSH1 0x0 DUP3 ADD MSTORE POP JUMP JUMPDEST PUSH1 0x0 PUSH3 0xF34 PUSH1 0xF DUP4 PUSH3 0x613 JUMP JUMPDEST SWAP2 POP PUSH3 0xF41 DUP3 PUSH3 0xEFC JUMP JUMPDEST PUSH1 0xF DUP3 ADD SWAP1 POP SWAP2 SWAP1 POP JUMP JUMPDEST PUSH1 0x0 PUSH3 0xF59 DUP3 PUSH3 0xF25 JUMP JUMPDEST SWAP2 POP DUP2 SWAP1 POP SWAP2 SWAP1 POP JUMP JUMPDEST PUSH32 0x646174617365746C6F636174696F6E436C6F7564000000000000000000000000 PUSH1 0x0 DUP3 ADD MSTORE POP JUMP JUMPDEST PUSH1 0x0 PUSH3 0xF9B PUSH1 0x14 DUP4 PUSH3 0x613 JUMP JUMPDEST SWAP2 POP PUSH3 0xFA8 DUP3 PUSH3 0xF63 JUMP JUMPDEST PUSH1 0x14 DUP3 ADD SWAP1 POP SWAP2 SWAP1 POP JUMP JUMPDEST PUSH1 0x0 PUSH3 0xFC0 DUP3 PUSH3 0xF8C JUMP JUMPDEST SWAP2 POP DUP2 SWAP1 POP SWAP2 SWAP1 POP JUMP JUMPDEST PUSH2 0x261C DUP1 PUSH3 0xFDA PUSH1 0x0 CODECOPY PUSH1 0x0 RETURN INVALID PUSH1 0x80 PUSH1 0x40 MSTORE CALLVALUE DUP1 ISZERO PUSH2 0x10 JUMPI PUSH1 0x0 DUP1 REVERT JUMPDEST POP PUSH1 0x4 CALLDATASIZE LT PUSH2 0xA8 JUMPI PUSH1 0x0 CALLDATALOAD PUSH1 0xE0 SHR DUP1 PUSH4 0x63FFAB31 GT PUSH2 0x71 JUMPI DUP1 PUSH4 0x63FFAB31 EQ PUSH2 0x165 JUMPI DUP1 PUSH4 0x7B009128 EQ PUSH2 0x183 JUMPI DUP1 PUSH4 0x97ABA7F9 EQ PUSH2 0x19F JUMPI DUP1 PUSH4 0xA7BB5803 EQ PUSH2 0x1CF JUMPI DUP1 PUSH4 0xB446F3B2 EQ PUSH2 0x201 JUMPI DUP1 PUSH4 0xFA540801 EQ PUSH2 0x231 JUMPI PUSH2 0xA8 JUMP JUMPDEST DUP1 PUSH3 0x9FE9AC EQ PUSH2 0xAD JUMPI DUP1 PUSH4 0x2DD34F0F EQ PUSH2 0xC9 JUMPI DUP1 PUSH4 0x305F72B7 EQ PUSH2 0xF9 JUMPI DUP1 PUSH4 0x354FC470 EQ PUSH2 0x117 JUMPI DUP1 PUSH4 0x5E01EB5A EQ PUSH2 0x147 JUMPI JUMPDEST PUSH1 0x0 DUP1 REVERT JUMPDEST PUSH2 0xC7 PUSH1 0x4 DUP1 CALLDATASIZE SUB DUP2 ADD SWAP1 PUSH2 0xC2 SWAP2 SWAP1 PUSH2 0x1898 JUMP JUMPDEST PUSH2 0x261 JUMP JUMPDEST STOP JUMPDEST PUSH2 0xE3 PUSH1 0x4 DUP1 CALLDATASIZE SUB DUP2 ADD SWAP1 PUSH2 0xDE SWAP2 SWAP1 PUSH2 0x1A5C JUMP JUMPDEST PUSH2 0xB0E JUMP JUMPDEST PUSH1 0x40 MLOAD PUSH2 0xF0 SWAP2 SWAP1 PUSH2 0x1B02 JUMP JUMPDEST PUSH1 0x40 MLOAD DUP1 SWAP2 SUB SWAP1 RETURN JUMPDEST PUSH2 0x101 PUSH2 0xB6C JUMP JUMPDEST PUSH1 0x40 MLOAD PUSH2 0x10E SWAP2 SWAP1 PUSH2 0x1B36 JUMP JUMPDEST PUSH1 0x40 MLOAD DUP1 SWAP2 SUB SWAP1 RETURN JUMPDEST PUSH2 0x131 PUSH1 0x4 DUP1 CALLDATASIZE SUB DUP2 ADD SWAP1 PUSH2 0x12C SWAP2 SWAP1 PUSH2 0x1B51 JUMP JUMPDEST PUSH2 0xB72 JUMP JUMPDEST PUSH1 0x40 MLOAD PUSH2 0x13E SWAP2 SWAP1 PUSH2 0x1C19 JUMP JUMPDEST PUSH1 0x40 MLOAD DUP1 SWAP2 SUB SWAP1 RETURN JUMPDEST PUSH2 0x14F PUSH2 0xC22 JUMP JUMPDEST PUSH1 0x40 MLOAD PUSH2 0x15C SWAP2 SWAP1 PUSH2 0x1C4A JUMP JUMPDEST PUSH1 0x40 MLOAD DUP1 SWAP2 SUB SWAP1 RETURN JUMPDEST PUSH2 0x16D PUSH2 0xC2A JUMP JUMPDEST PUSH1 0x40 MLOAD PUSH2 0x17A SWAP2 SWAP1 PUSH2 0x1C4A JUMP JUMPDEST PUSH1 0x40 MLOAD DUP1 SWAP2 SUB SWAP1 RETURN JUMPDEST PUSH2 0x19D PUSH1 0x4 DUP1 CALLDATASIZE SUB DUP2 ADD SWAP1 PUSH2 0x198 SWAP2 SWAP1 PUSH2 0x1C65 JUMP JUMPDEST PUSH2 0xC42 JUMP JUMPDEST STOP JUMPDEST PUSH2 0x1B9 PUSH1 0x4 DUP1 CALLDATASIZE SUB DUP2 ADD SWAP1 PUSH2 0x1B4 SWAP2 SWAP1 PUSH2 0x1DD0 JUMP JUMPDEST PUSH2 0x150F JUMP JUMPDEST PUSH1 0x40 MLOAD PUSH2 0x1C6 SWAP2 SWAP1 PUSH2 0x1C4A JUMP JUMPDEST PUSH1 0x40 MLOAD DUP1 SWAP2 SUB SWAP1 RETURN JUMPDEST PUSH2 0x1E9 PUSH1 0x4 DUP1 CALLDATASIZE SUB DUP2 ADD SWAP1 PUSH2 0x1E4 SWAP2 SWAP1 PUSH2 0x1E2C JUMP JUMPDEST PUSH2 0x157E JUMP JUMPDEST PUSH1 0x40 MLOAD PUSH2 0x1F8 SWAP4 SWAP3 SWAP2 SWAP1 PUSH2 0x1EA0 JUMP JUMPDEST PUSH1 0x40 MLOAD DUP1 SWAP2 SUB SWAP1 RETURN JUMPDEST PUSH2 0x21B PUSH1 0x4 DUP1 CALLDATASIZE SUB DUP2 ADD SWAP1 PUSH2 0x216 SWAP2 SWAP1 PUSH2 0x1B51 JUMP JUMPDEST PUSH2 0x15E6 JUMP JUMPDEST PUSH1 0x40 MLOAD PUSH2 0x228 SWAP2 SWAP1 PUSH2 0x1ED7 JUMP JUMPDEST PUSH1 0x40 MLOAD DUP1 SWAP2 SUB SWAP1 RETURN JUMPDEST PUSH2 0x24B PUSH1 0x4 DUP1 CALLDATASIZE SUB DUP2 ADD SWAP1 PUSH2 0x246 SWAP2 SWAP1 PUSH2 0x1EF2 JUMP JUMPDEST PUSH2 0x1616 JUMP JUMPDEST PUSH1 0x40 MLOAD PUSH2 0x258 SWAP2 SWAP1 PUSH2 0x1ED7 JUMP JUMPDEST PUSH1 0x40 MLOAD DUP1 SWAP2 SUB SWAP1 RETURN JUMPDEST PUSH2 0x269 PUSH2 0x1675 JUMP JUMPDEST PUSH1 0x0 PUSH1 0x1 ISZERO ISZERO PUSH2 0x2B7 PUSH20 0x7264D9FD1A56D865D8B7D96E5251A6EFE820B483 DUP12 DUP12 DUP12 DUP12 DUP12 DUP12 PUSH1 0x40 MLOAD PUSH1 0x20 ADD PUSH2 0x2A2 SWAP7 SWAP6 SWAP5 SWAP4 SWAP3 SWAP2 SWAP1 PUSH2 0x1FA7 JUMP JUMPDEST PUSH1 0x40 MLOAD PUSH1 0x20 DUP2 DUP4 SUB SUB DUP2 MSTORE SWAP1 PUSH1 0x40 MSTORE DUP7 PUSH2 0xB0E JUMP JUMPDEST ISZERO ISZERO EQ PUSH2 0x2F9 JUMPI PUSH1 0x40 MLOAD PUSH32 0x8C379A000000000000000000000000000000000000000000000000000000000 DUP2 MSTORE PUSH1 0x4 ADD PUSH2 0x2F0 SWAP1 PUSH2 0x2082 JUMP JUMPDEST PUSH1 0x40 MLOAD DUP1 SWAP2 SUB SWAP1 REVERT JUMPDEST PUSH1 0x1 PUSH1 0x0 DUP10 PUSH1 0x40 MLOAD PUSH2 0x30B SWAP2 SWAP1 PUSH2 0x20A2 JUMP JUMPDEST SWAP1 DUP2 MSTORE PUSH1 0x20 ADD PUSH1 0x40 MLOAD DUP1 SWAP2 SUB SWAP1 KECCAK256 DUP9 PUSH1 0x40 MLOAD PUSH2 0x327 SWAP2 SWAP1 PUSH2 0x20A2 JUMP JUMPDEST SWAP1 DUP2 MSTORE PUSH1 0x20 ADD PUSH1 0x40 MLOAD DUP1 SWAP2 SUB SWAP1 KECCAK256 SLOAD SUB PUSH2 0x456 JUMPI PUSH1 0x40 MLOAD DUP1 PUSH1 0x40 ADD PUSH1 0x40 MSTORE DUP1 PUSH1 0xE DUP2 MSTORE PUSH1 0x20 ADD PUSH32 0x6163636573732D7375626A656374000000000000000000000000000000000000 DUP2 MSTORE POP DUP3 DUP3 PUSH1 0xC DUP2 LT PUSH2 0x384 JUMPI PUSH2 0x383 PUSH2 0x20B9 JUMP JUMPDEST JUMPDEST PUSH1 0x20 MUL ADD DUP2 SWAP1 MSTORE POP PUSH1 0x40 MLOAD DUP1 PUSH1 0x40 ADD PUSH1 0x40 MSTORE DUP1 PUSH1 0xC DUP2 MSTORE PUSH1 0x20 ADD PUSH32 0x6973417574686F72697A65640000000000000000000000000000000000000000 DUP2 MSTORE POP DUP3 PUSH1 0x1 DUP4 PUSH2 0x3D0 SWAP2 SWAP1 PUSH2 0x2117 JUMP JUMPDEST PUSH1 0xC DUP2 LT PUSH2 0x3E1 JUMPI PUSH2 0x3E0 PUSH2 0x20B9 JUMP JUMPDEST JUMPDEST PUSH1 0x20 MUL ADD DUP2 SWAP1 MSTORE POP PUSH1 0x40 MLOAD DUP1 PUSH1 0x40 ADD PUSH1 0x40 MSTORE DUP1 PUSH1 0x4 DUP2 MSTORE PUSH1 0x20 ADD PUSH32 0x7472756500000000000000000000000000000000000000000000000000000000 DUP2 MSTORE POP DUP3 PUSH1 0x2 DUP4 PUSH2 0x42D SWAP2 SWAP1 PUSH2 0x2117 JUMP JUMPDEST PUSH1 0xC DUP2 LT PUSH2 0x43E JUMPI PUSH2 0x43D PUSH2 0x20B9 JUMP JUMPDEST JUMPDEST PUSH1 0x20 MUL ADD DUP2 SWAP1 MSTORE POP PUSH1 0x3 DUP2 PUSH2 0x453 SWAP2 SWAP1 PUSH2 0x2117 JUMP JUMPDEST SWAP1 POP JUMPDEST PUSH1 0x1 DUP1 DUP10 PUSH1 0x40 MLOAD PUSH2 0x467 SWAP2 SWAP1 PUSH2 0x20A2 JUMP JUMPDEST SWAP1 DUP2 MSTORE PUSH1 0x20 ADD PUSH1 0x40 MLOAD DUP1 SWAP2 SUB SWAP1 KECCAK256 DUP8 PUSH1 0x40 MLOAD PUSH2 0x483 SWAP2 SWAP1 PUSH2 0x20A2 JUMP JUMPDEST SWAP1 DUP2 MSTORE PUSH1 0x20 ADD PUSH1 0x40 MLOAD DUP1 SWAP2 SUB SWAP1 KECCAK256 SLOAD SUB PUSH2 0x57D JUMPI PUSH1 0x40 MLOAD DUP1 PUSH1 0x40 ADD PUSH1 0x40 MSTORE DUP1 PUSH1 0xE DUP2 MSTORE PUSH1 0x20 ADD PUSH32 0x6163636573732D7375626A656374000000000000000000000000000000000000 DUP2 MSTORE POP DUP3 DUP3 PUSH1 0xC DUP2 LT PUSH2 0x4E0 JUMPI PUSH2 0x4DF PUSH2 0x20B9 JUMP JUMPDEST JUMPDEST PUSH1 0x20 MUL ADD DUP2 SWAP1 MSTORE POP PUSH1 0x40 MLOAD DUP1 PUSH1 0x40 ADD PUSH1 0x40 MSTORE DUP1 PUSH1 0xE DUP2 MSTORE PUSH1 0x20 ADD PUSH32 0x7370656369616C697A6174696F6E000000000000000000000000000000000000 DUP2 MSTORE POP DUP3 PUSH1 0x1 DUP4 PUSH2 0x52C SWAP2 SWAP1 PUSH2 0x2117 JUMP JUMPDEST PUSH1 0xC DUP2 LT PUSH2 0x53D JUMPI PUSH2 0x53C PUSH2 0x20B9 JUMP JUMPDEST JUMPDEST PUSH1 0x20 MUL ADD DUP2 SWAP1 MSTORE POP DUP6 DUP3 PUSH1 0x2 DUP4 PUSH2 0x554 SWAP2 SWAP1 PUSH2 0x2117 JUMP JUMPDEST PUSH1 0xC DUP2 LT PUSH2 0x565 JUMPI PUSH2 0x564 PUSH2 0x20B9 JUMP JUMPDEST JUMPDEST PUSH1 0x20 MUL ADD DUP2 SWAP1 MSTORE POP PUSH1 0x3 DUP2 PUSH2 0x57A SWAP2 SWAP1 PUSH2 0x2117 JUMP JUMPDEST SWAP1 POP JUMPDEST PUSH1 0x1 PUSH1 0x2 DUP10 PUSH1 0x40 MLOAD PUSH2 0x58F SWAP2 SWAP1 PUSH2 0x20A2 JUMP JUMPDEST SWAP1 DUP2 MSTORE PUSH1 0x20 ADD PUSH1 0x40 MLOAD DUP1 SWAP2 SUB SWAP1 KECCAK256 DUP7 PUSH1 0x40 MLOAD PUSH2 0x5AB SWAP2 SWAP1 PUSH2 0x20A2 JUMP JUMPDEST SWAP1 DUP2 MSTORE PUSH1 0x20 ADD PUSH1 0x40 MLOAD DUP1 SWAP2 SUB SWAP1 KECCAK256 SLOAD SUB PUSH2 0x6A5 JUMPI PUSH1 0x40 MLOAD DUP1 PUSH1 0x40 ADD PUSH1 0x40 MSTORE DUP1 PUSH1 0xE DUP2 MSTORE PUSH1 0x20 ADD PUSH32 0x6163636573732D7375626A656374000000000000000000000000000000000000 DUP2 MSTORE POP DUP3 DUP3 PUSH1 0xC DUP2 LT PUSH2 0x608 JUMPI PUSH2 0x607 PUSH2 0x20B9 JUMP JUMPDEST JUMPDEST PUSH1 0x20 MUL ADD DUP2 SWAP1 MSTORE POP PUSH1 0x40 MLOAD DUP1 PUSH1 0x40 ADD PUSH1 0x40 MSTORE DUP1 PUSH1 0xF DUP2 MSTORE PUSH1 0x20 ADD PUSH32 0x6861734163636573735269676874730000000000000000000000000000000000 DUP2 MSTORE POP DUP3 PUSH1 0x1 DUP4 PUSH2 0x654 SWAP2 SWAP1 PUSH2 0x2117 JUMP JUMPDEST PUSH1 0xC DUP2 LT PUSH2 0x665 JUMPI PUSH2 0x664 PUSH2 0x20B9 JUMP JUMPDEST JUMPDEST PUSH1 0x20 MUL ADD DUP2 SWAP1 MSTORE POP DUP5 DUP3 PUSH1 0x2 DUP4 PUSH2 0x67C SWAP2 SWAP1 PUSH2 0x2117 JUMP JUMPDEST PUSH1 0xC DUP2 LT PUSH2 0x68D JUMPI PUSH2 0x68C PUSH2 0x20B9 JUMP JUMPDEST JUMPDEST PUSH1 0x20 MUL ADD DUP2 SWAP1 MSTORE POP PUSH1 0x3 DUP2 PUSH2 0x6A2 SWAP2 SWAP1 PUSH2 0x2117 JUMP JUMPDEST SWAP1 POP JUMPDEST PUSH1 0x1 PUSH1 0x3 DUP9 PUSH1 0x40 MLOAD PUSH2 0x6B7 SWAP2 SWAP1 PUSH2 0x20A2 JUMP JUMPDEST SWAP1 DUP2 MSTORE PUSH1 0x20 ADD PUSH1 0x40 MLOAD DUP1 SWAP2 SUB SWAP1 KECCAK256 DUP6 PUSH1 0x40 MLOAD PUSH2 0x6D3 SWAP2 SWAP1 PUSH2 0x20A2 JUMP JUMPDEST SWAP1 DUP2 MSTORE PUSH1 0x20 ADD PUSH1 0x40 MLOAD DUP1 SWAP2 SUB SWAP1 KECCAK256 SLOAD SUB PUSH2 0x7CD JUMPI PUSH1 0x40 MLOAD DUP1 PUSH1 0x40 ADD PUSH1 0x40 MSTORE DUP1 PUSH1 0x7 DUP2 MSTORE PUSH1 0x20 ADD PUSH32 0x6461746173657400000000000000000000000000000000000000000000000000 DUP2 MSTORE POP DUP3 DUP3 PUSH1 0xC DUP2 LT PUSH2 0x730 JUMPI PUSH2 0x72F PUSH2 0x20B9 JUMP JUMPDEST JUMPDEST PUSH1 0x20 MUL ADD DUP2 SWAP1 MSTORE POP PUSH1 0x40 MLOAD DUP1 PUSH1 0x40 ADD PUSH1 0x40 MSTORE DUP1 PUSH1 0x8 DUP2 MSTORE PUSH1 0x20 ADD PUSH32 0x6C6F636174696F6E000000000000000000000000000000000000000000000000 DUP2 MSTORE POP DUP3 PUSH1 0x1 DUP4 PUSH2 0x77C SWAP2 SWAP1 PUSH2 0x2117 JUMP JUMPDEST PUSH1 0xC DUP2 LT PUSH2 0x78D JUMPI PUSH2 0x78C PUSH2 0x20B9 JUMP JUMPDEST JUMPDEST PUSH1 0x20 MUL ADD DUP2 SWAP1 MSTORE POP DUP4 DUP3 PUSH1 0x2 DUP4 PUSH2 0x7A4 SWAP2 SWAP1 PUSH2 0x2117 JUMP JUMPDEST PUSH1 0xC DUP2 LT PUSH2 0x7B5 JUMPI PUSH2 0x7B4 PUSH2 0x20B9 JUMP JUMPDEST JUMPDEST PUSH1 0x20 MUL ADD DUP2 SWAP1 MSTORE POP PUSH1 0x3 DUP2 PUSH2 0x7CA SWAP2 SWAP1 PUSH2 0x2117 JUMP JUMPDEST SWAP1 POP JUMPDEST PUSH1 0x0 JUMPDEST DUP2 DUP2 LT ISZERO PUSH2 0x985 JUMPI PUSH1 0x0 DUP4 DUP3 PUSH1 0xC DUP2 LT PUSH2 0x7ED JUMPI PUSH2 0x7EC PUSH2 0x20B9 JUMP JUMPDEST JUMPDEST PUSH1 0x20 MUL ADD MLOAD SWAP1 POP PUSH1 0x0 DUP5 PUSH1 0x1 DUP5 PUSH2 0x804 SWAP2 SWAP1 PUSH2 0x2117 JUMP JUMPDEST PUSH1 0xC DUP2 LT PUSH2 0x815 JUMPI PUSH2 0x814 PUSH2 0x20B9 JUMP JUMPDEST JUMPDEST PUSH1 0x20 MUL ADD MLOAD SWAP1 POP PUSH1 0x0 DUP6 PUSH1 0x2 DUP6 PUSH2 0x82C SWAP2 SWAP1 PUSH2 0x2117 JUMP JUMPDEST PUSH1 0xC DUP2 LT PUSH2 0x83D JUMPI PUSH2 0x83C PUSH2 0x20B9 JUMP JUMPDEST JUMPDEST PUSH1 0x20 MUL ADD MLOAD SWAP1 POP PUSH1 0x1 PUSH1 0xD DUP15 PUSH1 0x40 MLOAD PUSH2 0x856 SWAP2 SWAP1 PUSH2 0x20A2 JUMP JUMPDEST SWAP1 DUP2 MSTORE PUSH1 0x20 ADD PUSH1 0x40 MLOAD DUP1 SWAP2 SUB SWAP1 KECCAK256 DUP5 PUSH1 0x40 MLOAD PUSH2 0x872 SWAP2 SWAP1 PUSH2 0x20A2 JUMP JUMPDEST SWAP1 DUP2 MSTORE PUSH1 0x20 ADD PUSH1 0x40 MLOAD DUP1 SWAP2 SUB SWAP1 KECCAK256 DUP4 PUSH1 0x40 MLOAD PUSH2 0x88E SWAP2 SWAP1 PUSH2 0x20A2 JUMP JUMPDEST SWAP1 DUP2 MSTORE PUSH1 0x20 ADD PUSH1 0x40 MLOAD DUP1 SWAP2 SUB SWAP1 KECCAK256 SLOAD SUB PUSH2 0x96E JUMPI PUSH1 0x1 PUSH1 0x7 PUSH1 0x0 PUSH1 0x6 DUP7 PUSH1 0x40 MLOAD PUSH2 0x8B8 SWAP2 SWAP1 PUSH2 0x20A2 JUMP JUMPDEST SWAP1 DUP2 MSTORE PUSH1 0x20 ADD PUSH1 0x40 MLOAD DUP1 SWAP2 SUB SWAP1 KECCAK256 SLOAD DUP2 MSTORE PUSH1 0x20 ADD SWAP1 DUP2 MSTORE PUSH1 0x20 ADD PUSH1 0x0 KECCAK256 PUSH1 0x0 PUSH1 0x6 PUSH2 0x8F3 DUP8 DUP8 PUSH1 0x40 MLOAD DUP1 PUSH1 0x20 ADD PUSH1 0x40 MSTORE DUP1 PUSH1 0x0 DUP2 MSTORE POP PUSH2 0x1646 JUMP JUMPDEST PUSH1 0x40 MLOAD PUSH2 0x900 SWAP2 SWAP1 PUSH2 0x20A2 JUMP JUMPDEST SWAP1 DUP2 MSTORE PUSH1 0x20 ADD PUSH1 0x40 MLOAD DUP1 SWAP2 SUB SWAP1 KECCAK256 SLOAD DUP2 MSTORE PUSH1 0x20 ADD SWAP1 DUP2 MSTORE PUSH1 0x20 ADD PUSH1 0x0 KECCAK256 PUSH1 0x0 PUSH1 0x6 PUSH2 0x92C DUP8 DUP8 DUP8 PUSH2 0x1646 JUMP JUMPDEST PUSH1 0x40 MLOAD PUSH2 0x939 SWAP2 SWAP1 PUSH2 0x20A2 JUMP JUMPDEST SWAP1 DUP2 MSTORE PUSH1 0x20 ADD PUSH1 0x40 MLOAD DUP1 SWAP2 SUB SWAP1 KECCAK256 SLOAD DUP2 MSTORE PUSH1 0x20 ADD SWAP1 DUP2 MSTORE PUSH1 0x20 ADD PUSH1 0x0 KECCAK256 PUSH1 0x0 PUSH2 0x100 EXP DUP2 SLOAD DUP2 PUSH1 0xFF MUL NOT AND SWAP1 DUP4 ISZERO ISZERO MUL OR SWAP1 SSTORE POP JUMPDEST POP POP POP PUSH1 0x3 DUP2 PUSH2 0x97E SWAP2 SWAP1 PUSH2 0x2117 JUMP JUMPDEST SWAP1 POP PUSH2 0x7D0 JUMP JUMPDEST POP PUSH1 0x0 PUSH1 0x1 SWAP1 POP PUSH1 0x0 PUSH1 0x1 SWAP1 POP JUMPDEST PUSH1 0x8 SLOAD DUP2 GT PUSH2 0xACA JUMPI PUSH1 0x0 PUSH1 0x1 SWAP1 POP JUMPDEST PUSH1 0x9 PUSH1 0x0 DUP4 DUP2 MSTORE PUSH1 0x20 ADD SWAP1 DUP2 MSTORE PUSH1 0x20 ADD PUSH1 0x0 KECCAK256 SLOAD DUP2 GT PUSH2 0xAB6 JUMPI PUSH1 0x0 PUSH1 0x1 SWAP1 POP JUMPDEST PUSH1 0xA PUSH1 0x0 DUP5 DUP2 MSTORE PUSH1 0x20 ADD SWAP1 DUP2 MSTORE PUSH1 0x20 ADD PUSH1 0x0 KECCAK256 PUSH1 0x0 DUP4 DUP2 MSTORE PUSH1 0x20 ADD SWAP1 DUP2 MSTORE PUSH1 0x20 ADD PUSH1 0x0 KECCAK256 SLOAD DUP2 GT PUSH2 0xAA2 JUMPI PUSH1 0x7 PUSH1 0x0 DUP5 DUP2 MSTORE PUSH1 0x20 ADD SWAP1 DUP2 MSTORE PUSH1 0x20 ADD PUSH1 0x0 KECCAK256 PUSH1 0x0 DUP4 DUP2 MSTORE PUSH1 0x20 ADD SWAP1 DUP2 MSTORE PUSH1 0x20 ADD PUSH1 0x0 KECCAK256 PUSH1 0x0 DUP3 DUP2 MSTORE PUSH1 0x20 ADD SWAP1 DUP2 MSTORE PUSH1 0x20 ADD PUSH1 0x0 KECCAK256 PUSH1 0x0 SWAP1 SLOAD SWAP1 PUSH2 0x100 EXP SWAP1 DIV PUSH1 0xFF AND ISZERO PUSH2 0xA8A JUMPI PUSH1 0x0 PUSH1 0x7 PUSH1 0x0 DUP6 DUP2 MSTORE PUSH1 0x20 ADD SWAP1 DUP2 MSTORE PUSH1 0x20 ADD PUSH1 0x0 KECCAK256 PUSH1 0x0 DUP5 DUP2 MSTORE PUSH1 0x20 ADD SWAP1 DUP2 MSTORE PUSH1 0x20 ADD PUSH1 0x0 KECCAK256 PUSH1 0x0 DUP4 DUP2 MSTORE PUSH1 0x20 ADD SWAP1 DUP2 MSTORE PUSH1 0x20 ADD PUSH1 0x0 KECCAK256 PUSH1 0x0 PUSH2 0x100 EXP DUP2 SLOAD DUP2 PUSH1 0xFF MUL NOT AND SWAP1 DUP4 ISZERO ISZERO MUL OR SWAP1 SSTORE POP PUSH2 0xA8F JUMP JUMPDEST PUSH1 0x0 SWAP4 POP JUMPDEST DUP1 DUP1 PUSH2 0xA9A SWAP1 PUSH2 0x214B JUMP JUMPDEST SWAP2 POP POP PUSH2 0x9C4 JUMP JUMPDEST POP DUP1 DUP1 PUSH2 0xAAE SWAP1 PUSH2 0x214B JUMP JUMPDEST SWAP2 POP POP PUSH2 0x9A3 JUMP JUMPDEST POP DUP1 DUP1 PUSH2 0xAC2 SWAP1 PUSH2 0x214B JUMP JUMPDEST SWAP2 POP POP PUSH2 0x993 JUMP JUMPDEST POP PUSH32 0x5CD542CCD54CABC7CEA4B1ABD891216618E038CAC6F207CE46ADFCBF2E6550A DUP2 PUSH1 0x40 MLOAD PUSH2 0xAFA SWAP2 SWAP1 PUSH2 0x1B02 JUMP JUMPDEST PUSH1 0x40 MLOAD DUP1 SWAP2 SUB SWAP1 LOG1 POP POP POP POP POP POP POP POP POP POP JUMP JUMPDEST PUSH1 0x0 DUP1 PUSH2 0xB1A DUP5 PUSH2 0x15E6 JUMP JUMPDEST SWAP1 POP PUSH1 0x0 PUSH2 0xB27 DUP3 PUSH2 0x1616 JUMP JUMPDEST SWAP1 POP DUP6 PUSH20 0xFFFFFFFFFFFFFFFFFFFFFFFFFFFFFFFFFFFFFFFF AND PUSH2 0xB4A DUP3 DUP7 PUSH2 0x150F JUMP JUMPDEST PUSH20 0xFFFFFFFFFFFFFFFFFFFFFFFFFFFFFFFFFFFFFFFF AND EQ SWAP3 POP POP POP SWAP4 SWAP3 POP POP POP JUMP JUMPDEST PUSH1 0x4 SLOAD DUP2 JUMP JUMPDEST PUSH1 0x60 PUSH1 0xC DUP3 PUSH1 0x40 MLOAD PUSH2 0xB84 SWAP2 SWAP1 PUSH2 0x20A2 JUMP JUMPDEST SWAP1 DUP2 MSTORE PUSH1 0x20 ADD PUSH1 0x40 MLOAD DUP1 SWAP2 SUB SWAP1 KECCAK256 DUP1 SLOAD PUSH2 0xB9D SWAP1 PUSH2 0x21C2 JUMP JUMPDEST DUP1 PUSH1 0x1F ADD PUSH1 0x20 DUP1 SWAP2 DIV MUL PUSH1 0x20 ADD PUSH1 0x40 MLOAD SWAP1 DUP2 ADD PUSH1 0x40 MSTORE DUP1 SWAP3 SWAP2 SWAP1 DUP2 DUP2 MSTORE PUSH1 0x20 ADD DUP3 DUP1 SLOAD PUSH2 0xBC9 SWAP1 PUSH2 0x21C2 JUMP JUMPDEST DUP1 ISZERO PUSH2 0xC16 JUMPI DUP1 PUSH1 0x1F LT PUSH2 0xBEB JUMPI PUSH2 0x100 DUP1 DUP4 SLOAD DIV MUL DUP4 MSTORE SWAP2 PUSH1 0x20 ADD SWAP2 PUSH2 0xC16 JUMP JUMPDEST DUP3 ADD SWAP2 SWAP1 PUSH1 0x0 MSTORE PUSH1 0x20 PUSH1 0x0 KECCAK256 SWAP1 JUMPDEST DUP2 SLOAD DUP2 MSTORE SWAP1 PUSH1 0x1 ADD SWAP1 PUSH1 0x20 ADD DUP1 DUP4 GT PUSH2 0xBF9 JUMPI DUP3 SWAP1 SUB PUSH1 0x1F AND DUP3 ADD SWAP2 JUMPDEST POP POP POP POP POP SWAP1 POP SWAP2 SWAP1 POP JUMP JUMPDEST PUSH1 0x0 CALLER SWAP1 POP SWAP1 JUMP JUMPDEST PUSH20 0x7264D9FD1A56D865D8B7D96E5251A6EFE820B483 DUP2 JUMP JUMPDEST PUSH2 0xC4A PUSH2 0x1675 JUMP JUMPDEST PUSH1 0x0 PUSH1 0x1 PUSH1 0x0 DUP9 PUSH1 0x40 MLOAD PUSH2 0xC5E SWAP2 SWAP1 PUSH2 0x20A2 JUMP JUMPDEST SWAP1 DUP2 MSTORE PUSH1 0x20 ADD PUSH1 0x40 MLOAD DUP1 SWAP2 SUB SWAP1 KECCAK256 DUP8 PUSH1 0x40 MLOAD PUSH2 0xC7A SWAP2 SWAP1 PUSH2 0x20A2 JUMP JUMPDEST SWAP1 DUP2 MSTORE PUSH1 0x20 ADD PUSH1 0x40 MLOAD DUP1 SWAP2 SUB SWAP1 KECCAK256 SLOAD SUB PUSH2 0xDA9 JUMPI PUSH1 0x40 MLOAD DUP1 PUSH1 0x40 ADD PUSH1 0x40 MSTORE DUP1 PUSH1 0xE DUP2 MSTORE PUSH1 0x20 ADD PUSH32 0x6163636573732D7375626A656374000000000000000000000000000000000000 DUP2 MSTORE POP DUP3 DUP3 PUSH1 0xC DUP2 LT PUSH2 0xCD7 JUMPI PUSH2 0xCD6 PUSH2 0x20B9 JUMP JUMPDEST JUMPDEST PUSH1 0x20 MUL ADD DUP2 SWAP1 MSTORE POP PUSH1 0x40 MLOAD DUP1 PUSH1 0x40 ADD PUSH1 0x40 MSTORE DUP1 PUSH1 0xC DUP2 MSTORE PUSH1 0x20 ADD PUSH32 0x6973417574686F72697A65640000000000000000000000000000000000000000 DUP2 MSTORE POP DUP3 PUSH1 0x1 DUP4 PUSH2 0xD23 SWAP2 SWAP1 PUSH2 0x2117 JUMP JUMPDEST PUSH1 0xC DUP2 LT PUSH2 0xD34 JUMPI PUSH2 0xD33 PUSH2 0x20B9 JUMP JUMPDEST JUMPDEST PUSH1 0x20 MUL ADD DUP2 SWAP1 MSTORE POP PUSH1 0x40 MLOAD DUP1 PUSH1 0x40 ADD PUSH1 0x40 MSTORE DUP1 PUSH1 0x4 DUP2 MSTORE PUSH1 0x20 ADD PUSH32 0x7472756500000000000000000000000000000000000000000000000000000000 DUP2 MSTORE POP DUP3 PUSH1 0x2 DUP4 PUSH2 0xD80 SWAP2 SWAP1 PUSH2 0x2117 JUMP JUMPDEST PUSH1 0xC DUP2 LT PUSH2 0xD91 JUMPI PUSH2 0xD90 PUSH2 0x20B9 JUMP JUMPDEST JUMPDEST PUSH1 0x20 MUL ADD DUP2 SWAP1 MSTORE POP PUSH1 0x3 DUP2 PUSH2 0xDA6 SWAP2 SWAP1 PUSH2 0x2117 JUMP JUMPDEST SWAP1 POP JUMPDEST PUSH1 0x1 DUP1 DUP9 PUSH1 0x40 MLOAD PUSH2 0xDBA SWAP2 SWAP1 PUSH2 0x20A2 JUMP JUMPDEST SWAP1 DUP2 MSTORE PUSH1 0x20 ADD PUSH1 0x40 MLOAD DUP1 SWAP2 SUB SWAP1 KECCAK256 DUP7 PUSH1 0x40 MLOAD PUSH2 0xDD6 SWAP2 SWAP1 PUSH2 0x20A2 JUMP JUMPDEST SWAP1 DUP2 MSTORE PUSH1 0x20 ADD PUSH1 0x40 MLOAD DUP1 SWAP2 SUB SWAP1 KECCAK256 SLOAD SUB PUSH2 0xED0 JUMPI PUSH1 0x40 MLOAD DUP1 PUSH1 0x40 ADD PUSH1 0x40 MSTORE DUP1 PUSH1 0xE DUP2 MSTORE PUSH1 0x20 ADD PUSH32 0x6163636573732D7375626A656374000000000000000000000000000000000000 DUP2 MSTORE POP DUP3 DUP3 PUSH1 0xC DUP2 LT PUSH2 0xE33 JUMPI PUSH2 0xE32 PUSH2 0x20B9 JUMP JUMPDEST JUMPDEST PUSH1 0x20 MUL ADD DUP2 SWAP1 MSTORE POP PUSH1 0x40 MLOAD DUP1 PUSH1 0x40 ADD PUSH1 0x40 MSTORE DUP1 PUSH1 0xE DUP2 MSTORE PUSH1 0x20 ADD PUSH32 0x7370656369616C697A6174696F6E000000000000000000000000000000000000 DUP2 MSTORE POP DUP3 PUSH1 0x1 DUP4 PUSH2 0xE7F SWAP2 SWAP1 PUSH2 0x2117 JUMP JUMPDEST PUSH1 0xC DUP2 LT PUSH2 0xE90 JUMPI PUSH2 0xE8F PUSH2 0x20B9 JUMP JUMPDEST JUMPDEST PUSH1 0x20 MUL ADD DUP2 SWAP1 MSTORE POP DUP5 DUP3 PUSH1 0x2 DUP4 PUSH2 0xEA7 SWAP2 SWAP1 PUSH2 0x2117 JUMP JUMPDEST PUSH1 0xC DUP2 LT PUSH2 0xEB8 JUMPI PUSH2 0xEB7 PUSH2 0x20B9 JUMP JUMPDEST JUMPDEST PUSH1 0x20 MUL ADD DUP2 SWAP1 MSTORE POP PUSH1 0x3 DUP2 PUSH2 0xECD SWAP2 SWAP1 PUSH2 0x2117 JUMP JUMPDEST SWAP1 POP JUMPDEST PUSH1 0x1 PUSH1 0x2 DUP9 PUSH1 0x40 MLOAD PUSH2 0xEE2 SWAP2 SWAP1 PUSH2 0x20A2 JUMP JUMPDEST SWAP1 DUP2 MSTORE PUSH1 0x20 ADD PUSH1 0x40 MLOAD DUP1 SWAP2 SUB SWAP1 KECCAK256 DUP6 PUSH1 0x40 MLOAD PUSH2 0xEFE SWAP2 SWAP1 PUSH2 0x20A2 JUMP JUMPDEST SWAP1 DUP2 MSTORE PUSH1 0x20 ADD PUSH1 0x40 MLOAD DUP1 SWAP2 SUB SWAP1 KECCAK256 SLOAD SUB PUSH2 0xFF8 JUMPI PUSH1 0x40 MLOAD DUP1 PUSH1 0x40 ADD PUSH1 0x40 MSTORE DUP1 PUSH1 0xE DUP2 MSTORE PUSH1 0x20 ADD PUSH32 0x6163636573732D7375626A656374000000000000000000000000000000000000 DUP2 MSTORE POP DUP3 DUP3 PUSH1 0xC DUP2 LT PUSH2 0xF5B JUMPI PUSH2 0xF5A PUSH2 0x20B9 JUMP JUMPDEST JUMPDEST PUSH1 0x20 MUL ADD DUP2 SWAP1 MSTORE POP PUSH1 0x40 MLOAD DUP1 PUSH1 0x40 ADD PUSH1 0x40 MSTORE DUP1 PUSH1 0xF DUP2 MSTORE PUSH1 0x20 ADD PUSH32 0x6861734163636573735269676874730000000000000000000000000000000000 DUP2 MSTORE POP DUP3 PUSH1 0x1 DUP4 PUSH2 0xFA7 SWAP2 SWAP1 PUSH2 0x2117 JUMP JUMPDEST PUSH1 0xC DUP2 LT PUSH2 0xFB8 JUMPI PUSH2 0xFB7 PUSH2 0x20B9 JUMP JUMPDEST JUMPDEST PUSH1 0x20 MUL ADD DUP2 SWAP1 MSTORE POP DUP4 DUP3 PUSH1 0x2 DUP4 PUSH2 0xFCF SWAP2 SWAP1 PUSH2 0x2117 JUMP JUMPDEST PUSH1 0xC DUP2 LT PUSH2 0xFE0 JUMPI PUSH2 0xFDF PUSH2 0x20B9 JUMP JUMPDEST JUMPDEST PUSH1 0x20 MUL ADD DUP2 SWAP1 MSTORE POP PUSH1 0x3 DUP2 PUSH2 0xFF5 SWAP2 SWAP1 PUSH2 0x2117 JUMP JUMPDEST SWAP1 POP JUMPDEST PUSH1 0x1 PUSH1 0x3 DUP8 PUSH1 0x40 MLOAD PUSH2 0x100A SWAP2 SWAP1 PUSH2 0x20A2 JUMP JUMPDEST SWAP1 DUP2 MSTORE PUSH1 0x20 ADD PUSH1 0x40 MLOAD DUP1 SWAP2 SUB SWAP1 KECCAK256 DUP5 PUSH1 0x40 MLOAD PUSH2 0x1026 SWAP2 SWAP1 PUSH2 0x20A2 JUMP JUMPDEST SWAP1 DUP2 MSTORE PUSH1 0x20 ADD PUSH1 0x40 MLOAD DUP1 SWAP2 SUB SWAP1 KECCAK256 SLOAD SUB PUSH2 0x1120 JUMPI PUSH1 0x40 MLOAD DUP1 PUSH1 0x40 ADD PUSH1 0x40 MSTORE DUP1 PUSH1 0x7 DUP2 MSTORE PUSH1 0x20 ADD PUSH32 0x6461746173657400000000000000000000000000000000000000000000000000 DUP2 MSTORE POP DUP3 DUP3 PUSH1 0xC DUP2 LT PUSH2 0x1083 JUMPI PUSH2 0x1082 PUSH2 0x20B9 JUMP JUMPDEST JUMPDEST PUSH1 0x20 MUL ADD DUP2 SWAP1 MSTORE POP PUSH1 0x40 MLOAD DUP1 PUSH1 0x40 ADD PUSH1 0x40 MSTORE DUP1 PUSH1 0x8 DUP2 MSTORE PUSH1 0x20 ADD PUSH32 0x6C6F636174696F6E000000000000000000000000000000000000000000000000 DUP2 MSTORE POP DUP3 PUSH1 0x1 DUP4 PUSH2 0x10CF SWAP2 SWAP1 PUSH2 0x2117 JUMP JUMPDEST PUSH1 0xC DUP2 LT PUSH2 0x10E0 JUMPI PUSH2 0x10DF PUSH2 0x20B9 JUMP JUMPDEST JUMPDEST PUSH1 0x20 MUL ADD DUP2 SWAP1 MSTORE POP DUP3 DUP3 PUSH1 0x2 DUP4 PUSH2 0x10F7 SWAP2 SWAP1 PUSH2 0x2117 JUMP JUMPDEST PUSH1 0xC DUP2 LT PUSH2 0x1108 JUMPI PUSH2 0x1107 PUSH2 0x20B9 JUMP JUMPDEST JUMPDEST PUSH1 0x20 MUL ADD DUP2 SWAP1 MSTORE POP PUSH1 0x3 DUP2 PUSH2 0x111D SWAP2 SWAP1 PUSH2 0x2117 JUMP JUMPDEST SWAP1 POP JUMPDEST PUSH1 0x0 JUMPDEST DUP2 DUP2 LT ISZERO PUSH2 0x12D8 JUMPI PUSH1 0x0 DUP4 DUP3 PUSH1 0xC DUP2 LT PUSH2 0x1140 JUMPI PUSH2 0x113F PUSH2 0x20B9 JUMP JUMPDEST JUMPDEST PUSH1 0x20 MUL ADD MLOAD SWAP1 POP PUSH1 0x0 DUP5 PUSH1 0x1 DUP5 PUSH2 0x1157 SWAP2 SWAP1 PUSH2 0x2117 JUMP JUMPDEST PUSH1 0xC DUP2 LT PUSH2 0x1168 JUMPI PUSH2 0x1167 PUSH2 0x20B9 JUMP JUMPDEST JUMPDEST PUSH1 0x20 MUL ADD MLOAD SWAP1 POP PUSH1 0x0 DUP6 PUSH1 0x2 DUP6 PUSH2 0x117F SWAP2 SWAP1 PUSH2 0x2117 JUMP JUMPDEST PUSH1 0xC DUP2 LT PUSH2 0x1190 JUMPI PUSH2 0x118F PUSH2 0x20B9 JUMP JUMPDEST JUMPDEST PUSH1 0x20 MUL ADD MLOAD SWAP1 POP PUSH1 0x1 PUSH1 0xD DUP14 PUSH1 0x40 MLOAD PUSH2 0x11A9 SWAP2 SWAP1 PUSH2 0x20A2 JUMP JUMPDEST SWAP1 DUP2 MSTORE PUSH1 0x20 ADD PUSH1 0x40 MLOAD DUP1 SWAP2 SUB SWAP1 KECCAK256 DUP5 PUSH1 0x40 MLOAD PUSH2 0x11C5 SWAP2 SWAP1 PUSH2 0x20A2 JUMP JUMPDEST SWAP1 DUP2 MSTORE PUSH1 0x20 ADD PUSH1 0x40 MLOAD DUP1 SWAP2 SUB SWAP1 KECCAK256 DUP4 PUSH1 0x40 MLOAD PUSH2 0x11E1 SWAP2 SWAP1 PUSH2 0x20A2 JUMP JUMPDEST SWAP1 DUP2 MSTORE PUSH1 0x20 ADD PUSH1 0x40 MLOAD DUP1 SWAP2 SUB SWAP1 KECCAK256 SLOAD SUB PUSH2 0x12C1 JUMPI PUSH1 0x1 PUSH1 0x7 PUSH1 0x0 PUSH1 0x6 DUP7 PUSH1 0x40 MLOAD PUSH2 0x120B SWAP2 SWAP1 PUSH2 0x20A2 JUMP JUMPDEST SWAP1 DUP2 MSTORE PUSH1 0x20 ADD PUSH1 0x40 MLOAD DUP1 SWAP2 SUB SWAP1 KECCAK256 SLOAD DUP2 MSTORE PUSH1 0x20 ADD SWAP1 DUP2 MSTORE PUSH1 0x20 ADD PUSH1 0x0 KECCAK256 PUSH1 0x0 PUSH1 0x6 PUSH2 0x1246 DUP8 DUP8 PUSH1 0x40 MLOAD DUP1 PUSH1 0x20 ADD PUSH1 0x40 MSTORE DUP1 PUSH1 0x0 DUP2 MSTORE POP PUSH2 0x1646 JUMP JUMPDEST PUSH1 0x40 MLOAD PUSH2 0x1253 SWAP2 SWAP1 PUSH2 0x20A2 JUMP JUMPDEST SWAP1 DUP2 MSTORE PUSH1 0x20 ADD PUSH1 0x40 MLOAD DUP1 SWAP2 SUB SWAP1 KECCAK256 SLOAD DUP2 MSTORE PUSH1 0x20 ADD SWAP1 DUP2 MSTORE PUSH1 0x20 ADD PUSH1 0x0 KECCAK256 PUSH1 0x0 PUSH1 0x6 PUSH2 0x127F DUP8 DUP8 DUP8 PUSH2 0x1646 JUMP JUMPDEST PUSH1 0x40 MLOAD PUSH2 0x128C SWAP2 SWAP1 PUSH2 0x20A2 JUMP JUMPDEST SWAP1 DUP2 MSTORE PUSH1 0x20 ADD PUSH1 0x40 MLOAD DUP1 SWAP2 SUB SWAP1 KECCAK256 SLOAD DUP2 MSTORE PUSH1 0x20 ADD SWAP1 DUP2 MSTORE PUSH1 0x20 ADD PUSH1 0x0 KECCAK256 PUSH1 0x0 PUSH2 0x100 EXP DUP2 SLOAD DUP2 PUSH1 0xFF MUL NOT AND SWAP1 DUP4 ISZERO ISZERO MUL OR SWAP1 SSTORE POP JUMPDEST POP POP POP PUSH1 0x3 DUP2 PUSH2 0x12D1 SWAP2 SWAP1 PUSH2 0x2117 JUMP JUMPDEST SWAP1 POP PUSH2 0x1123 JUMP JUMPDEST POP PUSH1 0x0 PUSH1 0x1 SWAP1 POP PUSH1 0x0 PUSH1 0x1 SWAP1 POP JUMPDEST PUSH1 0x8 SLOAD DUP2 GT PUSH2 0x141D JUMPI PUSH1 0x0 PUSH1 0x1 SWAP1 POP JUMPDEST PUSH1 0x9 PUSH1 0x0 DUP4 DUP2 MSTORE PUSH1 0x20 ADD SWAP1 DUP2 MSTORE PUSH1 0x20 ADD PUSH1 0x0 KECCAK256 SLOAD DUP2 GT PUSH2 0x1409 JUMPI PUSH1 0x0 PUSH1 0x1 SWAP1 POP JUMPDEST PUSH1 0xA PUSH1 0x0 DUP5 DUP2 MSTORE PUSH1 0x20 ADD SWAP1 DUP2 MSTORE PUSH1 0x20 ADD PUSH1 0x0 KECCAK256 PUSH1 0x0 DUP4 DUP2 MSTORE PUSH1 0x20 ADD SWAP1 DUP2 MSTORE PUSH1 0x20 ADD PUSH1 0x0 KECCAK256 SLOAD DUP2 GT PUSH2 0x13F5 JUMPI PUSH1 0x7 PUSH1 0x0 DUP5 DUP2 MSTORE PUSH1 0x20 ADD SWAP1 DUP2 MSTORE PUSH1 0x20 ADD PUSH1 0x0 KECCAK256 PUSH1 0x0 DUP4 DUP2 MSTORE PUSH1 0x20 ADD SWAP1 DUP2 MSTORE PUSH1 0x20 ADD PUSH1 0x0 KECCAK256 PUSH1 0x0 DUP3 DUP2 MSTORE PUSH1 0x20 ADD SWAP1 DUP2 MSTORE PUSH1 0x20 ADD PUSH1 0x0 KECCAK256 PUSH1 0x0 SWAP1 SLOAD SWAP1 PUSH2 0x100 EXP SWAP1 DIV PUSH1 0xFF AND ISZERO PUSH2 0x13DD JUMPI PUSH1 0x0 PUSH1 0x7 PUSH1 0x0 DUP6 DUP2 MSTORE PUSH1 0x20 ADD SWAP1 DUP2 MSTORE PUSH1 0x20 ADD PUSH1 0x0 KECCAK256 PUSH1 0x0 DUP5 DUP2 MSTORE PUSH1 0x20 ADD SWAP1 DUP2 MSTORE PUSH1 0x20 ADD PUSH1 0x0 KECCAK256 PUSH1 0x0 DUP4 DUP2 MSTORE PUSH1 0x20 ADD SWAP1 DUP2 MSTORE PUSH1 0x20 ADD PUSH1 0x0 KECCAK256 PUSH1 0x0 PUSH2 0x100 EXP DUP2 SLOAD DUP2 PUSH1 0xFF MUL NOT AND SWAP1 DUP4 ISZERO ISZERO MUL OR SWAP1 SSTORE POP PUSH2 0x13E2 JUMP JUMPDEST PUSH1 0x0 SWAP4 POP JUMPDEST DUP1 DUP1 PUSH2 0x13ED SWAP1 PUSH2 0x214B JUMP JUMPDEST SWAP2 POP POP PUSH2 0x1317 JUMP JUMPDEST POP DUP1 DUP1 PUSH2 0x1401 SWAP1 PUSH2 0x214B JUMP JUMPDEST SWAP2 POP POP PUSH2 0x12F6 JUMP JUMPDEST POP DUP1 DUP1 PUSH2 0x1415 SWAP1 PUSH2 0x214B JUMP JUMPDEST SWAP2 POP POP PUSH2 0x12E6 JUMP JUMPDEST POP DUP1 ISZERO PUSH2 0x148A JUMPI PUSH1 0x40 MLOAD DUP1 PUSH1 0x40 ADD PUSH1 0x40 MSTORE DUP1 PUSH1 0x6 DUP2 MSTORE PUSH1 0x20 ADD PUSH32 0x5065726D69740000000000000000000000000000000000000000000000000000 DUP2 MSTORE POP PUSH1 0xC DUP11 PUSH1 0x40 MLOAD PUSH2 0x146A SWAP2 SWAP1 PUSH2 0x20A2 JUMP JUMPDEST SWAP1 DUP2 MSTORE PUSH1 0x20 ADD PUSH1 0x40 MLOAD DUP1 SWAP2 SUB SWAP1 KECCAK256 SWAP1 DUP2 PUSH2 0x1484 SWAP2 SWAP1 PUSH2 0x239F JUMP JUMPDEST POP PUSH2 0x14EC JUMP JUMPDEST PUSH1 0x40 MLOAD DUP1 PUSH1 0x40 ADD PUSH1 0x40 MSTORE DUP1 PUSH1 0x4 DUP2 MSTORE PUSH1 0x20 ADD PUSH32 0x44656E7900000000000000000000000000000000000000000000000000000000 DUP2 MSTORE POP PUSH1 0xC DUP11 PUSH1 0x40 MLOAD PUSH2 0x14D0 SWAP2 SWAP1 PUSH2 0x20A2 JUMP JUMPDEST SWAP1 DUP2 MSTORE PUSH1 0x20 ADD PUSH1 0x40 MLOAD DUP1 SWAP2 SUB SWAP1 KECCAK256 SWAP1 DUP2 PUSH2 0x14EA SWAP2 SWAP1 PUSH2 0x239F JUMP JUMPDEST POP JUMPDEST PUSH1 0x4 PUSH1 0x0 DUP2 SLOAD DUP1 SWAP3 SWAP2 SWAP1 PUSH2 0x14FF SWAP1 PUSH2 0x214B JUMP JUMPDEST SWAP2 SWAP1 POP SSTORE POP POP POP POP POP POP POP POP POP POP JUMP JUMPDEST PUSH1 0x0 DUP1 PUSH1 0x0 DUP1 PUSH2 0x151E DUP6 PUSH2 0x157E JUMP JUMPDEST SWAP3 POP SWAP3 POP SWAP3 POP PUSH1 0x1 DUP7 DUP3 DUP6 DUP6 PUSH1 0x40 MLOAD PUSH1 0x0 DUP2 MSTORE PUSH1 0x20 ADD PUSH1 0x40 MSTORE PUSH1 0x40 MLOAD PUSH2 0x1547 SWAP5 SWAP4 SWAP3 SWAP2 SWAP1 PUSH2 0x2471 JUMP JUMPDEST PUSH1 0x20 PUSH1 0x40 MLOAD PUSH1 0x20 DUP2 SUB SWAP1 DUP1 DUP5 SUB SWAP1 DUP6 GAS STATICCALL ISZERO DUP1 ISZERO PUSH2 0x1569 JUMPI RETURNDATASIZE PUSH1 0x0 DUP1 RETURNDATACOPY RETURNDATASIZE PUSH1 0x0 REVERT JUMPDEST POP POP POP PUSH1 0x20 PUSH1 0x40 MLOAD SUB MLOAD SWAP4 POP POP POP POP SWAP3 SWAP2 POP POP JUMP JUMPDEST PUSH1 0x0 DUP1 PUSH1 0x0 PUSH1 0x41 DUP5 MLOAD EQ PUSH2 0x15C7 JUMPI PUSH1 0x40 MLOAD PUSH32 0x8C379A000000000000000000000000000000000000000000000000000000000 DUP2 MSTORE PUSH1 0x4 ADD PUSH2 0x15BE SWAP1 PUSH2 0x2502 JUMP JUMPDEST PUSH1 0x40 MLOAD DUP1 SWAP2 SUB SWAP1 REVERT JUMPDEST PUSH1 0x20 DUP5 ADD MLOAD SWAP3 POP PUSH1 0x40 DUP5 ADD MLOAD SWAP2 POP PUSH1 0x60 DUP5 ADD MLOAD PUSH1 0x0 BYTE SWAP1 POP SWAP2 SWAP4 SWAP1 SWAP3 POP JUMP JUMPDEST PUSH1 0x0 DUP2 PUSH1 0x40 MLOAD PUSH1 0x20 ADD PUSH2 0x15F9 SWAP2 SWAP1 PUSH2 0x20A2 JUMP JUMPDEST PUSH1 0x40 MLOAD PUSH1 0x20 DUP2 DUP4 SUB SUB DUP2 MSTORE SWAP1 PUSH1 0x40 MSTORE DUP1 MLOAD SWAP1 PUSH1 0x20 ADD KECCAK256 SWAP1 POP SWAP2 SWAP1 POP JUMP JUMPDEST PUSH1 0x0 DUP2 PUSH1 0x40 MLOAD PUSH1 0x20 ADD PUSH2 0x1629 SWAP2 SWAP1 PUSH2 0x258F JUMP JUMPDEST PUSH1 0x40 MLOAD PUSH1 0x20 DUP2 DUP4 SUB SUB DUP2 MSTORE SWAP1 PUSH1 0x40 MSTORE DUP1 MLOAD SWAP1 PUSH1 0x20 ADD KECCAK256 SWAP1 POP SWAP2 SWAP1 POP JUMP JUMPDEST PUSH1 0x60 DUP4 DUP4 DUP4 PUSH1 0x40 MLOAD PUSH1 0x20 ADD PUSH2 0x165D SWAP4 SWAP3 SWAP2 SWAP1 PUSH2 0x25B5 JUMP JUMPDEST PUSH1 0x40 MLOAD PUSH1 0x20 DUP2 DUP4 SUB SUB DUP2 MSTORE SWAP1 PUSH1 0x40 MSTORE SWAP1 POP SWAP4 SWAP3 POP POP POP JUMP JUMPDEST PUSH1 0x40 MLOAD DUP1 PUSH2 0x180 ADD PUSH1 0x40 MSTORE DUP1 PUSH1 0xC SWAP1 JUMPDEST PUSH1 0x60 DUP2 MSTORE PUSH1 0x20 ADD SWAP1 PUSH1 0x1 SWAP1 SUB SWAP1 DUP2 PUSH2 0x1685 JUMPI SWAP1 POP POP SWAP1 JUMP JUMPDEST PUSH1 0x0 PUSH1 0x40 MLOAD SWAP1 POP SWAP1 JUMP JUMPDEST PUSH1 0x0 DUP1 REVERT JUMPDEST PUSH1 0x0 DUP1 REVERT JUMPDEST PUSH1 0x0 DUP1 REVERT JUMPDEST PUSH1 0x0 DUP1 REVERT JUMPDEST PUSH1 0x0 PUSH1 0x1F NOT PUSH1 0x1F DUP4 ADD AND SWAP1 POP SWAP2 SWAP1 POP JUMP JUMPDEST PUSH32 0x4E487B7100000000000000000000000000000000000000000000000000000000 PUSH1 0x0 MSTORE PUSH1 0x41 PUSH1 0x4 MSTORE PUSH1 0x24 PUSH1 0x0 REVERT JUMPDEST PUSH2 0x1704 DUP3 PUSH2 0x16BB JUMP JUMPDEST DUP2 ADD DUP2 DUP2 LT PUSH8 0xFFFFFFFFFFFFFFFF DUP3 GT OR ISZERO PUSH2 0x1723 JUMPI PUSH2 0x1722 PUSH2 0x16CC JUMP JUMPDEST JUMPDEST DUP1 PUSH1 0x40 MSTORE POP POP POP JUMP JUMPDEST PUSH1 0x0 PUSH2 0x1736 PUSH2 0x169D JUMP JUMPDEST SWAP1 POP PUSH2 0x1742 DUP3 DUP3 PUSH2 0x16FB JUMP JUMPDEST SWAP2 SWAP1 POP JUMP JUMPDEST PUSH1 0x0 PUSH8 0xFFFFFFFFFFFFFFFF DUP3 GT ISZERO PUSH2 0x1762 JUMPI PUSH2 0x1761 PUSH2 0x16CC JUMP JUMPDEST JUMPDEST PUSH2 0x176B DUP3 PUSH2 0x16BB JUMP JUMPDEST SWAP1 POP PUSH1 0x20 DUP2 ADD SWAP1 POP SWAP2 SWAP1 POP JUMP JUMPDEST DUP3 DUP2 DUP4 CALLDATACOPY PUSH1 0x0 DUP4 DUP4 ADD MSTORE POP POP POP JUMP JUMPDEST PUSH1 0x0 PUSH2 0x179A PUSH2 0x1795 DUP5 PUSH2 0x1747 JUMP JUMPDEST PUSH2 0x172C JUMP JUMPDEST SWAP1 POP DUP3 DUP2 MSTORE PUSH1 0x20 DUP2 ADD DUP5 DUP5 DUP5 ADD GT ISZERO PUSH2 0x17B6 JUMPI PUSH2 0x17B5 PUSH2 0x16B6 JUMP JUMPDEST JUMPDEST PUSH2 0x17C1 DUP5 DUP3 DUP6 PUSH2 0x1778 JUMP JUMPDEST POP SWAP4 SWAP3 POP POP POP JUMP JUMPDEST PUSH1 0x0 DUP3 PUSH1 0x1F DUP4 ADD SLT PUSH2 0x17DE JUMPI PUSH2 0x17DD PUSH2 0x16B1 JUMP JUMPDEST JUMPDEST DUP2 CALLDATALOAD PUSH2 0x17EE DUP5 DUP3 PUSH1 0x20 DUP7 ADD PUSH2 0x1787 JUMP JUMPDEST SWAP2 POP POP SWAP3 SWAP2 POP POP JUMP JUMPDEST PUSH1 0x0 PUSH8 0xFFFFFFFFFFFFFFFF DUP3 GT ISZERO PUSH2 0x1812 JUMPI PUSH2 0x1811 PUSH2 0x16CC JUMP JUMPDEST JUMPDEST PUSH2 0x181B DUP3 PUSH2 0x16BB JUMP JUMPDEST SWAP1 POP PUSH1 0x20 DUP2 ADD SWAP1 POP SWAP2 SWAP1 POP JUMP JUMPDEST PUSH1 0x0 PUSH2 0x183B PUSH2 0x1836 DUP5 PUSH2 0x17F7 JUMP JUMPDEST PUSH2 0x172C JUMP JUMPDEST SWAP1 POP DUP3 DUP2 MSTORE PUSH1 0x20 DUP2 ADD DUP5 DUP5 DUP5 ADD GT ISZERO PUSH2 0x1857 JUMPI PUSH2 0x1856 PUSH2 0x16B6 JUMP JUMPDEST JUMPDEST PUSH2 0x1862 DUP5 DUP3 DUP6 PUSH2 0x1778 JUMP JUMPDEST POP SWAP4 SWAP3 POP POP POP JUMP JUMPDEST PUSH1 0x0 DUP3 PUSH1 0x1F DUP4 ADD SLT PUSH2 0x187F JUMPI PUSH2 0x187E PUSH2 0x16B1 JUMP JUMPDEST JUMPDEST DUP2 CALLDATALOAD PUSH2 0x188F DUP5 DUP3 PUSH1 0x20 DUP7 ADD PUSH2 0x1828 JUMP JUMPDEST SWAP2 POP POP SWAP3 SWAP2 POP POP JUMP JUMPDEST PUSH1 0x0 DUP1 PUSH1 0x0 DUP1 PUSH1 0x0 DUP1 PUSH1 0x0 PUSH1 0xE0 DUP9 DUP11 SUB SLT ISZERO PUSH2 0x18B7 JUMPI PUSH2 0x18B6 PUSH2 0x16A7 JUMP JUMPDEST JUMPDEST PUSH1 0x0 DUP9 ADD CALLDATALOAD PUSH8 0xFFFFFFFFFFFFFFFF DUP2 GT ISZERO PUSH2 0x18D5 JUMPI PUSH2 0x18D4 PUSH2 0x16AC JUMP JUMPDEST JUMPDEST PUSH2 0x18E1 DUP11 DUP3 DUP12 ADD PUSH2 0x17C9 JUMP JUMPDEST SWAP8 POP POP PUSH1 0x20 DUP9 ADD CALLDATALOAD PUSH8 0xFFFFFFFFFFFFFFFF DUP2 GT ISZERO PUSH2 0x1902 JUMPI PUSH2 0x1901 PUSH2 0x16AC JUMP JUMPDEST JUMPDEST PUSH2 0x190E DUP11 DUP3 DUP12 ADD PUSH2 0x17C9 JUMP JUMPDEST SWAP7 POP POP PUSH1 0x40 DUP9 ADD CALLDATALOAD PUSH8 0xFFFFFFFFFFFFFFFF DUP2 GT ISZERO PUSH2 0x192F JUMPI PUSH2 0x192E PUSH2 0x16AC JUMP JUMPDEST JUMPDEST PUSH2 0x193B DUP11 DUP3 DUP12 ADD PUSH2 0x17C9 JUMP JUMPDEST SWAP6 POP POP PUSH1 0x60 DUP9 ADD CALLDATALOAD PUSH8 0xFFFFFFFFFFFFFFFF DUP2 GT ISZERO PUSH2 0x195C JUMPI PUSH2 0x195B PUSH2 0x16AC JUMP JUMPDEST JUMPDEST PUSH2 0x1968 DUP11 DUP3 DUP12 ADD PUSH2 0x17C9 JUMP JUMPDEST SWAP5 POP POP PUSH1 0x80 DUP9 ADD CALLDATALOAD PUSH8 0xFFFFFFFFFFFFFFFF DUP2 GT ISZERO PUSH2 0x1989 JUMPI PUSH2 0x1988 PUSH2 0x16AC JUMP JUMPDEST JUMPDEST PUSH2 0x1995 DUP11 DUP3 DUP12 ADD PUSH2 0x17C9 JUMP JUMPDEST SWAP4 POP POP PUSH1 0xA0 DUP9 ADD CALLDATALOAD PUSH8 0xFFFFFFFFFFFFFFFF DUP2 GT ISZERO PUSH2 0x19B6 JUMPI PUSH2 0x19B5 PUSH2 0x16AC JUMP JUMPDEST JUMPDEST PUSH2 0x19C2 DUP11 DUP3 DUP12 ADD PUSH2 0x17C9 JUMP JUMPDEST SWAP3 POP POP PUSH1 0xC0 DUP9 ADD CALLDATALOAD PUSH8 0xFFFFFFFFFFFFFFFF DUP2 GT ISZERO PUSH2 0x19E3 JUMPI PUSH2 0x19E2 PUSH2 0x16AC JUMP JUMPDEST JUMPDEST PUSH2 0x19EF DUP11 DUP3 DUP12 ADD PUSH2 0x186A JUMP JUMPDEST SWAP2 POP POP SWAP3 SWAP6 SWAP9 SWAP2 SWAP5 SWAP8 POP SWAP3 SWAP6 POP JUMP JUMPDEST PUSH1 0x0 PUSH20 0xFFFFFFFFFFFFFFFFFFFFFFFFFFFFFFFFFFFFFFFF DUP3 AND SWAP1 POP SWAP2 SWAP1 POP JUMP JUMPDEST PUSH1 0x0 PUSH2 0x1A29 DUP3 PUSH2 0x19FE JUMP JUMPDEST SWAP1 POP SWAP2 SWAP1 POP JUMP JUMPDEST PUSH2 0x1A39 DUP2 PUSH2 0x1A1E JUMP JUMPDEST DUP2 EQ PUSH2 0x1A44 JUMPI PUSH1 0x0 DUP1 REVERT JUMPDEST POP JUMP JUMPDEST PUSH1 0x0 DUP2 CALLDATALOAD SWAP1 POP PUSH2 0x1A56 DUP2 PUSH2 0x1A30 JUMP JUMPDEST SWAP3 SWAP2 POP POP JUMP JUMPDEST PUSH1 0x0 DUP1 PUSH1 0x0 PUSH1 0x60 DUP5 DUP7 SUB SLT ISZERO PUSH2 0x1A75 JUMPI PUSH2 0x1A74 PUSH2 0x16A7 JUMP JUMPDEST JUMPDEST PUSH1 0x0 PUSH2 0x1A83 DUP7 DUP3 DUP8 ADD PUSH2 0x1A47 JUMP JUMPDEST SWAP4 POP POP PUSH1 0x20 DUP5 ADD CALLDATALOAD PUSH8 0xFFFFFFFFFFFFFFFF DUP2 GT ISZERO PUSH2 0x1AA4 JUMPI PUSH2 0x1AA3 PUSH2 0x16AC JUMP JUMPDEST JUMPDEST PUSH2 0x1AB0 DUP7 DUP3 DUP8 ADD PUSH2 0x17C9 JUMP JUMPDEST SWAP3 POP POP PUSH1 0x40 DUP5 ADD CALLDATALOAD PUSH8 0xFFFFFFFFFFFFFFFF DUP2 GT ISZERO PUSH2 0x1AD1 JUMPI PUSH2 0x1AD0 PUSH2 0x16AC JUMP JUMPDEST JUMPDEST PUSH2 0x1ADD DUP7 DUP3 DUP8 ADD PUSH2 0x186A JUMP JUMPDEST SWAP2 POP POP SWAP3 POP SWAP3 POP SWAP3 JUMP JUMPDEST PUSH1 0x0 DUP2 ISZERO ISZERO SWAP1 POP SWAP2 SWAP1 POP JUMP JUMPDEST PUSH2 0x1AFC DUP2 PUSH2 0x1AE7 JUMP JUMPDEST DUP3 MSTORE POP POP JUMP JUMPDEST PUSH1 0x0 PUSH1 0x20 DUP3 ADD SWAP1 POP PUSH2 0x1B17 PUSH1 0x0 DUP4 ADD DUP5 PUSH2 0x1AF3 JUMP JUMPDEST SWAP3 SWAP2 POP POP JUMP JUMPDEST PUSH1 0x0 DUP2 SWAP1 POP SWAP2 SWAP1 POP JUMP JUMPDEST PUSH2 0x1B30 DUP2 PUSH2 0x1B1D JUMP JUMPDEST DUP3 MSTORE POP POP JUMP JUMPDEST PUSH1 0x0 PUSH1 0x20 DUP3 ADD SWAP1 POP PUSH2 0x1B4B PUSH1 0x0 DUP4 ADD DUP5 PUSH2 0x1B27 JUMP JUMPDEST SWAP3 SWAP2 POP POP JUMP JUMPDEST PUSH1 0x0 PUSH1 0x20 DUP3 DUP5 SUB SLT ISZERO PUSH2 0x1B67 JUMPI PUSH2 0x1B66 PUSH2 0x16A7 JUMP JUMPDEST JUMPDEST PUSH1 0x0 DUP3 ADD CALLDATALOAD PUSH8 0xFFFFFFFFFFFFFFFF DUP2 GT ISZERO PUSH2 0x1B85 JUMPI PUSH2 0x1B84 PUSH2 0x16AC JUMP JUMPDEST JUMPDEST PUSH2 0x1B91 DUP5 DUP3 DUP6 ADD PUSH2 0x17C9 JUMP JUMPDEST SWAP2 POP POP SWAP3 SWAP2 POP POP JUMP JUMPDEST PUSH1 0x0 DUP2 MLOAD SWAP1 POP SWAP2 SWAP1 POP JUMP JUMPDEST PUSH1 0x0 DUP3 DUP3 MSTORE PUSH1 0x20 DUP3 ADD SWAP1 POP SWAP3 SWAP2 POP POP JUMP JUMPDEST PUSH1 0x0 JUMPDEST DUP4 DUP2 LT ISZERO PUSH2 0x1BD4 JUMPI DUP1 DUP3 ADD MLOAD DUP2 DUP5 ADD MSTORE PUSH1 0x20 DUP2 ADD SWAP1 POP PUSH2 0x1BB9 JUMP JUMPDEST PUSH1 0x0 DUP5 DUP5 ADD MSTORE POP POP POP POP JUMP JUMPDEST PUSH1 0x0 PUSH2 0x1BEB DUP3 PUSH2 0x1B9A JUMP JUMPDEST PUSH2 0x1BF5 DUP2 DUP6 PUSH2 0x1BA5 JUMP JUMPDEST SWAP4 POP PUSH2 0x1C05 DUP2 DUP6 PUSH1 0x20 DUP7 ADD PUSH2 0x1BB6 JUMP JUMPDEST PUSH2 0x1C0E DUP2 PUSH2 0x16BB JUMP JUMPDEST DUP5 ADD SWAP2 POP POP SWAP3 SWAP2 POP POP JUMP JUMPDEST PUSH1 0x0 PUSH1 0x20 DUP3 ADD SWAP1 POP DUP2 DUP2 SUB PUSH1 0x0 DUP4 ADD MSTORE PUSH2 0x1C33 DUP2 DUP5 PUSH2 0x1BE0 JUMP JUMPDEST SWAP1 POP SWAP3 SWAP2 POP POP JUMP JUMPDEST PUSH2 0x1C44 DUP2 PUSH2 0x1A1E JUMP JUMPDEST DUP3 MSTORE POP POP JUMP JUMPDEST PUSH1 0x0 PUSH1 0x20 DUP3 ADD SWAP1 POP PUSH2 0x1C5F PUSH1 0x0 DUP4 ADD DUP5 PUSH2 0x1C3B JUMP JUMPDEST SWAP3 SWAP2 POP POP JUMP JUMPDEST PUSH1 0x0 DUP1 PUSH1 0x0 DUP1 PUSH1 0x0 DUP1 PUSH1 0xC0 DUP8 DUP10 SUB SLT ISZERO PUSH2 0x1C82 JUMPI PUSH2 0x1C81 PUSH2 0x16A7 JUMP JUMPDEST JUMPDEST PUSH1 0x0 DUP8 ADD CALLDATALOAD PUSH8 0xFFFFFFFFFFFFFFFF DUP2 GT ISZERO PUSH2 0x1CA0 JUMPI PUSH2 0x1C9F PUSH2 0x16AC JUMP JUMPDEST JUMPDEST PUSH2 0x1CAC DUP10 DUP3 DUP11 ADD PUSH2 0x17C9 JUMP JUMPDEST SWAP7 POP POP PUSH1 0x20 DUP8 ADD CALLDATALOAD PUSH8 0xFFFFFFFFFFFFFFFF DUP2 GT ISZERO PUSH2 0x1CCD JUMPI PUSH2 0x1CCC PUSH2 0x16AC JUMP JUMPDEST JUMPDEST PUSH2 0x1CD9 DUP10 DUP3 DUP11 ADD PUSH2 0x17C9 JUMP JUMPDEST SWAP6 POP POP PUSH1 0x40 DUP8 ADD CALLDATALOAD PUSH8 0xFFFFFFFFFFFFFFFF DUP2 GT ISZERO PUSH2 0x1CFA JUMPI PUSH2 0x1CF9 PUSH2 0x16AC JUMP JUMPDEST JUMPDEST PUSH2 0x1D06 DUP10 DUP3 DUP11 ADD PUSH2 0x17C9 JUMP JUMPDEST SWAP5 POP POP PUSH1 0x60 DUP8 ADD CALLDATALOAD PUSH8 0xFFFFFFFFFFFFFFFF DUP2 GT ISZERO PUSH2 0x1D27 JUMPI PUSH2 0x1D26 PUSH2 0x16AC JUMP JUMPDEST JUMPDEST PUSH2 0x1D33 DUP10 DUP3 DUP11 ADD PUSH2 0x17C9 JUMP JUMPDEST SWAP4 POP POP PUSH1 0x80 DUP8 ADD CALLDATALOAD PUSH8 0xFFFFFFFFFFFFFFFF DUP2 GT ISZERO PUSH2 0x1D54 JUMPI PUSH2 0x1D53 PUSH2 0x16AC JUMP JUMPDEST JUMPDEST PUSH2 0x1D60 DUP10 DUP3 DUP11 ADD PUSH2 0x17C9 JUMP JUMPDEST SWAP3 POP POP PUSH1 0xA0 DUP8 ADD CALLDATALOAD PUSH8 0xFFFFFFFFFFFFFFFF DUP2 GT ISZERO PUSH2 0x1D81 JUMPI PUSH2 0x1D80 PUSH2 0x16AC JUMP JUMPDEST JUMPDEST PUSH2 0x1D8D DUP10 DUP3 DUP11 ADD PUSH2 0x17C9 JUMP JUMPDEST SWAP2 POP POP SWAP3 SWAP6 POP SWAP3 SWAP6 POP SWAP3 SWAP6 JUMP JUMPDEST PUSH1 0x0 DUP2 SWAP1 POP SWAP2 SWAP1 POP JUMP JUMPDEST PUSH2 0x1DAD DUP2 PUSH2 0x1D9A JUMP JUMPDEST DUP2 EQ PUSH2 0x1DB8 JUMPI PUSH1 0x0 DUP1 REVERT JUMPDEST POP JUMP JUMPDEST PUSH1 0x0 DUP2 CALLDATALOAD SWAP1 POP PUSH2 0x1DCA DUP2 PUSH2 0x1DA4 JUMP JUMPDEST SWAP3 SWAP2 POP POP JUMP JUMPDEST PUSH1 0x0 DUP1 PUSH1 0x40 DUP4 DUP6 SUB SLT ISZERO PUSH2 0x1DE7 JUMPI PUSH2 0x1DE6 PUSH2 0x16A7 JUMP JUMPDEST JUMPDEST PUSH1 0x0 PUSH2 0x1DF5 DUP6 DUP3 DUP7 ADD PUSH2 0x1DBB JUMP JUMPDEST SWAP3 POP POP PUSH1 0x20 DUP4 ADD CALLDATALOAD PUSH8 0xFFFFFFFFFFFFFFFF DUP2 GT ISZERO PUSH2 0x1E16 JUMPI PUSH2 0x1E15 PUSH2 0x16AC JUMP JUMPDEST JUMPDEST PUSH2 0x1E22 DUP6 DUP3 DUP7 ADD PUSH2 0x186A JUMP JUMPDEST SWAP2 POP POP SWAP3 POP SWAP3 SWAP1 POP JUMP JUMPDEST PUSH1 0x0 PUSH1 0x20 DUP3 DUP5 SUB SLT ISZERO PUSH2 0x1E42 JUMPI PUSH2 0x1E41 PUSH2 0x16A7 JUMP JUMPDEST JUMPDEST PUSH1 0x0 DUP3 ADD CALLDATALOAD PUSH8 0xFFFFFFFFFFFFFFFF DUP2 GT ISZERO PUSH2 0x1E60 JUMPI PUSH2 0x1E5F PUSH2 0x16AC JUMP JUMPDEST JUMPDEST PUSH2 0x1E6C DUP5 DUP3 DUP6 ADD PUSH2 0x186A JUMP JUMPDEST SWAP2 POP POP SWAP3 SWAP2 POP POP JUMP JUMPDEST PUSH2 0x1E7E DUP2 PUSH2 0x1D9A JUMP JUMPDEST DUP3 MSTORE POP POP JUMP JUMPDEST PUSH1 0x0 PUSH1 0xFF DUP3 AND SWAP1 POP SWAP2 SWAP1 POP JUMP JUMPDEST PUSH2 0x1E9A DUP2 PUSH2 0x1E84 JUMP JUMPDEST DUP3 MSTORE POP POP JUMP JUMPDEST PUSH1 0x0 PUSH1 0x60 DUP3 ADD SWAP1 POP PUSH2 0x1EB5 PUSH1 0x0 DUP4 ADD DUP7 PUSH2 0x1E75 JUMP JUMPDEST PUSH2 0x1EC2 PUSH1 0x20 DUP4 ADD DUP6 PUSH2 0x1E75 JUMP JUMPDEST PUSH2 0x1ECF PUSH1 0x40 DUP4 ADD DUP5 PUSH2 0x1E91 JUMP JUMPDEST SWAP5 SWAP4 POP POP POP POP JUMP JUMPDEST PUSH1 0x0 PUSH1 0x20 DUP3 ADD SWAP1 POP PUSH2 0x1EEC PUSH1 0x0 DUP4 ADD DUP5 PUSH2 0x1E75 JUMP JUMPDEST SWAP3 SWAP2 POP POP JUMP JUMPDEST PUSH1 0x0 PUSH1 0x20 DUP3 DUP5 SUB SLT ISZERO PUSH2 0x1F08 JUMPI PUSH2 0x1F07 PUSH2 0x16A7 JUMP JUMPDEST JUMPDEST PUSH1 0x0 PUSH2 0x1F16 DUP5 DUP3 DUP6 ADD PUSH2 0x1DBB JUMP JUMPDEST SWAP2 POP POP SWAP3 SWAP2 POP POP JUMP JUMPDEST PUSH1 0x0 DUP2 SWAP1 POP SWAP3 SWAP2 POP POP JUMP JUMPDEST PUSH1 0x0 PUSH2 0x1F35 DUP3 PUSH2 0x1B9A JUMP JUMPDEST PUSH2 0x1F3F DUP2 DUP6 PUSH2 0x1F1F JUMP JUMPDEST SWAP4 POP PUSH2 0x1F4F DUP2 DUP6 PUSH1 0x20 DUP7 ADD PUSH2 0x1BB6 JUMP JUMPDEST DUP1 DUP5 ADD SWAP2 POP POP SWAP3 SWAP2 POP POP JUMP JUMPDEST PUSH32 0x2C00000000000000000000000000000000000000000000000000000000000000 PUSH1 0x0 DUP3 ADD MSTORE POP JUMP JUMPDEST PUSH1 0x0 PUSH2 0x1F91 PUSH1 0x1 DUP4 PUSH2 0x1F1F JUMP JUMPDEST SWAP2 POP PUSH2 0x1F9C DUP3 PUSH2 0x1F5B JUMP JUMPDEST PUSH1 0x1 DUP3 ADD SWAP1 POP SWAP2 SWAP1 POP JUMP JUMPDEST PUSH1 0x0 PUSH2 0x1FB3 DUP3 DUP10 PUSH2 0x1F2A JUMP JUMPDEST SWAP2 POP PUSH2 0x1FBE DUP3 PUSH2 0x1F84 JUMP JUMPDEST SWAP2 POP PUSH2 0x1FCA DUP3 DUP9 PUSH2 0x1F2A JUMP JUMPDEST SWAP2 POP PUSH2 0x1FD5 DUP3 PUSH2 0x1F84 JUMP JUMPDEST SWAP2 POP PUSH2 0x1FE1 DUP3 DUP8 PUSH2 0x1F2A JUMP JUMPDEST SWAP2 POP PUSH2 0x1FEC DUP3 PUSH2 0x1F84 JUMP JUMPDEST SWAP2 POP PUSH2 0x1FF8 DUP3 DUP7 PUSH2 0x1F2A JUMP JUMPDEST SWAP2 POP PUSH2 0x2003 DUP3 PUSH2 0x1F84 JUMP JUMPDEST SWAP2 POP PUSH2 0x200F DUP3 DUP6 PUSH2 0x1F2A JUMP JUMPDEST SWAP2 POP PUSH2 0x201A DUP3 PUSH2 0x1F84 JUMP JUMPDEST SWAP2 POP PUSH2 0x2026 DUP3 DUP5 PUSH2 0x1F2A JUMP JUMPDEST SWAP2 POP DUP2 SWAP1 POP SWAP8 SWAP7 POP POP POP POP POP POP POP JUMP JUMPDEST PUSH32 0x496E76616C6964207369676E6174757265000000000000000000000000000000 PUSH1 0x0 DUP3 ADD MSTORE POP JUMP JUMPDEST PUSH1 0x0 PUSH2 0x206C PUSH1 0x11 DUP4 PUSH2 0x1BA5 JUMP JUMPDEST SWAP2 POP PUSH2 0x2077 DUP3 PUSH2 0x2036 JUMP JUMPDEST PUSH1 0x20 DUP3 ADD SWAP1 POP SWAP2 SWAP1 POP JUMP JUMPDEST PUSH1 0x0 PUSH1 0x20 DUP3 ADD SWAP1 POP DUP2 DUP2 SUB PUSH1 0x0 DUP4 ADD MSTORE PUSH2 0x209B DUP2 PUSH2 0x205F JUMP JUMPDEST SWAP1 POP SWAP2 SWAP1 POP JUMP JUMPDEST PUSH1 0x0 PUSH2 0x20AE DUP3 DUP5 PUSH2 0x1F2A JUMP JUMPDEST SWAP2 POP DUP2 SWAP1 POP SWAP3 SWAP2 POP POP JUMP JUMPDEST PUSH32 0x4E487B7100000000000000000000000000000000000000000000000000000000 PUSH1 0x0 MSTORE PUSH1 0x32 PUSH1 0x4 MSTORE PUSH1 0x24 PUSH1 0x0 REVERT JUMPDEST PUSH32 0x4E487B7100000000000000000000000000000000000000000000000000000000 PUSH1 0x0 MSTORE PUSH1 0x11 PUSH1 0x4 MSTORE PUSH1 0x24 PUSH1 0x0 REVERT JUMPDEST PUSH1 0x0 PUSH2 0x2122 DUP3 PUSH2 0x1B1D JUMP JUMPDEST SWAP2 POP PUSH2 0x212D DUP4 PUSH2 0x1B1D JUMP JUMPDEST SWAP3 POP DUP3 DUP3 ADD SWAP1 POP DUP1 DUP3 GT ISZERO PUSH2 0x2145 JUMPI PUSH2 0x2144 PUSH2 0x20E8 JUMP JUMPDEST JUMPDEST SWAP3 SWAP2 POP POP JUMP JUMPDEST PUSH1 0x0 PUSH2 0x2156 DUP3 PUSH2 0x1B1D JUMP JUMPDEST SWAP2 POP PUSH32 0xFFFFFFFFFFFFFFFFFFFFFFFFFFFFFFFFFFFFFFFFFFFFFFFFFFFFFFFFFFFFFFFF DUP3 SUB PUSH2 0x2188 JUMPI PUSH2 0x2187 PUSH2 0x20E8 JUMP JUMPDEST JUMPDEST PUSH1 0x1 DUP3 ADD SWAP1 POP SWAP2 SWAP1 POP JUMP JUMPDEST PUSH32 0x4E487B7100000000000000000000000000000000000000000000000000000000 PUSH1 0x0 MSTORE PUSH1 0x22 PUSH1 0x4 MSTORE PUSH1 0x24 PUSH1 0x0 REVERT JUMPDEST PUSH1 0x0 PUSH1 0x2 DUP3 DIV SWAP1 POP PUSH1 0x1 DUP3 AND DUP1 PUSH2 0x21DA JUMPI PUSH1 0x7F DUP3 AND SWAP2 POP JUMPDEST PUSH1 0x20 DUP3 LT DUP2 SUB PUSH2 0x21ED JUMPI PUSH2 0x21EC PUSH2 0x2193 JUMP JUMPDEST JUMPDEST POP SWAP2 SWAP1 POP JUMP JUMPDEST PUSH1 0x0 DUP2 SWAP1 POP DUP2 PUSH1 0x0 MSTORE PUSH1 0x20 PUSH1 0x0 KECCAK256 SWAP1 POP SWAP2 SWAP1 POP JUMP JUMPDEST PUSH1 0x0 PUSH1 0x20 PUSH1 0x1F DUP4 ADD DIV SWAP1 POP SWAP2 SWAP1 POP JUMP JUMPDEST PUSH1 0x0 DUP3 DUP3 SHL SWAP1 POP SWAP3 SWAP2 POP POP JUMP JUMPDEST PUSH1 0x0 PUSH1 0x8 DUP4 MUL PUSH2 0x2255 PUSH32 0xFFFFFFFFFFFFFFFFFFFFFFFFFFFFFFFFFFFFFFFFFFFFFFFFFFFFFFFFFFFFFFFF DUP3 PUSH2 0x2218 JUMP JUMPDEST PUSH2 0x225F DUP7 DUP4 PUSH2 0x2218 JUMP JUMPDEST SWAP6 POP DUP1 NOT DUP5 AND SWAP4 POP DUP1 DUP7 AND DUP5 OR SWAP3 POP POP POP SWAP4 SWAP3 POP POP POP JUMP JUMPDEST PUSH1 0x0 DUP2 SWAP1 POP SWAP2 SWAP1 POP JUMP JUMPDEST PUSH1 0x0 PUSH2 0x229C PUSH2 0x2297 PUSH2 0x2292 DUP5 PUSH2 0x1B1D JUMP JUMPDEST PUSH2 0x2277 JUMP JUMPDEST PUSH2 0x1B1D JUMP JUMPDEST SWAP1 POP SWAP2 SWAP1 POP JUMP JUMPDEST PUSH1 0x0 DUP2 SWAP1 POP SWAP2 SWAP1 POP JUMP JUMPDEST PUSH2 0x22B6 DUP4 PUSH2 0x2281 JUMP JUMPDEST PUSH2 0x22CA PUSH2 0x22C2 DUP3 PUSH2 0x22A3 JUMP JUMPDEST DUP5 DUP5 SLOAD PUSH2 0x2225 JUMP JUMPDEST DUP3 SSTORE POP POP POP POP JUMP JUMPDEST PUSH1 0x0 SWAP1 JUMP JUMPDEST PUSH2 0x22DF PUSH2 0x22D2 JUMP JUMPDEST PUSH2 0x22EA DUP2 DUP5 DUP5 PUSH2 0x22AD JUMP JUMPDEST POP POP POP JUMP JUMPDEST JUMPDEST DUP2 DUP2 LT ISZERO PUSH2 0x230E JUMPI PUSH2 0x2303 PUSH1 0x0 DUP3 PUSH2 0x22D7 JUMP JUMPDEST PUSH1 0x1 DUP2 ADD SWAP1 POP PUSH2 0x22F0 JUMP JUMPDEST POP POP JUMP JUMPDEST PUSH1 0x1F DUP3 GT ISZERO PUSH2 0x2353 JUMPI PUSH2 0x2324 DUP2 PUSH2 0x21F3 JUMP JUMPDEST PUSH2 0x232D DUP5 PUSH2 0x2208 JUMP JUMPDEST DUP2 ADD PUSH1 0x20 DUP6 LT ISZERO PUSH2 0x233C JUMPI DUP2 SWAP1 POP JUMPDEST PUSH2 0x2350 PUSH2 0x2348 DUP6 PUSH2 0x2208 JUMP JUMPDEST DUP4 ADD DUP3 PUSH2 0x22EF JUMP JUMPDEST POP POP JUMPDEST POP POP POP JUMP JUMPDEST PUSH1 0x0 DUP3 DUP3 SHR SWAP1 POP SWAP3 SWAP2 POP POP JUMP JUMPDEST PUSH1 0x0 PUSH2 0x2376 PUSH1 0x0 NOT DUP5 PUSH1 0x8 MUL PUSH2 0x2358 JUMP JUMPDEST NOT DUP1 DUP4 AND SWAP2 POP POP SWAP3 SWAP2 POP POP JUMP JUMPDEST PUSH1 0x0 PUSH2 0x238F DUP4 DUP4 PUSH2 0x2365 JUMP JUMPDEST SWAP2 POP DUP3 PUSH1 0x2 MUL DUP3 OR SWAP1 POP SWAP3 SWAP2 POP POP JUMP JUMPDEST PUSH2 0x23A8 DUP3 PUSH2 0x1B9A JUMP JUMPDEST PUSH8 0xFFFFFFFFFFFFFFFF DUP2 GT ISZERO PUSH2 0x23C1 JUMPI PUSH2 0x23C0 PUSH2 0x16CC JUMP JUMPDEST JUMPDEST PUSH2 0x23CB DUP3 SLOAD PUSH2 0x21C2 JUMP JUMPDEST PUSH2 0x23D6 DUP3 DUP3 DUP6 PUSH2 0x2312 JUMP JUMPDEST PUSH1 0x0 PUSH1 0x20 SWAP1 POP PUSH1 0x1F DUP4 GT PUSH1 0x1 DUP2 EQ PUSH2 0x2409 JUMPI PUSH1 0x0 DUP5 ISZERO PUSH2 0x23F7 JUMPI DUP3 DUP8 ADD MLOAD SWAP1 POP JUMPDEST PUSH2 0x2401 DUP6 DUP3 PUSH2 0x2383 JUMP JUMPDEST DUP7 SSTORE POP PUSH2 0x2469 JUMP JUMPDEST PUSH1 0x1F NOT DUP5 AND PUSH2 0x2417 DUP7 PUSH2 0x21F3 JUMP JUMPDEST PUSH1 0x0 JUMPDEST DUP3 DUP2 LT ISZERO PUSH2 0x243F JUMPI DUP5 DUP10 ADD MLOAD DUP3 SSTORE PUSH1 0x1 DUP3 ADD SWAP2 POP PUSH1 0x20 DUP6 ADD SWAP5 POP PUSH1 0x20 DUP2 ADD SWAP1 POP PUSH2 0x241A JUMP JUMPDEST DUP7 DUP4 LT ISZERO PUSH2 0x245C JUMPI DUP5 DUP10 ADD MLOAD PUSH2 0x2458 PUSH1 0x1F DUP10 AND DUP3 PUSH2 0x2365 JUMP JUMPDEST DUP4 SSTORE POP JUMPDEST PUSH1 0x1 PUSH1 0x2 DUP9 MUL ADD DUP9 SSTORE POP POP POP JUMPDEST POP POP POP POP POP POP JUMP JUMPDEST PUSH1 0x0 PUSH1 0x80 DUP3 ADD SWAP1 POP PUSH2 0x2486 PUSH1 0x0 DUP4 ADD DUP8 PUSH2 0x1E75 JUMP JUMPDEST PUSH2 0x2493 PUSH1 0x20 DUP4 ADD DUP7 PUSH2 0x1E91 JUMP JUMPDEST PUSH2 0x24A0 PUSH1 0x40 DUP4 ADD DUP6 PUSH2 0x1E75 JUMP JUMPDEST PUSH2 0x24AD PUSH1 0x60 DUP4 ADD DUP5 PUSH2 0x1E75 JUMP JUMPDEST SWAP6 SWAP5 POP POP POP POP POP JUMP JUMPDEST PUSH32 0x696E76616C6964207369676E6174757265206C656E6774680000000000000000 PUSH1 0x0 DUP3 ADD MSTORE POP JUMP JUMPDEST PUSH1 0x0 PUSH2 0x24EC PUSH1 0x18 DUP4 PUSH2 0x1BA5 JUMP JUMPDEST SWAP2 POP PUSH2 0x24F7 DUP3 PUSH2 0x24B6 JUMP JUMPDEST PUSH1 0x20 DUP3 ADD SWAP1 POP SWAP2 SWAP1 POP JUMP JUMPDEST PUSH1 0x0 PUSH1 0x20 DUP3 ADD SWAP1 POP DUP2 DUP2 SUB PUSH1 0x0 DUP4 ADD MSTORE PUSH2 0x251B DUP2 PUSH2 0x24DF JUMP JUMPDEST SWAP1 POP SWAP2 SWAP1 POP JUMP JUMPDEST PUSH32 0x19457468657265756D205369676E6564204D6573736167653A0A333200000000 PUSH1 0x0 DUP3 ADD MSTORE POP JUMP JUMPDEST PUSH1 0x0 PUSH2 0x2558 PUSH1 0x1C DUP4 PUSH2 0x1F1F JUMP JUMPDEST SWAP2 POP PUSH2 0x2563 DUP3 PUSH2 0x2522 JUMP JUMPDEST PUSH1 0x1C DUP3 ADD SWAP1 POP SWAP2 SWAP1 POP JUMP JUMPDEST PUSH1 0x0 DUP2 SWAP1 POP SWAP2 SWAP1 POP JUMP JUMPDEST PUSH2 0x2589 PUSH2 0x2584 DUP3 PUSH2 0x1D9A JUMP JUMPDEST PUSH2 0x256E JUMP JUMPDEST DUP3 MSTORE POP POP JUMP JUMPDEST PUSH1 0x0 PUSH2 0x259A DUP3 PUSH2 0x254B JUMP JUMPDEST SWAP2 POP PUSH2 0x25A6 DUP3 DUP5 PUSH2 0x2578 JUMP JUMPDEST PUSH1 0x20 DUP3 ADD SWAP2 POP DUP2 SWAP1 POP SWAP3 SWAP2 POP POP JUMP JUMPDEST PUSH1 0x0 PUSH2 0x25C1 DUP3 DUP7 PUSH2 0x1F2A JUMP JUMPDEST SWAP2 POP PUSH2 0x25CD DUP3 DUP6 PUSH2 0x1F2A JUMP JUMPDEST SWAP2 POP PUSH2 0x25D9 DUP3 DUP5 PUSH2 0x1F2A JUMP JUMPDEST SWAP2 POP DUP2 SWAP1 POP SWAP5 SWAP4 POP POP POP POP JUMP INVALID LOG2 PUSH5 0x6970667358 0x22 SLT KECCAK256 0x27 0xEB PUSH10 0xF104C92E9517A113DA1 PUSH10 0x47DBE99B8D198B6AFAC4 0xF8 DUP16 0x1F OR 0x4F 0xB5 DUP4 0xC5 PUSH5 0x736F6C6343 STOP ADDMOD XOR STOP CALLER "},"methodIdentifiers":{"calls()":"305f72b7","evaluate(string,string,string,string,string,string)":"7b009128","evaluate2(string,string,string,string,string,string,bytes)":"009fe9ac","getEthSignedMessageHash(bytes32)":"fa540801","getEvaluationResult(string)":"354fc470","getMessageHash(string)":"b446f3b2","getSender()":"5e01eb5a","publicKey()":"63ffab31","recoverSigner(bytes32,bytes)":"97aba7f9","splitSignature(bytes)":"a7bb5803","verify(address,string,bytes)":"2dd34f0f"}}}}}