{"contracts/VerifySignature.sol":{"VerifySignature":{"abi":[{"anonymous":false,"inputs":[{"indexed":false,"internalType":"bool","name":"success","type":"bool"}],"name":"SignUpResult","type":"event"},{"inputs":[{"internalType":"bytes32","name":"_messageHash","type":"bytes32"}],"name":"getEthSignedMessageHash","outputs":[{"internalType":"bytes32","name":"","type":"bytes32"}],"stateMutability":"pure","type":"function"},{"inputs":[{"internalType":"string","name":"_message","type":"string"}],"name":"getMessageHash","outputs":[{"internalType":"bytes32","name":"","type":"bytes32"}],"stateMutability":"pure","type":"function"},{"inputs":[],"name":"getSender","outputs":[{"internalType":"address","name":"","type":"address"}],"stateMutability":"view","type":"function"},{"inputs":[{"internalType":"address","name":"_account","type":"address"},{"internalType":"string","name":"_username","type":"string"},{"internalType":"string","name":"_password","type":"string"},{"internalType":"bytes","name":"_signature","type":"bytes"}],"name":"login","outputs":[{"internalType":"bool","name":"","type":"bool"}],"stateMutability":"view","type":"function"},{"inputs":[{"internalType":"bytes","name":"_signature","type":"bytes"}],"name":"loginWithSignature","outputs":[{"internalType":"bool","name":"","type":"bool"}],"stateMutability":"view","type":"function"},{"inputs":[{"internalType":"address","name":"_account","type":"address"},{"internalType":"bytes","name":"_signature","type":"bytes"}],"name":"loginWithSignature2","outputs":[{"internalType":"bool","name":"","type":"bool"}],"stateMutability":"view","type":"function"},{"inputs":[{"internalType":"bytes32","name":"_ethSignedMessageHash","type":"bytes32"},{"internalType":"bytes","name":"_signature","type":"bytes"}],"name":"recoverSigner","outputs":[{"internalType":"address","name":"","type":"address"}],"stateMutability":"pure","type":"function"},{"inputs":[{"internalType":"address","name":"_account","type":"address"},{"internalType":"string","name":"_username","type":"string"},{"internalType":"string","name":"_password","type":"string"},{"internalType":"bytes","name":"_signature","type":"bytes"}],"name":"signUp","outputs":[],"stateMutability":"nonpayable","type":"function"},{"inputs":[{"internalType":"bytes","name":"sig","type":"bytes"}],"name":"splitSignature","outputs":[{"internalType":"bytes32","name":"r","type":"bytes32"},{"internalType":"bytes32","name":"s","type":"bytes32"},{"internalType":"uint8","name":"v","type":"uint8"}],"stateMutability":"pure","type":"function"},{"inputs":[{"internalType":"address","name":"_signer","type":"address"},{"internalType":"string","name":"_message","type":"string"},{"internalType":"bytes","name":"signature","type":"bytes"}],"name":"verify","outputs":[{"internalType":"bool","name":"","type":"bool"}],"stateMutability":"pure","type":"function"}],"evm":{"bytecode":{"linkReferences":{},"object":"608060405234801561001057600080fd5b50611b11806100206000396000f3fe608060405234801561001057600080fd5b506004361061009e5760003560e01c806397aba7f91161006657806397aba7f91461016d578063a7bb58031461019d578063b446f3b2146101cf578063dea2507c146101ff578063fa5408011461022f5761009e565b8063131dd94c146100a357806328aacfdf146100d35780632bbfd547146101035780632dd34f0f1461011f5780635e01eb5a1461014f575b600080fd5b6100bd60048036038101906100b89190610de4565b61025f565b6040516100ca9190610e48565b60405180910390f35b6100ed60048036038101906100e89190610ec1565b610413565b6040516100fa9190610e48565b60405180910390f35b61011d60048036038101906101189190610fbe565b6105c8565b005b61013960048036038101906101349190611079565b61083e565b6040516101469190610e48565b60405180910390f35b61015761089c565b6040516101649190611113565b60405180910390f35b61018760048036038101906101829190611164565b6108a4565b6040516101949190611113565b60405180910390f35b6101b760048036038101906101b29190610de4565b610913565b6040516101c6939291906111eb565b60405180910390f35b6101e960048036038101906101e49190611222565b61097b565b6040516101f6919061126b565b60405180910390f35b61021960048036038101906102149190610fbe565b6109ab565b6040516102269190610e48565b60405180910390f35b61024960048036038101906102449190611286565b610c5a565b604051610256919061126b565b60405180910390f35b6000806000803373ffffffffffffffffffffffffffffffffffffffff1673ffffffffffffffffffffffffffffffffffffffff1681526020019081526020016000206040518060400160405290816000820180546102bb906112e2565b80601f01602080910402602001604051908101604052809291908181526020018280546102e7906112e2565b80156103345780601f1061030957610100808354040283529160200191610334565b820191906000526020600020905b81548152906001019060200180831161031757829003601f168201915b5050505050815260200160018201805461034d906112e2565b80601f0160208091040260200160405190810160405280929190818152602001828054610379906112e2565b80156103c65780601f1061039b576101008083540402835291602001916103c6565b820191906000526020600020905b8154815290600101906020018083116103a957829003601f168201915b50505050508152505090506000816000015182602001516040516020016103ee9291906113d0565b604051602081830303815290604052905061040a33828661083e565b92505050919050565b6000806000808573ffffffffffffffffffffffffffffffffffffffff1673ffffffffffffffffffffffffffffffffffffffff16815260200190815260200160002060405180604001604052908160008201805461046f906112e2565b80601f016020809104026020016040519081016040528092919081815260200182805461049b906112e2565b80156104e85780601f106104bd576101008083540402835291602001916104e8565b820191906000526020600020905b8154815290600101906020018083116104cb57829003601f168201915b50505050508152602001600182018054610501906112e2565b80601f016020809104026020016040519081016040528092919081815260200182805461052d906112e2565b801561057a5780601f1061054f5761010080835404028352916020019161057a565b820191906000526020600020905b81548152906001019060200180831161055d57829003601f168201915b50505050508152505090506000816000015182602001516040516020016105a29291906113d0565b60405160208183030381529060405290506105be33828661083e565b9250505092915050565b600073ffffffffffffffffffffffffffffffffffffffff168473ffffffffffffffffffffffffffffffffffffffff1603610637576040517f08c379a000000000000000000000000000000000000000000000000000000000815260040161062e9061145c565b60405180910390fd5b600083511161067b576040517f08c379a0000000000000000000000000000000000000000000000000000000008152600401610672906114c8565b60405180910390fd5b60008251116106bf576040517f08c379a00000000000000000000000000000000000000000000000000000000081526004016106b690611534565b60405180910390fd5b600115156106ef8585856040516020016106da9291906113d0565b6040516020818303038152906040528461083e565b151514610731576040517f08c379a0000000000000000000000000000000000000000000000000000000008152600401610728906115a0565b60405180910390fd5b6040518060400160405280848152602001838152506000808673ffffffffffffffffffffffffffffffffffffffff1673ffffffffffffffffffffffffffffffffffffffff16815260200190815260200160002060008201518160000190816107999190611776565b5060208201518160010190816107af9190611776565b5090505080600160008673ffffffffffffffffffffffffffffffffffffffff1673ffffffffffffffffffffffffffffffffffffffff16815260200190815260200160002090816107ff91906118ae565b507f05cd542ccd54cabc7cea4b1abd891216618e038cac6f207ce46adfcbf2e6550a60016040516108309190610e48565b60405180910390a150505050565b60008061084a8461097b565b9050600061085782610c5a565b90508573ffffffffffffffffffffffffffffffffffffffff1661087a82866108a4565b73ffffffffffffffffffffffffffffffffffffffff1614925050509392505050565b600033905090565b6000806000806108b385610913565b925092509250600186828585604051600081526020016040526040516108dc9493929190611980565b6020604051602081039080840390855afa1580156108fe573d6000803e3d6000fd5b50505060206040510351935050505092915050565b6000806000604184511461095c576040517f08c379a000000000000000000000000000000000000000000000000000000000815260040161095390611a11565b60405180910390fd5b6020840151925060408401519150606084015160001a90509193909250565b60008160405160200161098e9190611a31565b604051602081830303815290604052805190602001209050919050565b6000806000808773ffffffffffffffffffffffffffffffffffffffff1673ffffffffffffffffffffffffffffffffffffffff168152602001908152602001600020604051806040016040529081600082018054610a07906112e2565b80601f0160208091040260200160405190810160405280929190818152602001828054610a33906112e2565b8015610a805780601f10610a5557610100808354040283529160200191610a80565b820191906000526020600020905b815481529060010190602001808311610a6357829003601f168201915b50505050508152602001600182018054610a99906112e2565b80601f0160208091040260200160405190810160405280929190818152602001828054610ac5906112e2565b8015610b125780601f10610ae757610100808354040283529160200191610b12565b820191906000526020600020905b815481529060010190602001808311610af557829003601f168201915b505050505081525050905084604051602001610b2e9190611a31565b604051602081830303815290604052805190602001208160000151604051602001610b599190611a31565b60405160208183030381529060405280519060200120148015610bcb575083604051602001610b889190611a31565b604051602081830303815290604052805190602001208160200151604051602001610bb39190611a31565b60405160208183030381529060405280519060200120145b15610c4c5760011515610c00878787604051602001610beb9291906113d0565b6040516020818303038152906040528661083e565b151514610c42576040517f08c379a0000000000000000000000000000000000000000000000000000000008152600401610c39906115a0565b60405180910390fd5b6001915050610c52565b60009150505b949350505050565b600081604051602001610c6d9190611ab5565b604051602081830303815290604052805190602001209050919050565b6000604051905090565b600080fd5b600080fd5b600080fd5b600080fd5b6000601f19601f8301169050919050565b7f4e487b7100000000000000000000000000000000000000000000000000000000600052604160045260246000fd5b610cf182610ca8565b810181811067ffffffffffffffff82111715610d1057610d0f610cb9565b5b80604052505050565b6000610d23610c8a565b9050610d2f8282610ce8565b919050565b600067ffffffffffffffff821115610d4f57610d4e610cb9565b5b610d5882610ca8565b9050602081019050919050565b82818337600083830152505050565b6000610d87610d8284610d34565b610d19565b905082815260208101848484011115610da357610da2610ca3565b5b610dae848285610d65565b509392505050565b600082601f830112610dcb57610dca610c9e565b5b8135610ddb848260208601610d74565b91505092915050565b600060208284031215610dfa57610df9610c94565b5b600082013567ffffffffffffffff811115610e1857610e17610c99565b5b610e2484828501610db6565b91505092915050565b60008115159050919050565b610e4281610e2d565b82525050565b6000602082019050610e5d6000830184610e39565b92915050565b600073ffffffffffffffffffffffffffffffffffffffff82169050919050565b6000610e8e82610e63565b9050919050565b610e9e81610e83565b8114610ea957600080fd5b50565b600081359050610ebb81610e95565b92915050565b60008060408385031215610ed857610ed7610c94565b5b6000610ee685828601610eac565b925050602083013567ffffffffffffffff811115610f0757610f06610c99565b5b610f1385828601610db6565b9150509250929050565b600067ffffffffffffffff821115610f3857610f37610cb9565b5b610f4182610ca8565b9050602081019050919050565b6000610f61610f5c84610f1d565b610d19565b905082815260208101848484011115610f7d57610f7c610ca3565b5b610f88848285610d65565b509392505050565b600082601f830112610fa557610fa4610c9e565b5b8135610fb5848260208601610f4e565b91505092915050565b60008060008060808587031215610fd857610fd7610c94565b5b6000610fe687828801610eac565b945050602085013567ffffffffffffffff81111561100757611006610c99565b5b61101387828801610f90565b935050604085013567ffffffffffffffff81111561103457611033610c99565b5b61104087828801610f90565b925050606085013567ffffffffffffffff81111561106157611060610c99565b5b61106d87828801610db6565b91505092959194509250565b60008060006060848603121561109257611091610c94565b5b60006110a086828701610eac565b935050602084013567ffffffffffffffff8111156110c1576110c0610c99565b5b6110cd86828701610f90565b925050604084013567ffffffffffffffff8111156110ee576110ed610c99565b5b6110fa86828701610db6565b9150509250925092565b61110d81610e83565b82525050565b60006020820190506111286000830184611104565b92915050565b6000819050919050565b6111418161112e565b811461114c57600080fd5b50565b60008135905061115e81611138565b92915050565b6000806040838503121561117b5761117a610c94565b5b60006111898582860161114f565b925050602083013567ffffffffffffffff8111156111aa576111a9610c99565b5b6111b685828601610db6565b9150509250929050565b6111c98161112e565b82525050565b600060ff82169050919050565b6111e5816111cf565b82525050565b600060608201905061120060008301866111c0565b61120d60208301856111c0565b61121a60408301846111dc565b949350505050565b60006020828403121561123857611237610c94565b5b600082013567ffffffffffffffff81111561125657611255610c99565b5b61126284828501610f90565b91505092915050565b600060208201905061128060008301846111c0565b92915050565b60006020828403121561129c5761129b610c94565b5b60006112aa8482850161114f565b91505092915050565b7f4e487b7100000000000000000000000000000000000000000000000000000000600052602260045260246000fd5b600060028204905060018216806112fa57607f821691505b60208210810361130d5761130c6112b3565b5b50919050565b600081519050919050565b600081905092915050565b60005b8381101561134757808201518184015260208101905061132c565b60008484015250505050565b600061135e82611313565b611368818561131e565b9350611378818560208601611329565b80840191505092915050565b7f2c00000000000000000000000000000000000000000000000000000000000000600082015250565b60006113ba60018361131e565b91506113c582611384565b600182019050919050565b60006113dc8285611353565b91506113e7826113ad565b91506113f38284611353565b91508190509392505050565b600082825260208201905092915050565b7f496e76616c6964206163636f756e742061646472657373000000000000000000600082015250565b60006114466017836113ff565b915061145182611410565b602082019050919050565b6000602082019050818103600083015261147581611439565b9050919050565b7f557365726e616d652063616e6e6f7420626520656d7074790000000000000000600082015250565b60006114b26018836113ff565b91506114bd8261147c565b602082019050919050565b600060208201905081810360008301526114e1816114a5565b9050919050565b7f50617373776f72642063616e6e6f7420626520656d7074790000000000000000600082015250565b600061151e6018836113ff565b9150611529826114e8565b602082019050919050565b6000602082019050818103600083015261154d81611511565b9050919050565b7f496e76616c6964207369676e6174757265000000000000000000000000000000600082015250565b600061158a6011836113ff565b915061159582611554565b602082019050919050565b600060208201905081810360008301526115b98161157d565b9050919050565b60008190508160005260206000209050919050565b60006020601f8301049050919050565b600082821b905092915050565b6000600883026116227fffffffffffffffffffffffffffffffffffffffffffffffffffffffffffffffff826115e5565b61162c86836115e5565b95508019841693508086168417925050509392505050565b6000819050919050565b6000819050919050565b600061167361166e61166984611644565b61164e565b611644565b9050919050565b6000819050919050565b61168d83611658565b6116a16116998261167a565b8484546115f2565b825550505050565b600090565b6116b66116a9565b6116c1818484611684565b505050565b5b818110156116e5576116da6000826116ae565b6001810190506116c7565b5050565b601f82111561172a576116fb816115c0565b611704846115d5565b81016020851015611713578190505b61172761171f856115d5565b8301826116c6565b50505b505050565b600082821c905092915050565b600061174d6000198460080261172f565b1980831691505092915050565b6000611766838361173c565b9150826002028217905092915050565b61177f82611313565b67ffffffffffffffff81111561179857611797610cb9565b5b6117a282546112e2565b6117ad8282856116e9565b600060209050601f8311600181146117e057600084156117ce578287015190505b6117d8858261175a565b865550611840565b601f1984166117ee866115c0565b60005b82811015611816578489015182556001820191506020850194506020810190506117f1565b86831015611833578489015161182f601f89168261173c565b8355505b6001600288020188555050505b505050505050565b600081519050919050565b60008190508160005260206000209050919050565b601f8211156118a95761187a81611853565b611883846115d5565b81016020851015611892578190505b6118a661189e856115d5565b8301826116c6565b50505b505050565b6118b782611848565b67ffffffffffffffff8111156118d0576118cf610cb9565b5b6118da82546112e2565b6118e5828285611868565b600060209050601f8311600181146119185760008415611906578287015190505b611910858261175a565b865550611978565b601f19841661192686611853565b60005b8281101561194e57848901518255600182019150602085019450602081019050611929565b8683101561196b5784890151611967601f89168261173c565b8355505b6001600288020188555050505b505050505050565b600060808201905061199560008301876111c0565b6119a260208301866111dc565b6119af60408301856111c0565b6119bc60608301846111c0565b95945050505050565b7f696e76616c6964207369676e6174757265206c656e6774680000000000000000600082015250565b60006119fb6018836113ff565b9150611a06826119c5565b602082019050919050565b60006020820190508181036000830152611a2a816119ee565b9050919050565b6000611a3d8284611353565b915081905092915050565b7f19457468657265756d205369676e6564204d6573736167653a0a333200000000600082015250565b6000611a7e601c8361131e565b9150611a8982611a48565b601c82019050919050565b6000819050919050565b611aaf611aaa8261112e565b611a94565b82525050565b6000611ac082611a71565b9150611acc8284611a9e565b6020820191508190509291505056fea264697066735822122050c7dc9e2c828d86727c22765c764425d2103c769c612609ee972622835cdd8f64736f6c63430008180033","opcodes":"PUSH1 0x80 PUSH1 0x40 MSTORE CALLVALUE DUP1 ISZERO PUSH2 0x10 JUMPI PUSH1 0x0 DUP1 REVERT JUMPDEST POP PUSH2 0x1B11 DUP1 PUSH2 0x20 PUSH1 0x0 CODECOPY PUSH1 0x0 RETURN INVALID PUSH1 0x80 PUSH1 0x40 MSTORE CALLVALUE DUP1 ISZERO PUSH2 0x10 JUMPI PUSH1 0x0 DUP1 REVERT JUMPDEST POP PUSH1 0x4 CALLDATASIZE LT PUSH2 0x9E JUMPI PUSH1 0x0 CALLDATALOAD PUSH1 0xE0 SHR DUP1 PUSH4 0x97ABA7F9 GT PUSH2 0x66 JUMPI DUP1 PUSH4 0x97ABA7F9 EQ PUSH2 0x16D JUMPI DUP1 PUSH4 0xA7BB5803 EQ PUSH2 0x19D JUMPI DUP1 PUSH4 0xB446F3B2 EQ PUSH2 0x1CF JUMPI DUP1 PUSH4 0xDEA2507C EQ PUSH2 0x1FF JUMPI DUP1 PUSH4 0xFA540801 EQ PUSH2 0x22F JUMPI PUSH2 0x9E JUMP JUMPDEST DUP1 PUSH4 0x131DD94C EQ PUSH2 0xA3 JUMPI DUP1 PUSH4 0x28AACFDF EQ PUSH2 0xD3 JUMPI DUP1 PUSH4 0x2BBFD547 EQ PUSH2 0x103 JUMPI DUP1 PUSH4 0x2DD34F0F EQ PUSH2 0x11F JUMPI DUP1 PUSH4 0x5E01EB5A EQ PUSH2 0x14F JUMPI JUMPDEST PUSH1 0x0 DUP1 REVERT JUMPDEST PUSH2 0xBD PUSH1 0x4 DUP1 CALLDATASIZE SUB DUP2 ADD SWAP1 PUSH2 0xB8 SWAP2 SWAP1 PUSH2 0xDE4 JUMP JUMPDEST PUSH2 0x25F JUMP JUMPDEST PUSH1 0x40 MLOAD PUSH2 0xCA SWAP2 SWAP1 PUSH2 0xE48 JUMP JUMPDEST PUSH1 0x40 MLOAD DUP1 SWAP2 SUB SWAP1 RETURN JUMPDEST PUSH2 0xED PUSH1 0x4 DUP1 CALLDATASIZE SUB DUP2 ADD SWAP1 PUSH2 0xE8 SWAP2 SWAP1 PUSH2 0xEC1 JUMP JUMPDEST PUSH2 0x413 JUMP JUMPDEST PUSH1 0x40 MLOAD PUSH2 0xFA SWAP2 SWAP1 PUSH2 0xE48 JUMP JUMPDEST PUSH1 0x40 MLOAD DUP1 SWAP2 SUB SWAP1 RETURN JUMPDEST PUSH2 0x11D PUSH1 0x4 DUP1 CALLDATASIZE SUB DUP2 ADD SWAP1 PUSH2 0x118 SWAP2 SWAP1 PUSH2 0xFBE JUMP JUMPDEST PUSH2 0x5C8 JUMP JUMPDEST STOP JUMPDEST PUSH2 0x139 PUSH1 0x4 DUP1 CALLDATASIZE SUB DUP2 ADD SWAP1 PUSH2 0x134 SWAP2 SWAP1 PUSH2 0x1079 JUMP JUMPDEST PUSH2 0x83E JUMP JUMPDEST PUSH1 0x40 MLOAD PUSH2 0x146 SWAP2 SWAP1 PUSH2 0xE48 JUMP JUMPDEST PUSH1 0x40 MLOAD DUP1 SWAP2 SUB SWAP1 RETURN JUMPDEST PUSH2 0x157 PUSH2 0x89C JUMP JUMPDEST PUSH1 0x40 MLOAD PUSH2 0x164 SWAP2 SWAP1 PUSH2 0x1113 JUMP JUMPDEST PUSH1 0x40 MLOAD DUP1 SWAP2 SUB SWAP1 RETURN JUMPDEST PUSH2 0x187 PUSH1 0x4 DUP1 CALLDATASIZE SUB DUP2 ADD SWAP1 PUSH2 0x182 SWAP2 SWAP1 PUSH2 0x1164 JUMP JUMPDEST PUSH2 0x8A4 JUMP JUMPDEST PUSH1 0x40 MLOAD PUSH2 0x194 SWAP2 SWAP1 PUSH2 0x1113 JUMP JUMPDEST PUSH1 0x40 MLOAD DUP1 SWAP2 SUB SWAP1 RETURN JUMPDEST PUSH2 0x1B7 PUSH1 0x4 DUP1 CALLDATASIZE SUB DUP2 ADD SWAP1 PUSH2 0x1B2 SWAP2 SWAP1 PUSH2 0xDE4 JUMP JUMPDEST PUSH2 0x913 JUMP JUMPDEST PUSH1 0x40 MLOAD PUSH2 0x1C6 SWAP4 SWAP3 SWAP2 SWAP1 PUSH2 0x11EB JUMP JUMPDEST PUSH1 0x40 MLOAD DUP1 SWAP2 SUB SWAP1 RETURN JUMPDEST PUSH2 0x1E9 PUSH1 0x4 DUP1 CALLDATASIZE SUB DUP2 ADD SWAP1 PUSH2 0x1E4 SWAP2 SWAP1 PUSH2 0x1222 JUMP JUMPDEST PUSH2 0x97B JUMP JUMPDEST PUSH1 0x40 MLOAD PUSH2 0x1F6 SWAP2 SWAP1 PUSH2 0x126B JUMP JUMPDEST PUSH1 0x40 MLOAD DUP1 SWAP2 SUB SWAP1 RETURN JUMPDEST PUSH2 0x219 PUSH1 0x4 DUP1 CALLDATASIZE SUB DUP2 ADD SWAP1 PUSH2 0x214 SWAP2 SWAP1 PUSH2 0xFBE JUMP JUMPDEST PUSH2 0x9AB JUMP JUMPDEST PUSH1 0x40 MLOAD PUSH2 0x226 SWAP2 SWAP1 PUSH2 0xE48 JUMP JUMPDEST PUSH1 0x40 MLOAD DUP1 SWAP2 SUB SWAP1 RETURN JUMPDEST PUSH2 0x249 PUSH1 0x4 DUP1 CALLDATASIZE SUB DUP2 ADD SWAP1 PUSH2 0x244 SWAP2 SWAP1 PUSH2 0x1286 JUMP JUMPDEST PUSH2 0xC5A JUMP JUMPDEST PUSH1 0x40 MLOAD PUSH2 0x256 SWAP2 SWAP1 PUSH2 0x126B JUMP JUMPDEST PUSH1 0x40 MLOAD DUP1 SWAP2 SUB SWAP1 RETURN JUMPDEST PUSH1 0x0 DUP1 PUSH1 0x0 DUP1 CALLER PUSH20 0xFFFFFFFFFFFFFFFFFFFFFFFFFFFFFFFFFFFFFFFF AND PUSH20 0xFFFFFFFFFFFFFFFFFFFFFFFFFFFFFFFFFFFFFFFF AND DUP2 MSTORE PUSH1 0x20 ADD SWAP1 DUP2 MSTORE PUSH1 0x20 ADD PUSH1 0x0 KECCAK256 PUSH1 0x40 MLOAD DUP1 PUSH1 0x40 ADD PUSH1 0x40 MSTORE SWAP1 DUP2 PUSH1 0x0 DUP3 ADD DUP1 SLOAD PUSH2 0x2BB SWAP1 PUSH2 0x12E2 JUMP JUMPDEST DUP1 PUSH1 0x1F ADD PUSH1 0x20 DUP1 SWAP2 DIV MUL PUSH1 0x20 ADD PUSH1 0x40 MLOAD SWAP1 DUP2 ADD PUSH1 0x40 MSTORE DUP1 SWAP3 SWAP2 SWAP1 DUP2 DUP2 MSTORE PUSH1 0x20 ADD DUP3 DUP1 SLOAD PUSH2 0x2E7 SWAP1 PUSH2 0x12E2 JUMP JUMPDEST DUP1 ISZERO PUSH2 0x334 JUMPI DUP1 PUSH1 0x1F LT PUSH2 0x309 JUMPI PUSH2 0x100 DUP1 DUP4 SLOAD DIV MUL DUP4 MSTORE SWAP2 PUSH1 0x20 ADD SWAP2 PUSH2 0x334 JUMP JUMPDEST DUP3 ADD SWAP2 SWAP1 PUSH1 0x0 MSTORE PUSH1 0x20 PUSH1 0x0 KECCAK256 SWAP1 JUMPDEST DUP2 SLOAD DUP2 MSTORE SWAP1 PUSH1 0x1 ADD SWAP1 PUSH1 0x20 ADD DUP1 DUP4 GT PUSH2 0x317 JUMPI DUP3 SWAP1 SUB PUSH1 0x1F AND DUP3 ADD SWAP2 JUMPDEST POP POP POP POP POP DUP2 MSTORE PUSH1 0x20 ADD PUSH1 0x1 DUP3 ADD DUP1 SLOAD PUSH2 0x34D SWAP1 PUSH2 0x12E2 JUMP JUMPDEST DUP1 PUSH1 0x1F ADD PUSH1 0x20 DUP1 SWAP2 DIV MUL PUSH1 0x20 ADD PUSH1 0x40 MLOAD SWAP1 DUP2 ADD PUSH1 0x40 MSTORE DUP1 SWAP3 SWAP2 SWAP1 DUP2 DUP2 MSTORE PUSH1 0x20 ADD DUP3 DUP1 SLOAD PUSH2 0x379 SWAP1 PUSH2 0x12E2 JUMP JUMPDEST DUP1 ISZERO PUSH2 0x3C6 JUMPI DUP1 PUSH1 0x1F LT PUSH2 0x39B JUMPI PUSH2 0x100 DUP1 DUP4 SLOAD DIV MUL DUP4 MSTORE SWAP2 PUSH1 0x20 ADD SWAP2 PUSH2 0x3C6 JUMP JUMPDEST DUP3 ADD SWAP2 SWAP1 PUSH1 0x0 MSTORE PUSH1 0x20 PUSH1 0x0 KECCAK256 SWAP1 JUMPDEST DUP2 SLOAD DUP2 MSTORE SWAP1 PUSH1 0x1 ADD SWAP1 PUSH1 0x20 ADD DUP1 DUP4 GT PUSH2 0x3A9 JUMPI DUP3 SWAP1 SUB PUSH1 0x1F AND DUP3 ADD SWAP2 JUMPDEST POP POP POP POP POP DUP2 MSTORE POP POP SWAP1 POP PUSH1 0x0 DUP2 PUSH1 0x0 ADD MLOAD DUP3 PUSH1 0x20 ADD MLOAD PUSH1 0x40 MLOAD PUSH1 0x20 ADD PUSH2 0x3EE SWAP3 SWAP2 SWAP1 PUSH2 0x13D0 JUMP JUMPDEST PUSH1 0x40 MLOAD PUSH1 0x20 DUP2 DUP4 SUB SUB DUP2 MSTORE SWAP1 PUSH1 0x40 MSTORE SWAP1 POP PUSH2 0x40A CALLER DUP3 DUP7 PUSH2 0x83E JUMP JUMPDEST SWAP3 POP POP POP SWAP2 SWAP1 POP JUMP JUMPDEST PUSH1 0x0 DUP1 PUSH1 0x0 DUP1 DUP6 PUSH20 0xFFFFFFFFFFFFFFFFFFFFFFFFFFFFFFFFFFFFFFFF AND PUSH20 0xFFFFFFFFFFFFFFFFFFFFFFFFFFFFFFFFFFFFFFFF AND DUP2 MSTORE PUSH1 0x20 ADD SWAP1 DUP2 MSTORE PUSH1 0x20 ADD PUSH1 0x0 KECCAK256 PUSH1 0x40 MLOAD DUP1 PUSH1 0x40 ADD PUSH1 0x40 MSTORE SWAP1 DUP2 PUSH1 0x0 DUP3 ADD DUP1 SLOAD PUSH2 0x46F SWAP1 PUSH2 0x12E2 JUMP JUMPDEST DUP1 PUSH1 0x1F ADD PUSH1 0x20 DUP1 SWAP2 DIV MUL PUSH1 0x20 ADD PUSH1 0x40 MLOAD SWAP1 DUP2 ADD PUSH1 0x40 MSTORE DUP1 SWAP3 SWAP2 SWAP1 DUP2 DUP2 MSTORE PUSH1 0x20 ADD DUP3 DUP1 SLOAD PUSH2 0x49B SWAP1 PUSH2 0x12E2 JUMP JUMPDEST DUP1 ISZERO PUSH2 0x4E8 JUMPI DUP1 PUSH1 0x1F LT PUSH2 0x4BD JUMPI PUSH2 0x100 DUP1 DUP4 SLOAD DIV MUL DUP4 MSTORE SWAP2 PUSH1 0x20 ADD SWAP2 PUSH2 0x4E8 JUMP JUMPDEST DUP3 ADD SWAP2 SWAP1 PUSH1 0x0 MSTORE PUSH1 0x20 PUSH1 0x0 KECCAK256 SWAP1 JUMPDEST DUP2 SLOAD DUP2 MSTORE SWAP1 PUSH1 0x1 ADD SWAP1 PUSH1 0x20 ADD DUP1 DUP4 GT PUSH2 0x4CB JUMPI DUP3 SWAP1 SUB PUSH1 0x1F AND DUP3 ADD SWAP2 JUMPDEST POP POP POP POP POP DUP2 MSTORE PUSH1 0x20 ADD PUSH1 0x1 DUP3 ADD DUP1 SLOAD PUSH2 0x501 SWAP1 PUSH2 0x12E2 JUMP JUMPDEST DUP1 PUSH1 0x1F ADD PUSH1 0x20 DUP1 SWAP2 DIV MUL PUSH1 0x20 ADD PUSH1 0x40 MLOAD SWAP1 DUP2 ADD PUSH1 0x40 MSTORE DUP1 SWAP3 SWAP2 SWAP1 DUP2 DUP2 MSTORE PUSH1 0x20 ADD DUP3 DUP1 SLOAD PUSH2 0x52D SWAP1 PUSH2 0x12E2 JUMP JUMPDEST DUP1 ISZERO PUSH2 0x57A JUMPI DUP1 PUSH1 0x1F LT PUSH2 0x54F JUMPI PUSH2 0x100 DUP1 DUP4 SLOAD DIV MUL DUP4 MSTORE SWAP2 PUSH1 0x20 ADD SWAP2 PUSH2 0x57A JUMP JUMPDEST DUP3 ADD SWAP2 SWAP1 PUSH1 0x0 MSTORE PUSH1 0x20 PUSH1 0x0 KECCAK256 SWAP1 JUMPDEST DUP2 SLOAD DUP2 MSTORE SWAP1 PUSH1 0x1 ADD SWAP1 PUSH1 0x20 ADD DUP1 DUP4 GT PUSH2 0x55D JUMPI DUP3 SWAP1 SUB PUSH1 0x1F AND DUP3 ADD SWAP2 JUMPDEST POP POP POP POP POP DUP2 MSTORE POP POP SWAP1 POP PUSH1 0x0 DUP2 PUSH1 0x0 ADD MLOAD DUP3 PUSH1 0x20 ADD MLOAD PUSH1 0x40 MLOAD PUSH1 0x20 ADD PUSH2 0x5A2 SWAP3 SWAP2 SWAP1 PUSH2 0x13D0 JUMP JUMPDEST PUSH1 0x40 MLOAD PUSH1 0x20 DUP2 DUP4 SUB SUB DUP2 MSTORE SWAP1 PUSH1 0x40 MSTORE SWAP1 POP PUSH2 0x5BE CALLER DUP3 DUP7 PUSH2 0x83E JUMP JUMPDEST SWAP3 POP POP POP SWAP3 SWAP2 POP POP JUMP JUMPDEST PUSH1 0x0 PUSH20 0xFFFFFFFFFFFFFFFFFFFFFFFFFFFFFFFFFFFFFFFF AND DUP5 PUSH20 0xFFFFFFFFFFFFFFFFFFFFFFFFFFFFFFFFFFFFFFFF AND SUB PUSH2 0x637 JUMPI PUSH1 0x40 MLOAD PUSH32 0x8C379A000000000000000000000000000000000000000000000000000000000 DUP2 MSTORE PUSH1 0x4 ADD PUSH2 0x62E SWAP1 PUSH2 0x145C JUMP JUMPDEST PUSH1 0x40 MLOAD DUP1 SWAP2 SUB SWAP1 REVERT JUMPDEST PUSH1 0x0 DUP4 MLOAD GT PUSH2 0x67B JUMPI PUSH1 0x40 MLOAD PUSH32 0x8C379A000000000000000000000000000000000000000000000000000000000 DUP2 MSTORE PUSH1 0x4 ADD PUSH2 0x672 SWAP1 PUSH2 0x14C8 JUMP JUMPDEST PUSH1 0x40 MLOAD DUP1 SWAP2 SUB SWAP1 REVERT JUMPDEST PUSH1 0x0 DUP3 MLOAD GT PUSH2 0x6BF JUMPI PUSH1 0x40 MLOAD PUSH32 0x8C379A000000000000000000000000000000000000000000000000000000000 DUP2 MSTORE PUSH1 0x4 ADD PUSH2 0x6B6 SWAP1 PUSH2 0x1534 JUMP JUMPDEST PUSH1 0x40 MLOAD DUP1 SWAP2 SUB SWAP1 REVERT JUMPDEST PUSH1 0x1 ISZERO ISZERO PUSH2 0x6EF DUP6 DUP6 DUP6 PUSH1 0x40 MLOAD PUSH1 0x20 ADD PUSH2 0x6DA SWAP3 SWAP2 SWAP1 PUSH2 0x13D0 JUMP JUMPDEST PUSH1 0x40 MLOAD PUSH1 0x20 DUP2 DUP4 SUB SUB DUP2 MSTORE SWAP1 PUSH1 0x40 MSTORE DUP5 PUSH2 0x83E JUMP JUMPDEST ISZERO ISZERO EQ PUSH2 0x731 JUMPI PUSH1 0x40 MLOAD PUSH32 0x8C379A000000000000000000000000000000000000000000000000000000000 DUP2 MSTORE PUSH1 0x4 ADD PUSH2 0x728 SWAP1 PUSH2 0x15A0 JUMP JUMPDEST PUSH1 0x40 MLOAD DUP1 SWAP2 SUB SWAP1 REVERT JUMPDEST PUSH1 0x40 MLOAD DUP1 PUSH1 0x40 ADD PUSH1 0x40 MSTORE DUP1 DUP5 DUP2 MSTORE PUSH1 0x20 ADD DUP4 DUP2 MSTORE POP PUSH1 0x0 DUP1 DUP7 PUSH20 0xFFFFFFFFFFFFFFFFFFFFFFFFFFFFFFFFFFFFFFFF AND PUSH20 0xFFFFFFFFFFFFFFFFFFFFFFFFFFFFFFFFFFFFFFFF AND DUP2 MSTORE PUSH1 0x20 ADD SWAP1 DUP2 MSTORE PUSH1 0x20 ADD PUSH1 0x0 KECCAK256 PUSH1 0x0 DUP3 ADD MLOAD DUP2 PUSH1 0x0 ADD SWAP1 DUP2 PUSH2 0x799 SWAP2 SWAP1 PUSH2 0x1776 JUMP JUMPDEST POP PUSH1 0x20 DUP3 ADD MLOAD DUP2 PUSH1 0x1 ADD SWAP1 DUP2 PUSH2 0x7AF SWAP2 SWAP1 PUSH2 0x1776 JUMP JUMPDEST POP SWAP1 POP POP DUP1 PUSH1 0x1 PUSH1 0x0 DUP7 PUSH20 0xFFFFFFFFFFFFFFFFFFFFFFFFFFFFFFFFFFFFFFFF AND PUSH20 0xFFFFFFFFFFFFFFFFFFFFFFFFFFFFFFFFFFFFFFFF AND DUP2 MSTORE PUSH1 0x20 ADD SWAP1 DUP2 MSTORE PUSH1 0x20 ADD PUSH1 0x0 KECCAK256 SWAP1 DUP2 PUSH2 0x7FF SWAP2 SWAP1 PUSH2 0x18AE JUMP JUMPDEST POP PUSH32 0x5CD542CCD54CABC7CEA4B1ABD891216618E038CAC6F207CE46ADFCBF2E6550A PUSH1 0x1 PUSH1 0x40 MLOAD PUSH2 0x830 SWAP2 SWAP1 PUSH2 0xE48 JUMP JUMPDEST PUSH1 0x40 MLOAD DUP1 SWAP2 SUB SWAP1 LOG1 POP POP POP POP JUMP JUMPDEST PUSH1 0x0 DUP1 PUSH2 0x84A DUP5 PUSH2 0x97B JUMP JUMPDEST SWAP1 POP PUSH1 0x0 PUSH2 0x857 DUP3 PUSH2 0xC5A JUMP JUMPDEST SWAP1 POP DUP6 PUSH20 0xFFFFFFFFFFFFFFFFFFFFFFFFFFFFFFFFFFFFFFFF AND PUSH2 0x87A DUP3 DUP7 PUSH2 0x8A4 JUMP JUMPDEST PUSH20 0xFFFFFFFFFFFFFFFFFFFFFFFFFFFFFFFFFFFFFFFF AND EQ SWAP3 POP POP POP SWAP4 SWAP3 POP POP POP JUMP JUMPDEST PUSH1 0x0 CALLER SWAP1 POP SWAP1 JUMP JUMPDEST PUSH1 0x0 DUP1 PUSH1 0x0 DUP1 PUSH2 0x8B3 DUP6 PUSH2 0x913 JUMP JUMPDEST SWAP3 POP SWAP3 POP SWAP3 POP PUSH1 0x1 DUP7 DUP3 DUP6 DUP6 PUSH1 0x40 MLOAD PUSH1 0x0 DUP2 MSTORE PUSH1 0x20 ADD PUSH1 0x40 MSTORE PUSH1 0x40 MLOAD PUSH2 0x8DC SWAP5 SWAP4 SWAP3 SWAP2 SWAP1 PUSH2 0x1980 JUMP JUMPDEST PUSH1 0x20 PUSH1 0x40 MLOAD PUSH1 0x20 DUP2 SUB SWAP1 DUP1 DUP5 SUB SWAP1 DUP6 GAS STATICCALL ISZERO DUP1 ISZERO PUSH2 0x8FE JUMPI RETURNDATASIZE PUSH1 0x0 DUP1 RETURNDATACOPY RETURNDATASIZE PUSH1 0x0 REVERT JUMPDEST POP POP POP PUSH1 0x20 PUSH1 0x40 MLOAD SUB MLOAD SWAP4 POP POP POP POP SWAP3 SWAP2 POP POP JUMP JUMPDEST PUSH1 0x0 DUP1 PUSH1 0x0 PUSH1 0x41 DUP5 MLOAD EQ PUSH2 0x95C JUMPI PUSH1 0x40 MLOAD PUSH32 0x8C379A000000000000000000000000000000000000000000000000000000000 DUP2 MSTORE PUSH1 0x4 ADD PUSH2 0x953 SWAP1 PUSH2 0x1A11 JUMP JUMPDEST PUSH1 0x40 MLOAD DUP1 SWAP2 SUB SWAP1 REVERT JUMPDEST PUSH1 0x20 DUP5 ADD MLOAD SWAP3 POP PUSH1 0x40 DUP5 ADD MLOAD SWAP2 POP PUSH1 0x60 DUP5 ADD MLOAD PUSH1 0x0 BYTE SWAP1 POP SWAP2 SWAP4 SWAP1 SWAP3 POP JUMP JUMPDEST PUSH1 0x0 DUP2 PUSH1 0x40 MLOAD PUSH1 0x20 ADD PUSH2 0x98E SWAP2 SWAP1 PUSH2 0x1A31 JUMP JUMPDEST PUSH1 0x40 MLOAD PUSH1 0x20 DUP2 DUP4 SUB SUB DUP2 MSTORE SWAP1 PUSH1 0x40 MSTORE DUP1 MLOAD SWAP1 PUSH1 0x20 ADD KECCAK256 SWAP1 POP SWAP2 SWAP1 POP JUMP JUMPDEST PUSH1 0x0 DUP1 PUSH1 0x0 DUP1 DUP8 PUSH20 0xFFFFFFFFFFFFFFFFFFFFFFFFFFFFFFFFFFFFFFFF AND PUSH20 0xFFFFFFFFFFFFFFFFFFFFFFFFFFFFFFFFFFFFFFFF AND DUP2 MSTORE PUSH1 0x20 ADD SWAP1 DUP2 MSTORE PUSH1 0x20 ADD PUSH1 0x0 KECCAK256 PUSH1 0x40 MLOAD DUP1 PUSH1 0x40 ADD PUSH1 0x40 MSTORE SWAP1 DUP2 PUSH1 0x0 DUP3 ADD DUP1 SLOAD PUSH2 0xA07 SWAP1 PUSH2 0x12E2 JUMP JUMPDEST DUP1 PUSH1 0x1F ADD PUSH1 0x20 DUP1 SWAP2 DIV MUL PUSH1 0x20 ADD PUSH1 0x40 MLOAD SWAP1 DUP2 ADD PUSH1 0x40 MSTORE DUP1 SWAP3 SWAP2 SWAP1 DUP2 DUP2 MSTORE PUSH1 0x20 ADD DUP3 DUP1 SLOAD PUSH2 0xA33 SWAP1 PUSH2 0x12E2 JUMP JUMPDEST DUP1 ISZERO PUSH2 0xA80 JUMPI DUP1 PUSH1 0x1F LT PUSH2 0xA55 JUMPI PUSH2 0x100 DUP1 DUP4 SLOAD DIV MUL DUP4 MSTORE SWAP2 PUSH1 0x20 ADD SWAP2 PUSH2 0xA80 JUMP JUMPDEST DUP3 ADD SWAP2 SWAP1 PUSH1 0x0 MSTORE PUSH1 0x20 PUSH1 0x0 KECCAK256 SWAP1 JUMPDEST DUP2 SLOAD DUP2 MSTORE SWAP1 PUSH1 0x1 ADD SWAP1 PUSH1 0x20 ADD DUP1 DUP4 GT PUSH2 0xA63 JUMPI DUP3 SWAP1 SUB PUSH1 0x1F AND DUP3 ADD SWAP2 JUMPDEST POP POP POP POP POP DUP2 MSTORE PUSH1 0x20 ADD PUSH1 0x1 DUP3 ADD DUP1 SLOAD PUSH2 0xA99 SWAP1 PUSH2 0x12E2 JUMP JUMPDEST DUP1 PUSH1 0x1F ADD PUSH1 0x20 DUP1 SWAP2 DIV MUL PUSH1 0x20 ADD PUSH1 0x40 MLOAD SWAP1 DUP2 ADD PUSH1 0x40 MSTORE DUP1 SWAP3 SWAP2 SWAP1 DUP2 DUP2 MSTORE PUSH1 0x20 ADD DUP3 DUP1 SLOAD PUSH2 0xAC5 SWAP1 PUSH2 0x12E2 JUMP JUMPDEST DUP1 ISZERO PUSH2 0xB12 JUMPI DUP1 PUSH1 0x1F LT PUSH2 0xAE7 JUMPI PUSH2 0x100 DUP1 DUP4 SLOAD DIV MUL DUP4 MSTORE SWAP2 PUSH1 0x20 ADD SWAP2 PUSH2 0xB12 JUMP JUMPDEST DUP3 ADD SWAP2 SWAP1 PUSH1 0x0 MSTORE PUSH1 0x20 PUSH1 0x0 KECCAK256 SWAP1 JUMPDEST DUP2 SLOAD DUP2 MSTORE SWAP1 PUSH1 0x1 ADD SWAP1 PUSH1 0x20 ADD DUP1 DUP4 GT PUSH2 0xAF5 JUMPI DUP3 SWAP1 SUB PUSH1 0x1F AND DUP3 ADD SWAP2 JUMPDEST POP POP POP POP POP DUP2 MSTORE POP POP SWAP1 POP DUP5 PUSH1 0x40 MLOAD PUSH1 0x20 ADD PUSH2 0xB2E SWAP2 SWAP1 PUSH2 0x1A31 JUMP JUMPDEST PUSH1 0x40 MLOAD PUSH1 0x20 DUP2 DUP4 SUB SUB DUP2 MSTORE SWAP1 PUSH1 0x40 MSTORE DUP1 MLOAD SWAP1 PUSH1 0x20 ADD KECCAK256 DUP2 PUSH1 0x0 ADD MLOAD PUSH1 0x40 MLOAD PUSH1 0x20 ADD PUSH2 0xB59 SWAP2 SWAP1 PUSH2 0x1A31 JUMP JUMPDEST PUSH1 0x40 MLOAD PUSH1 0x20 DUP2 DUP4 SUB SUB DUP2 MSTORE SWAP1 PUSH1 0x40 MSTORE DUP1 MLOAD SWAP1 PUSH1 0x20 ADD KECCAK256 EQ DUP1 ISZERO PUSH2 0xBCB JUMPI POP DUP4 PUSH1 0x40 MLOAD PUSH1 0x20 ADD PUSH2 0xB88 SWAP2 SWAP1 PUSH2 0x1A31 JUMP JUMPDEST PUSH1 0x40 MLOAD PUSH1 0x20 DUP2 DUP4 SUB SUB DUP2 MSTORE SWAP1 PUSH1 0x40 MSTORE DUP1 MLOAD SWAP1 PUSH1 0x20 ADD KECCAK256 DUP2 PUSH1 0x20 ADD MLOAD PUSH1 0x40 MLOAD PUSH1 0x20 ADD PUSH2 0xBB3 SWAP2 SWAP1 PUSH2 0x1A31 JUMP JUMPDEST PUSH1 0x40 MLOAD PUSH1 0x20 DUP2 DUP4 SUB SUB DUP2 MSTORE SWAP1 PUSH1 0x40 MSTORE DUP1 MLOAD SWAP1 PUSH1 0x20 ADD KECCAK256 EQ JUMPDEST ISZERO PUSH2 0xC4C JUMPI PUSH1 0x1 ISZERO ISZERO PUSH2 0xC00 DUP8 DUP8 DUP8 PUSH1 0x40 MLOAD PUSH1 0x20 ADD PUSH2 0xBEB SWAP3 SWAP2 SWAP1 PUSH2 0x13D0 JUMP JUMPDEST PUSH1 0x40 MLOAD PUSH1 0x20 DUP2 DUP4 SUB SUB DUP2 MSTORE SWAP1 PUSH1 0x40 MSTORE DUP7 PUSH2 0x83E JUMP JUMPDEST ISZERO ISZERO EQ PUSH2 0xC42 JUMPI PUSH1 0x40 MLOAD PUSH32 0x8C379A000000000000000000000000000000000000000000000000000000000 DUP2 MSTORE PUSH1 0x4 ADD PUSH2 0xC39 SWAP1 PUSH2 0x15A0 JUMP JUMPDEST PUSH1 0x40 MLOAD DUP1 SWAP2 SUB SWAP1 REVERT JUMPDEST PUSH1 0x1 SWAP2 POP POP PUSH2 0xC52 JUMP JUMPDEST PUSH1 0x0 SWAP2 POP POP JUMPDEST SWAP5 SWAP4 POP POP POP POP JUMP JUMPDEST PUSH1 0x0 DUP2 PUSH1 0x40 MLOAD PUSH1 0x20 ADD PUSH2 0xC6D SWAP2 SWAP1 PUSH2 0x1AB5 JUMP JUMPDEST PUSH1 0x40 MLOAD PUSH1 0x20 DUP2 DUP4 SUB SUB DUP2 MSTORE SWAP1 PUSH1 0x40 MSTORE DUP1 MLOAD SWAP1 PUSH1 0x20 ADD KECCAK256 SWAP1 POP SWAP2 SWAP1 POP JUMP JUMPDEST PUSH1 0x0 PUSH1 0x40 MLOAD SWAP1 POP SWAP1 JUMP JUMPDEST PUSH1 0x0 DUP1 REVERT JUMPDEST PUSH1 0x0 DUP1 REVERT JUMPDEST PUSH1 0x0 DUP1 REVERT JUMPDEST PUSH1 0x0 DUP1 REVERT JUMPDEST PUSH1 0x0 PUSH1 0x1F NOT PUSH1 0x1F DUP4 ADD AND SWAP1 POP SWAP2 SWAP1 POP JUMP JUMPDEST PUSH32 0x4E487B7100000000000000000000000000000000000000000000000000000000 PUSH1 0x0 MSTORE PUSH1 0x41 PUSH1 0x4 MSTORE PUSH1 0x24 PUSH1 0x0 REVERT JUMPDEST PUSH2 0xCF1 DUP3 PUSH2 0xCA8 JUMP JUMPDEST DUP2 ADD DUP2 DUP2 LT PUSH8 0xFFFFFFFFFFFFFFFF DUP3 GT OR ISZERO PUSH2 0xD10 JUMPI PUSH2 0xD0F PUSH2 0xCB9 JUMP JUMPDEST JUMPDEST DUP1 PUSH1 0x40 MSTORE POP POP POP JUMP JUMPDEST PUSH1 0x0 PUSH2 0xD23 PUSH2 0xC8A JUMP JUMPDEST SWAP1 POP PUSH2 0xD2F DUP3 DUP3 PUSH2 0xCE8 JUMP JUMPDEST SWAP2 SWAP1 POP JUMP JUMPDEST PUSH1 0x0 PUSH8 0xFFFFFFFFFFFFFFFF DUP3 GT ISZERO PUSH2 0xD4F JUMPI PUSH2 0xD4E PUSH2 0xCB9 JUMP JUMPDEST JUMPDEST PUSH2 0xD58 DUP3 PUSH2 0xCA8 JUMP JUMPDEST SWAP1 POP PUSH1 0x20 DUP2 ADD SWAP1 POP SWAP2 SWAP1 POP JUMP JUMPDEST DUP3 DUP2 DUP4 CALLDATACOPY PUSH1 0x0 DUP4 DUP4 ADD MSTORE POP POP POP JUMP JUMPDEST PUSH1 0x0 PUSH2 0xD87 PUSH2 0xD82 DUP5 PUSH2 0xD34 JUMP JUMPDEST PUSH2 0xD19 JUMP JUMPDEST SWAP1 POP DUP3 DUP2 MSTORE PUSH1 0x20 DUP2 ADD DUP5 DUP5 DUP5 ADD GT ISZERO PUSH2 0xDA3 JUMPI PUSH2 0xDA2 PUSH2 0xCA3 JUMP JUMPDEST JUMPDEST PUSH2 0xDAE DUP5 DUP3 DUP6 PUSH2 0xD65 JUMP JUMPDEST POP SWAP4 SWAP3 POP POP POP JUMP JUMPDEST PUSH1 0x0 DUP3 PUSH1 0x1F DUP4 ADD SLT PUSH2 0xDCB JUMPI PUSH2 0xDCA PUSH2 0xC9E JUMP JUMPDEST JUMPDEST DUP2 CALLDATALOAD PUSH2 0xDDB DUP5 DUP3 PUSH1 0x20 DUP7 ADD PUSH2 0xD74 JUMP JUMPDEST SWAP2 POP POP SWAP3 SWAP2 POP POP JUMP JUMPDEST PUSH1 0x0 PUSH1 0x20 DUP3 DUP5 SUB SLT ISZERO PUSH2 0xDFA JUMPI PUSH2 0xDF9 PUSH2 0xC94 JUMP JUMPDEST JUMPDEST PUSH1 0x0 DUP3 ADD CALLDATALOAD PUSH8 0xFFFFFFFFFFFFFFFF DUP2 GT ISZERO PUSH2 0xE18 JUMPI PUSH2 0xE17 PUSH2 0xC99 JUMP JUMPDEST JUMPDEST PUSH2 0xE24 DUP5 DUP3 DUP6 ADD PUSH2 0xDB6 JUMP JUMPDEST SWAP2 POP POP SWAP3 SWAP2 POP POP JUMP JUMPDEST PUSH1 0x0 DUP2 ISZERO ISZERO SWAP1 POP SWAP2 SWAP1 POP JUMP JUMPDEST PUSH2 0xE42 DUP2 PUSH2 0xE2D JUMP JUMPDEST DUP3 MSTORE POP POP JUMP JUMPDEST PUSH1 0x0 PUSH1 0x20 DUP3 ADD SWAP1 POP PUSH2 0xE5D PUSH1 0x0 DUP4 ADD DUP5 PUSH2 0xE39 JUMP JUMPDEST SWAP3 SWAP2 POP POP JUMP JUMPDEST PUSH1 0x0 PUSH20 0xFFFFFFFFFFFFFFFFFFFFFFFFFFFFFFFFFFFFFFFF DUP3 AND SWAP1 POP SWAP2 SWAP1 POP JUMP JUMPDEST PUSH1 0x0 PUSH2 0xE8E DUP3 PUSH2 0xE63 JUMP JUMPDEST SWAP1 POP SWAP2 SWAP1 POP JUMP JUMPDEST PUSH2 0xE9E DUP2 PUSH2 0xE83 JUMP JUMPDEST DUP2 EQ PUSH2 0xEA9 JUMPI PUSH1 0x0 DUP1 REVERT JUMPDEST POP JUMP JUMPDEST PUSH1 0x0 DUP2 CALLDATALOAD SWAP1 POP PUSH2 0xEBB DUP2 PUSH2 0xE95 JUMP JUMPDEST SWAP3 SWAP2 POP POP JUMP JUMPDEST PUSH1 0x0 DUP1 PUSH1 0x40 DUP4 DUP6 SUB SLT ISZERO PUSH2 0xED8 JUMPI PUSH2 0xED7 PUSH2 0xC94 JUMP JUMPDEST JUMPDEST PUSH1 0x0 PUSH2 0xEE6 DUP6 DUP3 DUP7 ADD PUSH2 0xEAC JUMP JUMPDEST SWAP3 POP POP PUSH1 0x20 DUP4 ADD CALLDATALOAD PUSH8 0xFFFFFFFFFFFFFFFF DUP2 GT ISZERO PUSH2 0xF07 JUMPI PUSH2 0xF06 PUSH2 0xC99 JUMP JUMPDEST JUMPDEST PUSH2 0xF13 DUP6 DUP3 DUP7 ADD PUSH2 0xDB6 JUMP JUMPDEST SWAP2 POP POP SWAP3 POP SWAP3 SWAP1 POP JUMP JUMPDEST PUSH1 0x0 PUSH8 0xFFFFFFFFFFFFFFFF DUP3 GT ISZERO PUSH2 0xF38 JUMPI PUSH2 0xF37 PUSH2 0xCB9 JUMP JUMPDEST JUMPDEST PUSH2 0xF41 DUP3 PUSH2 0xCA8 JUMP JUMPDEST SWAP1 POP PUSH1 0x20 DUP2 ADD SWAP1 POP SWAP2 SWAP1 POP JUMP JUMPDEST PUSH1 0x0 PUSH2 0xF61 PUSH2 0xF5C DUP5 PUSH2 0xF1D JUMP JUMPDEST PUSH2 0xD19 JUMP JUMPDEST SWAP1 POP DUP3 DUP2 MSTORE PUSH1 0x20 DUP2 ADD DUP5 DUP5 DUP5 ADD GT ISZERO PUSH2 0xF7D JUMPI PUSH2 0xF7C PUSH2 0xCA3 JUMP JUMPDEST JUMPDEST PUSH2 0xF88 DUP5 DUP3 DUP6 PUSH2 0xD65 JUMP JUMPDEST POP SWAP4 SWAP3 POP POP POP JUMP JUMPDEST PUSH1 0x0 DUP3 PUSH1 0x1F DUP4 ADD SLT PUSH2 0xFA5 JUMPI PUSH2 0xFA4 PUSH2 0xC9E JUMP JUMPDEST JUMPDEST DUP2 CALLDATALOAD PUSH2 0xFB5 DUP5 DUP3 PUSH1 0x20 DUP7 ADD PUSH2 0xF4E JUMP JUMPDEST SWAP2 POP POP SWAP3 SWAP2 POP POP JUMP JUMPDEST PUSH1 0x0 DUP1 PUSH1 0x0 DUP1 PUSH1 0x80 DUP6 DUP8 SUB SLT ISZERO PUSH2 0xFD8 JUMPI PUSH2 0xFD7 PUSH2 0xC94 JUMP JUMPDEST JUMPDEST PUSH1 0x0 PUSH2 0xFE6 DUP8 DUP3 DUP9 ADD PUSH2 0xEAC JUMP JUMPDEST SWAP5 POP POP PUSH1 0x20 DUP6 ADD CALLDATALOAD PUSH8 0xFFFFFFFFFFFFFFFF DUP2 GT ISZERO PUSH2 0x1007 JUMPI PUSH2 0x1006 PUSH2 0xC99 JUMP JUMPDEST JUMPDEST PUSH2 0x1013 DUP8 DUP3 DUP9 ADD PUSH2 0xF90 JUMP JUMPDEST SWAP4 POP POP PUSH1 0x40 DUP6 ADD CALLDATALOAD PUSH8 0xFFFFFFFFFFFFFFFF DUP2 GT ISZERO PUSH2 0x1034 JUMPI PUSH2 0x1033 PUSH2 0xC99 JUMP JUMPDEST JUMPDEST PUSH2 0x1040 DUP8 DUP3 DUP9 ADD PUSH2 0xF90 JUMP JUMPDEST SWAP3 POP POP PUSH1 0x60 DUP6 ADD CALLDATALOAD PUSH8 0xFFFFFFFFFFFFFFFF DUP2 GT ISZERO PUSH2 0x1061 JUMPI PUSH2 0x1060 PUSH2 0xC99 JUMP JUMPDEST JUMPDEST PUSH2 0x106D DUP8 DUP3 DUP9 ADD PUSH2 0xDB6 JUMP JUMPDEST SWAP2 POP POP SWAP3 SWAP6 SWAP2 SWAP5 POP SWAP3 POP JUMP JUMPDEST PUSH1 0x0 DUP1 PUSH1 0x0 PUSH1 0x60 DUP5 DUP7 SUB SLT ISZERO PUSH2 0x1092 JUMPI PUSH2 0x1091 PUSH2 0xC94 JUMP JUMPDEST JUMPDEST PUSH1 0x0 PUSH2 0x10A0 DUP7 DUP3 DUP8 ADD PUSH2 0xEAC JUMP JUMPDEST SWAP4 POP POP PUSH1 0x20 DUP5 ADD CALLDATALOAD PUSH8 0xFFFFFFFFFFFFFFFF DUP2 GT ISZERO PUSH2 0x10C1 JUMPI PUSH2 0x10C0 PUSH2 0xC99 JUMP JUMPDEST JUMPDEST PUSH2 0x10CD DUP7 DUP3 DUP8 ADD PUSH2 0xF90 JUMP JUMPDEST SWAP3 POP POP PUSH1 0x40 DUP5 ADD CALLDATALOAD PUSH8 0xFFFFFFFFFFFFFFFF DUP2 GT ISZERO PUSH2 0x10EE JUMPI PUSH2 0x10ED PUSH2 0xC99 JUMP JUMPDEST JUMPDEST PUSH2 0x10FA DUP7 DUP3 DUP8 ADD PUSH2 0xDB6 JUMP JUMPDEST SWAP2 POP POP SWAP3 POP SWAP3 POP SWAP3 JUMP JUMPDEST PUSH2 0x110D DUP2 PUSH2 0xE83 JUMP JUMPDEST DUP3 MSTORE POP POP JUMP JUMPDEST PUSH1 0x0 PUSH1 0x20 DUP3 ADD SWAP1 POP PUSH2 0x1128 PUSH1 0x0 DUP4 ADD DUP5 PUSH2 0x1104 JUMP JUMPDEST SWAP3 SWAP2 POP POP JUMP JUMPDEST PUSH1 0x0 DUP2 SWAP1 POP SWAP2 SWAP1 POP JUMP JUMPDEST PUSH2 0x1141 DUP2 PUSH2 0x112E JUMP JUMPDEST DUP2 EQ PUSH2 0x114C JUMPI PUSH1 0x0 DUP1 REVERT JUMPDEST POP JUMP JUMPDEST PUSH1 0x0 DUP2 CALLDATALOAD SWAP1 POP PUSH2 0x115E DUP2 PUSH2 0x1138 JUMP JUMPDEST SWAP3 SWAP2 POP POP JUMP JUMPDEST PUSH1 0x0 DUP1 PUSH1 0x40 DUP4 DUP6 SUB SLT ISZERO PUSH2 0x117B JUMPI PUSH2 0x117A PUSH2 0xC94 JUMP JUMPDEST JUMPDEST PUSH1 0x0 PUSH2 0x1189 DUP6 DUP3 DUP7 ADD PUSH2 0x114F JUMP JUMPDEST SWAP3 POP POP PUSH1 0x20 DUP4 ADD CALLDATALOAD PUSH8 0xFFFFFFFFFFFFFFFF DUP2 GT ISZERO PUSH2 0x11AA JUMPI PUSH2 0x11A9 PUSH2 0xC99 JUMP JUMPDEST JUMPDEST PUSH2 0x11B6 DUP6 DUP3 DUP7 ADD PUSH2 0xDB6 JUMP JUMPDEST SWAP2 POP POP SWAP3 POP SWAP3 SWAP1 POP JUMP JUMPDEST PUSH2 0x11C9 DUP2 PUSH2 0x112E JUMP JUMPDEST DUP3 MSTORE POP POP JUMP JUMPDEST PUSH1 0x0 PUSH1 0xFF DUP3 AND SWAP1 POP SWAP2 SWAP1 POP JUMP JUMPDEST PUSH2 0x11E5 DUP2 PUSH2 0x11CF JUMP JUMPDEST DUP3 MSTORE POP POP JUMP JUMPDEST PUSH1 0x0 PUSH1 0x60 DUP3 ADD SWAP1 POP PUSH2 0x1200 PUSH1 0x0 DUP4 ADD DUP7 PUSH2 0x11C0 JUMP JUMPDEST PUSH2 0x120D PUSH1 0x20 DUP4 ADD DUP6 PUSH2 0x11C0 JUMP JUMPDEST PUSH2 0x121A PUSH1 0x40 DUP4 ADD DUP5 PUSH2 0x11DC JUMP JUMPDEST SWAP5 SWAP4 POP POP POP POP JUMP JUMPDEST PUSH1 0x0 PUSH1 0x20 DUP3 DUP5 SUB SLT ISZERO PUSH2 0x1238 JUMPI PUSH2 0x1237 PUSH2 0xC94 JUMP JUMPDEST JUMPDEST PUSH1 0x0 DUP3 ADD CALLDATALOAD PUSH8 0xFFFFFFFFFFFFFFFF DUP2 GT ISZERO PUSH2 0x1256 JUMPI PUSH2 0x1255 PUSH2 0xC99 JUMP JUMPDEST JUMPDEST PUSH2 0x1262 DUP5 DUP3 DUP6 ADD PUSH2 0xF90 JUMP JUMPDEST SWAP2 POP POP SWAP3 SWAP2 POP POP JUMP JUMPDEST PUSH1 0x0 PUSH1 0x20 DUP3 ADD SWAP1 POP PUSH2 0x1280 PUSH1 0x0 DUP4 ADD DUP5 PUSH2 0x11C0 JUMP JUMPDEST SWAP3 SWAP2 POP POP JUMP JUMPDEST PUSH1 0x0 PUSH1 0x20 DUP3 DUP5 SUB SLT ISZERO PUSH2 0x129C JUMPI PUSH2 0x129B PUSH2 0xC94 JUMP JUMPDEST JUMPDEST PUSH1 0x0 PUSH2 0x12AA DUP5 DUP3 DUP6 ADD PUSH2 0x114F JUMP JUMPDEST SWAP2 POP POP SWAP3 SWAP2 POP POP JUMP JUMPDEST PUSH32 0x4E487B7100000000000000000000000000000000000000000000000000000000 PUSH1 0x0 MSTORE PUSH1 0x22 PUSH1 0x4 MSTORE PUSH1 0x24 PUSH1 0x0 REVERT JUMPDEST PUSH1 0x0 PUSH1 0x2 DUP3 DIV SWAP1 POP PUSH1 0x1 DUP3 AND DUP1 PUSH2 0x12FA JUMPI PUSH1 0x7F DUP3 AND SWAP2 POP JUMPDEST PUSH1 0x20 DUP3 LT DUP2 SUB PUSH2 0x130D JUMPI PUSH2 0x130C PUSH2 0x12B3 JUMP JUMPDEST JUMPDEST POP SWAP2 SWAP1 POP JUMP JUMPDEST PUSH1 0x0 DUP2 MLOAD SWAP1 POP SWAP2 SWAP1 POP JUMP JUMPDEST PUSH1 0x0 DUP2 SWAP1 POP SWAP3 SWAP2 POP POP JUMP JUMPDEST PUSH1 0x0 JUMPDEST DUP4 DUP2 LT ISZERO PUSH2 0x1347 JUMPI DUP1 DUP3 ADD MLOAD DUP2 DUP5 ADD MSTORE PUSH1 0x20 DUP2 ADD SWAP1 POP PUSH2 0x132C JUMP JUMPDEST PUSH1 0x0 DUP5 DUP5 ADD MSTORE POP POP POP POP JUMP JUMPDEST PUSH1 0x0 PUSH2 0x135E DUP3 PUSH2 0x1313 JUMP JUMPDEST PUSH2 0x1368 DUP2 DUP6 PUSH2 0x131E JUMP JUMPDEST SWAP4 POP PUSH2 0x1378 DUP2 DUP6 PUSH1 0x20 DUP7 ADD PUSH2 0x1329 JUMP JUMPDEST DUP1 DUP5 ADD SWAP2 POP POP SWAP3 SWAP2 POP POP JUMP JUMPDEST PUSH32 0x2C00000000000000000000000000000000000000000000000000000000000000 PUSH1 0x0 DUP3 ADD MSTORE POP JUMP JUMPDEST PUSH1 0x0 PUSH2 0x13BA PUSH1 0x1 DUP4 PUSH2 0x131E JUMP JUMPDEST SWAP2 POP PUSH2 0x13C5 DUP3 PUSH2 0x1384 JUMP JUMPDEST PUSH1 0x1 DUP3 ADD SWAP1 POP SWAP2 SWAP1 POP JUMP JUMPDEST PUSH1 0x0 PUSH2 0x13DC DUP3 DUP6 PUSH2 0x1353 JUMP JUMPDEST SWAP2 POP PUSH2 0x13E7 DUP3 PUSH2 0x13AD JUMP JUMPDEST SWAP2 POP PUSH2 0x13F3 DUP3 DUP5 PUSH2 0x1353 JUMP JUMPDEST SWAP2 POP DUP2 SWAP1 POP SWAP4 SWAP3 POP POP POP JUMP JUMPDEST PUSH1 0x0 DUP3 DUP3 MSTORE PUSH1 0x20 DUP3 ADD SWAP1 POP SWAP3 SWAP2 POP POP JUMP JUMPDEST PUSH32 0x496E76616C6964206163636F756E742061646472657373000000000000000000 PUSH1 0x0 DUP3 ADD MSTORE POP JUMP JUMPDEST PUSH1 0x0 PUSH2 0x1446 PUSH1 0x17 DUP4 PUSH2 0x13FF JUMP JUMPDEST SWAP2 POP PUSH2 0x1451 DUP3 PUSH2 0x1410 JUMP JUMPDEST PUSH1 0x20 DUP3 ADD SWAP1 POP SWAP2 SWAP1 POP JUMP JUMPDEST PUSH1 0x0 PUSH1 0x20 DUP3 ADD SWAP1 POP DUP2 DUP2 SUB PUSH1 0x0 DUP4 ADD MSTORE PUSH2 0x1475 DUP2 PUSH2 0x1439 JUMP JUMPDEST SWAP1 POP SWAP2 SWAP1 POP JUMP JUMPDEST PUSH32 0x557365726E616D652063616E6E6F7420626520656D7074790000000000000000 PUSH1 0x0 DUP3 ADD MSTORE POP JUMP JUMPDEST PUSH1 0x0 PUSH2 0x14B2 PUSH1 0x18 DUP4 PUSH2 0x13FF JUMP JUMPDEST SWAP2 POP PUSH2 0x14BD DUP3 PUSH2 0x147C JUMP JUMPDEST PUSH1 0x20 DUP3 ADD SWAP1 POP SWAP2 SWAP1 POP JUMP JUMPDEST PUSH1 0x0 PUSH1 0x20 DUP3 ADD SWAP1 POP DUP2 DUP2 SUB PUSH1 0x0 DUP4 ADD MSTORE PUSH2 0x14E1 DUP2 PUSH2 0x14A5 JUMP JUMPDEST SWAP1 POP SWAP2 SWAP1 POP JUMP JUMPDEST PUSH32 0x50617373776F72642063616E6E6F7420626520656D7074790000000000000000 PUSH1 0x0 DUP3 ADD MSTORE POP JUMP JUMPDEST PUSH1 0x0 PUSH2 0x151E PUSH1 0x18 DUP4 PUSH2 0x13FF JUMP JUMPDEST SWAP2 POP PUSH2 0x1529 DUP3 PUSH2 0x14E8 JUMP JUMPDEST PUSH1 0x20 DUP3 ADD SWAP1 POP SWAP2 SWAP1 POP JUMP JUMPDEST PUSH1 0x0 PUSH1 0x20 DUP3 ADD SWAP1 POP DUP2 DUP2 SUB PUSH1 0x0 DUP4 ADD MSTORE PUSH2 0x154D DUP2 PUSH2 0x1511 JUMP JUMPDEST SWAP1 POP SWAP2 SWAP1 POP JUMP JUMPDEST PUSH32 0x496E76616C6964207369676E6174757265000000000000000000000000000000 PUSH1 0x0 DUP3 ADD MSTORE POP JUMP JUMPDEST PUSH1 0x0 PUSH2 0x158A PUSH1 0x11 DUP4 PUSH2 0x13FF JUMP JUMPDEST SWAP2 POP PUSH2 0x1595 DUP3 PUSH2 0x1554 JUMP JUMPDEST PUSH1 0x20 DUP3 ADD SWAP1 POP SWAP2 SWAP1 POP JUMP JUMPDEST PUSH1 0x0 PUSH1 0x20 DUP3 ADD SWAP1 POP DUP2 DUP2 SUB PUSH1 0x0 DUP4 ADD MSTORE PUSH2 0x15B9 DUP2 PUSH2 0x157D JUMP JUMPDEST SWAP1 POP SWAP2 SWAP1 POP JUMP JUMPDEST PUSH1 0x0 DUP2 SWAP1 POP DUP2 PUSH1 0x0 MSTORE PUSH1 0x20 PUSH1 0x0 KECCAK256 SWAP1 POP SWAP2 SWAP1 POP JUMP JUMPDEST PUSH1 0x0 PUSH1 0x20 PUSH1 0x1F DUP4 ADD DIV SWAP1 POP SWAP2 SWAP1 POP JUMP JUMPDEST PUSH1 0x0 DUP3 DUP3 SHL SWAP1 POP SWAP3 SWAP2 POP POP JUMP JUMPDEST PUSH1 0x0 PUSH1 0x8 DUP4 MUL PUSH2 0x1622 PUSH32 0xFFFFFFFFFFFFFFFFFFFFFFFFFFFFFFFFFFFFFFFFFFFFFFFFFFFFFFFFFFFFFFFF DUP3 PUSH2 0x15E5 JUMP JUMPDEST PUSH2 0x162C DUP7 DUP4 PUSH2 0x15E5 JUMP JUMPDEST SWAP6 POP DUP1 NOT DUP5 AND SWAP4 POP DUP1 DUP7 AND DUP5 OR SWAP3 POP POP POP SWAP4 SWAP3 POP POP POP JUMP JUMPDEST PUSH1 0x0 DUP2 SWAP1 POP SWAP2 SWAP1 POP JUMP JUMPDEST PUSH1 0x0 DUP2 SWAP1 POP SWAP2 SWAP1 POP JUMP JUMPDEST PUSH1 0x0 PUSH2 0x1673 PUSH2 0x166E PUSH2 0x1669 DUP5 PUSH2 0x1644 JUMP JUMPDEST PUSH2 0x164E JUMP JUMPDEST PUSH2 0x1644 JUMP JUMPDEST SWAP1 POP SWAP2 SWAP1 POP JUMP JUMPDEST PUSH1 0x0 DUP2 SWAP1 POP SWAP2 SWAP1 POP JUMP JUMPDEST PUSH2 0x168D DUP4 PUSH2 0x1658 JUMP JUMPDEST PUSH2 0x16A1 PUSH2 0x1699 DUP3 PUSH2 0x167A JUMP JUMPDEST DUP5 DUP5 SLOAD PUSH2 0x15F2 JUMP JUMPDEST DUP3 SSTORE POP POP POP POP JUMP JUMPDEST PUSH1 0x0 SWAP1 JUMP JUMPDEST PUSH2 0x16B6 PUSH2 0x16A9 JUMP JUMPDEST PUSH2 0x16C1 DUP2 DUP5 DUP5 PUSH2 0x1684 JUMP JUMPDEST POP POP POP JUMP JUMPDEST JUMPDEST DUP2 DUP2 LT ISZERO PUSH2 0x16E5 JUMPI PUSH2 0x16DA PUSH1 0x0 DUP3 PUSH2 0x16AE JUMP JUMPDEST PUSH1 0x1 DUP2 ADD SWAP1 POP PUSH2 0x16C7 JUMP JUMPDEST POP POP JUMP JUMPDEST PUSH1 0x1F DUP3 GT ISZERO PUSH2 0x172A JUMPI PUSH2 0x16FB DUP2 PUSH2 0x15C0 JUMP JUMPDEST PUSH2 0x1704 DUP5 PUSH2 0x15D5 JUMP JUMPDEST DUP2 ADD PUSH1 0x20 DUP6 LT ISZERO PUSH2 0x1713 JUMPI DUP2 SWAP1 POP JUMPDEST PUSH2 0x1727 PUSH2 0x171F DUP6 PUSH2 0x15D5 JUMP JUMPDEST DUP4 ADD DUP3 PUSH2 0x16C6 JUMP JUMPDEST POP POP JUMPDEST POP POP POP JUMP JUMPDEST PUSH1 0x0 DUP3 DUP3 SHR SWAP1 POP SWAP3 SWAP2 POP POP JUMP JUMPDEST PUSH1 0x0 PUSH2 0x174D PUSH1 0x0 NOT DUP5 PUSH1 0x8 MUL PUSH2 0x172F JUMP JUMPDEST NOT DUP1 DUP4 AND SWAP2 POP POP SWAP3 SWAP2 POP POP JUMP JUMPDEST PUSH1 0x0 PUSH2 0x1766 DUP4 DUP4 PUSH2 0x173C JUMP JUMPDEST SWAP2 POP DUP3 PUSH1 0x2 MUL DUP3 OR SWAP1 POP SWAP3 SWAP2 POP POP JUMP JUMPDEST PUSH2 0x177F DUP3 PUSH2 0x1313 JUMP JUMPDEST PUSH8 0xFFFFFFFFFFFFFFFF DUP2 GT ISZERO PUSH2 0x1798 JUMPI PUSH2 0x1797 PUSH2 0xCB9 JUMP JUMPDEST JUMPDEST PUSH2 0x17A2 DUP3 SLOAD PUSH2 0x12E2 JUMP JUMPDEST PUSH2 0x17AD DUP3 DUP3 DUP6 PUSH2 0x16E9 JUMP JUMPDEST PUSH1 0x0 PUSH1 0x20 SWAP1 POP PUSH1 0x1F DUP4 GT PUSH1 0x1 DUP2 EQ PUSH2 0x17E0 JUMPI PUSH1 0x0 DUP5 ISZERO PUSH2 0x17CE JUMPI DUP3 DUP8 ADD MLOAD SWAP1 POP JUMPDEST PUSH2 0x17D8 DUP6 DUP3 PUSH2 0x175A JUMP JUMPDEST DUP7 SSTORE POP PUSH2 0x1840 JUMP JUMPDEST PUSH1 0x1F NOT DUP5 AND PUSH2 0x17EE DUP7 PUSH2 0x15C0 JUMP JUMPDEST PUSH1 0x0 JUMPDEST DUP3 DUP2 LT ISZERO PUSH2 0x1816 JUMPI DUP5 DUP10 ADD MLOAD DUP3 SSTORE PUSH1 0x1 DUP3 ADD SWAP2 POP PUSH1 0x20 DUP6 ADD SWAP5 POP PUSH1 0x20 DUP2 ADD SWAP1 POP PUSH2 0x17F1 JUMP JUMPDEST DUP7 DUP4 LT ISZERO PUSH2 0x1833 JUMPI DUP5 DUP10 ADD MLOAD PUSH2 0x182F PUSH1 0x1F DUP10 AND DUP3 PUSH2 0x173C JUMP JUMPDEST DUP4 SSTORE POP JUMPDEST PUSH1 0x1 PUSH1 0x2 DUP9 MUL ADD DUP9 SSTORE POP POP POP JUMPDEST POP POP POP POP POP POP JUMP JUMPDEST PUSH1 0x0 DUP2 MLOAD SWAP1 POP SWAP2 SWAP1 POP JUMP JUMPDEST PUSH1 0x0 DUP2 SWAP1 POP DUP2 PUSH1 0x0 MSTORE PUSH1 0x20 PUSH1 0x0 KECCAK256 SWAP1 POP SWAP2 SWAP1 POP JUMP JUMPDEST PUSH1 0x1F DUP3 GT ISZERO PUSH2 0x18A9 JUMPI PUSH2 0x187A DUP2 PUSH2 0x1853 JUMP JUMPDEST PUSH2 0x1883 DUP5 PUSH2 0x15D5 JUMP JUMPDEST DUP2 ADD PUSH1 0x20 DUP6 LT ISZERO PUSH2 0x1892 JUMPI DUP2 SWAP1 POP JUMPDEST PUSH2 0x18A6 PUSH2 0x189E DUP6 PUSH2 0x15D5 JUMP JUMPDEST DUP4 ADD DUP3 PUSH2 0x16C6 JUMP JUMPDEST POP POP JUMPDEST POP POP POP JUMP JUMPDEST PUSH2 0x18B7 DUP3 PUSH2 0x1848 JUMP JUMPDEST PUSH8 0xFFFFFFFFFFFFFFFF DUP2 GT ISZERO PUSH2 0x18D0 JUMPI PUSH2 0x18CF PUSH2 0xCB9 JUMP JUMPDEST JUMPDEST PUSH2 0x18DA DUP3 SLOAD PUSH2 0x12E2 JUMP JUMPDEST PUSH2 0x18E5 DUP3 DUP3 DUP6 PUSH2 0x1868 JUMP JUMPDEST PUSH1 0x0 PUSH1 0x20 SWAP1 POP PUSH1 0x1F DUP4 GT PUSH1 0x1 DUP2 EQ PUSH2 0x1918 JUMPI PUSH1 0x0 DUP5 ISZERO PUSH2 0x1906 JUMPI DUP3 DUP8 ADD MLOAD SWAP1 POP JUMPDEST PUSH2 0x1910 DUP6 DUP3 PUSH2 0x175A JUMP JUMPDEST DUP7 SSTORE POP PUSH2 0x1978 JUMP JUMPDEST PUSH1 0x1F NOT DUP5 AND PUSH2 0x1926 DUP7 PUSH2 0x1853 JUMP JUMPDEST PUSH1 0x0 JUMPDEST DUP3 DUP2 LT ISZERO PUSH2 0x194E JUMPI DUP5 DUP10 ADD MLOAD DUP3 SSTORE PUSH1 0x1 DUP3 ADD SWAP2 POP PUSH1 0x20 DUP6 ADD SWAP5 POP PUSH1 0x20 DUP2 ADD SWAP1 POP PUSH2 0x1929 JUMP JUMPDEST DUP7 DUP4 LT ISZERO PUSH2 0x196B JUMPI DUP5 DUP10 ADD MLOAD PUSH2 0x1967 PUSH1 0x1F DUP10 AND DUP3 PUSH2 0x173C JUMP JUMPDEST DUP4 SSTORE POP JUMPDEST PUSH1 0x1 PUSH1 0x2 DUP9 MUL ADD DUP9 SSTORE POP POP POP JUMPDEST POP POP POP POP POP POP JUMP JUMPDEST PUSH1 0x0 PUSH1 0x80 DUP3 ADD SWAP1 POP PUSH2 0x1995 PUSH1 0x0 DUP4 ADD DUP8 PUSH2 0x11C0 JUMP JUMPDEST PUSH2 0x19A2 PUSH1 0x20 DUP4 ADD DUP7 PUSH2 0x11DC JUMP JUMPDEST PUSH2 0x19AF PUSH1 0x40 DUP4 ADD DUP6 PUSH2 0x11C0 JUMP JUMPDEST PUSH2 0x19BC PUSH1 0x60 DUP4 ADD DUP5 PUSH2 0x11C0 JUMP JUMPDEST SWAP6 SWAP5 POP POP POP POP POP JUMP JUMPDEST PUSH32 0x696E76616C6964207369676E6174757265206C656E6774680000000000000000 PUSH1 0x0 DUP3 ADD MSTORE POP JUMP JUMPDEST PUSH1 0x0 PUSH2 0x19FB PUSH1 0x18 DUP4 PUSH2 0x13FF JUMP JUMPDEST SWAP2 POP PUSH2 0x1A06 DUP3 PUSH2 0x19C5 JUMP JUMPDEST PUSH1 0x20 DUP3 ADD SWAP1 POP SWAP2 SWAP1 POP JUMP JUMPDEST PUSH1 0x0 PUSH1 0x20 DUP3 ADD SWAP1 POP DUP2 DUP2 SUB PUSH1 0x0 DUP4 ADD MSTORE PUSH2 0x1A2A DUP2 PUSH2 0x19EE JUMP JUMPDEST SWAP1 POP SWAP2 SWAP1 POP JUMP JUMPDEST PUSH1 0x0 PUSH2 0x1A3D DUP3 DUP5 PUSH2 0x1353 JUMP JUMPDEST SWAP2 POP DUP2 SWAP1 POP SWAP3 SWAP2 POP POP JUMP JUMPDEST PUSH32 0x19457468657265756D205369676E6564204D6573736167653A0A333200000000 PUSH1 0x0 DUP3 ADD MSTORE POP JUMP JUMPDEST PUSH1 0x0 PUSH2 0x1A7E PUSH1 0x1C DUP4 PUSH2 0x131E JUMP JUMPDEST SWAP2 POP PUSH2 0x1A89 DUP3 PUSH2 0x1A48 JUMP JUMPDEST PUSH1 0x1C DUP3 ADD SWAP1 POP SWAP2 SWAP1 POP JUMP JUMPDEST PUSH1 0x0 DUP2 SWAP1 POP SWAP2 SWAP1 POP JUMP JUMPDEST PUSH2 0x1AAF PUSH2 0x1AAA DUP3 PUSH2 0x112E JUMP JUMPDEST PUSH2 0x1A94 JUMP JUMPDEST DUP3 MSTORE POP POP JUMP JUMPDEST PUSH1 0x0 PUSH2 0x1AC0 DUP3 PUSH2 0x1A71 JUMP JUMPDEST SWAP2 POP PUSH2 0x1ACC DUP3 DUP5 PUSH2 0x1A9E JUMP JUMPDEST PUSH1 0x20 DUP3 ADD SWAP2 POP DUP2 SWAP1 POP SWAP3 SWAP2 POP POP JUMP INVALID LOG2 PUSH5 0x6970667358 0x22 SLT KECCAK256 POP 0xC7 0xDC SWAP15 0x2C DUP3 DUP14 DUP7 PUSH19 0x7C22765C764425D2103C769C612609EE972622 DUP4 TLOAD 0xDD DUP16 PUSH5 0x736F6C6343 STOP ADDMOD XOR STOP CALLER "},"methodIdentifiers":{"getEthSignedMessageHash(bytes32)":"fa540801","getMessageHash(string)":"b446f3b2","getSender()":"5e01eb5a","login(address,string,string,bytes)":"dea2507c","loginWithSignature(bytes)":"131dd94c","loginWithSignature2(address,bytes)":"28aacfdf","recoverSigner(bytes32,bytes)":"97aba7f9","signUp(address,string,string,bytes)":"2bbfd547","splitSignature(bytes)":"a7bb5803","verify(address,string,bytes)":"2dd34f0f"}}}}}