{"contracts/old_SC_20_21_13_28.sol":{"old_SC_20_21_13_28":{"abi":[{"inputs":[],"stateMutability":"nonpayable","type":"constructor"},{"anonymous":false,"inputs":[{"indexed":false,"internalType":"string","name":"success","type":"string"}],"name":"SignUpResult","type":"event"},{"inputs":[],"name":"calls","outputs":[{"internalType":"uint256","name":"","type":"uint256"}],"stateMutability":"view","type":"function"},{"inputs":[],"name":"convert","outputs":[{"internalType":"string","name":"","type":"string"}],"stateMutability":"view","type":"function"},{"inputs":[{"internalType":"string","name":"datasetID","type":"string"},{"internalType":"string","name":"doctorID","type":"string"},{"internalType":"string","name":"hospitalID","type":"string"},{"internalType":"string","name":"specialization","type":"string"},{"internalType":"string","name":"accessRights","type":"string"},{"internalType":"string","name":"location","type":"string"}],"name":"evaluate","outputs":[],"stateMutability":"nonpayable","type":"function"},{"inputs":[{"internalType":"string","name":"datasetID","type":"string"},{"internalType":"string","name":"doctorID","type":"string"},{"internalType":"string","name":"hospitalID","type":"string"},{"internalType":"string","name":"specialization","type":"string"},{"internalType":"string","name":"accessRights","type":"string"},{"internalType":"string","name":"location","type":"string"},{"internalType":"bytes","name":"signature","type":"bytes"}],"name":"evaluate2","outputs":[],"stateMutability":"nonpayable","type":"function"},{"inputs":[{"internalType":"bytes32","name":"_messageHash","type":"bytes32"}],"name":"getEthSignedMessageHash","outputs":[{"internalType":"bytes32","name":"","type":"bytes32"}],"stateMutability":"pure","type":"function"},{"inputs":[{"internalType":"string","name":"ID","type":"string"}],"name":"getEvaluationResult","outputs":[{"internalType":"string","name":"","type":"string"}],"stateMutability":"view","type":"function"},{"inputs":[{"internalType":"string","name":"_message","type":"string"}],"name":"getMessageHash","outputs":[{"internalType":"bytes32","name":"","type":"bytes32"}],"stateMutability":"pure","type":"function"},{"inputs":[],"name":"getSender","outputs":[{"internalType":"address","name":"","type":"address"}],"stateMutability":"view","type":"function"},{"inputs":[],"name":"publicKey","outputs":[{"internalType":"address","name":"","type":"address"}],"stateMutability":"view","type":"function"},{"inputs":[{"internalType":"bytes32","name":"_ethSignedMessageHash","type":"bytes32"},{"internalType":"bytes","name":"_signature","type":"bytes"}],"name":"recoverSigner","outputs":[{"internalType":"address","name":"","type":"address"}],"stateMutability":"pure","type":"function"},{"inputs":[{"internalType":"bytes","name":"sig","type":"bytes"}],"name":"splitSignature","outputs":[{"internalType":"bytes32","name":"r","type":"bytes32"},{"internalType":"bytes32","name":"s","type":"bytes32"},{"internalType":"uint8","name":"v","type":"uint8"}],"stateMutability":"pure","type":"function"},{"inputs":[{"internalType":"address","name":"_signer","type":"address"},{"internalType":"string","name":"_message","type":"string"},{"internalType":"bytes","name":"signature","type":"bytes"}],"name":"verify","outputs":[{"internalType":"bool","name":"","type":"bool"}],"stateMutability":"pure","type":"function"}],"evm":{"bytecode":{"linkReferences":{},"object":"60806040523480156200001157600080fd5b506001600060405162000024906200066e565b90815260200160405180910390206040516200004090620006d5565b90815260200160405180910390208190555060018060405162000063906200066e565b90815260200160405180910390206040516200007f906200073c565b90815260200160405180910390208190555060016002604051620000a3906200066e565b9081526020016040518091039020604051620000bf90620007a3565b90815260200160405180910390208190555060016003604051620000e390620006d5565b9081526020016040518091039020604051620000ff906200080a565b90815260200160405180910390208190555060016003604051620001239062000871565b90815260200160405180910390206040516200013f90620008d8565b9081526020016040518091039020819055506000600481905550600160056040516200016b906200093f565b90815260200160405180910390206040516200018790620009a6565b9081526020016040518091039020604051620001a39062000a0d565b90815260200160405180910390208190555060016006604051620001c7906200093f565b90815260200160405180910390208190555060016006604051620001eb9062000a74565b908152602001604051809103902081905550600160066040516200020f9062000adb565b90815260200160405180910390208190555060086000815480929190620002369062000b2b565b919050555060096000600181526020019081526020016000206000815480929190620002629062000b2b565b9190505550600a6000600181526020019081526020016000206000600181526020019081526020016000206000815480929190620002a09062000b2b565b919050555060016005604051620002b7906200093f565b9081526020016040518091039020604051620002d39062000bc8565b9081526020016040518091039020604051620002ef906200073c565b90815260200160405180910390208190555060026006604051620003139062000c2f565b90815260200160405180910390208190555060016006604051620003379062000cbc565b90815260200160405180910390208190555060096000600181526020019081526020016000206000815480929190620003709062000b2b565b9190505550600a6000600181526020019081526020016000206000600281526020019081526020016000206000815480929190620003ae9062000b2b565b919050555060016005604051620003c5906200093f565b9081526020016040518091039020604051620003e19062000d23565b9081526020016040518091039020604051620003fd90620007a3565b90815260200160405180910390208190555060036006604051620004219062000d8a565b90815260200160405180910390208190555060016006604051620004459062000e17565b908152602001604051809103902081905550600960006001815260200190815260200160002060008154809291906200047e9062000b2b565b9190505550600a6000600181526020019081526020016000206000600381526020019081526020016000206000815480929190620004bc9062000b2b565b919050555060016005604051620004d39062000e7e565b9081526020016040518091039020604051620004ef9062000ee5565b90815260200160405180910390206040516200050b906200080a565b908152602001604051809103902081905550600260066040516200052f9062000e7e565b90815260200160405180910390208190555060016006604051620005539062000f4c565b90815260200160405180910390208190555060016006604051620005779062000fb3565b908152602001604051809103902081905550600860008154809291906200059e9062000b2b565b919050555060096000600281526020019081526020016000206000815480929190620005ca9062000b2b565b9190505550600a6000600281526020019081526020016000206000600181526020019081526020016000206000815480929190620006089062000b2b565b919050555062000fca565b600081905092915050565b7f646f633132330000000000000000000000000000000000000000000000000000600082015250565b60006200065660068362000613565b915062000663826200061e565b600682019050919050565b60006200067b8262000647565b9150819050919050565b7f686f73706974616c410000000000000000000000000000000000000000000000600082015250565b6000620006bd60098362000613565b9150620006ca8262000685565b600982019050919050565b6000620006e282620006ae565b9150819050919050565b7f43617264696f6c6f677900000000000000000000000000000000000000000000600082015250565b600062000724600a8362000613565b91506200073182620006ec565b600a82019050919050565b6000620007498262000715565b9150819050919050565b7f526561642d577269746500000000000000000000000000000000000000000000600082015250565b60006200078b600a8362000613565b9150620007988262000753565b600a82019050919050565b6000620007b0826200077c565b9150819050919050565b7f436c6f7564000000000000000000000000000000000000000000000000000000600082015250565b6000620007f260058362000613565b9150620007ff82620007ba565b600582019050919050565b60006200081782620007e3565b9150819050919050565b7f686f73706974616c420000000000000000000000000000000000000000000000600082015250565b60006200085960098362000613565b9150620008668262000821565b600982019050919050565b60006200087e826200084a565b9150819050919050565b7f4c6f63616c000000000000000000000000000000000000000000000000000000600082015250565b6000620008c060058362000613565b9150620008cd8262000888565b600582019050919050565b6000620008e582620008b1565b9150819050919050565b7f6163636573732d7375626a656374000000000000000000000000000000000000600082015250565b600062000927600e8362000613565b91506200093482620008ef565b600e82019050919050565b60006200094c8262000918565b9150819050919050565b7f6973417574686f72697a65640000000000000000000000000000000000000000600082015250565b60006200098e600c8362000613565b91506200099b8262000956565b600c82019050919050565b6000620009b3826200097f565b9150819050919050565b7f7472756500000000000000000000000000000000000000000000000000000000600082015250565b6000620009f560048362000613565b915062000a0282620009bd565b600482019050919050565b600062000a1a82620009e6565b9150819050919050565b7f6163636573732d7375626a6563746973417574686f72697a6564000000000000600082015250565b600062000a5c601a8362000613565b915062000a698262000a24565b601a82019050919050565b600062000a818262000a4d565b9150819050919050565b7f6163636573732d7375626a6563746973417574686f72697a6564747275650000600082015250565b600062000ac3601e8362000613565b915062000ad08262000a8b565b601e82019050919050565b600062000ae88262000ab4565b9150819050919050565b7f4e487b7100000000000000000000000000000000000000000000000000000000600052601160045260246000fd5b6000819050919050565b600062000b388262000b21565b91507fffffffffffffffffffffffffffffffffffffffffffffffffffffffffffffffff820362000b6d5762000b6c62000af2565b5b600182019050919050565b7f7370656369616c697a6174696f6e000000000000000000000000000000000000600082015250565b600062000bb0600e8362000613565b915062000bbd8262000b78565b600e82019050919050565b600062000bd58262000ba1565b9150819050919050565b7f6163636573732d7375626a6563747370656369616c697a6174696f6e00000000600082015250565b600062000c17601c8362000613565b915062000c248262000bdf565b601c82019050919050565b600062000c3c8262000c08565b9150819050919050565b7f6163636573732d7375626a6563747370656369616c697a6174696f6e4361726460008201527f696f6c6f67790000000000000000000000000000000000000000000000000000602082015250565b600062000ca460268362000613565b915062000cb18262000c46565b602682019050919050565b600062000cc98262000c95565b9150819050919050565b7f6861734163636573735269676874730000000000000000000000000000000000600082015250565b600062000d0b600f8362000613565b915062000d188262000cd3565b600f82019050919050565b600062000d308262000cfc565b9150819050919050565b7f6163636573732d7375626a656374686173416363657373526967687473000000600082015250565b600062000d72601d8362000613565b915062000d7f8262000d3a565b601d82019050919050565b600062000d978262000d63565b9150819050919050565b7f6163636573732d7375626a65637468617341636365737352696768747352656160008201527f642d577269746500000000000000000000000000000000000000000000000000602082015250565b600062000dff60278362000613565b915062000e0c8262000da1565b602782019050919050565b600062000e248262000df0565b9150819050919050565b7f6461746173657400000000000000000000000000000000000000000000000000600082015250565b600062000e6660078362000613565b915062000e738262000e2e565b600782019050919050565b600062000e8b8262000e57565b9150819050919050565b7f6c6f636174696f6e000000000000000000000000000000000000000000000000600082015250565b600062000ecd60088362000613565b915062000eda8262000e95565b600882019050919050565b600062000ef28262000ebe565b9150819050919050565b7f646174617365746c6f636174696f6e0000000000000000000000000000000000600082015250565b600062000f34600f8362000613565b915062000f418262000efc565b600f82019050919050565b600062000f598262000f25565b9150819050919050565b7f646174617365746c6f636174696f6e436c6f7564000000000000000000000000600082015250565b600062000f9b60148362000613565b915062000fa88262000f63565b601482019050919050565b600062000fc08262000f8c565b9150819050919050565b612b138062000fda6000396000f3fe608060405234801561001057600080fd5b50600436106100b35760003560e01c80637b009128116100715780637b0091281461018e57806391bbdcc7146101aa57806397aba7f9146101c8578063a7bb5803146101f8578063b446f3b21461022a578063fa5408011461025a576100b3565b80629fe9ac146100b85780632dd34f0f146100d4578063305f72b714610104578063354fc470146101225780635e01eb5a1461015257806363ffab3114610170575b600080fd5b6100d260048036038101906100cd9190611c3f565b61028a565b005b6100ee60048036038101906100e99190611e03565b610b94565b6040516100fb9190611ea9565b60405180910390f35b61010c610bf2565b6040516101199190611edd565b60405180910390f35b61013c60048036038101906101379190611ef8565b610bf8565b6040516101499190611fc0565b60405180910390f35b61015a610ca8565b6040516101679190611ff1565b60405180910390f35b610178610cb0565b6040516101859190611ff1565b60405180910390f35b6101a860048036038101906101a3919061200c565b610cc8565b005b6101b2611595565b6040516101bf9190611fc0565b60405180910390f35b6101e260048036038101906101dd9190612177565b6115b1565b6040516101ef9190611ff1565b60405180910390f35b610212600480360381019061020d91906121d3565b611620565b60405161022193929190612247565b60405180910390f35b610244600480360381019061023f9190611ef8565b611688565b604051610251919061227e565b60405180910390f35b610274600480360381019061026f9190612299565b6116b8565b604051610281919061227e565b60405180910390f35b610292611a1c565b6000600115156102dc737264d9fd1a56d865d8b7d96e5251a6efe820b4838a8a8a896040516020016102c7949392919061234e565b60405160208183030381529060405286610b94565b15151461031e576040517f08c379a0000000000000000000000000000000000000000000000000000000008152600401610315906123f9565b60405180910390fd5b60016000896040516103309190612419565b90815260200160405180910390208860405161034c9190612419565b9081526020016040518091039020540361047b576040518060400160405280600e81526020017f6163636573732d7375626a6563740000000000000000000000000000000000008152508282600c81106103a9576103a8612430565b5b60200201819052506040518060400160405280600c81526020017f6973417574686f72697a65640000000000000000000000000000000000000000815250826001836103f5919061248e565b600c811061040657610405612430565b5b60200201819052506040518060400160405280600481526020017f747275650000000000000000000000000000000000000000000000000000000081525082600283610452919061248e565b600c811061046357610462612430565b5b6020020181905250600381610478919061248e565b90505b6001808960405161048c9190612419565b9081526020016040518091039020876040516104a89190612419565b908152602001604051809103902054036105a2576040518060400160405280600e81526020017f6163636573732d7375626a6563740000000000000000000000000000000000008152508282600c811061050557610504612430565b5b60200201819052506040518060400160405280600e81526020017f7370656369616c697a6174696f6e00000000000000000000000000000000000081525082600183610551919061248e565b600c811061056257610561612430565b5b60200201819052508582600283610579919061248e565b600c811061058a57610589612430565b5b602002018190525060038161059f919061248e565b90505b60016002896040516105b49190612419565b9081526020016040518091039020866040516105d09190612419565b908152602001604051809103902054036106ca576040518060400160405280600e81526020017f6163636573732d7375626a6563740000000000000000000000000000000000008152508282600c811061062d5761062c612430565b5b60200201819052506040518060400160405280600f81526020017f686173416363657373526967687473000000000000000000000000000000000081525082600183610679919061248e565b600c811061068a57610689612430565b5b602002018190525084826002836106a1919061248e565b600c81106106b2576106b1612430565b5b60200201819052506003816106c7919061248e565b90505b60016003886040516106dc9190612419565b9081526020016040518091039020856040516106f89190612419565b908152602001604051809103902054036107f2576040518060400160405280600781526020017f64617461736574000000000000000000000000000000000000000000000000008152508282600c811061075557610754612430565b5b60200201819052506040518060400160405280600881526020017f6c6f636174696f6e000000000000000000000000000000000000000000000000815250826001836107a1919061248e565b600c81106107b2576107b1612430565b5b602002018190525083826002836107c9919061248e565b600c81106107da576107d9612430565b5b60200201819052506003816107ef919061248e565b90505b60005b818110156109aa5760008382600c811061081257610811612430565b5b60200201519050600084600184610829919061248e565b600c811061083a57610839612430565b5b60200201519050600085600285610851919061248e565b600c811061086257610861612430565b5b602002015190506001600d8e60405161087b9190612419565b9081526020016040518091039020846040516108979190612419565b9081526020016040518091039020836040516108b39190612419565b90815260200160405180910390205403610993576001600760006006866040516108dd9190612419565b9081526020016040518091039020548152602001908152602001600020600060066109188787604051806020016040528060008152506116e8565b6040516109259190612419565b9081526020016040518091039020548152602001908152602001600020600060066109518787876116e8565b60405161095e9190612419565b908152602001604051809103902054815260200190815260200160002060006101000a81548160ff0219169083151502179055505b5050506003816109a3919061248e565b90506107f5565b5060006001905060006109bb611595565b90506000816040516020016109d0919061255a565b60405160208183030381529060405290506000600190505b6008548111610b1f576000600190505b60096000838152602001908152602001600020548111610b0b576000600190505b600a60008481526020019081526020016000206000838152602001908152602001600020548111610af757600760008481526020019081526020016000206000838152602001908152602001600020600082815260200190815260200160002060009054906101000a900460ff1615610adf576000600760008581526020019081526020016000206000848152602001908152602001600020600083815260200190815260200160002060006101000a81548160ff021916908315150217905550610ae4565b600095505b8080610aef90612587565b915050610a19565b508080610b0390612587565b9150506109f8565b508080610b1790612587565b9150506109e8565b506001151583151503610b4f5781604051602001610b3d919061261b565b60405160208183030381529060405290505b7f0d296dbb8bcdfde31faa165965bf6e3983386c6dd968f1947b22137719fdde5781604051610b7e9190611fc0565b60405180910390a1505050505050505050505050565b600080610ba084611688565b90506000610bad826116b8565b90508573ffffffffffffffffffffffffffffffffffffffff16610bd082866115b1565b73ffffffffffffffffffffffffffffffffffffffff1614925050509392505050565b60045481565b6060600c82604051610c0a9190612419565b90815260200160405180910390208054610c2390612677565b80601f0160208091040260200160405190810160405280929190818152602001828054610c4f90612677565b8015610c9c5780601f10610c7157610100808354040283529160200191610c9c565b820191906000526020600020905b815481529060010190602001808311610c7f57829003601f168201915b50505050509050919050565b600033905090565b737264d9fd1a56d865d8b7d96e5251a6efe820b48381565b610cd0611a1c565b60006001600088604051610ce49190612419565b908152602001604051809103902087604051610d009190612419565b90815260200160405180910390205403610e2f576040518060400160405280600e81526020017f6163636573732d7375626a6563740000000000000000000000000000000000008152508282600c8110610d5d57610d5c612430565b5b60200201819052506040518060400160405280600c81526020017f6973417574686f72697a6564000000000000000000000000000000000000000081525082600183610da9919061248e565b600c8110610dba57610db9612430565b5b60200201819052506040518060400160405280600481526020017f747275650000000000000000000000000000000000000000000000000000000081525082600283610e06919061248e565b600c8110610e1757610e16612430565b5b6020020181905250600381610e2c919061248e565b90505b60018088604051610e409190612419565b908152602001604051809103902086604051610e5c9190612419565b90815260200160405180910390205403610f56576040518060400160405280600e81526020017f6163636573732d7375626a6563740000000000000000000000000000000000008152508282600c8110610eb957610eb8612430565b5b60200201819052506040518060400160405280600e81526020017f7370656369616c697a6174696f6e00000000000000000000000000000000000081525082600183610f05919061248e565b600c8110610f1657610f15612430565b5b60200201819052508482600283610f2d919061248e565b600c8110610f3e57610f3d612430565b5b6020020181905250600381610f53919061248e565b90505b6001600288604051610f689190612419565b908152602001604051809103902085604051610f849190612419565b9081526020016040518091039020540361107e576040518060400160405280600e81526020017f6163636573732d7375626a6563740000000000000000000000000000000000008152508282600c8110610fe157610fe0612430565b5b60200201819052506040518060400160405280600f81526020017f68617341636365737352696768747300000000000000000000000000000000008152508260018361102d919061248e565b600c811061103e5761103d612430565b5b60200201819052508382600283611055919061248e565b600c811061106657611065612430565b5b602002018190525060038161107b919061248e565b90505b60016003876040516110909190612419565b9081526020016040518091039020846040516110ac9190612419565b908152602001604051809103902054036111a6576040518060400160405280600781526020017f64617461736574000000000000000000000000000000000000000000000000008152508282600c811061110957611108612430565b5b60200201819052506040518060400160405280600881526020017f6c6f636174696f6e00000000000000000000000000000000000000000000000081525082600183611155919061248e565b600c811061116657611165612430565b5b6020020181905250828260028361117d919061248e565b600c811061118e5761118d612430565b5b60200201819052506003816111a3919061248e565b90505b60005b8181101561135e5760008382600c81106111c6576111c5612430565b5b602002015190506000846001846111dd919061248e565b600c81106111ee576111ed612430565b5b60200201519050600085600285611205919061248e565b600c811061121657611215612430565b5b602002015190506001600d8d60405161122f9190612419565b90815260200160405180910390208460405161124b9190612419565b9081526020016040518091039020836040516112679190612419565b90815260200160405180910390205403611347576001600760006006866040516112919190612419565b9081526020016040518091039020548152602001908152602001600020600060066112cc8787604051806020016040528060008152506116e8565b6040516112d99190612419565b9081526020016040518091039020548152602001908152602001600020600060066113058787876116e8565b6040516113129190612419565b908152602001604051809103902054815260200190815260200160002060006101000a81548160ff0219169083151502179055505b505050600381611357919061248e565b90506111a9565b506000600190506000600190505b60085481116114a3576000600190505b6009600083815260200190815260200160002054811161148f576000600190505b600a6000848152602001908152602001600020600083815260200190815260200160002054811161147b57600760008481526020019081526020016000206000838152602001908152602001600020600082815260200190815260200160002060009054906101000a900460ff1615611463576000600760008581526020019081526020016000206000848152602001908152602001600020600083815260200190815260200160002060006101000a81548160ff021916908315150217905550611468565b600093505b808061147390612587565b91505061139d565b50808061148790612587565b91505061137c565b50808061149b90612587565b91505061136c565b508015611510576040518060400160405280600681526020017f5065726d69740000000000000000000000000000000000000000000000000000815250600c8a6040516114f09190612419565b9081526020016040518091039020908161150a9190612854565b50611572565b6040518060400160405280600481526020017f44656e7900000000000000000000000000000000000000000000000000000000815250600c8a6040516115569190612419565b908152602001604051809103902090816115709190612854565b505b6004600081548092919061158590612587565b9190505550505050505050505050565b6060600033905060006115a782611717565b9050809250505090565b6000806000806115c085611620565b925092509250600186828585604051600081526020016040526040516115e99493929190612926565b6020604051602081039080840390855afa15801561160b573d6000803e3d6000fd5b50505060206040510351935050505092915050565b60008060006041845114611669576040517f08c379a0000000000000000000000000000000000000000000000000000000008152600401611660906129b7565b60405180910390fd5b6020840151925060408401519150606084015160001a90509193909250565b60008160405160200161169b9190612419565b604051602081830303815290604052805190602001209050919050565b6000816040516020016116cb9190612a44565b604051602081830303815290604052805190602001209050919050565b60608383836040516020016116ff93929190612a6a565b60405160208183030381529060405290509392505050565b606060008273ffffffffffffffffffffffffffffffffffffffff1660001b905060006040518060400160405280601081526020017f303132333435363738396162636465660000000000000000000000000000000081525090506000602a67ffffffffffffffff81111561178e5761178d611a73565b5b6040519080825280601f01601f1916602001820160405280156117c05781602001600182028036833780820191505090505b5090507f3000000000000000000000000000000000000000000000000000000000000000816000815181106117f8576117f7612430565b5b60200101907effffffffffffffffffffffffffffffffffffffffffffffffffffffffffffff1916908160001a9053507f78000000000000000000000000000000000000000000000000000000000000008160018151811061185c5761185b612430565b5b60200101907effffffffffffffffffffffffffffffffffffffffffffffffffffffffffffff1916908160001a90535060005b6014811015611a105782600485600c846118a8919061248e565b602081106118b9576118b8612430565b5b1a60f81b7effffffffffffffffffffffffffffffffffffffffffffffffffffffffffffff1916901c60f81c60ff16815181106118f8576118f7612430565b5b602001015160f81c60f81b826002836119119190612a9b565b600261191d919061248e565b8151811061192e5761192d612430565b5b60200101907effffffffffffffffffffffffffffffffffffffffffffffffffffffffffffff1916908160001a90535082600f60f81b85600c84611971919061248e565b6020811061198257611981612430565b5b1a60f81b1660f81c60ff168151811061199e5761199d612430565b5b602001015160f81c60f81b826002836119b79190612a9b565b60036119c3919061248e565b815181106119d4576119d3612430565b5b60200101907effffffffffffffffffffffffffffffffffffffffffffffffffffffffffffff1916908160001a905350808060010191505061188e565b50809350505050919050565b604051806101800160405280600c905b6060815260200190600190039081611a2c5790505090565b6000604051905090565b600080fd5b600080fd5b600080fd5b600080fd5b6000601f19601f8301169050919050565b7f4e487b7100000000000000000000000000000000000000000000000000000000600052604160045260246000fd5b611aab82611a62565b810181811067ffffffffffffffff82111715611aca57611ac9611a73565b5b80604052505050565b6000611add611a44565b9050611ae98282611aa2565b919050565b600067ffffffffffffffff821115611b0957611b08611a73565b5b611b1282611a62565b9050602081019050919050565b82818337600083830152505050565b6000611b41611b3c84611aee565b611ad3565b905082815260208101848484011115611b5d57611b5c611a5d565b5b611b68848285611b1f565b509392505050565b600082601f830112611b8557611b84611a58565b5b8135611b95848260208601611b2e565b91505092915050565b600067ffffffffffffffff821115611bb957611bb8611a73565b5b611bc282611a62565b9050602081019050919050565b6000611be2611bdd84611b9e565b611ad3565b905082815260208101848484011115611bfe57611bfd611a5d565b5b611c09848285611b1f565b509392505050565b600082601f830112611c2657611c25611a58565b5b8135611c36848260208601611bcf565b91505092915050565b600080600080600080600060e0888a031215611c5e57611c5d611a4e565b5b600088013567ffffffffffffffff811115611c7c57611c7b611a53565b5b611c888a828b01611b70565b975050602088013567ffffffffffffffff811115611ca957611ca8611a53565b5b611cb58a828b01611b70565b965050604088013567ffffffffffffffff811115611cd657611cd5611a53565b5b611ce28a828b01611b70565b955050606088013567ffffffffffffffff811115611d0357611d02611a53565b5b611d0f8a828b01611b70565b945050608088013567ffffffffffffffff811115611d3057611d2f611a53565b5b611d3c8a828b01611b70565b93505060a088013567ffffffffffffffff811115611d5d57611d5c611a53565b5b611d698a828b01611b70565b92505060c088013567ffffffffffffffff811115611d8a57611d89611a53565b5b611d968a828b01611c11565b91505092959891949750929550565b600073ffffffffffffffffffffffffffffffffffffffff82169050919050565b6000611dd082611da5565b9050919050565b611de081611dc5565b8114611deb57600080fd5b50565b600081359050611dfd81611dd7565b92915050565b600080600060608486031215611e1c57611e1b611a4e565b5b6000611e2a86828701611dee565b935050602084013567ffffffffffffffff811115611e4b57611e4a611a53565b5b611e5786828701611b70565b925050604084013567ffffffffffffffff811115611e7857611e77611a53565b5b611e8486828701611c11565b9150509250925092565b60008115159050919050565b611ea381611e8e565b82525050565b6000602082019050611ebe6000830184611e9a565b92915050565b6000819050919050565b611ed781611ec4565b82525050565b6000602082019050611ef26000830184611ece565b92915050565b600060208284031215611f0e57611f0d611a4e565b5b600082013567ffffffffffffffff811115611f2c57611f2b611a53565b5b611f3884828501611b70565b91505092915050565b600081519050919050565b600082825260208201905092915050565b60005b83811015611f7b578082015181840152602081019050611f60565b60008484015250505050565b6000611f9282611f41565b611f9c8185611f4c565b9350611fac818560208601611f5d565b611fb581611a62565b840191505092915050565b60006020820190508181036000830152611fda8184611f87565b905092915050565b611feb81611dc5565b82525050565b60006020820190506120066000830184611fe2565b92915050565b60008060008060008060c0878903121561202957612028611a4e565b5b600087013567ffffffffffffffff81111561204757612046611a53565b5b61205389828a01611b70565b965050602087013567ffffffffffffffff81111561207457612073611a53565b5b61208089828a01611b70565b955050604087013567ffffffffffffffff8111156120a1576120a0611a53565b5b6120ad89828a01611b70565b945050606087013567ffffffffffffffff8111156120ce576120cd611a53565b5b6120da89828a01611b70565b935050608087013567ffffffffffffffff8111156120fb576120fa611a53565b5b61210789828a01611b70565b92505060a087013567ffffffffffffffff81111561212857612127611a53565b5b61213489828a01611b70565b9150509295509295509295565b6000819050919050565b61215481612141565b811461215f57600080fd5b50565b6000813590506121718161214b565b92915050565b6000806040838503121561218e5761218d611a4e565b5b600061219c85828601612162565b925050602083013567ffffffffffffffff8111156121bd576121bc611a53565b5b6121c985828601611c11565b9150509250929050565b6000602082840312156121e9576121e8611a4e565b5b600082013567ffffffffffffffff81111561220757612206611a53565b5b61221384828501611c11565b91505092915050565b61222581612141565b82525050565b600060ff82169050919050565b6122418161222b565b82525050565b600060608201905061225c600083018661221c565b612269602083018561221c565b6122766040830184612238565b949350505050565b6000602082019050612293600083018461221c565b92915050565b6000602082840312156122af576122ae611a4e565b5b60006122bd84828501612162565b91505092915050565b600081905092915050565b60006122dc82611f41565b6122e681856122c6565b93506122f6818560208601611f5d565b80840191505092915050565b7f2c00000000000000000000000000000000000000000000000000000000000000600082015250565b60006123386001836122c6565b915061234382612302565b600182019050919050565b600061235a82876122d1565b91506123658261232b565b915061237182866122d1565b915061237c8261232b565b915061238882856122d1565b91506123938261232b565b915061239f82846122d1565b915081905095945050505050565b7f496e76616c6964207369676e6174757265000000000000000000000000000000600082015250565b60006123e3601183611f4c565b91506123ee826123ad565b602082019050919050565b60006020820190508181036000830152612412816123d6565b9050919050565b600061242582846122d1565b915081905092915050565b7f4e487b7100000000000000000000000000000000000000000000000000000000600052603260045260246000fd5b7f4e487b7100000000000000000000000000000000000000000000000000000000600052601160045260246000fd5b600061249982611ec4565b91506124a483611ec4565b92508282019050808211156124bc576124bb61245f565b5b92915050565b7f66616c7365000000000000000000000000000000000000000000000000000000600082015250565b60006124f86005836122c6565b9150612503826124c2565b600582019050919050565b7f3a00000000000000000000000000000000000000000000000000000000000000600082015250565b60006125446001836122c6565b915061254f8261250e565b600182019050919050565b6000612565826124eb565b915061257082612537565b915061257c82846122d1565b915081905092915050565b600061259282611ec4565b91507fffffffffffffffffffffffffffffffffffffffffffffffffffffffffffffffff82036125c4576125c361245f565b5b600182019050919050565b7f7472756500000000000000000000000000000000000000000000000000000000600082015250565b60006126056004836122c6565b9150612610826125cf565b600482019050919050565b6000612626826125f8565b915061263182612537565b915061263d82846122d1565b915081905092915050565b7f4e487b7100000000000000000000000000000000000000000000000000000000600052602260045260246000fd5b6000600282049050600182168061268f57607f821691505b6020821081036126a2576126a1612648565b5b50919050565b60008190508160005260206000209050919050565b60006020601f8301049050919050565b600082821b905092915050565b60006008830261270a7fffffffffffffffffffffffffffffffffffffffffffffffffffffffffffffffff826126cd565b61271486836126cd565b95508019841693508086168417925050509392505050565b6000819050919050565b600061275161274c61274784611ec4565b61272c565b611ec4565b9050919050565b6000819050919050565b61276b83612736565b61277f61277782612758565b8484546126da565b825550505050565b600090565b612794612787565b61279f818484612762565b505050565b5b818110156127c3576127b860008261278c565b6001810190506127a5565b5050565b601f821115612808576127d9816126a8565b6127e2846126bd565b810160208510156127f1578190505b6128056127fd856126bd565b8301826127a4565b50505b505050565b600082821c905092915050565b600061282b6000198460080261280d565b1980831691505092915050565b6000612844838361281a565b9150826002028217905092915050565b61285d82611f41565b67ffffffffffffffff81111561287657612875611a73565b5b6128808254612677565b61288b8282856127c7565b600060209050601f8311600181146128be57600084156128ac578287015190505b6128b68582612838565b86555061291e565b601f1984166128cc866126a8565b60005b828110156128f4578489015182556001820191506020850194506020810190506128cf565b86831015612911578489015161290d601f89168261281a565b8355505b6001600288020188555050505b505050505050565b600060808201905061293b600083018761221c565b6129486020830186612238565b612955604083018561221c565b612962606083018461221c565b95945050505050565b7f696e76616c6964207369676e6174757265206c656e6774680000000000000000600082015250565b60006129a1601883611f4c565b91506129ac8261296b565b602082019050919050565b600060208201905081810360008301526129d081612994565b9050919050565b7f19457468657265756d205369676e6564204d6573736167653a0a333200000000600082015250565b6000612a0d601c836122c6565b9150612a18826129d7565b601c82019050919050565b6000819050919050565b612a3e612a3982612141565b612a23565b82525050565b6000612a4f82612a00565b9150612a5b8284612a2d565b60208201915081905092915050565b6000612a7682866122d1565b9150612a8282856122d1565b9150612a8e82846122d1565b9150819050949350505050565b6000612aa682611ec4565b9150612ab183611ec4565b9250828202612abf81611ec4565b91508282048414831517612ad657612ad561245f565b5b509291505056fea264697066735822122050012d8503d217f3622791ef884a5b0e1806303dd66f3dffec1028da6f3d445264736f6c63430008180033","opcodes":"PUSH1 0x80 PUSH1 0x40 MSTORE CALLVALUE DUP1 ISZERO PUSH3 0x11 JUMPI PUSH1 0x0 DUP1 REVERT JUMPDEST POP PUSH1 0x1 PUSH1 0x0 PUSH1 0x40 MLOAD PUSH3 0x24 SWAP1 PUSH3 0x66E JUMP JUMPDEST SWAP1 DUP2 MSTORE PUSH1 0x20 ADD PUSH1 0x40 MLOAD DUP1 SWAP2 SUB SWAP1 KECCAK256 PUSH1 0x40 MLOAD PUSH3 0x40 SWAP1 PUSH3 0x6D5 JUMP JUMPDEST SWAP1 DUP2 MSTORE PUSH1 0x20 ADD PUSH1 0x40 MLOAD DUP1 SWAP2 SUB SWAP1 KECCAK256 DUP2 SWAP1 SSTORE POP PUSH1 0x1 DUP1 PUSH1 0x40 MLOAD PUSH3 0x63 SWAP1 PUSH3 0x66E JUMP JUMPDEST SWAP1 DUP2 MSTORE PUSH1 0x20 ADD PUSH1 0x40 MLOAD DUP1 SWAP2 SUB SWAP1 KECCAK256 PUSH1 0x40 MLOAD PUSH3 0x7F SWAP1 PUSH3 0x73C JUMP JUMPDEST SWAP1 DUP2 MSTORE PUSH1 0x20 ADD PUSH1 0x40 MLOAD DUP1 SWAP2 SUB SWAP1 KECCAK256 DUP2 SWAP1 SSTORE POP PUSH1 0x1 PUSH1 0x2 PUSH1 0x40 MLOAD PUSH3 0xA3 SWAP1 PUSH3 0x66E JUMP JUMPDEST SWAP1 DUP2 MSTORE PUSH1 0x20 ADD PUSH1 0x40 MLOAD DUP1 SWAP2 SUB SWAP1 KECCAK256 PUSH1 0x40 MLOAD PUSH3 0xBF SWAP1 PUSH3 0x7A3 JUMP JUMPDEST SWAP1 DUP2 MSTORE PUSH1 0x20 ADD PUSH1 0x40 MLOAD DUP1 SWAP2 SUB SWAP1 KECCAK256 DUP2 SWAP1 SSTORE POP PUSH1 0x1 PUSH1 0x3 PUSH1 0x40 MLOAD PUSH3 0xE3 SWAP1 PUSH3 0x6D5 JUMP JUMPDEST SWAP1 DUP2 MSTORE PUSH1 0x20 ADD PUSH1 0x40 MLOAD DUP1 SWAP2 SUB SWAP1 KECCAK256 PUSH1 0x40 MLOAD PUSH3 0xFF SWAP1 PUSH3 0x80A JUMP JUMPDEST SWAP1 DUP2 MSTORE PUSH1 0x20 ADD PUSH1 0x40 MLOAD DUP1 SWAP2 SUB SWAP1 KECCAK256 DUP2 SWAP1 SSTORE POP PUSH1 0x1 PUSH1 0x3 PUSH1 0x40 MLOAD PUSH3 0x123 SWAP1 PUSH3 0x871 JUMP JUMPDEST SWAP1 DUP2 MSTORE PUSH1 0x20 ADD PUSH1 0x40 MLOAD DUP1 SWAP2 SUB SWAP1 KECCAK256 PUSH1 0x40 MLOAD PUSH3 0x13F SWAP1 PUSH3 0x8D8 JUMP JUMPDEST SWAP1 DUP2 MSTORE PUSH1 0x20 ADD PUSH1 0x40 MLOAD DUP1 SWAP2 SUB SWAP1 KECCAK256 DUP2 SWAP1 SSTORE POP PUSH1 0x0 PUSH1 0x4 DUP2 SWAP1 SSTORE POP PUSH1 0x1 PUSH1 0x5 PUSH1 0x40 MLOAD PUSH3 0x16B SWAP1 PUSH3 0x93F JUMP JUMPDEST SWAP1 DUP2 MSTORE PUSH1 0x20 ADD PUSH1 0x40 MLOAD DUP1 SWAP2 SUB SWAP1 KECCAK256 PUSH1 0x40 MLOAD PUSH3 0x187 SWAP1 PUSH3 0x9A6 JUMP JUMPDEST SWAP1 DUP2 MSTORE PUSH1 0x20 ADD PUSH1 0x40 MLOAD DUP1 SWAP2 SUB SWAP1 KECCAK256 PUSH1 0x40 MLOAD PUSH3 0x1A3 SWAP1 PUSH3 0xA0D JUMP JUMPDEST SWAP1 DUP2 MSTORE PUSH1 0x20 ADD PUSH1 0x40 MLOAD DUP1 SWAP2 SUB SWAP1 KECCAK256 DUP2 SWAP1 SSTORE POP PUSH1 0x1 PUSH1 0x6 PUSH1 0x40 MLOAD PUSH3 0x1C7 SWAP1 PUSH3 0x93F JUMP JUMPDEST SWAP1 DUP2 MSTORE PUSH1 0x20 ADD PUSH1 0x40 MLOAD DUP1 SWAP2 SUB SWAP1 KECCAK256 DUP2 SWAP1 SSTORE POP PUSH1 0x1 PUSH1 0x6 PUSH1 0x40 MLOAD PUSH3 0x1EB SWAP1 PUSH3 0xA74 JUMP JUMPDEST SWAP1 DUP2 MSTORE PUSH1 0x20 ADD PUSH1 0x40 MLOAD DUP1 SWAP2 SUB SWAP1 KECCAK256 DUP2 SWAP1 SSTORE POP PUSH1 0x1 PUSH1 0x6 PUSH1 0x40 MLOAD PUSH3 0x20F SWAP1 PUSH3 0xADB JUMP JUMPDEST SWAP1 DUP2 MSTORE PUSH1 0x20 ADD PUSH1 0x40 MLOAD DUP1 SWAP2 SUB SWAP1 KECCAK256 DUP2 SWAP1 SSTORE POP PUSH1 0x8 PUSH1 0x0 DUP2 SLOAD DUP1 SWAP3 SWAP2 SWAP1 PUSH3 0x236 SWAP1 PUSH3 0xB2B JUMP JUMPDEST SWAP2 SWAP1 POP SSTORE POP PUSH1 0x9 PUSH1 0x0 PUSH1 0x1 DUP2 MSTORE PUSH1 0x20 ADD SWAP1 DUP2 MSTORE PUSH1 0x20 ADD PUSH1 0x0 KECCAK256 PUSH1 0x0 DUP2 SLOAD DUP1 SWAP3 SWAP2 SWAP1 PUSH3 0x262 SWAP1 PUSH3 0xB2B JUMP JUMPDEST SWAP2 SWAP1 POP SSTORE POP PUSH1 0xA PUSH1 0x0 PUSH1 0x1 DUP2 MSTORE PUSH1 0x20 ADD SWAP1 DUP2 MSTORE PUSH1 0x20 ADD PUSH1 0x0 KECCAK256 PUSH1 0x0 PUSH1 0x1 DUP2 MSTORE PUSH1 0x20 ADD SWAP1 DUP2 MSTORE PUSH1 0x20 ADD PUSH1 0x0 KECCAK256 PUSH1 0x0 DUP2 SLOAD DUP1 SWAP3 SWAP2 SWAP1 PUSH3 0x2A0 SWAP1 PUSH3 0xB2B JUMP JUMPDEST SWAP2 SWAP1 POP SSTORE POP PUSH1 0x1 PUSH1 0x5 PUSH1 0x40 MLOAD PUSH3 0x2B7 SWAP1 PUSH3 0x93F JUMP JUMPDEST SWAP1 DUP2 MSTORE PUSH1 0x20 ADD PUSH1 0x40 MLOAD DUP1 SWAP2 SUB SWAP1 KECCAK256 PUSH1 0x40 MLOAD PUSH3 0x2D3 SWAP1 PUSH3 0xBC8 JUMP JUMPDEST SWAP1 DUP2 MSTORE PUSH1 0x20 ADD PUSH1 0x40 MLOAD DUP1 SWAP2 SUB SWAP1 KECCAK256 PUSH1 0x40 MLOAD PUSH3 0x2EF SWAP1 PUSH3 0x73C JUMP JUMPDEST SWAP1 DUP2 MSTORE PUSH1 0x20 ADD PUSH1 0x40 MLOAD DUP1 SWAP2 SUB SWAP1 KECCAK256 DUP2 SWAP1 SSTORE POP PUSH1 0x2 PUSH1 0x6 PUSH1 0x40 MLOAD PUSH3 0x313 SWAP1 PUSH3 0xC2F JUMP JUMPDEST SWAP1 DUP2 MSTORE PUSH1 0x20 ADD PUSH1 0x40 MLOAD DUP1 SWAP2 SUB SWAP1 KECCAK256 DUP2 SWAP1 SSTORE POP PUSH1 0x1 PUSH1 0x6 PUSH1 0x40 MLOAD PUSH3 0x337 SWAP1 PUSH3 0xCBC JUMP JUMPDEST SWAP1 DUP2 MSTORE PUSH1 0x20 ADD PUSH1 0x40 MLOAD DUP1 SWAP2 SUB SWAP1 KECCAK256 DUP2 SWAP1 SSTORE POP PUSH1 0x9 PUSH1 0x0 PUSH1 0x1 DUP2 MSTORE PUSH1 0x20 ADD SWAP1 DUP2 MSTORE PUSH1 0x20 ADD PUSH1 0x0 KECCAK256 PUSH1 0x0 DUP2 SLOAD DUP1 SWAP3 SWAP2 SWAP1 PUSH3 0x370 SWAP1 PUSH3 0xB2B JUMP JUMPDEST SWAP2 SWAP1 POP SSTORE POP PUSH1 0xA PUSH1 0x0 PUSH1 0x1 DUP2 MSTORE PUSH1 0x20 ADD SWAP1 DUP2 MSTORE PUSH1 0x20 ADD PUSH1 0x0 KECCAK256 PUSH1 0x0 PUSH1 0x2 DUP2 MSTORE PUSH1 0x20 ADD SWAP1 DUP2 MSTORE PUSH1 0x20 ADD PUSH1 0x0 KECCAK256 PUSH1 0x0 DUP2 SLOAD DUP1 SWAP3 SWAP2 SWAP1 PUSH3 0x3AE SWAP1 PUSH3 0xB2B JUMP JUMPDEST SWAP2 SWAP1 POP SSTORE POP PUSH1 0x1 PUSH1 0x5 PUSH1 0x40 MLOAD PUSH3 0x3C5 SWAP1 PUSH3 0x93F JUMP JUMPDEST SWAP1 DUP2 MSTORE PUSH1 0x20 ADD PUSH1 0x40 MLOAD DUP1 SWAP2 SUB SWAP1 KECCAK256 PUSH1 0x40 MLOAD PUSH3 0x3E1 SWAP1 PUSH3 0xD23 JUMP JUMPDEST SWAP1 DUP2 MSTORE PUSH1 0x20 ADD PUSH1 0x40 MLOAD DUP1 SWAP2 SUB SWAP1 KECCAK256 PUSH1 0x40 MLOAD PUSH3 0x3FD SWAP1 PUSH3 0x7A3 JUMP JUMPDEST SWAP1 DUP2 MSTORE PUSH1 0x20 ADD PUSH1 0x40 MLOAD DUP1 SWAP2 SUB SWAP1 KECCAK256 DUP2 SWAP1 SSTORE POP PUSH1 0x3 PUSH1 0x6 PUSH1 0x40 MLOAD PUSH3 0x421 SWAP1 PUSH3 0xD8A JUMP JUMPDEST SWAP1 DUP2 MSTORE PUSH1 0x20 ADD PUSH1 0x40 MLOAD DUP1 SWAP2 SUB SWAP1 KECCAK256 DUP2 SWAP1 SSTORE POP PUSH1 0x1 PUSH1 0x6 PUSH1 0x40 MLOAD PUSH3 0x445 SWAP1 PUSH3 0xE17 JUMP JUMPDEST SWAP1 DUP2 MSTORE PUSH1 0x20 ADD PUSH1 0x40 MLOAD DUP1 SWAP2 SUB SWAP1 KECCAK256 DUP2 SWAP1 SSTORE POP PUSH1 0x9 PUSH1 0x0 PUSH1 0x1 DUP2 MSTORE PUSH1 0x20 ADD SWAP1 DUP2 MSTORE PUSH1 0x20 ADD PUSH1 0x0 KECCAK256 PUSH1 0x0 DUP2 SLOAD DUP1 SWAP3 SWAP2 SWAP1 PUSH3 0x47E SWAP1 PUSH3 0xB2B JUMP JUMPDEST SWAP2 SWAP1 POP SSTORE POP PUSH1 0xA PUSH1 0x0 PUSH1 0x1 DUP2 MSTORE PUSH1 0x20 ADD SWAP1 DUP2 MSTORE PUSH1 0x20 ADD PUSH1 0x0 KECCAK256 PUSH1 0x0 PUSH1 0x3 DUP2 MSTORE PUSH1 0x20 ADD SWAP1 DUP2 MSTORE PUSH1 0x20 ADD PUSH1 0x0 KECCAK256 PUSH1 0x0 DUP2 SLOAD DUP1 SWAP3 SWAP2 SWAP1 PUSH3 0x4BC SWAP1 PUSH3 0xB2B JUMP JUMPDEST SWAP2 SWAP1 POP SSTORE POP PUSH1 0x1 PUSH1 0x5 PUSH1 0x40 MLOAD PUSH3 0x4D3 SWAP1 PUSH3 0xE7E JUMP JUMPDEST SWAP1 DUP2 MSTORE PUSH1 0x20 ADD PUSH1 0x40 MLOAD DUP1 SWAP2 SUB SWAP1 KECCAK256 PUSH1 0x40 MLOAD PUSH3 0x4EF SWAP1 PUSH3 0xEE5 JUMP JUMPDEST SWAP1 DUP2 MSTORE PUSH1 0x20 ADD PUSH1 0x40 MLOAD DUP1 SWAP2 SUB SWAP1 KECCAK256 PUSH1 0x40 MLOAD PUSH3 0x50B SWAP1 PUSH3 0x80A JUMP JUMPDEST SWAP1 DUP2 MSTORE PUSH1 0x20 ADD PUSH1 0x40 MLOAD DUP1 SWAP2 SUB SWAP1 KECCAK256 DUP2 SWAP1 SSTORE POP PUSH1 0x2 PUSH1 0x6 PUSH1 0x40 MLOAD PUSH3 0x52F SWAP1 PUSH3 0xE7E JUMP JUMPDEST SWAP1 DUP2 MSTORE PUSH1 0x20 ADD PUSH1 0x40 MLOAD DUP1 SWAP2 SUB SWAP1 KECCAK256 DUP2 SWAP1 SSTORE POP PUSH1 0x1 PUSH1 0x6 PUSH1 0x40 MLOAD PUSH3 0x553 SWAP1 PUSH3 0xF4C JUMP JUMPDEST SWAP1 DUP2 MSTORE PUSH1 0x20 ADD PUSH1 0x40 MLOAD DUP1 SWAP2 SUB SWAP1 KECCAK256 DUP2 SWAP1 SSTORE POP PUSH1 0x1 PUSH1 0x6 PUSH1 0x40 MLOAD PUSH3 0x577 SWAP1 PUSH3 0xFB3 JUMP JUMPDEST SWAP1 DUP2 MSTORE PUSH1 0x20 ADD PUSH1 0x40 MLOAD DUP1 SWAP2 SUB SWAP1 KECCAK256 DUP2 SWAP1 SSTORE POP PUSH1 0x8 PUSH1 0x0 DUP2 SLOAD DUP1 SWAP3 SWAP2 SWAP1 PUSH3 0x59E SWAP1 PUSH3 0xB2B JUMP JUMPDEST SWAP2 SWAP1 POP SSTORE POP PUSH1 0x9 PUSH1 0x0 PUSH1 0x2 DUP2 MSTORE PUSH1 0x20 ADD SWAP1 DUP2 MSTORE PUSH1 0x20 ADD PUSH1 0x0 KECCAK256 PUSH1 0x0 DUP2 SLOAD DUP1 SWAP3 SWAP2 SWAP1 PUSH3 0x5CA SWAP1 PUSH3 0xB2B JUMP JUMPDEST SWAP2 SWAP1 POP SSTORE POP PUSH1 0xA PUSH1 0x0 PUSH1 0x2 DUP2 MSTORE PUSH1 0x20 ADD SWAP1 DUP2 MSTORE PUSH1 0x20 ADD PUSH1 0x0 KECCAK256 PUSH1 0x0 PUSH1 0x1 DUP2 MSTORE PUSH1 0x20 ADD SWAP1 DUP2 MSTORE PUSH1 0x20 ADD PUSH1 0x0 KECCAK256 PUSH1 0x0 DUP2 SLOAD DUP1 SWAP3 SWAP2 SWAP1 PUSH3 0x608 SWAP1 PUSH3 0xB2B JUMP JUMPDEST SWAP2 SWAP1 POP SSTORE POP PUSH3 0xFCA JUMP JUMPDEST PUSH1 0x0 DUP2 SWAP1 POP SWAP3 SWAP2 POP POP JUMP JUMPDEST PUSH32 0x646F633132330000000000000000000000000000000000000000000000000000 PUSH1 0x0 DUP3 ADD MSTORE POP JUMP JUMPDEST PUSH1 0x0 PUSH3 0x656 PUSH1 0x6 DUP4 PUSH3 0x613 JUMP JUMPDEST SWAP2 POP PUSH3 0x663 DUP3 PUSH3 0x61E JUMP JUMPDEST PUSH1 0x6 DUP3 ADD SWAP1 POP SWAP2 SWAP1 POP JUMP JUMPDEST PUSH1 0x0 PUSH3 0x67B DUP3 PUSH3 0x647 JUMP JUMPDEST SWAP2 POP DUP2 SWAP1 POP SWAP2 SWAP1 POP JUMP JUMPDEST PUSH32 0x686F73706974616C410000000000000000000000000000000000000000000000 PUSH1 0x0 DUP3 ADD MSTORE POP JUMP JUMPDEST PUSH1 0x0 PUSH3 0x6BD PUSH1 0x9 DUP4 PUSH3 0x613 JUMP JUMPDEST SWAP2 POP PUSH3 0x6CA DUP3 PUSH3 0x685 JUMP JUMPDEST PUSH1 0x9 DUP3 ADD SWAP1 POP SWAP2 SWAP1 POP JUMP JUMPDEST PUSH1 0x0 PUSH3 0x6E2 DUP3 PUSH3 0x6AE JUMP JUMPDEST SWAP2 POP DUP2 SWAP1 POP SWAP2 SWAP1 POP JUMP JUMPDEST PUSH32 0x43617264696F6C6F677900000000000000000000000000000000000000000000 PUSH1 0x0 DUP3 ADD MSTORE POP JUMP JUMPDEST PUSH1 0x0 PUSH3 0x724 PUSH1 0xA DUP4 PUSH3 0x613 JUMP JUMPDEST SWAP2 POP PUSH3 0x731 DUP3 PUSH3 0x6EC JUMP JUMPDEST PUSH1 0xA DUP3 ADD SWAP1 POP SWAP2 SWAP1 POP JUMP JUMPDEST PUSH1 0x0 PUSH3 0x749 DUP3 PUSH3 0x715 JUMP JUMPDEST SWAP2 POP DUP2 SWAP1 POP SWAP2 SWAP1 POP JUMP JUMPDEST PUSH32 0x526561642D577269746500000000000000000000000000000000000000000000 PUSH1 0x0 DUP3 ADD MSTORE POP JUMP JUMPDEST PUSH1 0x0 PUSH3 0x78B PUSH1 0xA DUP4 PUSH3 0x613 JUMP JUMPDEST SWAP2 POP PUSH3 0x798 DUP3 PUSH3 0x753 JUMP JUMPDEST PUSH1 0xA DUP3 ADD SWAP1 POP SWAP2 SWAP1 POP JUMP JUMPDEST PUSH1 0x0 PUSH3 0x7B0 DUP3 PUSH3 0x77C JUMP JUMPDEST SWAP2 POP DUP2 SWAP1 POP SWAP2 SWAP1 POP JUMP JUMPDEST PUSH32 0x436C6F7564000000000000000000000000000000000000000000000000000000 PUSH1 0x0 DUP3 ADD MSTORE POP JUMP JUMPDEST PUSH1 0x0 PUSH3 0x7F2 PUSH1 0x5 DUP4 PUSH3 0x613 JUMP JUMPDEST SWAP2 POP PUSH3 0x7FF DUP3 PUSH3 0x7BA JUMP JUMPDEST PUSH1 0x5 DUP3 ADD SWAP1 POP SWAP2 SWAP1 POP JUMP JUMPDEST PUSH1 0x0 PUSH3 0x817 DUP3 PUSH3 0x7E3 JUMP JUMPDEST SWAP2 POP DUP2 SWAP1 POP SWAP2 SWAP1 POP JUMP JUMPDEST PUSH32 0x686F73706974616C420000000000000000000000000000000000000000000000 PUSH1 0x0 DUP3 ADD MSTORE POP JUMP JUMPDEST PUSH1 0x0 PUSH3 0x859 PUSH1 0x9 DUP4 PUSH3 0x613 JUMP JUMPDEST SWAP2 POP PUSH3 0x866 DUP3 PUSH3 0x821 JUMP JUMPDEST PUSH1 0x9 DUP3 ADD SWAP1 POP SWAP2 SWAP1 POP JUMP JUMPDEST PUSH1 0x0 PUSH3 0x87E DUP3 PUSH3 0x84A JUMP JUMPDEST SWAP2 POP DUP2 SWAP1 POP SWAP2 SWAP1 POP JUMP JUMPDEST PUSH32 0x4C6F63616C000000000000000000000000000000000000000000000000000000 PUSH1 0x0 DUP3 ADD MSTORE POP JUMP JUMPDEST PUSH1 0x0 PUSH3 0x8C0 PUSH1 0x5 DUP4 PUSH3 0x613 JUMP JUMPDEST SWAP2 POP PUSH3 0x8CD DUP3 PUSH3 0x888 JUMP JUMPDEST PUSH1 0x5 DUP3 ADD SWAP1 POP SWAP2 SWAP1 POP JUMP JUMPDEST PUSH1 0x0 PUSH3 0x8E5 DUP3 PUSH3 0x8B1 JUMP JUMPDEST SWAP2 POP DUP2 SWAP1 POP SWAP2 SWAP1 POP JUMP JUMPDEST PUSH32 0x6163636573732D7375626A656374000000000000000000000000000000000000 PUSH1 0x0 DUP3 ADD MSTORE POP JUMP JUMPDEST PUSH1 0x0 PUSH3 0x927 PUSH1 0xE DUP4 PUSH3 0x613 JUMP JUMPDEST SWAP2 POP PUSH3 0x934 DUP3 PUSH3 0x8EF JUMP JUMPDEST PUSH1 0xE DUP3 ADD SWAP1 POP SWAP2 SWAP1 POP JUMP JUMPDEST PUSH1 0x0 PUSH3 0x94C DUP3 PUSH3 0x918 JUMP JUMPDEST SWAP2 POP DUP2 SWAP1 POP SWAP2 SWAP1 POP JUMP JUMPDEST PUSH32 0x6973417574686F72697A65640000000000000000000000000000000000000000 PUSH1 0x0 DUP3 ADD MSTORE POP JUMP JUMPDEST PUSH1 0x0 PUSH3 0x98E PUSH1 0xC DUP4 PUSH3 0x613 JUMP JUMPDEST SWAP2 POP PUSH3 0x99B DUP3 PUSH3 0x956 JUMP JUMPDEST PUSH1 0xC DUP3 ADD SWAP1 POP SWAP2 SWAP1 POP JUMP JUMPDEST PUSH1 0x0 PUSH3 0x9B3 DUP3 PUSH3 0x97F JUMP JUMPDEST SWAP2 POP DUP2 SWAP1 POP SWAP2 SWAP1 POP JUMP JUMPDEST PUSH32 0x7472756500000000000000000000000000000000000000000000000000000000 PUSH1 0x0 DUP3 ADD MSTORE POP JUMP JUMPDEST PUSH1 0x0 PUSH3 0x9F5 PUSH1 0x4 DUP4 PUSH3 0x613 JUMP JUMPDEST SWAP2 POP PUSH3 0xA02 DUP3 PUSH3 0x9BD JUMP JUMPDEST PUSH1 0x4 DUP3 ADD SWAP1 POP SWAP2 SWAP1 POP JUMP JUMPDEST PUSH1 0x0 PUSH3 0xA1A DUP3 PUSH3 0x9E6 JUMP JUMPDEST SWAP2 POP DUP2 SWAP1 POP SWAP2 SWAP1 POP JUMP JUMPDEST PUSH32 0x6163636573732D7375626A6563746973417574686F72697A6564000000000000 PUSH1 0x0 DUP3 ADD MSTORE POP JUMP JUMPDEST PUSH1 0x0 PUSH3 0xA5C PUSH1 0x1A DUP4 PUSH3 0x613 JUMP JUMPDEST SWAP2 POP PUSH3 0xA69 DUP3 PUSH3 0xA24 JUMP JUMPDEST PUSH1 0x1A DUP3 ADD SWAP1 POP SWAP2 SWAP1 POP JUMP JUMPDEST PUSH1 0x0 PUSH3 0xA81 DUP3 PUSH3 0xA4D JUMP JUMPDEST SWAP2 POP DUP2 SWAP1 POP SWAP2 SWAP1 POP JUMP JUMPDEST PUSH32 0x6163636573732D7375626A6563746973417574686F72697A6564747275650000 PUSH1 0x0 DUP3 ADD MSTORE POP JUMP JUMPDEST PUSH1 0x0 PUSH3 0xAC3 PUSH1 0x1E DUP4 PUSH3 0x613 JUMP JUMPDEST SWAP2 POP PUSH3 0xAD0 DUP3 PUSH3 0xA8B JUMP JUMPDEST PUSH1 0x1E DUP3 ADD SWAP1 POP SWAP2 SWAP1 POP JUMP JUMPDEST PUSH1 0x0 PUSH3 0xAE8 DUP3 PUSH3 0xAB4 JUMP JUMPDEST SWAP2 POP DUP2 SWAP1 POP SWAP2 SWAP1 POP JUMP JUMPDEST PUSH32 0x4E487B7100000000000000000000000000000000000000000000000000000000 PUSH1 0x0 MSTORE PUSH1 0x11 PUSH1 0x4 MSTORE PUSH1 0x24 PUSH1 0x0 REVERT JUMPDEST PUSH1 0x0 DUP2 SWAP1 POP SWAP2 SWAP1 POP JUMP JUMPDEST PUSH1 0x0 PUSH3 0xB38 DUP3 PUSH3 0xB21 JUMP JUMPDEST SWAP2 POP PUSH32 0xFFFFFFFFFFFFFFFFFFFFFFFFFFFFFFFFFFFFFFFFFFFFFFFFFFFFFFFFFFFFFFFF DUP3 SUB PUSH3 0xB6D JUMPI PUSH3 0xB6C PUSH3 0xAF2 JUMP JUMPDEST JUMPDEST PUSH1 0x1 DUP3 ADD SWAP1 POP SWAP2 SWAP1 POP JUMP JUMPDEST PUSH32 0x7370656369616C697A6174696F6E000000000000000000000000000000000000 PUSH1 0x0 DUP3 ADD MSTORE POP JUMP JUMPDEST PUSH1 0x0 PUSH3 0xBB0 PUSH1 0xE DUP4 PUSH3 0x613 JUMP JUMPDEST SWAP2 POP PUSH3 0xBBD DUP3 PUSH3 0xB78 JUMP JUMPDEST PUSH1 0xE DUP3 ADD SWAP1 POP SWAP2 SWAP1 POP JUMP JUMPDEST PUSH1 0x0 PUSH3 0xBD5 DUP3 PUSH3 0xBA1 JUMP JUMPDEST SWAP2 POP DUP2 SWAP1 POP SWAP2 SWAP1 POP JUMP JUMPDEST PUSH32 0x6163636573732D7375626A6563747370656369616C697A6174696F6E00000000 PUSH1 0x0 DUP3 ADD MSTORE POP JUMP JUMPDEST PUSH1 0x0 PUSH3 0xC17 PUSH1 0x1C DUP4 PUSH3 0x613 JUMP JUMPDEST SWAP2 POP PUSH3 0xC24 DUP3 PUSH3 0xBDF JUMP JUMPDEST PUSH1 0x1C DUP3 ADD SWAP1 POP SWAP2 SWAP1 POP JUMP JUMPDEST PUSH1 0x0 PUSH3 0xC3C DUP3 PUSH3 0xC08 JUMP JUMPDEST SWAP2 POP DUP2 SWAP1 POP SWAP2 SWAP1 POP JUMP JUMPDEST PUSH32 0x6163636573732D7375626A6563747370656369616C697A6174696F6E43617264 PUSH1 0x0 DUP3 ADD MSTORE PUSH32 0x696F6C6F67790000000000000000000000000000000000000000000000000000 PUSH1 0x20 DUP3 ADD MSTORE POP JUMP JUMPDEST PUSH1 0x0 PUSH3 0xCA4 PUSH1 0x26 DUP4 PUSH3 0x613 JUMP JUMPDEST SWAP2 POP PUSH3 0xCB1 DUP3 PUSH3 0xC46 JUMP JUMPDEST PUSH1 0x26 DUP3 ADD SWAP1 POP SWAP2 SWAP1 POP JUMP JUMPDEST PUSH1 0x0 PUSH3 0xCC9 DUP3 PUSH3 0xC95 JUMP JUMPDEST SWAP2 POP DUP2 SWAP1 POP SWAP2 SWAP1 POP JUMP JUMPDEST PUSH32 0x6861734163636573735269676874730000000000000000000000000000000000 PUSH1 0x0 DUP3 ADD MSTORE POP JUMP JUMPDEST PUSH1 0x0 PUSH3 0xD0B PUSH1 0xF DUP4 PUSH3 0x613 JUMP JUMPDEST SWAP2 POP PUSH3 0xD18 DUP3 PUSH3 0xCD3 JUMP JUMPDEST PUSH1 0xF DUP3 ADD SWAP1 POP SWAP2 SWAP1 POP JUMP JUMPDEST PUSH1 0x0 PUSH3 0xD30 DUP3 PUSH3 0xCFC JUMP JUMPDEST SWAP2 POP DUP2 SWAP1 POP SWAP2 SWAP1 POP JUMP JUMPDEST PUSH32 0x6163636573732D7375626A656374686173416363657373526967687473000000 PUSH1 0x0 DUP3 ADD MSTORE POP JUMP JUMPDEST PUSH1 0x0 PUSH3 0xD72 PUSH1 0x1D DUP4 PUSH3 0x613 JUMP JUMPDEST SWAP2 POP PUSH3 0xD7F DUP3 PUSH3 0xD3A JUMP JUMPDEST PUSH1 0x1D DUP3 ADD SWAP1 POP SWAP2 SWAP1 POP JUMP JUMPDEST PUSH1 0x0 PUSH3 0xD97 DUP3 PUSH3 0xD63 JUMP JUMPDEST SWAP2 POP DUP2 SWAP1 POP SWAP2 SWAP1 POP JUMP JUMPDEST PUSH32 0x6163636573732D7375626A656374686173416363657373526967687473526561 PUSH1 0x0 DUP3 ADD MSTORE PUSH32 0x642D577269746500000000000000000000000000000000000000000000000000 PUSH1 0x20 DUP3 ADD MSTORE POP JUMP JUMPDEST PUSH1 0x0 PUSH3 0xDFF PUSH1 0x27 DUP4 PUSH3 0x613 JUMP JUMPDEST SWAP2 POP PUSH3 0xE0C DUP3 PUSH3 0xDA1 JUMP JUMPDEST PUSH1 0x27 DUP3 ADD SWAP1 POP SWAP2 SWAP1 POP JUMP JUMPDEST PUSH1 0x0 PUSH3 0xE24 DUP3 PUSH3 0xDF0 JUMP JUMPDEST SWAP2 POP DUP2 SWAP1 POP SWAP2 SWAP1 POP JUMP JUMPDEST PUSH32 0x6461746173657400000000000000000000000000000000000000000000000000 PUSH1 0x0 DUP3 ADD MSTORE POP JUMP JUMPDEST PUSH1 0x0 PUSH3 0xE66 PUSH1 0x7 DUP4 PUSH3 0x613 JUMP JUMPDEST SWAP2 POP PUSH3 0xE73 DUP3 PUSH3 0xE2E JUMP JUMPDEST PUSH1 0x7 DUP3 ADD SWAP1 POP SWAP2 SWAP1 POP JUMP JUMPDEST PUSH1 0x0 PUSH3 0xE8B DUP3 PUSH3 0xE57 JUMP JUMPDEST SWAP2 POP DUP2 SWAP1 POP SWAP2 SWAP1 POP JUMP JUMPDEST PUSH32 0x6C6F636174696F6E000000000000000000000000000000000000000000000000 PUSH1 0x0 DUP3 ADD MSTORE POP JUMP JUMPDEST PUSH1 0x0 PUSH3 0xECD PUSH1 0x8 DUP4 PUSH3 0x613 JUMP JUMPDEST SWAP2 POP PUSH3 0xEDA DUP3 PUSH3 0xE95 JUMP JUMPDEST PUSH1 0x8 DUP3 ADD SWAP1 POP SWAP2 SWAP1 POP JUMP JUMPDEST PUSH1 0x0 PUSH3 0xEF2 DUP3 PUSH3 0xEBE JUMP JUMPDEST SWAP2 POP DUP2 SWAP1 POP SWAP2 SWAP1 POP JUMP JUMPDEST PUSH32 0x646174617365746C6F636174696F6E0000000000000000000000000000000000 PUSH1 0x0 DUP3 ADD MSTORE POP JUMP JUMPDEST PUSH1 0x0 PUSH3 0xF34 PUSH1 0xF DUP4 PUSH3 0x613 JUMP JUMPDEST SWAP2 POP PUSH3 0xF41 DUP3 PUSH3 0xEFC JUMP JUMPDEST PUSH1 0xF DUP3 ADD SWAP1 POP SWAP2 SWAP1 POP JUMP JUMPDEST PUSH1 0x0 PUSH3 0xF59 DUP3 PUSH3 0xF25 JUMP JUMPDEST SWAP2 POP DUP2 SWAP1 POP SWAP2 SWAP1 POP JUMP JUMPDEST PUSH32 0x646174617365746C6F636174696F6E436C6F7564000000000000000000000000 PUSH1 0x0 DUP3 ADD MSTORE POP JUMP JUMPDEST PUSH1 0x0 PUSH3 0xF9B PUSH1 0x14 DUP4 PUSH3 0x613 JUMP JUMPDEST SWAP2 POP PUSH3 0xFA8 DUP3 PUSH3 0xF63 JUMP JUMPDEST PUSH1 0x14 DUP3 ADD SWAP1 POP SWAP2 SWAP1 POP JUMP JUMPDEST PUSH1 0x0 PUSH3 0xFC0 DUP3 PUSH3 0xF8C JUMP JUMPDEST SWAP2 POP DUP2 SWAP1 POP SWAP2 SWAP1 POP JUMP JUMPDEST PUSH2 0x2B13 DUP1 PUSH3 0xFDA PUSH1 0x0 CODECOPY PUSH1 0x0 RETURN INVALID PUSH1 0x80 PUSH1 0x40 MSTORE CALLVALUE DUP1 ISZERO PUSH2 0x10 JUMPI PUSH1 0x0 DUP1 REVERT JUMPDEST POP PUSH1 0x4 CALLDATASIZE LT PUSH2 0xB3 JUMPI PUSH1 0x0 CALLDATALOAD PUSH1 0xE0 SHR DUP1 PUSH4 0x7B009128 GT PUSH2 0x71 JUMPI DUP1 PUSH4 0x7B009128 EQ PUSH2 0x18E JUMPI DUP1 PUSH4 0x91BBDCC7 EQ PUSH2 0x1AA JUMPI DUP1 PUSH4 0x97ABA7F9 EQ PUSH2 0x1C8 JUMPI DUP1 PUSH4 0xA7BB5803 EQ PUSH2 0x1F8 JUMPI DUP1 PUSH4 0xB446F3B2 EQ PUSH2 0x22A JUMPI DUP1 PUSH4 0xFA540801 EQ PUSH2 0x25A JUMPI PUSH2 0xB3 JUMP JUMPDEST DUP1 PUSH3 0x9FE9AC EQ PUSH2 0xB8 JUMPI DUP1 PUSH4 0x2DD34F0F EQ PUSH2 0xD4 JUMPI DUP1 PUSH4 0x305F72B7 EQ PUSH2 0x104 JUMPI DUP1 PUSH4 0x354FC470 EQ PUSH2 0x122 JUMPI DUP1 PUSH4 0x5E01EB5A EQ PUSH2 0x152 JUMPI DUP1 PUSH4 0x63FFAB31 EQ PUSH2 0x170 JUMPI JUMPDEST PUSH1 0x0 DUP1 REVERT JUMPDEST PUSH2 0xD2 PUSH1 0x4 DUP1 CALLDATASIZE SUB DUP2 ADD SWAP1 PUSH2 0xCD SWAP2 SWAP1 PUSH2 0x1C3F JUMP JUMPDEST PUSH2 0x28A JUMP JUMPDEST STOP JUMPDEST PUSH2 0xEE PUSH1 0x4 DUP1 CALLDATASIZE SUB DUP2 ADD SWAP1 PUSH2 0xE9 SWAP2 SWAP1 PUSH2 0x1E03 JUMP JUMPDEST PUSH2 0xB94 JUMP JUMPDEST PUSH1 0x40 MLOAD PUSH2 0xFB SWAP2 SWAP1 PUSH2 0x1EA9 JUMP JUMPDEST PUSH1 0x40 MLOAD DUP1 SWAP2 SUB SWAP1 RETURN JUMPDEST PUSH2 0x10C PUSH2 0xBF2 JUMP JUMPDEST PUSH1 0x40 MLOAD PUSH2 0x119 SWAP2 SWAP1 PUSH2 0x1EDD JUMP JUMPDEST PUSH1 0x40 MLOAD DUP1 SWAP2 SUB SWAP1 RETURN JUMPDEST PUSH2 0x13C PUSH1 0x4 DUP1 CALLDATASIZE SUB DUP2 ADD SWAP1 PUSH2 0x137 SWAP2 SWAP1 PUSH2 0x1EF8 JUMP JUMPDEST PUSH2 0xBF8 JUMP JUMPDEST PUSH1 0x40 MLOAD PUSH2 0x149 SWAP2 SWAP1 PUSH2 0x1FC0 JUMP JUMPDEST PUSH1 0x40 MLOAD DUP1 SWAP2 SUB SWAP1 RETURN JUMPDEST PUSH2 0x15A PUSH2 0xCA8 JUMP JUMPDEST PUSH1 0x40 MLOAD PUSH2 0x167 SWAP2 SWAP1 PUSH2 0x1FF1 JUMP JUMPDEST PUSH1 0x40 MLOAD DUP1 SWAP2 SUB SWAP1 RETURN JUMPDEST PUSH2 0x178 PUSH2 0xCB0 JUMP JUMPDEST PUSH1 0x40 MLOAD PUSH2 0x185 SWAP2 SWAP1 PUSH2 0x1FF1 JUMP JUMPDEST PUSH1 0x40 MLOAD DUP1 SWAP2 SUB SWAP1 RETURN JUMPDEST PUSH2 0x1A8 PUSH1 0x4 DUP1 CALLDATASIZE SUB DUP2 ADD SWAP1 PUSH2 0x1A3 SWAP2 SWAP1 PUSH2 0x200C JUMP JUMPDEST PUSH2 0xCC8 JUMP JUMPDEST STOP JUMPDEST PUSH2 0x1B2 PUSH2 0x1595 JUMP JUMPDEST PUSH1 0x40 MLOAD PUSH2 0x1BF SWAP2 SWAP1 PUSH2 0x1FC0 JUMP JUMPDEST PUSH1 0x40 MLOAD DUP1 SWAP2 SUB SWAP1 RETURN JUMPDEST PUSH2 0x1E2 PUSH1 0x4 DUP1 CALLDATASIZE SUB DUP2 ADD SWAP1 PUSH2 0x1DD SWAP2 SWAP1 PUSH2 0x2177 JUMP JUMPDEST PUSH2 0x15B1 JUMP JUMPDEST PUSH1 0x40 MLOAD PUSH2 0x1EF SWAP2 SWAP1 PUSH2 0x1FF1 JUMP JUMPDEST PUSH1 0x40 MLOAD DUP1 SWAP2 SUB SWAP1 RETURN JUMPDEST PUSH2 0x212 PUSH1 0x4 DUP1 CALLDATASIZE SUB DUP2 ADD SWAP1 PUSH2 0x20D SWAP2 SWAP1 PUSH2 0x21D3 JUMP JUMPDEST PUSH2 0x1620 JUMP JUMPDEST PUSH1 0x40 MLOAD PUSH2 0x221 SWAP4 SWAP3 SWAP2 SWAP1 PUSH2 0x2247 JUMP JUMPDEST PUSH1 0x40 MLOAD DUP1 SWAP2 SUB SWAP1 RETURN JUMPDEST PUSH2 0x244 PUSH1 0x4 DUP1 CALLDATASIZE SUB DUP2 ADD SWAP1 PUSH2 0x23F SWAP2 SWAP1 PUSH2 0x1EF8 JUMP JUMPDEST PUSH2 0x1688 JUMP JUMPDEST PUSH1 0x40 MLOAD PUSH2 0x251 SWAP2 SWAP1 PUSH2 0x227E JUMP JUMPDEST PUSH1 0x40 MLOAD DUP1 SWAP2 SUB SWAP1 RETURN JUMPDEST PUSH2 0x274 PUSH1 0x4 DUP1 CALLDATASIZE SUB DUP2 ADD SWAP1 PUSH2 0x26F SWAP2 SWAP1 PUSH2 0x2299 JUMP JUMPDEST PUSH2 0x16B8 JUMP JUMPDEST PUSH1 0x40 MLOAD PUSH2 0x281 SWAP2 SWAP1 PUSH2 0x227E JUMP JUMPDEST PUSH1 0x40 MLOAD DUP1 SWAP2 SUB SWAP1 RETURN JUMPDEST PUSH2 0x292 PUSH2 0x1A1C JUMP JUMPDEST PUSH1 0x0 PUSH1 0x1 ISZERO ISZERO PUSH2 0x2DC PUSH20 0x7264D9FD1A56D865D8B7D96E5251A6EFE820B483 DUP11 DUP11 DUP11 DUP10 PUSH1 0x40 MLOAD PUSH1 0x20 ADD PUSH2 0x2C7 SWAP5 SWAP4 SWAP3 SWAP2 SWAP1 PUSH2 0x234E JUMP JUMPDEST PUSH1 0x40 MLOAD PUSH1 0x20 DUP2 DUP4 SUB SUB DUP2 MSTORE SWAP1 PUSH1 0x40 MSTORE DUP7 PUSH2 0xB94 JUMP JUMPDEST ISZERO ISZERO EQ PUSH2 0x31E JUMPI PUSH1 0x40 MLOAD PUSH32 0x8C379A000000000000000000000000000000000000000000000000000000000 DUP2 MSTORE PUSH1 0x4 ADD PUSH2 0x315 SWAP1 PUSH2 0x23F9 JUMP JUMPDEST PUSH1 0x40 MLOAD DUP1 SWAP2 SUB SWAP1 REVERT JUMPDEST PUSH1 0x1 PUSH1 0x0 DUP10 PUSH1 0x40 MLOAD PUSH2 0x330 SWAP2 SWAP1 PUSH2 0x2419 JUMP JUMPDEST SWAP1 DUP2 MSTORE PUSH1 0x20 ADD PUSH1 0x40 MLOAD DUP1 SWAP2 SUB SWAP1 KECCAK256 DUP9 PUSH1 0x40 MLOAD PUSH2 0x34C SWAP2 SWAP1 PUSH2 0x2419 JUMP JUMPDEST SWAP1 DUP2 MSTORE PUSH1 0x20 ADD PUSH1 0x40 MLOAD DUP1 SWAP2 SUB SWAP1 KECCAK256 SLOAD SUB PUSH2 0x47B JUMPI PUSH1 0x40 MLOAD DUP1 PUSH1 0x40 ADD PUSH1 0x40 MSTORE DUP1 PUSH1 0xE DUP2 MSTORE PUSH1 0x20 ADD PUSH32 0x6163636573732D7375626A656374000000000000000000000000000000000000 DUP2 MSTORE POP DUP3 DUP3 PUSH1 0xC DUP2 LT PUSH2 0x3A9 JUMPI PUSH2 0x3A8 PUSH2 0x2430 JUMP JUMPDEST JUMPDEST PUSH1 0x20 MUL ADD DUP2 SWAP1 MSTORE POP PUSH1 0x40 MLOAD DUP1 PUSH1 0x40 ADD PUSH1 0x40 MSTORE DUP1 PUSH1 0xC DUP2 MSTORE PUSH1 0x20 ADD PUSH32 0x6973417574686F72697A65640000000000000000000000000000000000000000 DUP2 MSTORE POP DUP3 PUSH1 0x1 DUP4 PUSH2 0x3F5 SWAP2 SWAP1 PUSH2 0x248E JUMP JUMPDEST PUSH1 0xC DUP2 LT PUSH2 0x406 JUMPI PUSH2 0x405 PUSH2 0x2430 JUMP JUMPDEST JUMPDEST PUSH1 0x20 MUL ADD DUP2 SWAP1 MSTORE POP PUSH1 0x40 MLOAD DUP1 PUSH1 0x40 ADD PUSH1 0x40 MSTORE DUP1 PUSH1 0x4 DUP2 MSTORE PUSH1 0x20 ADD PUSH32 0x7472756500000000000000000000000000000000000000000000000000000000 DUP2 MSTORE POP DUP3 PUSH1 0x2 DUP4 PUSH2 0x452 SWAP2 SWAP1 PUSH2 0x248E JUMP JUMPDEST PUSH1 0xC DUP2 LT PUSH2 0x463 JUMPI PUSH2 0x462 PUSH2 0x2430 JUMP JUMPDEST JUMPDEST PUSH1 0x20 MUL ADD DUP2 SWAP1 MSTORE POP PUSH1 0x3 DUP2 PUSH2 0x478 SWAP2 SWAP1 PUSH2 0x248E JUMP JUMPDEST SWAP1 POP JUMPDEST PUSH1 0x1 DUP1 DUP10 PUSH1 0x40 MLOAD PUSH2 0x48C SWAP2 SWAP1 PUSH2 0x2419 JUMP JUMPDEST SWAP1 DUP2 MSTORE PUSH1 0x20 ADD PUSH1 0x40 MLOAD DUP1 SWAP2 SUB SWAP1 KECCAK256 DUP8 PUSH1 0x40 MLOAD PUSH2 0x4A8 SWAP2 SWAP1 PUSH2 0x2419 JUMP JUMPDEST SWAP1 DUP2 MSTORE PUSH1 0x20 ADD PUSH1 0x40 MLOAD DUP1 SWAP2 SUB SWAP1 KECCAK256 SLOAD SUB PUSH2 0x5A2 JUMPI PUSH1 0x40 MLOAD DUP1 PUSH1 0x40 ADD PUSH1 0x40 MSTORE DUP1 PUSH1 0xE DUP2 MSTORE PUSH1 0x20 ADD PUSH32 0x6163636573732D7375626A656374000000000000000000000000000000000000 DUP2 MSTORE POP DUP3 DUP3 PUSH1 0xC DUP2 LT PUSH2 0x505 JUMPI PUSH2 0x504 PUSH2 0x2430 JUMP JUMPDEST JUMPDEST PUSH1 0x20 MUL ADD DUP2 SWAP1 MSTORE POP PUSH1 0x40 MLOAD DUP1 PUSH1 0x40 ADD PUSH1 0x40 MSTORE DUP1 PUSH1 0xE DUP2 MSTORE PUSH1 0x20 ADD PUSH32 0x7370656369616C697A6174696F6E000000000000000000000000000000000000 DUP2 MSTORE POP DUP3 PUSH1 0x1 DUP4 PUSH2 0x551 SWAP2 SWAP1 PUSH2 0x248E JUMP JUMPDEST PUSH1 0xC DUP2 LT PUSH2 0x562 JUMPI PUSH2 0x561 PUSH2 0x2430 JUMP JUMPDEST JUMPDEST PUSH1 0x20 MUL ADD DUP2 SWAP1 MSTORE POP DUP6 DUP3 PUSH1 0x2 DUP4 PUSH2 0x579 SWAP2 SWAP1 PUSH2 0x248E JUMP JUMPDEST PUSH1 0xC DUP2 LT PUSH2 0x58A JUMPI PUSH2 0x589 PUSH2 0x2430 JUMP JUMPDEST JUMPDEST PUSH1 0x20 MUL ADD DUP2 SWAP1 MSTORE POP PUSH1 0x3 DUP2 PUSH2 0x59F SWAP2 SWAP1 PUSH2 0x248E JUMP JUMPDEST SWAP1 POP JUMPDEST PUSH1 0x1 PUSH1 0x2 DUP10 PUSH1 0x40 MLOAD PUSH2 0x5B4 SWAP2 SWAP1 PUSH2 0x2419 JUMP JUMPDEST SWAP1 DUP2 MSTORE PUSH1 0x20 ADD PUSH1 0x40 MLOAD DUP1 SWAP2 SUB SWAP1 KECCAK256 DUP7 PUSH1 0x40 MLOAD PUSH2 0x5D0 SWAP2 SWAP1 PUSH2 0x2419 JUMP JUMPDEST SWAP1 DUP2 MSTORE PUSH1 0x20 ADD PUSH1 0x40 MLOAD DUP1 SWAP2 SUB SWAP1 KECCAK256 SLOAD SUB PUSH2 0x6CA JUMPI PUSH1 0x40 MLOAD DUP1 PUSH1 0x40 ADD PUSH1 0x40 MSTORE DUP1 PUSH1 0xE DUP2 MSTORE PUSH1 0x20 ADD PUSH32 0x6163636573732D7375626A656374000000000000000000000000000000000000 DUP2 MSTORE POP DUP3 DUP3 PUSH1 0xC DUP2 LT PUSH2 0x62D JUMPI PUSH2 0x62C PUSH2 0x2430 JUMP JUMPDEST JUMPDEST PUSH1 0x20 MUL ADD DUP2 SWAP1 MSTORE POP PUSH1 0x40 MLOAD DUP1 PUSH1 0x40 ADD PUSH1 0x40 MSTORE DUP1 PUSH1 0xF DUP2 MSTORE PUSH1 0x20 ADD PUSH32 0x6861734163636573735269676874730000000000000000000000000000000000 DUP2 MSTORE POP DUP3 PUSH1 0x1 DUP4 PUSH2 0x679 SWAP2 SWAP1 PUSH2 0x248E JUMP JUMPDEST PUSH1 0xC DUP2 LT PUSH2 0x68A JUMPI PUSH2 0x689 PUSH2 0x2430 JUMP JUMPDEST JUMPDEST PUSH1 0x20 MUL ADD DUP2 SWAP1 MSTORE POP DUP5 DUP3 PUSH1 0x2 DUP4 PUSH2 0x6A1 SWAP2 SWAP1 PUSH2 0x248E JUMP JUMPDEST PUSH1 0xC DUP2 LT PUSH2 0x6B2 JUMPI PUSH2 0x6B1 PUSH2 0x2430 JUMP JUMPDEST JUMPDEST PUSH1 0x20 MUL ADD DUP2 SWAP1 MSTORE POP PUSH1 0x3 DUP2 PUSH2 0x6C7 SWAP2 SWAP1 PUSH2 0x248E JUMP JUMPDEST SWAP1 POP JUMPDEST PUSH1 0x1 PUSH1 0x3 DUP9 PUSH1 0x40 MLOAD PUSH2 0x6DC SWAP2 SWAP1 PUSH2 0x2419 JUMP JUMPDEST SWAP1 DUP2 MSTORE PUSH1 0x20 ADD PUSH1 0x40 MLOAD DUP1 SWAP2 SUB SWAP1 KECCAK256 DUP6 PUSH1 0x40 MLOAD PUSH2 0x6F8 SWAP2 SWAP1 PUSH2 0x2419 JUMP JUMPDEST SWAP1 DUP2 MSTORE PUSH1 0x20 ADD PUSH1 0x40 MLOAD DUP1 SWAP2 SUB SWAP1 KECCAK256 SLOAD SUB PUSH2 0x7F2 JUMPI PUSH1 0x40 MLOAD DUP1 PUSH1 0x40 ADD PUSH1 0x40 MSTORE DUP1 PUSH1 0x7 DUP2 MSTORE PUSH1 0x20 ADD PUSH32 0x6461746173657400000000000000000000000000000000000000000000000000 DUP2 MSTORE POP DUP3 DUP3 PUSH1 0xC DUP2 LT PUSH2 0x755 JUMPI PUSH2 0x754 PUSH2 0x2430 JUMP JUMPDEST JUMPDEST PUSH1 0x20 MUL ADD DUP2 SWAP1 MSTORE POP PUSH1 0x40 MLOAD DUP1 PUSH1 0x40 ADD PUSH1 0x40 MSTORE DUP1 PUSH1 0x8 DUP2 MSTORE PUSH1 0x20 ADD PUSH32 0x6C6F636174696F6E000000000000000000000000000000000000000000000000 DUP2 MSTORE POP DUP3 PUSH1 0x1 DUP4 PUSH2 0x7A1 SWAP2 SWAP1 PUSH2 0x248E JUMP JUMPDEST PUSH1 0xC DUP2 LT PUSH2 0x7B2 JUMPI PUSH2 0x7B1 PUSH2 0x2430 JUMP JUMPDEST JUMPDEST PUSH1 0x20 MUL ADD DUP2 SWAP1 MSTORE POP DUP4 DUP3 PUSH1 0x2 DUP4 PUSH2 0x7C9 SWAP2 SWAP1 PUSH2 0x248E JUMP JUMPDEST PUSH1 0xC DUP2 LT PUSH2 0x7DA JUMPI PUSH2 0x7D9 PUSH2 0x2430 JUMP JUMPDEST JUMPDEST PUSH1 0x20 MUL ADD DUP2 SWAP1 MSTORE POP PUSH1 0x3 DUP2 PUSH2 0x7EF SWAP2 SWAP1 PUSH2 0x248E JUMP JUMPDEST SWAP1 POP JUMPDEST PUSH1 0x0 JUMPDEST DUP2 DUP2 LT ISZERO PUSH2 0x9AA JUMPI PUSH1 0x0 DUP4 DUP3 PUSH1 0xC DUP2 LT PUSH2 0x812 JUMPI PUSH2 0x811 PUSH2 0x2430 JUMP JUMPDEST JUMPDEST PUSH1 0x20 MUL ADD MLOAD SWAP1 POP PUSH1 0x0 DUP5 PUSH1 0x1 DUP5 PUSH2 0x829 SWAP2 SWAP1 PUSH2 0x248E JUMP JUMPDEST PUSH1 0xC DUP2 LT PUSH2 0x83A JUMPI PUSH2 0x839 PUSH2 0x2430 JUMP JUMPDEST JUMPDEST PUSH1 0x20 MUL ADD MLOAD SWAP1 POP PUSH1 0x0 DUP6 PUSH1 0x2 DUP6 PUSH2 0x851 SWAP2 SWAP1 PUSH2 0x248E JUMP JUMPDEST PUSH1 0xC DUP2 LT PUSH2 0x862 JUMPI PUSH2 0x861 PUSH2 0x2430 JUMP JUMPDEST JUMPDEST PUSH1 0x20 MUL ADD MLOAD SWAP1 POP PUSH1 0x1 PUSH1 0xD DUP15 PUSH1 0x40 MLOAD PUSH2 0x87B SWAP2 SWAP1 PUSH2 0x2419 JUMP JUMPDEST SWAP1 DUP2 MSTORE PUSH1 0x20 ADD PUSH1 0x40 MLOAD DUP1 SWAP2 SUB SWAP1 KECCAK256 DUP5 PUSH1 0x40 MLOAD PUSH2 0x897 SWAP2 SWAP1 PUSH2 0x2419 JUMP JUMPDEST SWAP1 DUP2 MSTORE PUSH1 0x20 ADD PUSH1 0x40 MLOAD DUP1 SWAP2 SUB SWAP1 KECCAK256 DUP4 PUSH1 0x40 MLOAD PUSH2 0x8B3 SWAP2 SWAP1 PUSH2 0x2419 JUMP JUMPDEST SWAP1 DUP2 MSTORE PUSH1 0x20 ADD PUSH1 0x40 MLOAD DUP1 SWAP2 SUB SWAP1 KECCAK256 SLOAD SUB PUSH2 0x993 JUMPI PUSH1 0x1 PUSH1 0x7 PUSH1 0x0 PUSH1 0x6 DUP7 PUSH1 0x40 MLOAD PUSH2 0x8DD SWAP2 SWAP1 PUSH2 0x2419 JUMP JUMPDEST SWAP1 DUP2 MSTORE PUSH1 0x20 ADD PUSH1 0x40 MLOAD DUP1 SWAP2 SUB SWAP1 KECCAK256 SLOAD DUP2 MSTORE PUSH1 0x20 ADD SWAP1 DUP2 MSTORE PUSH1 0x20 ADD PUSH1 0x0 KECCAK256 PUSH1 0x0 PUSH1 0x6 PUSH2 0x918 DUP8 DUP8 PUSH1 0x40 MLOAD DUP1 PUSH1 0x20 ADD PUSH1 0x40 MSTORE DUP1 PUSH1 0x0 DUP2 MSTORE POP PUSH2 0x16E8 JUMP JUMPDEST PUSH1 0x40 MLOAD PUSH2 0x925 SWAP2 SWAP1 PUSH2 0x2419 JUMP JUMPDEST SWAP1 DUP2 MSTORE PUSH1 0x20 ADD PUSH1 0x40 MLOAD DUP1 SWAP2 SUB SWAP1 KECCAK256 SLOAD DUP2 MSTORE PUSH1 0x20 ADD SWAP1 DUP2 MSTORE PUSH1 0x20 ADD PUSH1 0x0 KECCAK256 PUSH1 0x0 PUSH1 0x6 PUSH2 0x951 DUP8 DUP8 DUP8 PUSH2 0x16E8 JUMP JUMPDEST PUSH1 0x40 MLOAD PUSH2 0x95E SWAP2 SWAP1 PUSH2 0x2419 JUMP JUMPDEST SWAP1 DUP2 MSTORE PUSH1 0x20 ADD PUSH1 0x40 MLOAD DUP1 SWAP2 SUB SWAP1 KECCAK256 SLOAD DUP2 MSTORE PUSH1 0x20 ADD SWAP1 DUP2 MSTORE PUSH1 0x20 ADD PUSH1 0x0 KECCAK256 PUSH1 0x0 PUSH2 0x100 EXP DUP2 SLOAD DUP2 PUSH1 0xFF MUL NOT AND SWAP1 DUP4 ISZERO ISZERO MUL OR SWAP1 SSTORE POP JUMPDEST POP POP POP PUSH1 0x3 DUP2 PUSH2 0x9A3 SWAP2 SWAP1 PUSH2 0x248E JUMP JUMPDEST SWAP1 POP PUSH2 0x7F5 JUMP JUMPDEST POP PUSH1 0x0 PUSH1 0x1 SWAP1 POP PUSH1 0x0 PUSH2 0x9BB PUSH2 0x1595 JUMP JUMPDEST SWAP1 POP PUSH1 0x0 DUP2 PUSH1 0x40 MLOAD PUSH1 0x20 ADD PUSH2 0x9D0 SWAP2 SWAP1 PUSH2 0x255A JUMP JUMPDEST PUSH1 0x40 MLOAD PUSH1 0x20 DUP2 DUP4 SUB SUB DUP2 MSTORE SWAP1 PUSH1 0x40 MSTORE SWAP1 POP PUSH1 0x0 PUSH1 0x1 SWAP1 POP JUMPDEST PUSH1 0x8 SLOAD DUP2 GT PUSH2 0xB1F JUMPI PUSH1 0x0 PUSH1 0x1 SWAP1 POP JUMPDEST PUSH1 0x9 PUSH1 0x0 DUP4 DUP2 MSTORE PUSH1 0x20 ADD SWAP1 DUP2 MSTORE PUSH1 0x20 ADD PUSH1 0x0 KECCAK256 SLOAD DUP2 GT PUSH2 0xB0B JUMPI PUSH1 0x0 PUSH1 0x1 SWAP1 POP JUMPDEST PUSH1 0xA PUSH1 0x0 DUP5 DUP2 MSTORE PUSH1 0x20 ADD SWAP1 DUP2 MSTORE PUSH1 0x20 ADD PUSH1 0x0 KECCAK256 PUSH1 0x0 DUP4 DUP2 MSTORE PUSH1 0x20 ADD SWAP1 DUP2 MSTORE PUSH1 0x20 ADD PUSH1 0x0 KECCAK256 SLOAD DUP2 GT PUSH2 0xAF7 JUMPI PUSH1 0x7 PUSH1 0x0 DUP5 DUP2 MSTORE PUSH1 0x20 ADD SWAP1 DUP2 MSTORE PUSH1 0x20 ADD PUSH1 0x0 KECCAK256 PUSH1 0x0 DUP4 DUP2 MSTORE PUSH1 0x20 ADD SWAP1 DUP2 MSTORE PUSH1 0x20 ADD PUSH1 0x0 KECCAK256 PUSH1 0x0 DUP3 DUP2 MSTORE PUSH1 0x20 ADD SWAP1 DUP2 MSTORE PUSH1 0x20 ADD PUSH1 0x0 KECCAK256 PUSH1 0x0 SWAP1 SLOAD SWAP1 PUSH2 0x100 EXP SWAP1 DIV PUSH1 0xFF AND ISZERO PUSH2 0xADF JUMPI PUSH1 0x0 PUSH1 0x7 PUSH1 0x0 DUP6 DUP2 MSTORE PUSH1 0x20 ADD SWAP1 DUP2 MSTORE PUSH1 0x20 ADD PUSH1 0x0 KECCAK256 PUSH1 0x0 DUP5 DUP2 MSTORE PUSH1 0x20 ADD SWAP1 DUP2 MSTORE PUSH1 0x20 ADD PUSH1 0x0 KECCAK256 PUSH1 0x0 DUP4 DUP2 MSTORE PUSH1 0x20 ADD SWAP1 DUP2 MSTORE PUSH1 0x20 ADD PUSH1 0x0 KECCAK256 PUSH1 0x0 PUSH2 0x100 EXP DUP2 SLOAD DUP2 PUSH1 0xFF MUL NOT AND SWAP1 DUP4 ISZERO ISZERO MUL OR SWAP1 SSTORE POP PUSH2 0xAE4 JUMP JUMPDEST PUSH1 0x0 SWAP6 POP JUMPDEST DUP1 DUP1 PUSH2 0xAEF SWAP1 PUSH2 0x2587 JUMP JUMPDEST SWAP2 POP POP PUSH2 0xA19 JUMP JUMPDEST POP DUP1 DUP1 PUSH2 0xB03 SWAP1 PUSH2 0x2587 JUMP JUMPDEST SWAP2 POP POP PUSH2 0x9F8 JUMP JUMPDEST POP DUP1 DUP1 PUSH2 0xB17 SWAP1 PUSH2 0x2587 JUMP JUMPDEST SWAP2 POP POP PUSH2 0x9E8 JUMP JUMPDEST POP PUSH1 0x1 ISZERO ISZERO DUP4 ISZERO ISZERO SUB PUSH2 0xB4F JUMPI DUP2 PUSH1 0x40 MLOAD PUSH1 0x20 ADD PUSH2 0xB3D SWAP2 SWAP1 PUSH2 0x261B JUMP JUMPDEST PUSH1 0x40 MLOAD PUSH1 0x20 DUP2 DUP4 SUB SUB DUP2 MSTORE SWAP1 PUSH1 0x40 MSTORE SWAP1 POP JUMPDEST PUSH32 0xD296DBB8BCDFDE31FAA165965BF6E3983386C6DD968F1947B22137719FDDE57 DUP2 PUSH1 0x40 MLOAD PUSH2 0xB7E SWAP2 SWAP1 PUSH2 0x1FC0 JUMP JUMPDEST PUSH1 0x40 MLOAD DUP1 SWAP2 SUB SWAP1 LOG1 POP POP POP POP POP POP POP POP POP POP POP POP JUMP JUMPDEST PUSH1 0x0 DUP1 PUSH2 0xBA0 DUP5 PUSH2 0x1688 JUMP JUMPDEST SWAP1 POP PUSH1 0x0 PUSH2 0xBAD DUP3 PUSH2 0x16B8 JUMP JUMPDEST SWAP1 POP DUP6 PUSH20 0xFFFFFFFFFFFFFFFFFFFFFFFFFFFFFFFFFFFFFFFF AND PUSH2 0xBD0 DUP3 DUP7 PUSH2 0x15B1 JUMP JUMPDEST PUSH20 0xFFFFFFFFFFFFFFFFFFFFFFFFFFFFFFFFFFFFFFFF AND EQ SWAP3 POP POP POP SWAP4 SWAP3 POP POP POP JUMP JUMPDEST PUSH1 0x4 SLOAD DUP2 JUMP JUMPDEST PUSH1 0x60 PUSH1 0xC DUP3 PUSH1 0x40 MLOAD PUSH2 0xC0A SWAP2 SWAP1 PUSH2 0x2419 JUMP JUMPDEST SWAP1 DUP2 MSTORE PUSH1 0x20 ADD PUSH1 0x40 MLOAD DUP1 SWAP2 SUB SWAP1 KECCAK256 DUP1 SLOAD PUSH2 0xC23 SWAP1 PUSH2 0x2677 JUMP JUMPDEST DUP1 PUSH1 0x1F ADD PUSH1 0x20 DUP1 SWAP2 DIV MUL PUSH1 0x20 ADD PUSH1 0x40 MLOAD SWAP1 DUP2 ADD PUSH1 0x40 MSTORE DUP1 SWAP3 SWAP2 SWAP1 DUP2 DUP2 MSTORE PUSH1 0x20 ADD DUP3 DUP1 SLOAD PUSH2 0xC4F SWAP1 PUSH2 0x2677 JUMP JUMPDEST DUP1 ISZERO PUSH2 0xC9C JUMPI DUP1 PUSH1 0x1F LT PUSH2 0xC71 JUMPI PUSH2 0x100 DUP1 DUP4 SLOAD DIV MUL DUP4 MSTORE SWAP2 PUSH1 0x20 ADD SWAP2 PUSH2 0xC9C JUMP JUMPDEST DUP3 ADD SWAP2 SWAP1 PUSH1 0x0 MSTORE PUSH1 0x20 PUSH1 0x0 KECCAK256 SWAP1 JUMPDEST DUP2 SLOAD DUP2 MSTORE SWAP1 PUSH1 0x1 ADD SWAP1 PUSH1 0x20 ADD DUP1 DUP4 GT PUSH2 0xC7F JUMPI DUP3 SWAP1 SUB PUSH1 0x1F AND DUP3 ADD SWAP2 JUMPDEST POP POP POP POP POP SWAP1 POP SWAP2 SWAP1 POP JUMP JUMPDEST PUSH1 0x0 CALLER SWAP1 POP SWAP1 JUMP JUMPDEST PUSH20 0x7264D9FD1A56D865D8B7D96E5251A6EFE820B483 DUP2 JUMP JUMPDEST PUSH2 0xCD0 PUSH2 0x1A1C JUMP JUMPDEST PUSH1 0x0 PUSH1 0x1 PUSH1 0x0 DUP9 PUSH1 0x40 MLOAD PUSH2 0xCE4 SWAP2 SWAP1 PUSH2 0x2419 JUMP JUMPDEST SWAP1 DUP2 MSTORE PUSH1 0x20 ADD PUSH1 0x40 MLOAD DUP1 SWAP2 SUB SWAP1 KECCAK256 DUP8 PUSH1 0x40 MLOAD PUSH2 0xD00 SWAP2 SWAP1 PUSH2 0x2419 JUMP JUMPDEST SWAP1 DUP2 MSTORE PUSH1 0x20 ADD PUSH1 0x40 MLOAD DUP1 SWAP2 SUB SWAP1 KECCAK256 SLOAD SUB PUSH2 0xE2F JUMPI PUSH1 0x40 MLOAD DUP1 PUSH1 0x40 ADD PUSH1 0x40 MSTORE DUP1 PUSH1 0xE DUP2 MSTORE PUSH1 0x20 ADD PUSH32 0x6163636573732D7375626A656374000000000000000000000000000000000000 DUP2 MSTORE POP DUP3 DUP3 PUSH1 0xC DUP2 LT PUSH2 0xD5D JUMPI PUSH2 0xD5C PUSH2 0x2430 JUMP JUMPDEST JUMPDEST PUSH1 0x20 MUL ADD DUP2 SWAP1 MSTORE POP PUSH1 0x40 MLOAD DUP1 PUSH1 0x40 ADD PUSH1 0x40 MSTORE DUP1 PUSH1 0xC DUP2 MSTORE PUSH1 0x20 ADD PUSH32 0x6973417574686F72697A65640000000000000000000000000000000000000000 DUP2 MSTORE POP DUP3 PUSH1 0x1 DUP4 PUSH2 0xDA9 SWAP2 SWAP1 PUSH2 0x248E JUMP JUMPDEST PUSH1 0xC DUP2 LT PUSH2 0xDBA JUMPI PUSH2 0xDB9 PUSH2 0x2430 JUMP JUMPDEST JUMPDEST PUSH1 0x20 MUL ADD DUP2 SWAP1 MSTORE POP PUSH1 0x40 MLOAD DUP1 PUSH1 0x40 ADD PUSH1 0x40 MSTORE DUP1 PUSH1 0x4 DUP2 MSTORE PUSH1 0x20 ADD PUSH32 0x7472756500000000000000000000000000000000000000000000000000000000 DUP2 MSTORE POP DUP3 PUSH1 0x2 DUP4 PUSH2 0xE06 SWAP2 SWAP1 PUSH2 0x248E JUMP JUMPDEST PUSH1 0xC DUP2 LT PUSH2 0xE17 JUMPI PUSH2 0xE16 PUSH2 0x2430 JUMP JUMPDEST JUMPDEST PUSH1 0x20 MUL ADD DUP2 SWAP1 MSTORE POP PUSH1 0x3 DUP2 PUSH2 0xE2C SWAP2 SWAP1 PUSH2 0x248E JUMP JUMPDEST SWAP1 POP JUMPDEST PUSH1 0x1 DUP1 DUP9 PUSH1 0x40 MLOAD PUSH2 0xE40 SWAP2 SWAP1 PUSH2 0x2419 JUMP JUMPDEST SWAP1 DUP2 MSTORE PUSH1 0x20 ADD PUSH1 0x40 MLOAD DUP1 SWAP2 SUB SWAP1 KECCAK256 DUP7 PUSH1 0x40 MLOAD PUSH2 0xE5C SWAP2 SWAP1 PUSH2 0x2419 JUMP JUMPDEST SWAP1 DUP2 MSTORE PUSH1 0x20 ADD PUSH1 0x40 MLOAD DUP1 SWAP2 SUB SWAP1 KECCAK256 SLOAD SUB PUSH2 0xF56 JUMPI PUSH1 0x40 MLOAD DUP1 PUSH1 0x40 ADD PUSH1 0x40 MSTORE DUP1 PUSH1 0xE DUP2 MSTORE PUSH1 0x20 ADD PUSH32 0x6163636573732D7375626A656374000000000000000000000000000000000000 DUP2 MSTORE POP DUP3 DUP3 PUSH1 0xC DUP2 LT PUSH2 0xEB9 JUMPI PUSH2 0xEB8 PUSH2 0x2430 JUMP JUMPDEST JUMPDEST PUSH1 0x20 MUL ADD DUP2 SWAP1 MSTORE POP PUSH1 0x40 MLOAD DUP1 PUSH1 0x40 ADD PUSH1 0x40 MSTORE DUP1 PUSH1 0xE DUP2 MSTORE PUSH1 0x20 ADD PUSH32 0x7370656369616C697A6174696F6E000000000000000000000000000000000000 DUP2 MSTORE POP DUP3 PUSH1 0x1 DUP4 PUSH2 0xF05 SWAP2 SWAP1 PUSH2 0x248E JUMP JUMPDEST PUSH1 0xC DUP2 LT PUSH2 0xF16 JUMPI PUSH2 0xF15 PUSH2 0x2430 JUMP JUMPDEST JUMPDEST PUSH1 0x20 MUL ADD DUP2 SWAP1 MSTORE POP DUP5 DUP3 PUSH1 0x2 DUP4 PUSH2 0xF2D SWAP2 SWAP1 PUSH2 0x248E JUMP JUMPDEST PUSH1 0xC DUP2 LT PUSH2 0xF3E JUMPI PUSH2 0xF3D PUSH2 0x2430 JUMP JUMPDEST JUMPDEST PUSH1 0x20 MUL ADD DUP2 SWAP1 MSTORE POP PUSH1 0x3 DUP2 PUSH2 0xF53 SWAP2 SWAP1 PUSH2 0x248E JUMP JUMPDEST SWAP1 POP JUMPDEST PUSH1 0x1 PUSH1 0x2 DUP9 PUSH1 0x40 MLOAD PUSH2 0xF68 SWAP2 SWAP1 PUSH2 0x2419 JUMP JUMPDEST SWAP1 DUP2 MSTORE PUSH1 0x20 ADD PUSH1 0x40 MLOAD DUP1 SWAP2 SUB SWAP1 KECCAK256 DUP6 PUSH1 0x40 MLOAD PUSH2 0xF84 SWAP2 SWAP1 PUSH2 0x2419 JUMP JUMPDEST SWAP1 DUP2 MSTORE PUSH1 0x20 ADD PUSH1 0x40 MLOAD DUP1 SWAP2 SUB SWAP1 KECCAK256 SLOAD SUB PUSH2 0x107E JUMPI PUSH1 0x40 MLOAD DUP1 PUSH1 0x40 ADD PUSH1 0x40 MSTORE DUP1 PUSH1 0xE DUP2 MSTORE PUSH1 0x20 ADD PUSH32 0x6163636573732D7375626A656374000000000000000000000000000000000000 DUP2 MSTORE POP DUP3 DUP3 PUSH1 0xC DUP2 LT PUSH2 0xFE1 JUMPI PUSH2 0xFE0 PUSH2 0x2430 JUMP JUMPDEST JUMPDEST PUSH1 0x20 MUL ADD DUP2 SWAP1 MSTORE POP PUSH1 0x40 MLOAD DUP1 PUSH1 0x40 ADD PUSH1 0x40 MSTORE DUP1 PUSH1 0xF DUP2 MSTORE PUSH1 0x20 ADD PUSH32 0x6861734163636573735269676874730000000000000000000000000000000000 DUP2 MSTORE POP DUP3 PUSH1 0x1 DUP4 PUSH2 0x102D SWAP2 SWAP1 PUSH2 0x248E JUMP JUMPDEST PUSH1 0xC DUP2 LT PUSH2 0x103E JUMPI PUSH2 0x103D PUSH2 0x2430 JUMP JUMPDEST JUMPDEST PUSH1 0x20 MUL ADD DUP2 SWAP1 MSTORE POP DUP4 DUP3 PUSH1 0x2 DUP4 PUSH2 0x1055 SWAP2 SWAP1 PUSH2 0x248E JUMP JUMPDEST PUSH1 0xC DUP2 LT PUSH2 0x1066 JUMPI PUSH2 0x1065 PUSH2 0x2430 JUMP JUMPDEST JUMPDEST PUSH1 0x20 MUL ADD DUP2 SWAP1 MSTORE POP PUSH1 0x3 DUP2 PUSH2 0x107B SWAP2 SWAP1 PUSH2 0x248E JUMP JUMPDEST SWAP1 POP JUMPDEST PUSH1 0x1 PUSH1 0x3 DUP8 PUSH1 0x40 MLOAD PUSH2 0x1090 SWAP2 SWAP1 PUSH2 0x2419 JUMP JUMPDEST SWAP1 DUP2 MSTORE PUSH1 0x20 ADD PUSH1 0x40 MLOAD DUP1 SWAP2 SUB SWAP1 KECCAK256 DUP5 PUSH1 0x40 MLOAD PUSH2 0x10AC SWAP2 SWAP1 PUSH2 0x2419 JUMP JUMPDEST SWAP1 DUP2 MSTORE PUSH1 0x20 ADD PUSH1 0x40 MLOAD DUP1 SWAP2 SUB SWAP1 KECCAK256 SLOAD SUB PUSH2 0x11A6 JUMPI PUSH1 0x40 MLOAD DUP1 PUSH1 0x40 ADD PUSH1 0x40 MSTORE DUP1 PUSH1 0x7 DUP2 MSTORE PUSH1 0x20 ADD PUSH32 0x6461746173657400000000000000000000000000000000000000000000000000 DUP2 MSTORE POP DUP3 DUP3 PUSH1 0xC DUP2 LT PUSH2 0x1109 JUMPI PUSH2 0x1108 PUSH2 0x2430 JUMP JUMPDEST JUMPDEST PUSH1 0x20 MUL ADD DUP2 SWAP1 MSTORE POP PUSH1 0x40 MLOAD DUP1 PUSH1 0x40 ADD PUSH1 0x40 MSTORE DUP1 PUSH1 0x8 DUP2 MSTORE PUSH1 0x20 ADD PUSH32 0x6C6F636174696F6E000000000000000000000000000000000000000000000000 DUP2 MSTORE POP DUP3 PUSH1 0x1 DUP4 PUSH2 0x1155 SWAP2 SWAP1 PUSH2 0x248E JUMP JUMPDEST PUSH1 0xC DUP2 LT PUSH2 0x1166 JUMPI PUSH2 0x1165 PUSH2 0x2430 JUMP JUMPDEST JUMPDEST PUSH1 0x20 MUL ADD DUP2 SWAP1 MSTORE POP DUP3 DUP3 PUSH1 0x2 DUP4 PUSH2 0x117D SWAP2 SWAP1 PUSH2 0x248E JUMP JUMPDEST PUSH1 0xC DUP2 LT PUSH2 0x118E JUMPI PUSH2 0x118D PUSH2 0x2430 JUMP JUMPDEST JUMPDEST PUSH1 0x20 MUL ADD DUP2 SWAP1 MSTORE POP PUSH1 0x3 DUP2 PUSH2 0x11A3 SWAP2 SWAP1 PUSH2 0x248E JUMP JUMPDEST SWAP1 POP JUMPDEST PUSH1 0x0 JUMPDEST DUP2 DUP2 LT ISZERO PUSH2 0x135E JUMPI PUSH1 0x0 DUP4 DUP3 PUSH1 0xC DUP2 LT PUSH2 0x11C6 JUMPI PUSH2 0x11C5 PUSH2 0x2430 JUMP JUMPDEST JUMPDEST PUSH1 0x20 MUL ADD MLOAD SWAP1 POP PUSH1 0x0 DUP5 PUSH1 0x1 DUP5 PUSH2 0x11DD SWAP2 SWAP1 PUSH2 0x248E JUMP JUMPDEST PUSH1 0xC DUP2 LT PUSH2 0x11EE JUMPI PUSH2 0x11ED PUSH2 0x2430 JUMP JUMPDEST JUMPDEST PUSH1 0x20 MUL ADD MLOAD SWAP1 POP PUSH1 0x0 DUP6 PUSH1 0x2 DUP6 PUSH2 0x1205 SWAP2 SWAP1 PUSH2 0x248E JUMP JUMPDEST PUSH1 0xC DUP2 LT PUSH2 0x1216 JUMPI PUSH2 0x1215 PUSH2 0x2430 JUMP JUMPDEST JUMPDEST PUSH1 0x20 MUL ADD MLOAD SWAP1 POP PUSH1 0x1 PUSH1 0xD DUP14 PUSH1 0x40 MLOAD PUSH2 0x122F SWAP2 SWAP1 PUSH2 0x2419 JUMP JUMPDEST SWAP1 DUP2 MSTORE PUSH1 0x20 ADD PUSH1 0x40 MLOAD DUP1 SWAP2 SUB SWAP1 KECCAK256 DUP5 PUSH1 0x40 MLOAD PUSH2 0x124B SWAP2 SWAP1 PUSH2 0x2419 JUMP JUMPDEST SWAP1 DUP2 MSTORE PUSH1 0x20 ADD PUSH1 0x40 MLOAD DUP1 SWAP2 SUB SWAP1 KECCAK256 DUP4 PUSH1 0x40 MLOAD PUSH2 0x1267 SWAP2 SWAP1 PUSH2 0x2419 JUMP JUMPDEST SWAP1 DUP2 MSTORE PUSH1 0x20 ADD PUSH1 0x40 MLOAD DUP1 SWAP2 SUB SWAP1 KECCAK256 SLOAD SUB PUSH2 0x1347 JUMPI PUSH1 0x1 PUSH1 0x7 PUSH1 0x0 PUSH1 0x6 DUP7 PUSH1 0x40 MLOAD PUSH2 0x1291 SWAP2 SWAP1 PUSH2 0x2419 JUMP JUMPDEST SWAP1 DUP2 MSTORE PUSH1 0x20 ADD PUSH1 0x40 MLOAD DUP1 SWAP2 SUB SWAP1 KECCAK256 SLOAD DUP2 MSTORE PUSH1 0x20 ADD SWAP1 DUP2 MSTORE PUSH1 0x20 ADD PUSH1 0x0 KECCAK256 PUSH1 0x0 PUSH1 0x6 PUSH2 0x12CC DUP8 DUP8 PUSH1 0x40 MLOAD DUP1 PUSH1 0x20 ADD PUSH1 0x40 MSTORE DUP1 PUSH1 0x0 DUP2 MSTORE POP PUSH2 0x16E8 JUMP JUMPDEST PUSH1 0x40 MLOAD PUSH2 0x12D9 SWAP2 SWAP1 PUSH2 0x2419 JUMP JUMPDEST SWAP1 DUP2 MSTORE PUSH1 0x20 ADD PUSH1 0x40 MLOAD DUP1 SWAP2 SUB SWAP1 KECCAK256 SLOAD DUP2 MSTORE PUSH1 0x20 ADD SWAP1 DUP2 MSTORE PUSH1 0x20 ADD PUSH1 0x0 KECCAK256 PUSH1 0x0 PUSH1 0x6 PUSH2 0x1305 DUP8 DUP8 DUP8 PUSH2 0x16E8 JUMP JUMPDEST PUSH1 0x40 MLOAD PUSH2 0x1312 SWAP2 SWAP1 PUSH2 0x2419 JUMP JUMPDEST SWAP1 DUP2 MSTORE PUSH1 0x20 ADD PUSH1 0x40 MLOAD DUP1 SWAP2 SUB SWAP1 KECCAK256 SLOAD DUP2 MSTORE PUSH1 0x20 ADD SWAP1 DUP2 MSTORE PUSH1 0x20 ADD PUSH1 0x0 KECCAK256 PUSH1 0x0 PUSH2 0x100 EXP DUP2 SLOAD DUP2 PUSH1 0xFF MUL NOT AND SWAP1 DUP4 ISZERO ISZERO MUL OR SWAP1 SSTORE POP JUMPDEST POP POP POP PUSH1 0x3 DUP2 PUSH2 0x1357 SWAP2 SWAP1 PUSH2 0x248E JUMP JUMPDEST SWAP1 POP PUSH2 0x11A9 JUMP JUMPDEST POP PUSH1 0x0 PUSH1 0x1 SWAP1 POP PUSH1 0x0 PUSH1 0x1 SWAP1 POP JUMPDEST PUSH1 0x8 SLOAD DUP2 GT PUSH2 0x14A3 JUMPI PUSH1 0x0 PUSH1 0x1 SWAP1 POP JUMPDEST PUSH1 0x9 PUSH1 0x0 DUP4 DUP2 MSTORE PUSH1 0x20 ADD SWAP1 DUP2 MSTORE PUSH1 0x20 ADD PUSH1 0x0 KECCAK256 SLOAD DUP2 GT PUSH2 0x148F JUMPI PUSH1 0x0 PUSH1 0x1 SWAP1 POP JUMPDEST PUSH1 0xA PUSH1 0x0 DUP5 DUP2 MSTORE PUSH1 0x20 ADD SWAP1 DUP2 MSTORE PUSH1 0x20 ADD PUSH1 0x0 KECCAK256 PUSH1 0x0 DUP4 DUP2 MSTORE PUSH1 0x20 ADD SWAP1 DUP2 MSTORE PUSH1 0x20 ADD PUSH1 0x0 KECCAK256 SLOAD DUP2 GT PUSH2 0x147B JUMPI PUSH1 0x7 PUSH1 0x0 DUP5 DUP2 MSTORE PUSH1 0x20 ADD SWAP1 DUP2 MSTORE PUSH1 0x20 ADD PUSH1 0x0 KECCAK256 PUSH1 0x0 DUP4 DUP2 MSTORE PUSH1 0x20 ADD SWAP1 DUP2 MSTORE PUSH1 0x20 ADD PUSH1 0x0 KECCAK256 PUSH1 0x0 DUP3 DUP2 MSTORE PUSH1 0x20 ADD SWAP1 DUP2 MSTORE PUSH1 0x20 ADD PUSH1 0x0 KECCAK256 PUSH1 0x0 SWAP1 SLOAD SWAP1 PUSH2 0x100 EXP SWAP1 DIV PUSH1 0xFF AND ISZERO PUSH2 0x1463 JUMPI PUSH1 0x0 PUSH1 0x7 PUSH1 0x0 DUP6 DUP2 MSTORE PUSH1 0x20 ADD SWAP1 DUP2 MSTORE PUSH1 0x20 ADD PUSH1 0x0 KECCAK256 PUSH1 0x0 DUP5 DUP2 MSTORE PUSH1 0x20 ADD SWAP1 DUP2 MSTORE PUSH1 0x20 ADD PUSH1 0x0 KECCAK256 PUSH1 0x0 DUP4 DUP2 MSTORE PUSH1 0x20 ADD SWAP1 DUP2 MSTORE PUSH1 0x20 ADD PUSH1 0x0 KECCAK256 PUSH1 0x0 PUSH2 0x100 EXP DUP2 SLOAD DUP2 PUSH1 0xFF MUL NOT AND SWAP1 DUP4 ISZERO ISZERO MUL OR SWAP1 SSTORE POP PUSH2 0x1468 JUMP JUMPDEST PUSH1 0x0 SWAP4 POP JUMPDEST DUP1 DUP1 PUSH2 0x1473 SWAP1 PUSH2 0x2587 JUMP JUMPDEST SWAP2 POP POP PUSH2 0x139D JUMP JUMPDEST POP DUP1 DUP1 PUSH2 0x1487 SWAP1 PUSH2 0x2587 JUMP JUMPDEST SWAP2 POP POP PUSH2 0x137C JUMP JUMPDEST POP DUP1 DUP1 PUSH2 0x149B SWAP1 PUSH2 0x2587 JUMP JUMPDEST SWAP2 POP POP PUSH2 0x136C JUMP JUMPDEST POP DUP1 ISZERO PUSH2 0x1510 JUMPI PUSH1 0x40 MLOAD DUP1 PUSH1 0x40 ADD PUSH1 0x40 MSTORE DUP1 PUSH1 0x6 DUP2 MSTORE PUSH1 0x20 ADD PUSH32 0x5065726D69740000000000000000000000000000000000000000000000000000 DUP2 MSTORE POP PUSH1 0xC DUP11 PUSH1 0x40 MLOAD PUSH2 0x14F0 SWAP2 SWAP1 PUSH2 0x2419 JUMP JUMPDEST SWAP1 DUP2 MSTORE PUSH1 0x20 ADD PUSH1 0x40 MLOAD DUP1 SWAP2 SUB SWAP1 KECCAK256 SWAP1 DUP2 PUSH2 0x150A SWAP2 SWAP1 PUSH2 0x2854 JUMP JUMPDEST POP PUSH2 0x1572 JUMP JUMPDEST PUSH1 0x40 MLOAD DUP1 PUSH1 0x40 ADD PUSH1 0x40 MSTORE DUP1 PUSH1 0x4 DUP2 MSTORE PUSH1 0x20 ADD PUSH32 0x44656E7900000000000000000000000000000000000000000000000000000000 DUP2 MSTORE POP PUSH1 0xC DUP11 PUSH1 0x40 MLOAD PUSH2 0x1556 SWAP2 SWAP1 PUSH2 0x2419 JUMP JUMPDEST SWAP1 DUP2 MSTORE PUSH1 0x20 ADD PUSH1 0x40 MLOAD DUP1 SWAP2 SUB SWAP1 KECCAK256 SWAP1 DUP2 PUSH2 0x1570 SWAP2 SWAP1 PUSH2 0x2854 JUMP JUMPDEST POP JUMPDEST PUSH1 0x4 PUSH1 0x0 DUP2 SLOAD DUP1 SWAP3 SWAP2 SWAP1 PUSH2 0x1585 SWAP1 PUSH2 0x2587 JUMP JUMPDEST SWAP2 SWAP1 POP SSTORE POP POP POP POP POP POP POP POP POP POP JUMP JUMPDEST PUSH1 0x60 PUSH1 0x0 CALLER SWAP1 POP PUSH1 0x0 PUSH2 0x15A7 DUP3 PUSH2 0x1717 JUMP JUMPDEST SWAP1 POP DUP1 SWAP3 POP POP POP SWAP1 JUMP JUMPDEST PUSH1 0x0 DUP1 PUSH1 0x0 DUP1 PUSH2 0x15C0 DUP6 PUSH2 0x1620 JUMP JUMPDEST SWAP3 POP SWAP3 POP SWAP3 POP PUSH1 0x1 DUP7 DUP3 DUP6 DUP6 PUSH1 0x40 MLOAD PUSH1 0x0 DUP2 MSTORE PUSH1 0x20 ADD PUSH1 0x40 MSTORE PUSH1 0x40 MLOAD PUSH2 0x15E9 SWAP5 SWAP4 SWAP3 SWAP2 SWAP1 PUSH2 0x2926 JUMP JUMPDEST PUSH1 0x20 PUSH1 0x40 MLOAD PUSH1 0x20 DUP2 SUB SWAP1 DUP1 DUP5 SUB SWAP1 DUP6 GAS STATICCALL ISZERO DUP1 ISZERO PUSH2 0x160B JUMPI RETURNDATASIZE PUSH1 0x0 DUP1 RETURNDATACOPY RETURNDATASIZE PUSH1 0x0 REVERT JUMPDEST POP POP POP PUSH1 0x20 PUSH1 0x40 MLOAD SUB MLOAD SWAP4 POP POP POP POP SWAP3 SWAP2 POP POP JUMP JUMPDEST PUSH1 0x0 DUP1 PUSH1 0x0 PUSH1 0x41 DUP5 MLOAD EQ PUSH2 0x1669 JUMPI PUSH1 0x40 MLOAD PUSH32 0x8C379A000000000000000000000000000000000000000000000000000000000 DUP2 MSTORE PUSH1 0x4 ADD PUSH2 0x1660 SWAP1 PUSH2 0x29B7 JUMP JUMPDEST PUSH1 0x40 MLOAD DUP1 SWAP2 SUB SWAP1 REVERT JUMPDEST PUSH1 0x20 DUP5 ADD MLOAD SWAP3 POP PUSH1 0x40 DUP5 ADD MLOAD SWAP2 POP PUSH1 0x60 DUP5 ADD MLOAD PUSH1 0x0 BYTE SWAP1 POP SWAP2 SWAP4 SWAP1 SWAP3 POP JUMP JUMPDEST PUSH1 0x0 DUP2 PUSH1 0x40 MLOAD PUSH1 0x20 ADD PUSH2 0x169B SWAP2 SWAP1 PUSH2 0x2419 JUMP JUMPDEST PUSH1 0x40 MLOAD PUSH1 0x20 DUP2 DUP4 SUB SUB DUP2 MSTORE SWAP1 PUSH1 0x40 MSTORE DUP1 MLOAD SWAP1 PUSH1 0x20 ADD KECCAK256 SWAP1 POP SWAP2 SWAP1 POP JUMP JUMPDEST PUSH1 0x0 DUP2 PUSH1 0x40 MLOAD PUSH1 0x20 ADD PUSH2 0x16CB SWAP2 SWAP1 PUSH2 0x2A44 JUMP JUMPDEST PUSH1 0x40 MLOAD PUSH1 0x20 DUP2 DUP4 SUB SUB DUP2 MSTORE SWAP1 PUSH1 0x40 MSTORE DUP1 MLOAD SWAP1 PUSH1 0x20 ADD KECCAK256 SWAP1 POP SWAP2 SWAP1 POP JUMP JUMPDEST PUSH1 0x60 DUP4 DUP4 DUP4 PUSH1 0x40 MLOAD PUSH1 0x20 ADD PUSH2 0x16FF SWAP4 SWAP3 SWAP2 SWAP1 PUSH2 0x2A6A JUMP JUMPDEST PUSH1 0x40 MLOAD PUSH1 0x20 DUP2 DUP4 SUB SUB DUP2 MSTORE SWAP1 PUSH1 0x40 MSTORE SWAP1 POP SWAP4 SWAP3 POP POP POP JUMP JUMPDEST PUSH1 0x60 PUSH1 0x0 DUP3 PUSH20 0xFFFFFFFFFFFFFFFFFFFFFFFFFFFFFFFFFFFFFFFF AND PUSH1 0x0 SHL SWAP1 POP PUSH1 0x0 PUSH1 0x40 MLOAD DUP1 PUSH1 0x40 ADD PUSH1 0x40 MSTORE DUP1 PUSH1 0x10 DUP2 MSTORE PUSH1 0x20 ADD PUSH32 0x3031323334353637383961626364656600000000000000000000000000000000 DUP2 MSTORE POP SWAP1 POP PUSH1 0x0 PUSH1 0x2A PUSH8 0xFFFFFFFFFFFFFFFF DUP2 GT ISZERO PUSH2 0x178E JUMPI PUSH2 0x178D PUSH2 0x1A73 JUMP JUMPDEST JUMPDEST PUSH1 0x40 MLOAD SWAP1 DUP1 DUP3 MSTORE DUP1 PUSH1 0x1F ADD PUSH1 0x1F NOT AND PUSH1 0x20 ADD DUP3 ADD PUSH1 0x40 MSTORE DUP1 ISZERO PUSH2 0x17C0 JUMPI DUP2 PUSH1 0x20 ADD PUSH1 0x1 DUP3 MUL DUP1 CALLDATASIZE DUP4 CALLDATACOPY DUP1 DUP3 ADD SWAP2 POP POP SWAP1 POP JUMPDEST POP SWAP1 POP PUSH32 0x3000000000000000000000000000000000000000000000000000000000000000 DUP2 PUSH1 0x0 DUP2 MLOAD DUP2 LT PUSH2 0x17F8 JUMPI PUSH2 0x17F7 PUSH2 0x2430 JUMP JUMPDEST JUMPDEST PUSH1 0x20 ADD ADD SWAP1 PUSH31 0xFFFFFFFFFFFFFFFFFFFFFFFFFFFFFFFFFFFFFFFFFFFFFFFFFFFFFFFFFFFFFF NOT AND SWAP1 DUP2 PUSH1 0x0 BYTE SWAP1 MSTORE8 POP PUSH32 0x7800000000000000000000000000000000000000000000000000000000000000 DUP2 PUSH1 0x1 DUP2 MLOAD DUP2 LT PUSH2 0x185C JUMPI PUSH2 0x185B PUSH2 0x2430 JUMP JUMPDEST JUMPDEST PUSH1 0x20 ADD ADD SWAP1 PUSH31 0xFFFFFFFFFFFFFFFFFFFFFFFFFFFFFFFFFFFFFFFFFFFFFFFFFFFFFFFFFFFFFF NOT AND SWAP1 DUP2 PUSH1 0x0 BYTE SWAP1 MSTORE8 POP PUSH1 0x0 JUMPDEST PUSH1 0x14 DUP2 LT ISZERO PUSH2 0x1A10 JUMPI DUP3 PUSH1 0x4 DUP6 PUSH1 0xC DUP5 PUSH2 0x18A8 SWAP2 SWAP1 PUSH2 0x248E JUMP JUMPDEST PUSH1 0x20 DUP2 LT PUSH2 0x18B9 JUMPI PUSH2 0x18B8 PUSH2 0x2430 JUMP JUMPDEST JUMPDEST BYTE PUSH1 0xF8 SHL PUSH31 0xFFFFFFFFFFFFFFFFFFFFFFFFFFFFFFFFFFFFFFFFFFFFFFFFFFFFFFFFFFFFFF NOT AND SWAP1 SHR PUSH1 0xF8 SHR PUSH1 0xFF AND DUP2 MLOAD DUP2 LT PUSH2 0x18F8 JUMPI PUSH2 0x18F7 PUSH2 0x2430 JUMP JUMPDEST JUMPDEST PUSH1 0x20 ADD ADD MLOAD PUSH1 0xF8 SHR PUSH1 0xF8 SHL DUP3 PUSH1 0x2 DUP4 PUSH2 0x1911 SWAP2 SWAP1 PUSH2 0x2A9B JUMP JUMPDEST PUSH1 0x2 PUSH2 0x191D SWAP2 SWAP1 PUSH2 0x248E JUMP JUMPDEST DUP2 MLOAD DUP2 LT PUSH2 0x192E JUMPI PUSH2 0x192D PUSH2 0x2430 JUMP JUMPDEST JUMPDEST PUSH1 0x20 ADD ADD SWAP1 PUSH31 0xFFFFFFFFFFFFFFFFFFFFFFFFFFFFFFFFFFFFFFFFFFFFFFFFFFFFFFFFFFFFFF NOT AND SWAP1 DUP2 PUSH1 0x0 BYTE SWAP1 MSTORE8 POP DUP3 PUSH1 0xF PUSH1 0xF8 SHL DUP6 PUSH1 0xC DUP5 PUSH2 0x1971 SWAP2 SWAP1 PUSH2 0x248E JUMP JUMPDEST PUSH1 0x20 DUP2 LT PUSH2 0x1982 JUMPI PUSH2 0x1981 PUSH2 0x2430 JUMP JUMPDEST JUMPDEST BYTE PUSH1 0xF8 SHL AND PUSH1 0xF8 SHR PUSH1 0xFF AND DUP2 MLOAD DUP2 LT PUSH2 0x199E JUMPI PUSH2 0x199D PUSH2 0x2430 JUMP JUMPDEST JUMPDEST PUSH1 0x20 ADD ADD MLOAD PUSH1 0xF8 SHR PUSH1 0xF8 SHL DUP3 PUSH1 0x2 DUP4 PUSH2 0x19B7 SWAP2 SWAP1 PUSH2 0x2A9B JUMP JUMPDEST PUSH1 0x3 PUSH2 0x19C3 SWAP2 SWAP1 PUSH2 0x248E JUMP JUMPDEST DUP2 MLOAD DUP2 LT PUSH2 0x19D4 JUMPI PUSH2 0x19D3 PUSH2 0x2430 JUMP JUMPDEST JUMPDEST PUSH1 0x20 ADD ADD SWAP1 PUSH31 0xFFFFFFFFFFFFFFFFFFFFFFFFFFFFFFFFFFFFFFFFFFFFFFFFFFFFFFFFFFFFFF NOT AND SWAP1 DUP2 PUSH1 0x0 BYTE SWAP1 MSTORE8 POP DUP1 DUP1 PUSH1 0x1 ADD SWAP2 POP POP PUSH2 0x188E JUMP JUMPDEST POP DUP1 SWAP4 POP POP POP POP SWAP2 SWAP1 POP JUMP JUMPDEST PUSH1 0x40 MLOAD DUP1 PUSH2 0x180 ADD PUSH1 0x40 MSTORE DUP1 PUSH1 0xC SWAP1 JUMPDEST PUSH1 0x60 DUP2 MSTORE PUSH1 0x20 ADD SWAP1 PUSH1 0x1 SWAP1 SUB SWAP1 DUP2 PUSH2 0x1A2C JUMPI SWAP1 POP POP SWAP1 JUMP JUMPDEST PUSH1 0x0 PUSH1 0x40 MLOAD SWAP1 POP SWAP1 JUMP JUMPDEST PUSH1 0x0 DUP1 REVERT JUMPDEST PUSH1 0x0 DUP1 REVERT JUMPDEST PUSH1 0x0 DUP1 REVERT JUMPDEST PUSH1 0x0 DUP1 REVERT JUMPDEST PUSH1 0x0 PUSH1 0x1F NOT PUSH1 0x1F DUP4 ADD AND SWAP1 POP SWAP2 SWAP1 POP JUMP JUMPDEST PUSH32 0x4E487B7100000000000000000000000000000000000000000000000000000000 PUSH1 0x0 MSTORE PUSH1 0x41 PUSH1 0x4 MSTORE PUSH1 0x24 PUSH1 0x0 REVERT JUMPDEST PUSH2 0x1AAB DUP3 PUSH2 0x1A62 JUMP JUMPDEST DUP2 ADD DUP2 DUP2 LT PUSH8 0xFFFFFFFFFFFFFFFF DUP3 GT OR ISZERO PUSH2 0x1ACA JUMPI PUSH2 0x1AC9 PUSH2 0x1A73 JUMP JUMPDEST JUMPDEST DUP1 PUSH1 0x40 MSTORE POP POP POP JUMP JUMPDEST PUSH1 0x0 PUSH2 0x1ADD PUSH2 0x1A44 JUMP JUMPDEST SWAP1 POP PUSH2 0x1AE9 DUP3 DUP3 PUSH2 0x1AA2 JUMP JUMPDEST SWAP2 SWAP1 POP JUMP JUMPDEST PUSH1 0x0 PUSH8 0xFFFFFFFFFFFFFFFF DUP3 GT ISZERO PUSH2 0x1B09 JUMPI PUSH2 0x1B08 PUSH2 0x1A73 JUMP JUMPDEST JUMPDEST PUSH2 0x1B12 DUP3 PUSH2 0x1A62 JUMP JUMPDEST SWAP1 POP PUSH1 0x20 DUP2 ADD SWAP1 POP SWAP2 SWAP1 POP JUMP JUMPDEST DUP3 DUP2 DUP4 CALLDATACOPY PUSH1 0x0 DUP4 DUP4 ADD MSTORE POP POP POP JUMP JUMPDEST PUSH1 0x0 PUSH2 0x1B41 PUSH2 0x1B3C DUP5 PUSH2 0x1AEE JUMP JUMPDEST PUSH2 0x1AD3 JUMP JUMPDEST SWAP1 POP DUP3 DUP2 MSTORE PUSH1 0x20 DUP2 ADD DUP5 DUP5 DUP5 ADD GT ISZERO PUSH2 0x1B5D JUMPI PUSH2 0x1B5C PUSH2 0x1A5D JUMP JUMPDEST JUMPDEST PUSH2 0x1B68 DUP5 DUP3 DUP6 PUSH2 0x1B1F JUMP JUMPDEST POP SWAP4 SWAP3 POP POP POP JUMP JUMPDEST PUSH1 0x0 DUP3 PUSH1 0x1F DUP4 ADD SLT PUSH2 0x1B85 JUMPI PUSH2 0x1B84 PUSH2 0x1A58 JUMP JUMPDEST JUMPDEST DUP2 CALLDATALOAD PUSH2 0x1B95 DUP5 DUP3 PUSH1 0x20 DUP7 ADD PUSH2 0x1B2E JUMP JUMPDEST SWAP2 POP POP SWAP3 SWAP2 POP POP JUMP JUMPDEST PUSH1 0x0 PUSH8 0xFFFFFFFFFFFFFFFF DUP3 GT ISZERO PUSH2 0x1BB9 JUMPI PUSH2 0x1BB8 PUSH2 0x1A73 JUMP JUMPDEST JUMPDEST PUSH2 0x1BC2 DUP3 PUSH2 0x1A62 JUMP JUMPDEST SWAP1 POP PUSH1 0x20 DUP2 ADD SWAP1 POP SWAP2 SWAP1 POP JUMP JUMPDEST PUSH1 0x0 PUSH2 0x1BE2 PUSH2 0x1BDD DUP5 PUSH2 0x1B9E JUMP JUMPDEST PUSH2 0x1AD3 JUMP JUMPDEST SWAP1 POP DUP3 DUP2 MSTORE PUSH1 0x20 DUP2 ADD DUP5 DUP5 DUP5 ADD GT ISZERO PUSH2 0x1BFE JUMPI PUSH2 0x1BFD PUSH2 0x1A5D JUMP JUMPDEST JUMPDEST PUSH2 0x1C09 DUP5 DUP3 DUP6 PUSH2 0x1B1F JUMP JUMPDEST POP SWAP4 SWAP3 POP POP POP JUMP JUMPDEST PUSH1 0x0 DUP3 PUSH1 0x1F DUP4 ADD SLT PUSH2 0x1C26 JUMPI PUSH2 0x1C25 PUSH2 0x1A58 JUMP JUMPDEST JUMPDEST DUP2 CALLDATALOAD PUSH2 0x1C36 DUP5 DUP3 PUSH1 0x20 DUP7 ADD PUSH2 0x1BCF JUMP JUMPDEST SWAP2 POP POP SWAP3 SWAP2 POP POP JUMP JUMPDEST PUSH1 0x0 DUP1 PUSH1 0x0 DUP1 PUSH1 0x0 DUP1 PUSH1 0x0 PUSH1 0xE0 DUP9 DUP11 SUB SLT ISZERO PUSH2 0x1C5E JUMPI PUSH2 0x1C5D PUSH2 0x1A4E JUMP JUMPDEST JUMPDEST PUSH1 0x0 DUP9 ADD CALLDATALOAD PUSH8 0xFFFFFFFFFFFFFFFF DUP2 GT ISZERO PUSH2 0x1C7C JUMPI PUSH2 0x1C7B PUSH2 0x1A53 JUMP JUMPDEST JUMPDEST PUSH2 0x1C88 DUP11 DUP3 DUP12 ADD PUSH2 0x1B70 JUMP JUMPDEST SWAP8 POP POP PUSH1 0x20 DUP9 ADD CALLDATALOAD PUSH8 0xFFFFFFFFFFFFFFFF DUP2 GT ISZERO PUSH2 0x1CA9 JUMPI PUSH2 0x1CA8 PUSH2 0x1A53 JUMP JUMPDEST JUMPDEST PUSH2 0x1CB5 DUP11 DUP3 DUP12 ADD PUSH2 0x1B70 JUMP JUMPDEST SWAP7 POP POP PUSH1 0x40 DUP9 ADD CALLDATALOAD PUSH8 0xFFFFFFFFFFFFFFFF DUP2 GT ISZERO PUSH2 0x1CD6 JUMPI PUSH2 0x1CD5 PUSH2 0x1A53 JUMP JUMPDEST JUMPDEST PUSH2 0x1CE2 DUP11 DUP3 DUP12 ADD PUSH2 0x1B70 JUMP JUMPDEST SWAP6 POP POP PUSH1 0x60 DUP9 ADD CALLDATALOAD PUSH8 0xFFFFFFFFFFFFFFFF DUP2 GT ISZERO PUSH2 0x1D03 JUMPI PUSH2 0x1D02 PUSH2 0x1A53 JUMP JUMPDEST JUMPDEST PUSH2 0x1D0F DUP11 DUP3 DUP12 ADD PUSH2 0x1B70 JUMP JUMPDEST SWAP5 POP POP PUSH1 0x80 DUP9 ADD CALLDATALOAD PUSH8 0xFFFFFFFFFFFFFFFF DUP2 GT ISZERO PUSH2 0x1D30 JUMPI PUSH2 0x1D2F PUSH2 0x1A53 JUMP JUMPDEST JUMPDEST PUSH2 0x1D3C DUP11 DUP3 DUP12 ADD PUSH2 0x1B70 JUMP JUMPDEST SWAP4 POP POP PUSH1 0xA0 DUP9 ADD CALLDATALOAD PUSH8 0xFFFFFFFFFFFFFFFF DUP2 GT ISZERO PUSH2 0x1D5D JUMPI PUSH2 0x1D5C PUSH2 0x1A53 JUMP JUMPDEST JUMPDEST PUSH2 0x1D69 DUP11 DUP3 DUP12 ADD PUSH2 0x1B70 JUMP JUMPDEST SWAP3 POP POP PUSH1 0xC0 DUP9 ADD CALLDATALOAD PUSH8 0xFFFFFFFFFFFFFFFF DUP2 GT ISZERO PUSH2 0x1D8A JUMPI PUSH2 0x1D89 PUSH2 0x1A53 JUMP JUMPDEST JUMPDEST PUSH2 0x1D96 DUP11 DUP3 DUP12 ADD PUSH2 0x1C11 JUMP JUMPDEST SWAP2 POP POP SWAP3 SWAP6 SWAP9 SWAP2 SWAP5 SWAP8 POP SWAP3 SWAP6 POP JUMP JUMPDEST PUSH1 0x0 PUSH20 0xFFFFFFFFFFFFFFFFFFFFFFFFFFFFFFFFFFFFFFFF DUP3 AND SWAP1 POP SWAP2 SWAP1 POP JUMP JUMPDEST PUSH1 0x0 PUSH2 0x1DD0 DUP3 PUSH2 0x1DA5 JUMP JUMPDEST SWAP1 POP SWAP2 SWAP1 POP JUMP JUMPDEST PUSH2 0x1DE0 DUP2 PUSH2 0x1DC5 JUMP JUMPDEST DUP2 EQ PUSH2 0x1DEB JUMPI PUSH1 0x0 DUP1 REVERT JUMPDEST POP JUMP JUMPDEST PUSH1 0x0 DUP2 CALLDATALOAD SWAP1 POP PUSH2 0x1DFD DUP2 PUSH2 0x1DD7 JUMP JUMPDEST SWAP3 SWAP2 POP POP JUMP JUMPDEST PUSH1 0x0 DUP1 PUSH1 0x0 PUSH1 0x60 DUP5 DUP7 SUB SLT ISZERO PUSH2 0x1E1C JUMPI PUSH2 0x1E1B PUSH2 0x1A4E JUMP JUMPDEST JUMPDEST PUSH1 0x0 PUSH2 0x1E2A DUP7 DUP3 DUP8 ADD PUSH2 0x1DEE JUMP JUMPDEST SWAP4 POP POP PUSH1 0x20 DUP5 ADD CALLDATALOAD PUSH8 0xFFFFFFFFFFFFFFFF DUP2 GT ISZERO PUSH2 0x1E4B JUMPI PUSH2 0x1E4A PUSH2 0x1A53 JUMP JUMPDEST JUMPDEST PUSH2 0x1E57 DUP7 DUP3 DUP8 ADD PUSH2 0x1B70 JUMP JUMPDEST SWAP3 POP POP PUSH1 0x40 DUP5 ADD CALLDATALOAD PUSH8 0xFFFFFFFFFFFFFFFF DUP2 GT ISZERO PUSH2 0x1E78 JUMPI PUSH2 0x1E77 PUSH2 0x1A53 JUMP JUMPDEST JUMPDEST PUSH2 0x1E84 DUP7 DUP3 DUP8 ADD PUSH2 0x1C11 JUMP JUMPDEST SWAP2 POP POP SWAP3 POP SWAP3 POP SWAP3 JUMP JUMPDEST PUSH1 0x0 DUP2 ISZERO ISZERO SWAP1 POP SWAP2 SWAP1 POP JUMP JUMPDEST PUSH2 0x1EA3 DUP2 PUSH2 0x1E8E JUMP JUMPDEST DUP3 MSTORE POP POP JUMP JUMPDEST PUSH1 0x0 PUSH1 0x20 DUP3 ADD SWAP1 POP PUSH2 0x1EBE PUSH1 0x0 DUP4 ADD DUP5 PUSH2 0x1E9A JUMP JUMPDEST SWAP3 SWAP2 POP POP JUMP JUMPDEST PUSH1 0x0 DUP2 SWAP1 POP SWAP2 SWAP1 POP JUMP JUMPDEST PUSH2 0x1ED7 DUP2 PUSH2 0x1EC4 JUMP JUMPDEST DUP3 MSTORE POP POP JUMP JUMPDEST PUSH1 0x0 PUSH1 0x20 DUP3 ADD SWAP1 POP PUSH2 0x1EF2 PUSH1 0x0 DUP4 ADD DUP5 PUSH2 0x1ECE JUMP JUMPDEST SWAP3 SWAP2 POP POP JUMP JUMPDEST PUSH1 0x0 PUSH1 0x20 DUP3 DUP5 SUB SLT ISZERO PUSH2 0x1F0E JUMPI PUSH2 0x1F0D PUSH2 0x1A4E JUMP JUMPDEST JUMPDEST PUSH1 0x0 DUP3 ADD CALLDATALOAD PUSH8 0xFFFFFFFFFFFFFFFF DUP2 GT ISZERO PUSH2 0x1F2C JUMPI PUSH2 0x1F2B PUSH2 0x1A53 JUMP JUMPDEST JUMPDEST PUSH2 0x1F38 DUP5 DUP3 DUP6 ADD PUSH2 0x1B70 JUMP JUMPDEST SWAP2 POP POP SWAP3 SWAP2 POP POP JUMP JUMPDEST PUSH1 0x0 DUP2 MLOAD SWAP1 POP SWAP2 SWAP1 POP JUMP JUMPDEST PUSH1 0x0 DUP3 DUP3 MSTORE PUSH1 0x20 DUP3 ADD SWAP1 POP SWAP3 SWAP2 POP POP JUMP JUMPDEST PUSH1 0x0 JUMPDEST DUP4 DUP2 LT ISZERO PUSH2 0x1F7B JUMPI DUP1 DUP3 ADD MLOAD DUP2 DUP5 ADD MSTORE PUSH1 0x20 DUP2 ADD SWAP1 POP PUSH2 0x1F60 JUMP JUMPDEST PUSH1 0x0 DUP5 DUP5 ADD MSTORE POP POP POP POP JUMP JUMPDEST PUSH1 0x0 PUSH2 0x1F92 DUP3 PUSH2 0x1F41 JUMP JUMPDEST PUSH2 0x1F9C DUP2 DUP6 PUSH2 0x1F4C JUMP JUMPDEST SWAP4 POP PUSH2 0x1FAC DUP2 DUP6 PUSH1 0x20 DUP7 ADD PUSH2 0x1F5D JUMP JUMPDEST PUSH2 0x1FB5 DUP2 PUSH2 0x1A62 JUMP JUMPDEST DUP5 ADD SWAP2 POP POP SWAP3 SWAP2 POP POP JUMP JUMPDEST PUSH1 0x0 PUSH1 0x20 DUP3 ADD SWAP1 POP DUP2 DUP2 SUB PUSH1 0x0 DUP4 ADD MSTORE PUSH2 0x1FDA DUP2 DUP5 PUSH2 0x1F87 JUMP JUMPDEST SWAP1 POP SWAP3 SWAP2 POP POP JUMP JUMPDEST PUSH2 0x1FEB DUP2 PUSH2 0x1DC5 JUMP JUMPDEST DUP3 MSTORE POP POP JUMP JUMPDEST PUSH1 0x0 PUSH1 0x20 DUP3 ADD SWAP1 POP PUSH2 0x2006 PUSH1 0x0 DUP4 ADD DUP5 PUSH2 0x1FE2 JUMP JUMPDEST SWAP3 SWAP2 POP POP JUMP JUMPDEST PUSH1 0x0 DUP1 PUSH1 0x0 DUP1 PUSH1 0x0 DUP1 PUSH1 0xC0 DUP8 DUP10 SUB SLT ISZERO PUSH2 0x2029 JUMPI PUSH2 0x2028 PUSH2 0x1A4E JUMP JUMPDEST JUMPDEST PUSH1 0x0 DUP8 ADD CALLDATALOAD PUSH8 0xFFFFFFFFFFFFFFFF DUP2 GT ISZERO PUSH2 0x2047 JUMPI PUSH2 0x2046 PUSH2 0x1A53 JUMP JUMPDEST JUMPDEST PUSH2 0x2053 DUP10 DUP3 DUP11 ADD PUSH2 0x1B70 JUMP JUMPDEST SWAP7 POP POP PUSH1 0x20 DUP8 ADD CALLDATALOAD PUSH8 0xFFFFFFFFFFFFFFFF DUP2 GT ISZERO PUSH2 0x2074 JUMPI PUSH2 0x2073 PUSH2 0x1A53 JUMP JUMPDEST JUMPDEST PUSH2 0x2080 DUP10 DUP3 DUP11 ADD PUSH2 0x1B70 JUMP JUMPDEST SWAP6 POP POP PUSH1 0x40 DUP8 ADD CALLDATALOAD PUSH8 0xFFFFFFFFFFFFFFFF DUP2 GT ISZERO PUSH2 0x20A1 JUMPI PUSH2 0x20A0 PUSH2 0x1A53 JUMP JUMPDEST JUMPDEST PUSH2 0x20AD DUP10 DUP3 DUP11 ADD PUSH2 0x1B70 JUMP JUMPDEST SWAP5 POP POP PUSH1 0x60 DUP8 ADD CALLDATALOAD PUSH8 0xFFFFFFFFFFFFFFFF DUP2 GT ISZERO PUSH2 0x20CE JUMPI PUSH2 0x20CD PUSH2 0x1A53 JUMP JUMPDEST JUMPDEST PUSH2 0x20DA DUP10 DUP3 DUP11 ADD PUSH2 0x1B70 JUMP JUMPDEST SWAP4 POP POP PUSH1 0x80 DUP8 ADD CALLDATALOAD PUSH8 0xFFFFFFFFFFFFFFFF DUP2 GT ISZERO PUSH2 0x20FB JUMPI PUSH2 0x20FA PUSH2 0x1A53 JUMP JUMPDEST JUMPDEST PUSH2 0x2107 DUP10 DUP3 DUP11 ADD PUSH2 0x1B70 JUMP JUMPDEST SWAP3 POP POP PUSH1 0xA0 DUP8 ADD CALLDATALOAD PUSH8 0xFFFFFFFFFFFFFFFF DUP2 GT ISZERO PUSH2 0x2128 JUMPI PUSH2 0x2127 PUSH2 0x1A53 JUMP JUMPDEST JUMPDEST PUSH2 0x2134 DUP10 DUP3 DUP11 ADD PUSH2 0x1B70 JUMP JUMPDEST SWAP2 POP POP SWAP3 SWAP6 POP SWAP3 SWAP6 POP SWAP3 SWAP6 JUMP JUMPDEST PUSH1 0x0 DUP2 SWAP1 POP SWAP2 SWAP1 POP JUMP JUMPDEST PUSH2 0x2154 DUP2 PUSH2 0x2141 JUMP JUMPDEST DUP2 EQ PUSH2 0x215F JUMPI PUSH1 0x0 DUP1 REVERT JUMPDEST POP JUMP JUMPDEST PUSH1 0x0 DUP2 CALLDATALOAD SWAP1 POP PUSH2 0x2171 DUP2 PUSH2 0x214B JUMP JUMPDEST SWAP3 SWAP2 POP POP JUMP JUMPDEST PUSH1 0x0 DUP1 PUSH1 0x40 DUP4 DUP6 SUB SLT ISZERO PUSH2 0x218E JUMPI PUSH2 0x218D PUSH2 0x1A4E JUMP JUMPDEST JUMPDEST PUSH1 0x0 PUSH2 0x219C DUP6 DUP3 DUP7 ADD PUSH2 0x2162 JUMP JUMPDEST SWAP3 POP POP PUSH1 0x20 DUP4 ADD CALLDATALOAD PUSH8 0xFFFFFFFFFFFFFFFF DUP2 GT ISZERO PUSH2 0x21BD JUMPI PUSH2 0x21BC PUSH2 0x1A53 JUMP JUMPDEST JUMPDEST PUSH2 0x21C9 DUP6 DUP3 DUP7 ADD PUSH2 0x1C11 JUMP JUMPDEST SWAP2 POP POP SWAP3 POP SWAP3 SWAP1 POP JUMP JUMPDEST PUSH1 0x0 PUSH1 0x20 DUP3 DUP5 SUB SLT ISZERO PUSH2 0x21E9 JUMPI PUSH2 0x21E8 PUSH2 0x1A4E JUMP JUMPDEST JUMPDEST PUSH1 0x0 DUP3 ADD CALLDATALOAD PUSH8 0xFFFFFFFFFFFFFFFF DUP2 GT ISZERO PUSH2 0x2207 JUMPI PUSH2 0x2206 PUSH2 0x1A53 JUMP JUMPDEST JUMPDEST PUSH2 0x2213 DUP5 DUP3 DUP6 ADD PUSH2 0x1C11 JUMP JUMPDEST SWAP2 POP POP SWAP3 SWAP2 POP POP JUMP JUMPDEST PUSH2 0x2225 DUP2 PUSH2 0x2141 JUMP JUMPDEST DUP3 MSTORE POP POP JUMP JUMPDEST PUSH1 0x0 PUSH1 0xFF DUP3 AND SWAP1 POP SWAP2 SWAP1 POP JUMP JUMPDEST PUSH2 0x2241 DUP2 PUSH2 0x222B JUMP JUMPDEST DUP3 MSTORE POP POP JUMP JUMPDEST PUSH1 0x0 PUSH1 0x60 DUP3 ADD SWAP1 POP PUSH2 0x225C PUSH1 0x0 DUP4 ADD DUP7 PUSH2 0x221C JUMP JUMPDEST PUSH2 0x2269 PUSH1 0x20 DUP4 ADD DUP6 PUSH2 0x221C JUMP JUMPDEST PUSH2 0x2276 PUSH1 0x40 DUP4 ADD DUP5 PUSH2 0x2238 JUMP JUMPDEST SWAP5 SWAP4 POP POP POP POP JUMP JUMPDEST PUSH1 0x0 PUSH1 0x20 DUP3 ADD SWAP1 POP PUSH2 0x2293 PUSH1 0x0 DUP4 ADD DUP5 PUSH2 0x221C JUMP JUMPDEST SWAP3 SWAP2 POP POP JUMP JUMPDEST PUSH1 0x0 PUSH1 0x20 DUP3 DUP5 SUB SLT ISZERO PUSH2 0x22AF JUMPI PUSH2 0x22AE PUSH2 0x1A4E JUMP JUMPDEST JUMPDEST PUSH1 0x0 PUSH2 0x22BD DUP5 DUP3 DUP6 ADD PUSH2 0x2162 JUMP JUMPDEST SWAP2 POP POP SWAP3 SWAP2 POP POP JUMP JUMPDEST PUSH1 0x0 DUP2 SWAP1 POP SWAP3 SWAP2 POP POP JUMP JUMPDEST PUSH1 0x0 PUSH2 0x22DC DUP3 PUSH2 0x1F41 JUMP JUMPDEST PUSH2 0x22E6 DUP2 DUP6 PUSH2 0x22C6 JUMP JUMPDEST SWAP4 POP PUSH2 0x22F6 DUP2 DUP6 PUSH1 0x20 DUP7 ADD PUSH2 0x1F5D JUMP JUMPDEST DUP1 DUP5 ADD SWAP2 POP POP SWAP3 SWAP2 POP POP JUMP JUMPDEST PUSH32 0x2C00000000000000000000000000000000000000000000000000000000000000 PUSH1 0x0 DUP3 ADD MSTORE POP JUMP JUMPDEST PUSH1 0x0 PUSH2 0x2338 PUSH1 0x1 DUP4 PUSH2 0x22C6 JUMP JUMPDEST SWAP2 POP PUSH2 0x2343 DUP3 PUSH2 0x2302 JUMP JUMPDEST PUSH1 0x1 DUP3 ADD SWAP1 POP SWAP2 SWAP1 POP JUMP JUMPDEST PUSH1 0x0 PUSH2 0x235A DUP3 DUP8 PUSH2 0x22D1 JUMP JUMPDEST SWAP2 POP PUSH2 0x2365 DUP3 PUSH2 0x232B JUMP JUMPDEST SWAP2 POP PUSH2 0x2371 DUP3 DUP7 PUSH2 0x22D1 JUMP JUMPDEST SWAP2 POP PUSH2 0x237C DUP3 PUSH2 0x232B JUMP JUMPDEST SWAP2 POP PUSH2 0x2388 DUP3 DUP6 PUSH2 0x22D1 JUMP JUMPDEST SWAP2 POP PUSH2 0x2393 DUP3 PUSH2 0x232B JUMP JUMPDEST SWAP2 POP PUSH2 0x239F DUP3 DUP5 PUSH2 0x22D1 JUMP JUMPDEST SWAP2 POP DUP2 SWAP1 POP SWAP6 SWAP5 POP POP POP POP POP JUMP JUMPDEST PUSH32 0x496E76616C6964207369676E6174757265000000000000000000000000000000 PUSH1 0x0 DUP3 ADD MSTORE POP JUMP JUMPDEST PUSH1 0x0 PUSH2 0x23E3 PUSH1 0x11 DUP4 PUSH2 0x1F4C JUMP JUMPDEST SWAP2 POP PUSH2 0x23EE DUP3 PUSH2 0x23AD JUMP JUMPDEST PUSH1 0x20 DUP3 ADD SWAP1 POP SWAP2 SWAP1 POP JUMP JUMPDEST PUSH1 0x0 PUSH1 0x20 DUP3 ADD SWAP1 POP DUP2 DUP2 SUB PUSH1 0x0 DUP4 ADD MSTORE PUSH2 0x2412 DUP2 PUSH2 0x23D6 JUMP JUMPDEST SWAP1 POP SWAP2 SWAP1 POP JUMP JUMPDEST PUSH1 0x0 PUSH2 0x2425 DUP3 DUP5 PUSH2 0x22D1 JUMP JUMPDEST SWAP2 POP DUP2 SWAP1 POP SWAP3 SWAP2 POP POP JUMP JUMPDEST PUSH32 0x4E487B7100000000000000000000000000000000000000000000000000000000 PUSH1 0x0 MSTORE PUSH1 0x32 PUSH1 0x4 MSTORE PUSH1 0x24 PUSH1 0x0 REVERT JUMPDEST PUSH32 0x4E487B7100000000000000000000000000000000000000000000000000000000 PUSH1 0x0 MSTORE PUSH1 0x11 PUSH1 0x4 MSTORE PUSH1 0x24 PUSH1 0x0 REVERT JUMPDEST PUSH1 0x0 PUSH2 0x2499 DUP3 PUSH2 0x1EC4 JUMP JUMPDEST SWAP2 POP PUSH2 0x24A4 DUP4 PUSH2 0x1EC4 JUMP JUMPDEST SWAP3 POP DUP3 DUP3 ADD SWAP1 POP DUP1 DUP3 GT ISZERO PUSH2 0x24BC JUMPI PUSH2 0x24BB PUSH2 0x245F JUMP JUMPDEST JUMPDEST SWAP3 SWAP2 POP POP JUMP JUMPDEST PUSH32 0x66616C7365000000000000000000000000000000000000000000000000000000 PUSH1 0x0 DUP3 ADD MSTORE POP JUMP JUMPDEST PUSH1 0x0 PUSH2 0x24F8 PUSH1 0x5 DUP4 PUSH2 0x22C6 JUMP JUMPDEST SWAP2 POP PUSH2 0x2503 DUP3 PUSH2 0x24C2 JUMP JUMPDEST PUSH1 0x5 DUP3 ADD SWAP1 POP SWAP2 SWAP1 POP JUMP JUMPDEST PUSH32 0x3A00000000000000000000000000000000000000000000000000000000000000 PUSH1 0x0 DUP3 ADD MSTORE POP JUMP JUMPDEST PUSH1 0x0 PUSH2 0x2544 PUSH1 0x1 DUP4 PUSH2 0x22C6 JUMP JUMPDEST SWAP2 POP PUSH2 0x254F DUP3 PUSH2 0x250E JUMP JUMPDEST PUSH1 0x1 DUP3 ADD SWAP1 POP SWAP2 SWAP1 POP JUMP JUMPDEST PUSH1 0x0 PUSH2 0x2565 DUP3 PUSH2 0x24EB JUMP JUMPDEST SWAP2 POP PUSH2 0x2570 DUP3 PUSH2 0x2537 JUMP JUMPDEST SWAP2 POP PUSH2 0x257C DUP3 DUP5 PUSH2 0x22D1 JUMP JUMPDEST SWAP2 POP DUP2 SWAP1 POP SWAP3 SWAP2 POP POP JUMP JUMPDEST PUSH1 0x0 PUSH2 0x2592 DUP3 PUSH2 0x1EC4 JUMP JUMPDEST SWAP2 POP PUSH32 0xFFFFFFFFFFFFFFFFFFFFFFFFFFFFFFFFFFFFFFFFFFFFFFFFFFFFFFFFFFFFFFFF DUP3 SUB PUSH2 0x25C4 JUMPI PUSH2 0x25C3 PUSH2 0x245F JUMP JUMPDEST JUMPDEST PUSH1 0x1 DUP3 ADD SWAP1 POP SWAP2 SWAP1 POP JUMP JUMPDEST PUSH32 0x7472756500000000000000000000000000000000000000000000000000000000 PUSH1 0x0 DUP3 ADD MSTORE POP JUMP JUMPDEST PUSH1 0x0 PUSH2 0x2605 PUSH1 0x4 DUP4 PUSH2 0x22C6 JUMP JUMPDEST SWAP2 POP PUSH2 0x2610 DUP3 PUSH2 0x25CF JUMP JUMPDEST PUSH1 0x4 DUP3 ADD SWAP1 POP SWAP2 SWAP1 POP JUMP JUMPDEST PUSH1 0x0 PUSH2 0x2626 DUP3 PUSH2 0x25F8 JUMP JUMPDEST SWAP2 POP PUSH2 0x2631 DUP3 PUSH2 0x2537 JUMP JUMPDEST SWAP2 POP PUSH2 0x263D DUP3 DUP5 PUSH2 0x22D1 JUMP JUMPDEST SWAP2 POP DUP2 SWAP1 POP SWAP3 SWAP2 POP POP JUMP JUMPDEST PUSH32 0x4E487B7100000000000000000000000000000000000000000000000000000000 PUSH1 0x0 MSTORE PUSH1 0x22 PUSH1 0x4 MSTORE PUSH1 0x24 PUSH1 0x0 REVERT JUMPDEST PUSH1 0x0 PUSH1 0x2 DUP3 DIV SWAP1 POP PUSH1 0x1 DUP3 AND DUP1 PUSH2 0x268F JUMPI PUSH1 0x7F DUP3 AND SWAP2 POP JUMPDEST PUSH1 0x20 DUP3 LT DUP2 SUB PUSH2 0x26A2 JUMPI PUSH2 0x26A1 PUSH2 0x2648 JUMP JUMPDEST JUMPDEST POP SWAP2 SWAP1 POP JUMP JUMPDEST PUSH1 0x0 DUP2 SWAP1 POP DUP2 PUSH1 0x0 MSTORE PUSH1 0x20 PUSH1 0x0 KECCAK256 SWAP1 POP SWAP2 SWAP1 POP JUMP JUMPDEST PUSH1 0x0 PUSH1 0x20 PUSH1 0x1F DUP4 ADD DIV SWAP1 POP SWAP2 SWAP1 POP JUMP JUMPDEST PUSH1 0x0 DUP3 DUP3 SHL SWAP1 POP SWAP3 SWAP2 POP POP JUMP JUMPDEST PUSH1 0x0 PUSH1 0x8 DUP4 MUL PUSH2 0x270A PUSH32 0xFFFFFFFFFFFFFFFFFFFFFFFFFFFFFFFFFFFFFFFFFFFFFFFFFFFFFFFFFFFFFFFF DUP3 PUSH2 0x26CD JUMP JUMPDEST PUSH2 0x2714 DUP7 DUP4 PUSH2 0x26CD JUMP JUMPDEST SWAP6 POP DUP1 NOT DUP5 AND SWAP4 POP DUP1 DUP7 AND DUP5 OR SWAP3 POP POP POP SWAP4 SWAP3 POP POP POP JUMP JUMPDEST PUSH1 0x0 DUP2 SWAP1 POP SWAP2 SWAP1 POP JUMP JUMPDEST PUSH1 0x0 PUSH2 0x2751 PUSH2 0x274C PUSH2 0x2747 DUP5 PUSH2 0x1EC4 JUMP JUMPDEST PUSH2 0x272C JUMP JUMPDEST PUSH2 0x1EC4 JUMP JUMPDEST SWAP1 POP SWAP2 SWAP1 POP JUMP JUMPDEST PUSH1 0x0 DUP2 SWAP1 POP SWAP2 SWAP1 POP JUMP JUMPDEST PUSH2 0x276B DUP4 PUSH2 0x2736 JUMP JUMPDEST PUSH2 0x277F PUSH2 0x2777 DUP3 PUSH2 0x2758 JUMP JUMPDEST DUP5 DUP5 SLOAD PUSH2 0x26DA JUMP JUMPDEST DUP3 SSTORE POP POP POP POP JUMP JUMPDEST PUSH1 0x0 SWAP1 JUMP JUMPDEST PUSH2 0x2794 PUSH2 0x2787 JUMP JUMPDEST PUSH2 0x279F DUP2 DUP5 DUP5 PUSH2 0x2762 JUMP JUMPDEST POP POP POP JUMP JUMPDEST JUMPDEST DUP2 DUP2 LT ISZERO PUSH2 0x27C3 JUMPI PUSH2 0x27B8 PUSH1 0x0 DUP3 PUSH2 0x278C JUMP JUMPDEST PUSH1 0x1 DUP2 ADD SWAP1 POP PUSH2 0x27A5 JUMP JUMPDEST POP POP JUMP JUMPDEST PUSH1 0x1F DUP3 GT ISZERO PUSH2 0x2808 JUMPI PUSH2 0x27D9 DUP2 PUSH2 0x26A8 JUMP JUMPDEST PUSH2 0x27E2 DUP5 PUSH2 0x26BD JUMP JUMPDEST DUP2 ADD PUSH1 0x20 DUP6 LT ISZERO PUSH2 0x27F1 JUMPI DUP2 SWAP1 POP JUMPDEST PUSH2 0x2805 PUSH2 0x27FD DUP6 PUSH2 0x26BD JUMP JUMPDEST DUP4 ADD DUP3 PUSH2 0x27A4 JUMP JUMPDEST POP POP JUMPDEST POP POP POP JUMP JUMPDEST PUSH1 0x0 DUP3 DUP3 SHR SWAP1 POP SWAP3 SWAP2 POP POP JUMP JUMPDEST PUSH1 0x0 PUSH2 0x282B PUSH1 0x0 NOT DUP5 PUSH1 0x8 MUL PUSH2 0x280D JUMP JUMPDEST NOT DUP1 DUP4 AND SWAP2 POP POP SWAP3 SWAP2 POP POP JUMP JUMPDEST PUSH1 0x0 PUSH2 0x2844 DUP4 DUP4 PUSH2 0x281A JUMP JUMPDEST SWAP2 POP DUP3 PUSH1 0x2 MUL DUP3 OR SWAP1 POP SWAP3 SWAP2 POP POP JUMP JUMPDEST PUSH2 0x285D DUP3 PUSH2 0x1F41 JUMP JUMPDEST PUSH8 0xFFFFFFFFFFFFFFFF DUP2 GT ISZERO PUSH2 0x2876 JUMPI PUSH2 0x2875 PUSH2 0x1A73 JUMP JUMPDEST JUMPDEST PUSH2 0x2880 DUP3 SLOAD PUSH2 0x2677 JUMP JUMPDEST PUSH2 0x288B DUP3 DUP3 DUP6 PUSH2 0x27C7 JUMP JUMPDEST PUSH1 0x0 PUSH1 0x20 SWAP1 POP PUSH1 0x1F DUP4 GT PUSH1 0x1 DUP2 EQ PUSH2 0x28BE JUMPI PUSH1 0x0 DUP5 ISZERO PUSH2 0x28AC JUMPI DUP3 DUP8 ADD MLOAD SWAP1 POP JUMPDEST PUSH2 0x28B6 DUP6 DUP3 PUSH2 0x2838 JUMP JUMPDEST DUP7 SSTORE POP PUSH2 0x291E JUMP JUMPDEST PUSH1 0x1F NOT DUP5 AND PUSH2 0x28CC DUP7 PUSH2 0x26A8 JUMP JUMPDEST PUSH1 0x0 JUMPDEST DUP3 DUP2 LT ISZERO PUSH2 0x28F4 JUMPI DUP5 DUP10 ADD MLOAD DUP3 SSTORE PUSH1 0x1 DUP3 ADD SWAP2 POP PUSH1 0x20 DUP6 ADD SWAP5 POP PUSH1 0x20 DUP2 ADD SWAP1 POP PUSH2 0x28CF JUMP JUMPDEST DUP7 DUP4 LT ISZERO PUSH2 0x2911 JUMPI DUP5 DUP10 ADD MLOAD PUSH2 0x290D PUSH1 0x1F DUP10 AND DUP3 PUSH2 0x281A JUMP JUMPDEST DUP4 SSTORE POP JUMPDEST PUSH1 0x1 PUSH1 0x2 DUP9 MUL ADD DUP9 SSTORE POP POP POP JUMPDEST POP POP POP POP POP POP JUMP JUMPDEST PUSH1 0x0 PUSH1 0x80 DUP3 ADD SWAP1 POP PUSH2 0x293B PUSH1 0x0 DUP4 ADD DUP8 PUSH2 0x221C JUMP JUMPDEST PUSH2 0x2948 PUSH1 0x20 DUP4 ADD DUP7 PUSH2 0x2238 JUMP JUMPDEST PUSH2 0x2955 PUSH1 0x40 DUP4 ADD DUP6 PUSH2 0x221C JUMP JUMPDEST PUSH2 0x2962 PUSH1 0x60 DUP4 ADD DUP5 PUSH2 0x221C JUMP JUMPDEST SWAP6 SWAP5 POP POP POP POP POP JUMP JUMPDEST PUSH32 0x696E76616C6964207369676E6174757265206C656E6774680000000000000000 PUSH1 0x0 DUP3 ADD MSTORE POP JUMP JUMPDEST PUSH1 0x0 PUSH2 0x29A1 PUSH1 0x18 DUP4 PUSH2 0x1F4C JUMP JUMPDEST SWAP2 POP PUSH2 0x29AC DUP3 PUSH2 0x296B JUMP JUMPDEST PUSH1 0x20 DUP3 ADD SWAP1 POP SWAP2 SWAP1 POP JUMP JUMPDEST PUSH1 0x0 PUSH1 0x20 DUP3 ADD SWAP1 POP DUP2 DUP2 SUB PUSH1 0x0 DUP4 ADD MSTORE PUSH2 0x29D0 DUP2 PUSH2 0x2994 JUMP JUMPDEST SWAP1 POP SWAP2 SWAP1 POP JUMP JUMPDEST PUSH32 0x19457468657265756D205369676E6564204D6573736167653A0A333200000000 PUSH1 0x0 DUP3 ADD MSTORE POP JUMP JUMPDEST PUSH1 0x0 PUSH2 0x2A0D PUSH1 0x1C DUP4 PUSH2 0x22C6 JUMP JUMPDEST SWAP2 POP PUSH2 0x2A18 DUP3 PUSH2 0x29D7 JUMP JUMPDEST PUSH1 0x1C DUP3 ADD SWAP1 POP SWAP2 SWAP1 POP JUMP JUMPDEST PUSH1 0x0 DUP2 SWAP1 POP SWAP2 SWAP1 POP JUMP JUMPDEST PUSH2 0x2A3E PUSH2 0x2A39 DUP3 PUSH2 0x2141 JUMP JUMPDEST PUSH2 0x2A23 JUMP JUMPDEST DUP3 MSTORE POP POP JUMP JUMPDEST PUSH1 0x0 PUSH2 0x2A4F DUP3 PUSH2 0x2A00 JUMP JUMPDEST SWAP2 POP PUSH2 0x2A5B DUP3 DUP5 PUSH2 0x2A2D JUMP JUMPDEST PUSH1 0x20 DUP3 ADD SWAP2 POP DUP2 SWAP1 POP SWAP3 SWAP2 POP POP JUMP JUMPDEST PUSH1 0x0 PUSH2 0x2A76 DUP3 DUP7 PUSH2 0x22D1 JUMP JUMPDEST SWAP2 POP PUSH2 0x2A82 DUP3 DUP6 PUSH2 0x22D1 JUMP JUMPDEST SWAP2 POP PUSH2 0x2A8E DUP3 DUP5 PUSH2 0x22D1 JUMP JUMPDEST SWAP2 POP DUP2 SWAP1 POP SWAP5 SWAP4 POP POP POP POP JUMP JUMPDEST PUSH1 0x0 PUSH2 0x2AA6 DUP3 PUSH2 0x1EC4 JUMP JUMPDEST SWAP2 POP PUSH2 0x2AB1 DUP4 PUSH2 0x1EC4 JUMP JUMPDEST SWAP3 POP DUP3 DUP3 MUL PUSH2 0x2ABF DUP2 PUSH2 0x1EC4 JUMP JUMPDEST SWAP2 POP DUP3 DUP3 DIV DUP5 EQ DUP4 ISZERO OR PUSH2 0x2AD6 JUMPI PUSH2 0x2AD5 PUSH2 0x245F JUMP JUMPDEST JUMPDEST POP SWAP3 SWAP2 POP POP JUMP INVALID LOG2 PUSH5 0x6970667358 0x22 SLT KECCAK256 POP ADD 0x2D DUP6 SUB 0xD2 OR RETURN PUSH3 0x2791EF DUP9 BLOBBASEFEE JUMPDEST 0xE XOR MOD ADDRESS RETURNDATASIZE 0xD6 PUSH16 0x3DFFEC1028DA6F3D445264736F6C6343 STOP ADDMOD XOR STOP CALLER "},"methodIdentifiers":{"calls()":"305f72b7","convert()":"91bbdcc7","evaluate(string,string,string,string,string,string)":"7b009128","evaluate2(string,string,string,string,string,string,bytes)":"009fe9ac","getEthSignedMessageHash(bytes32)":"fa540801","getEvaluationResult(string)":"354fc470","getMessageHash(string)":"b446f3b2","getSender()":"5e01eb5a","publicKey()":"63ffab31","recoverSigner(bytes32,bytes)":"97aba7f9","splitSignature(bytes)":"a7bb5803","verify(address,string,bytes)":"2dd34f0f"}}}}}