{"contracts/SC_20_21_13_28.sol":{"SC_20_21_13_28":{"abi":[{"inputs":[],"stateMutability":"nonpayable","type":"constructor"},{"anonymous":false,"inputs":[{"indexed":false,"internalType":"bool","name":"success","type":"bool"}],"name":"SignUpResult","type":"event"},{"inputs":[],"name":"calls","outputs":[{"internalType":"uint256","name":"","type":"uint256"}],"stateMutability":"view","type":"function"},{"inputs":[{"internalType":"string","name":"datasetID","type":"string"},{"internalType":"string","name":"doctorID","type":"string"},{"internalType":"string","name":"hospitalID","type":"string"},{"internalType":"string","name":"specialization","type":"string"},{"internalType":"string","name":"accessRights","type":"string"},{"internalType":"string","name":"location","type":"string"}],"name":"evaluate","outputs":[],"stateMutability":"nonpayable","type":"function"},{"inputs":[{"internalType":"string","name":"datasetID","type":"string"},{"internalType":"string","name":"doctorID","type":"string"},{"internalType":"string","name":"hospitalID","type":"string"},{"internalType":"string","name":"specialization","type":"string"},{"internalType":"string","name":"accessRights","type":"string"},{"internalType":"string","name":"location","type":"string"},{"internalType":"bytes","name":"signature","type":"bytes"}],"name":"evaluate2","outputs":[],"stateMutability":"nonpayable","type":"function"},{"inputs":[{"internalType":"bytes32","name":"_messageHash","type":"bytes32"}],"name":"getEthSignedMessageHash","outputs":[{"internalType":"bytes32","name":"","type":"bytes32"}],"stateMutability":"pure","type":"function"},{"inputs":[{"internalType":"string","name":"ID","type":"string"}],"name":"getEvaluationResult","outputs":[{"internalType":"string","name":"","type":"string"}],"stateMutability":"view","type":"function"},{"inputs":[{"internalType":"string","name":"_message","type":"string"}],"name":"getMessageHash","outputs":[{"internalType":"bytes32","name":"","type":"bytes32"}],"stateMutability":"pure","type":"function"},{"inputs":[],"name":"getSender","outputs":[{"internalType":"address","name":"","type":"address"}],"stateMutability":"view","type":"function"},{"inputs":[],"name":"publicKey","outputs":[{"internalType":"address","name":"","type":"address"}],"stateMutability":"view","type":"function"},{"inputs":[{"internalType":"bytes32","name":"_ethSignedMessageHash","type":"bytes32"},{"internalType":"bytes","name":"_signature","type":"bytes"}],"name":"recoverSigner","outputs":[{"internalType":"address","name":"","type":"address"}],"stateMutability":"pure","type":"function"},{"inputs":[{"internalType":"bytes","name":"sig","type":"bytes"}],"name":"splitSignature","outputs":[{"internalType":"bytes32","name":"r","type":"bytes32"},{"internalType":"bytes32","name":"s","type":"bytes32"},{"internalType":"uint8","name":"v","type":"uint8"}],"stateMutability":"pure","type":"function"},{"inputs":[{"internalType":"address","name":"_signer","type":"address"},{"internalType":"string","name":"_message","type":"string"},{"internalType":"bytes","name":"signature","type":"bytes"}],"name":"verify","outputs":[{"internalType":"bool","name":"","type":"bool"}],"stateMutability":"pure","type":"function"}],"evm":{"bytecode":{"linkReferences":{},"object":"60806040523480156200001157600080fd5b506001600060405162000024906200066e565b90815260200160405180910390206040516200004090620006d5565b90815260200160405180910390208190555060018060405162000063906200066e565b90815260200160405180910390206040516200007f906200073c565b90815260200160405180910390208190555060016002604051620000a3906200066e565b9081526020016040518091039020604051620000bf90620007a3565b90815260200160405180910390208190555060016003604051620000e390620006d5565b9081526020016040518091039020604051620000ff906200080a565b90815260200160405180910390208190555060016003604051620001239062000871565b90815260200160405180910390206040516200013f90620008d8565b9081526020016040518091039020819055506000600481905550600160056040516200016b906200093f565b90815260200160405180910390206040516200018790620009a6565b9081526020016040518091039020604051620001a39062000a0d565b90815260200160405180910390208190555060016006604051620001c7906200093f565b90815260200160405180910390208190555060016006604051620001eb9062000a74565b908152602001604051809103902081905550600160066040516200020f9062000adb565b90815260200160405180910390208190555060086000815480929190620002369062000b2b565b919050555060096000600181526020019081526020016000206000815480929190620002629062000b2b565b9190505550600a6000600181526020019081526020016000206000600181526020019081526020016000206000815480929190620002a09062000b2b565b919050555060016005604051620002b7906200093f565b9081526020016040518091039020604051620002d39062000bc8565b9081526020016040518091039020604051620002ef906200073c565b90815260200160405180910390208190555060026006604051620003139062000c2f565b90815260200160405180910390208190555060016006604051620003379062000cbc565b90815260200160405180910390208190555060096000600181526020019081526020016000206000815480929190620003709062000b2b565b9190505550600a6000600181526020019081526020016000206000600281526020019081526020016000206000815480929190620003ae9062000b2b565b919050555060016005604051620003c5906200093f565b9081526020016040518091039020604051620003e19062000d23565b9081526020016040518091039020604051620003fd90620007a3565b90815260200160405180910390208190555060036006604051620004219062000d8a565b90815260200160405180910390208190555060016006604051620004459062000e17565b908152602001604051809103902081905550600960006001815260200190815260200160002060008154809291906200047e9062000b2b565b9190505550600a6000600181526020019081526020016000206000600381526020019081526020016000206000815480929190620004bc9062000b2b565b919050555060016005604051620004d39062000e7e565b9081526020016040518091039020604051620004ef9062000ee5565b90815260200160405180910390206040516200050b906200080a565b908152602001604051809103902081905550600260066040516200052f9062000e7e565b90815260200160405180910390208190555060016006604051620005539062000f4c565b90815260200160405180910390208190555060016006604051620005779062000fb3565b908152602001604051809103902081905550600860008154809291906200059e9062000b2b565b919050555060096000600281526020019081526020016000206000815480929190620005ca9062000b2b565b9190505550600a6000600281526020019081526020016000206000600181526020019081526020016000206000815480929190620006089062000b2b565b919050555062000fca565b600081905092915050565b7f646f633132330000000000000000000000000000000000000000000000000000600082015250565b60006200065660068362000613565b915062000663826200061e565b600682019050919050565b60006200067b8262000647565b9150819050919050565b7f686f73706974616c410000000000000000000000000000000000000000000000600082015250565b6000620006bd60098362000613565b9150620006ca8262000685565b600982019050919050565b6000620006e282620006ae565b9150819050919050565b7f43617264696f6c6f677900000000000000000000000000000000000000000000600082015250565b600062000724600a8362000613565b91506200073182620006ec565b600a82019050919050565b6000620007498262000715565b9150819050919050565b7f526561642d577269746500000000000000000000000000000000000000000000600082015250565b60006200078b600a8362000613565b9150620007988262000753565b600a82019050919050565b6000620007b0826200077c565b9150819050919050565b7f436c6f7564000000000000000000000000000000000000000000000000000000600082015250565b6000620007f260058362000613565b9150620007ff82620007ba565b600582019050919050565b60006200081782620007e3565b9150819050919050565b7f686f73706974616c420000000000000000000000000000000000000000000000600082015250565b60006200085960098362000613565b9150620008668262000821565b600982019050919050565b60006200087e826200084a565b9150819050919050565b7f4c6f63616c000000000000000000000000000000000000000000000000000000600082015250565b6000620008c060058362000613565b9150620008cd8262000888565b600582019050919050565b6000620008e582620008b1565b9150819050919050565b7f6163636573732d7375626a656374000000000000000000000000000000000000600082015250565b600062000927600e8362000613565b91506200093482620008ef565b600e82019050919050565b60006200094c8262000918565b9150819050919050565b7f6973417574686f72697a65640000000000000000000000000000000000000000600082015250565b60006200098e600c8362000613565b91506200099b8262000956565b600c82019050919050565b6000620009b3826200097f565b9150819050919050565b7f7472756500000000000000000000000000000000000000000000000000000000600082015250565b6000620009f560048362000613565b915062000a0282620009bd565b600482019050919050565b600062000a1a82620009e6565b9150819050919050565b7f6163636573732d7375626a6563746973417574686f72697a6564000000000000600082015250565b600062000a5c601a8362000613565b915062000a698262000a24565b601a82019050919050565b600062000a818262000a4d565b9150819050919050565b7f6163636573732d7375626a6563746973417574686f72697a6564747275650000600082015250565b600062000ac3601e8362000613565b915062000ad08262000a8b565b601e82019050919050565b600062000ae88262000ab4565b9150819050919050565b7f4e487b7100000000000000000000000000000000000000000000000000000000600052601160045260246000fd5b6000819050919050565b600062000b388262000b21565b91507fffffffffffffffffffffffffffffffffffffffffffffffffffffffffffffffff820362000b6d5762000b6c62000af2565b5b600182019050919050565b7f7370656369616c697a6174696f6e000000000000000000000000000000000000600082015250565b600062000bb0600e8362000613565b915062000bbd8262000b78565b600e82019050919050565b600062000bd58262000ba1565b9150819050919050565b7f6163636573732d7375626a6563747370656369616c697a6174696f6e00000000600082015250565b600062000c17601c8362000613565b915062000c248262000bdf565b601c82019050919050565b600062000c3c8262000c08565b9150819050919050565b7f6163636573732d7375626a6563747370656369616c697a6174696f6e4361726460008201527f696f6c6f67790000000000000000000000000000000000000000000000000000602082015250565b600062000ca460268362000613565b915062000cb18262000c46565b602682019050919050565b600062000cc98262000c95565b9150819050919050565b7f6861734163636573735269676874730000000000000000000000000000000000600082015250565b600062000d0b600f8362000613565b915062000d188262000cd3565b600f82019050919050565b600062000d308262000cfc565b9150819050919050565b7f6163636573732d7375626a656374686173416363657373526967687473000000600082015250565b600062000d72601d8362000613565b915062000d7f8262000d3a565b601d82019050919050565b600062000d978262000d63565b9150819050919050565b7f6163636573732d7375626a65637468617341636365737352696768747352656160008201527f642d577269746500000000000000000000000000000000000000000000000000602082015250565b600062000dff60278362000613565b915062000e0c8262000da1565b602782019050919050565b600062000e248262000df0565b9150819050919050565b7f6461746173657400000000000000000000000000000000000000000000000000600082015250565b600062000e6660078362000613565b915062000e738262000e2e565b600782019050919050565b600062000e8b8262000e57565b9150819050919050565b7f6c6f636174696f6e000000000000000000000000000000000000000000000000600082015250565b600062000ecd60088362000613565b915062000eda8262000e95565b600882019050919050565b600062000ef28262000ebe565b9150819050919050565b7f646174617365746c6f636174696f6e0000000000000000000000000000000000600082015250565b600062000f34600f8362000613565b915062000f418262000efc565b600f82019050919050565b600062000f598262000f25565b9150819050919050565b7f646174617365746c6f636174696f6e436c6f7564000000000000000000000000600082015250565b600062000f9b60148362000613565b915062000fa88262000f63565b601482019050919050565b600062000fc08262000f8c565b9150819050919050565b6125e88062000fda6000396000f3fe608060405234801561001057600080fd5b50600436106100a85760003560e01c806363ffab311161007157806363ffab31146101655780637b0091281461018357806397aba7f91461019f578063a7bb5803146101cf578063b446f3b214610201578063fa54080114610231576100a8565b80629fe9ac146100ad5780632dd34f0f146100c9578063305f72b7146100f9578063354fc470146101175780635e01eb5a14610147575b600080fd5b6100c760048036038101906100c29190611894565b610261565b005b6100e360048036038101906100de9190611a58565b610b0a565b6040516100f09190611afe565b60405180910390f35b610101610b68565b60405161010e9190611b32565b60405180910390f35b610131600480360381019061012c9190611b4d565b610b6e565b60405161013e9190611c15565b60405180910390f35b61014f610c1e565b60405161015c9190611c46565b60405180910390f35b61016d610c26565b60405161017a9190611c46565b60405180910390f35b61019d60048036038101906101989190611c61565b610c3e565b005b6101b960048036038101906101b49190611dcc565b61150b565b6040516101c69190611c46565b60405180910390f35b6101e960048036038101906101e49190611e28565b61157a565b6040516101f893929190611e9c565b60405180910390f35b61021b60048036038101906102169190611b4d565b6115e2565b6040516102289190611ed3565b60405180910390f35b61024b60048036038101906102469190611eee565b611612565b6040516102589190611ed3565b60405180910390f35b610269611671565b6000600115156102b3737264d9fd1a56d865d8b7d96e5251a6efe820b4838a8a8a8960405160200161029e9493929190611fa3565b60405160208183030381529060405286610b0a565b1515146102f5576040517f08c379a00000000000000000000000000000000000000000000000000000000081526004016102ec9061204e565b60405180910390fd5b6001600089604051610307919061206e565b908152602001604051809103902088604051610323919061206e565b90815260200160405180910390205403610452576040518060400160405280600e81526020017f6163636573732d7375626a6563740000000000000000000000000000000000008152508282600c81106103805761037f612085565b5b60200201819052506040518060400160405280600c81526020017f6973417574686f72697a65640000000000000000000000000000000000000000815250826001836103cc91906120e3565b600c81106103dd576103dc612085565b5b60200201819052506040518060400160405280600481526020017f74727565000000000000000000000000000000000000000000000000000000008152508260028361042991906120e3565b600c811061043a57610439612085565b5b602002018190525060038161044f91906120e3565b90505b60018089604051610463919061206e565b90815260200160405180910390208760405161047f919061206e565b90815260200160405180910390205403610579576040518060400160405280600e81526020017f6163636573732d7375626a6563740000000000000000000000000000000000008152508282600c81106104dc576104db612085565b5b60200201819052506040518060400160405280600e81526020017f7370656369616c697a6174696f6e0000000000000000000000000000000000008152508260018361052891906120e3565b600c811061053957610538612085565b5b6020020181905250858260028361055091906120e3565b600c811061056157610560612085565b5b602002018190525060038161057691906120e3565b90505b600160028960405161058b919061206e565b9081526020016040518091039020866040516105a7919061206e565b908152602001604051809103902054036106a1576040518060400160405280600e81526020017f6163636573732d7375626a6563740000000000000000000000000000000000008152508282600c811061060457610603612085565b5b60200201819052506040518060400160405280600f81526020017f68617341636365737352696768747300000000000000000000000000000000008152508260018361065091906120e3565b600c811061066157610660612085565b5b6020020181905250848260028361067891906120e3565b600c811061068957610688612085565b5b602002018190525060038161069e91906120e3565b90505b60016003886040516106b3919061206e565b9081526020016040518091039020856040516106cf919061206e565b908152602001604051809103902054036107c9576040518060400160405280600781526020017f64617461736574000000000000000000000000000000000000000000000000008152508282600c811061072c5761072b612085565b5b60200201819052506040518060400160405280600881526020017f6c6f636174696f6e0000000000000000000000000000000000000000000000008152508260018361077891906120e3565b600c811061078957610788612085565b5b602002018190525083826002836107a091906120e3565b600c81106107b1576107b0612085565b5b60200201819052506003816107c691906120e3565b90505b60005b818110156109815760008382600c81106107e9576107e8612085565b5b6020020151905060008460018461080091906120e3565b600c811061081157610810612085565b5b6020020151905060008560028561082891906120e3565b600c811061083957610838612085565b5b602002015190506001600d8e604051610852919061206e565b90815260200160405180910390208460405161086e919061206e565b90815260200160405180910390208360405161088a919061206e565b9081526020016040518091039020540361096a576001600760006006866040516108b4919061206e565b9081526020016040518091039020548152602001908152602001600020600060066108ef878760405180602001604052806000815250611642565b6040516108fc919061206e565b908152602001604051809103902054815260200190815260200160002060006006610928878787611642565b604051610935919061206e565b908152602001604051809103902054815260200190815260200160002060006101000a81548160ff0219169083151502179055505b50505060038161097a91906120e3565b90506107cc565b506000600190506000600190505b6008548111610ac6576000600190505b60096000838152602001908152602001600020548111610ab2576000600190505b600a60008481526020019081526020016000206000838152602001908152602001600020548111610a9e57600760008481526020019081526020016000206000838152602001908152602001600020600082815260200190815260200160002060009054906101000a900460ff1615610a86576000600760008581526020019081526020016000206000848152602001908152602001600020600083815260200190815260200160002060006101000a81548160ff021916908315150217905550610a8b565b600093505b8080610a9690612117565b9150506109c0565b508080610aaa90612117565b91505061099f565b508080610abe90612117565b91505061098f565b507f05cd542ccd54cabc7cea4b1abd891216618e038cac6f207ce46adfcbf2e6550a81604051610af69190611afe565b60405180910390a150505050505050505050565b600080610b16846115e2565b90506000610b2382611612565b90508573ffffffffffffffffffffffffffffffffffffffff16610b46828661150b565b73ffffffffffffffffffffffffffffffffffffffff1614925050509392505050565b60045481565b6060600c82604051610b80919061206e565b90815260200160405180910390208054610b999061218e565b80601f0160208091040260200160405190810160405280929190818152602001828054610bc59061218e565b8015610c125780601f10610be757610100808354040283529160200191610c12565b820191906000526020600020905b815481529060010190602001808311610bf557829003601f168201915b50505050509050919050565b600033905090565b737264d9fd1a56d865d8b7d96e5251a6efe820b48381565b610c46611671565b60006001600088604051610c5a919061206e565b908152602001604051809103902087604051610c76919061206e565b90815260200160405180910390205403610da5576040518060400160405280600e81526020017f6163636573732d7375626a6563740000000000000000000000000000000000008152508282600c8110610cd357610cd2612085565b5b60200201819052506040518060400160405280600c81526020017f6973417574686f72697a6564000000000000000000000000000000000000000081525082600183610d1f91906120e3565b600c8110610d3057610d2f612085565b5b60200201819052506040518060400160405280600481526020017f747275650000000000000000000000000000000000000000000000000000000081525082600283610d7c91906120e3565b600c8110610d8d57610d8c612085565b5b6020020181905250600381610da291906120e3565b90505b60018088604051610db6919061206e565b908152602001604051809103902086604051610dd2919061206e565b90815260200160405180910390205403610ecc576040518060400160405280600e81526020017f6163636573732d7375626a6563740000000000000000000000000000000000008152508282600c8110610e2f57610e2e612085565b5b60200201819052506040518060400160405280600e81526020017f7370656369616c697a6174696f6e00000000000000000000000000000000000081525082600183610e7b91906120e3565b600c8110610e8c57610e8b612085565b5b60200201819052508482600283610ea391906120e3565b600c8110610eb457610eb3612085565b5b6020020181905250600381610ec991906120e3565b90505b6001600288604051610ede919061206e565b908152602001604051809103902085604051610efa919061206e565b90815260200160405180910390205403610ff4576040518060400160405280600e81526020017f6163636573732d7375626a6563740000000000000000000000000000000000008152508282600c8110610f5757610f56612085565b5b60200201819052506040518060400160405280600f81526020017f686173416363657373526967687473000000000000000000000000000000000081525082600183610fa391906120e3565b600c8110610fb457610fb3612085565b5b60200201819052508382600283610fcb91906120e3565b600c8110610fdc57610fdb612085565b5b6020020181905250600381610ff191906120e3565b90505b6001600387604051611006919061206e565b908152602001604051809103902084604051611022919061206e565b9081526020016040518091039020540361111c576040518060400160405280600781526020017f64617461736574000000000000000000000000000000000000000000000000008152508282600c811061107f5761107e612085565b5b60200201819052506040518060400160405280600881526020017f6c6f636174696f6e000000000000000000000000000000000000000000000000815250826001836110cb91906120e3565b600c81106110dc576110db612085565b5b602002018190525082826002836110f391906120e3565b600c811061110457611103612085565b5b602002018190525060038161111991906120e3565b90505b60005b818110156112d45760008382600c811061113c5761113b612085565b5b6020020151905060008460018461115391906120e3565b600c811061116457611163612085565b5b6020020151905060008560028561117b91906120e3565b600c811061118c5761118b612085565b5b602002015190506001600d8d6040516111a5919061206e565b9081526020016040518091039020846040516111c1919061206e565b9081526020016040518091039020836040516111dd919061206e565b908152602001604051809103902054036112bd57600160076000600686604051611207919061206e565b908152602001604051809103902054815260200190815260200160002060006006611242878760405180602001604052806000815250611642565b60405161124f919061206e565b90815260200160405180910390205481526020019081526020016000206000600661127b878787611642565b604051611288919061206e565b908152602001604051809103902054815260200190815260200160002060006101000a81548160ff0219169083151502179055505b5050506003816112cd91906120e3565b905061111f565b506000600190506000600190505b6008548111611419576000600190505b60096000838152602001908152602001600020548111611405576000600190505b600a600084815260200190815260200160002060008381526020019081526020016000205481116113f157600760008481526020019081526020016000206000838152602001908152602001600020600082815260200190815260200160002060009054906101000a900460ff16156113d9576000600760008581526020019081526020016000206000848152602001908152602001600020600083815260200190815260200160002060006101000a81548160ff0219169083151502179055506113de565b600093505b80806113e990612117565b915050611313565b5080806113fd90612117565b9150506112f2565b50808061141190612117565b9150506112e2565b508015611486576040518060400160405280600681526020017f5065726d69740000000000000000000000000000000000000000000000000000815250600c8a604051611466919061206e565b90815260200160405180910390209081611480919061236b565b506114e8565b6040518060400160405280600481526020017f44656e7900000000000000000000000000000000000000000000000000000000815250600c8a6040516114cc919061206e565b908152602001604051809103902090816114e6919061236b565b505b600460008154809291906114fb90612117565b9190505550505050505050505050565b60008060008061151a8561157a565b92509250925060018682858560405160008152602001604052604051611543949392919061243d565b6020604051602081039080840390855afa158015611565573d6000803e3d6000fd5b50505060206040510351935050505092915050565b600080600060418451146115c3576040517f08c379a00000000000000000000000000000000000000000000000000000000081526004016115ba906124ce565b60405180910390fd5b6020840151925060408401519150606084015160001a90509193909250565b6000816040516020016115f5919061206e565b604051602081830303815290604052805190602001209050919050565b600081604051602001611625919061255b565b604051602081830303815290604052805190602001209050919050565b606083838360405160200161165993929190612581565b60405160208183030381529060405290509392505050565b604051806101800160405280600c905b60608152602001906001900390816116815790505090565b6000604051905090565b600080fd5b600080fd5b600080fd5b600080fd5b6000601f19601f8301169050919050565b7f4e487b7100000000000000000000000000000000000000000000000000000000600052604160045260246000fd5b611700826116b7565b810181811067ffffffffffffffff8211171561171f5761171e6116c8565b5b80604052505050565b6000611732611699565b905061173e82826116f7565b919050565b600067ffffffffffffffff82111561175e5761175d6116c8565b5b611767826116b7565b9050602081019050919050565b82818337600083830152505050565b600061179661179184611743565b611728565b9050828152602081018484840111156117b2576117b16116b2565b5b6117bd848285611774565b509392505050565b600082601f8301126117da576117d96116ad565b5b81356117ea848260208601611783565b91505092915050565b600067ffffffffffffffff82111561180e5761180d6116c8565b5b611817826116b7565b9050602081019050919050565b6000611837611832846117f3565b611728565b905082815260208101848484011115611853576118526116b2565b5b61185e848285611774565b509392505050565b600082601f83011261187b5761187a6116ad565b5b813561188b848260208601611824565b91505092915050565b600080600080600080600060e0888a0312156118b3576118b26116a3565b5b600088013567ffffffffffffffff8111156118d1576118d06116a8565b5b6118dd8a828b016117c5565b975050602088013567ffffffffffffffff8111156118fe576118fd6116a8565b5b61190a8a828b016117c5565b965050604088013567ffffffffffffffff81111561192b5761192a6116a8565b5b6119378a828b016117c5565b955050606088013567ffffffffffffffff811115611958576119576116a8565b5b6119648a828b016117c5565b945050608088013567ffffffffffffffff811115611985576119846116a8565b5b6119918a828b016117c5565b93505060a088013567ffffffffffffffff8111156119b2576119b16116a8565b5b6119be8a828b016117c5565b92505060c088013567ffffffffffffffff8111156119df576119de6116a8565b5b6119eb8a828b01611866565b91505092959891949750929550565b600073ffffffffffffffffffffffffffffffffffffffff82169050919050565b6000611a25826119fa565b9050919050565b611a3581611a1a565b8114611a4057600080fd5b50565b600081359050611a5281611a2c565b92915050565b600080600060608486031215611a7157611a706116a3565b5b6000611a7f86828701611a43565b935050602084013567ffffffffffffffff811115611aa057611a9f6116a8565b5b611aac868287016117c5565b925050604084013567ffffffffffffffff811115611acd57611acc6116a8565b5b611ad986828701611866565b9150509250925092565b60008115159050919050565b611af881611ae3565b82525050565b6000602082019050611b136000830184611aef565b92915050565b6000819050919050565b611b2c81611b19565b82525050565b6000602082019050611b476000830184611b23565b92915050565b600060208284031215611b6357611b626116a3565b5b600082013567ffffffffffffffff811115611b8157611b806116a8565b5b611b8d848285016117c5565b91505092915050565b600081519050919050565b600082825260208201905092915050565b60005b83811015611bd0578082015181840152602081019050611bb5565b60008484015250505050565b6000611be782611b96565b611bf18185611ba1565b9350611c01818560208601611bb2565b611c0a816116b7565b840191505092915050565b60006020820190508181036000830152611c2f8184611bdc565b905092915050565b611c4081611a1a565b82525050565b6000602082019050611c5b6000830184611c37565b92915050565b60008060008060008060c08789031215611c7e57611c7d6116a3565b5b600087013567ffffffffffffffff811115611c9c57611c9b6116a8565b5b611ca889828a016117c5565b965050602087013567ffffffffffffffff811115611cc957611cc86116a8565b5b611cd589828a016117c5565b955050604087013567ffffffffffffffff811115611cf657611cf56116a8565b5b611d0289828a016117c5565b945050606087013567ffffffffffffffff811115611d2357611d226116a8565b5b611d2f89828a016117c5565b935050608087013567ffffffffffffffff811115611d5057611d4f6116a8565b5b611d5c89828a016117c5565b92505060a087013567ffffffffffffffff811115611d7d57611d7c6116a8565b5b611d8989828a016117c5565b9150509295509295509295565b6000819050919050565b611da981611d96565b8114611db457600080fd5b50565b600081359050611dc681611da0565b92915050565b60008060408385031215611de357611de26116a3565b5b6000611df185828601611db7565b925050602083013567ffffffffffffffff811115611e1257611e116116a8565b5b611e1e85828601611866565b9150509250929050565b600060208284031215611e3e57611e3d6116a3565b5b600082013567ffffffffffffffff811115611e5c57611e5b6116a8565b5b611e6884828501611866565b91505092915050565b611e7a81611d96565b82525050565b600060ff82169050919050565b611e9681611e80565b82525050565b6000606082019050611eb16000830186611e71565b611ebe6020830185611e71565b611ecb6040830184611e8d565b949350505050565b6000602082019050611ee86000830184611e71565b92915050565b600060208284031215611f0457611f036116a3565b5b6000611f1284828501611db7565b91505092915050565b600081905092915050565b6000611f3182611b96565b611f3b8185611f1b565b9350611f4b818560208601611bb2565b80840191505092915050565b7f2c00000000000000000000000000000000000000000000000000000000000000600082015250565b6000611f8d600183611f1b565b9150611f9882611f57565b600182019050919050565b6000611faf8287611f26565b9150611fba82611f80565b9150611fc68286611f26565b9150611fd182611f80565b9150611fdd8285611f26565b9150611fe882611f80565b9150611ff48284611f26565b915081905095945050505050565b7f496e76616c6964207369676e6174757265000000000000000000000000000000600082015250565b6000612038601183611ba1565b915061204382612002565b602082019050919050565b600060208201905081810360008301526120678161202b565b9050919050565b600061207a8284611f26565b915081905092915050565b7f4e487b7100000000000000000000000000000000000000000000000000000000600052603260045260246000fd5b7f4e487b7100000000000000000000000000000000000000000000000000000000600052601160045260246000fd5b60006120ee82611b19565b91506120f983611b19565b9250828201905080821115612111576121106120b4565b5b92915050565b600061212282611b19565b91507fffffffffffffffffffffffffffffffffffffffffffffffffffffffffffffffff8203612154576121536120b4565b5b600182019050919050565b7f4e487b7100000000000000000000000000000000000000000000000000000000600052602260045260246000fd5b600060028204905060018216806121a657607f821691505b6020821081036121b9576121b861215f565b5b50919050565b60008190508160005260206000209050919050565b60006020601f8301049050919050565b600082821b905092915050565b6000600883026122217fffffffffffffffffffffffffffffffffffffffffffffffffffffffffffffffff826121e4565b61222b86836121e4565b95508019841693508086168417925050509392505050565b6000819050919050565b600061226861226361225e84611b19565b612243565b611b19565b9050919050565b6000819050919050565b6122828361224d565b61229661228e8261226f565b8484546121f1565b825550505050565b600090565b6122ab61229e565b6122b6818484612279565b505050565b5b818110156122da576122cf6000826122a3565b6001810190506122bc565b5050565b601f82111561231f576122f0816121bf565b6122f9846121d4565b81016020851015612308578190505b61231c612314856121d4565b8301826122bb565b50505b505050565b600082821c905092915050565b600061234260001984600802612324565b1980831691505092915050565b600061235b8383612331565b9150826002028217905092915050565b61237482611b96565b67ffffffffffffffff81111561238d5761238c6116c8565b5b612397825461218e565b6123a28282856122de565b600060209050601f8311600181146123d557600084156123c3578287015190505b6123cd858261234f565b865550612435565b601f1984166123e3866121bf565b60005b8281101561240b578489015182556001820191506020850194506020810190506123e6565b868310156124285784890151612424601f891682612331565b8355505b6001600288020188555050505b505050505050565b60006080820190506124526000830187611e71565b61245f6020830186611e8d565b61246c6040830185611e71565b6124796060830184611e71565b95945050505050565b7f696e76616c6964207369676e6174757265206c656e6774680000000000000000600082015250565b60006124b8601883611ba1565b91506124c382612482565b602082019050919050565b600060208201905081810360008301526124e7816124ab565b9050919050565b7f19457468657265756d205369676e6564204d6573736167653a0a333200000000600082015250565b6000612524601c83611f1b565b915061252f826124ee565b601c82019050919050565b6000819050919050565b61255561255082611d96565b61253a565b82525050565b600061256682612517565b91506125728284612544565b60208201915081905092915050565b600061258d8286611f26565b91506125998285611f26565b91506125a58284611f26565b915081905094935050505056fea264697066735822122036089e3bfd1e40a834d79e1a742b0a5bc060ba0f988e5a9da3784f6e1ccba2b664736f6c63430008180033","opcodes":"PUSH1 0x80 PUSH1 0x40 MSTORE CALLVALUE DUP1 ISZERO PUSH3 0x11 JUMPI PUSH1 0x0 DUP1 REVERT JUMPDEST POP PUSH1 0x1 PUSH1 0x0 PUSH1 0x40 MLOAD PUSH3 0x24 SWAP1 PUSH3 0x66E JUMP JUMPDEST SWAP1 DUP2 MSTORE PUSH1 0x20 ADD PUSH1 0x40 MLOAD DUP1 SWAP2 SUB SWAP1 KECCAK256 PUSH1 0x40 MLOAD PUSH3 0x40 SWAP1 PUSH3 0x6D5 JUMP JUMPDEST SWAP1 DUP2 MSTORE PUSH1 0x20 ADD PUSH1 0x40 MLOAD DUP1 SWAP2 SUB SWAP1 KECCAK256 DUP2 SWAP1 SSTORE POP PUSH1 0x1 DUP1 PUSH1 0x40 MLOAD PUSH3 0x63 SWAP1 PUSH3 0x66E JUMP JUMPDEST SWAP1 DUP2 MSTORE PUSH1 0x20 ADD PUSH1 0x40 MLOAD DUP1 SWAP2 SUB SWAP1 KECCAK256 PUSH1 0x40 MLOAD PUSH3 0x7F SWAP1 PUSH3 0x73C JUMP JUMPDEST SWAP1 DUP2 MSTORE PUSH1 0x20 ADD PUSH1 0x40 MLOAD DUP1 SWAP2 SUB SWAP1 KECCAK256 DUP2 SWAP1 SSTORE POP PUSH1 0x1 PUSH1 0x2 PUSH1 0x40 MLOAD PUSH3 0xA3 SWAP1 PUSH3 0x66E JUMP JUMPDEST SWAP1 DUP2 MSTORE PUSH1 0x20 ADD PUSH1 0x40 MLOAD DUP1 SWAP2 SUB SWAP1 KECCAK256 PUSH1 0x40 MLOAD PUSH3 0xBF SWAP1 PUSH3 0x7A3 JUMP JUMPDEST SWAP1 DUP2 MSTORE PUSH1 0x20 ADD PUSH1 0x40 MLOAD DUP1 SWAP2 SUB SWAP1 KECCAK256 DUP2 SWAP1 SSTORE POP PUSH1 0x1 PUSH1 0x3 PUSH1 0x40 MLOAD PUSH3 0xE3 SWAP1 PUSH3 0x6D5 JUMP JUMPDEST SWAP1 DUP2 MSTORE PUSH1 0x20 ADD PUSH1 0x40 MLOAD DUP1 SWAP2 SUB SWAP1 KECCAK256 PUSH1 0x40 MLOAD PUSH3 0xFF SWAP1 PUSH3 0x80A JUMP JUMPDEST SWAP1 DUP2 MSTORE PUSH1 0x20 ADD PUSH1 0x40 MLOAD DUP1 SWAP2 SUB SWAP1 KECCAK256 DUP2 SWAP1 SSTORE POP PUSH1 0x1 PUSH1 0x3 PUSH1 0x40 MLOAD PUSH3 0x123 SWAP1 PUSH3 0x871 JUMP JUMPDEST SWAP1 DUP2 MSTORE PUSH1 0x20 ADD PUSH1 0x40 MLOAD DUP1 SWAP2 SUB SWAP1 KECCAK256 PUSH1 0x40 MLOAD PUSH3 0x13F SWAP1 PUSH3 0x8D8 JUMP JUMPDEST SWAP1 DUP2 MSTORE PUSH1 0x20 ADD PUSH1 0x40 MLOAD DUP1 SWAP2 SUB SWAP1 KECCAK256 DUP2 SWAP1 SSTORE POP PUSH1 0x0 PUSH1 0x4 DUP2 SWAP1 SSTORE POP PUSH1 0x1 PUSH1 0x5 PUSH1 0x40 MLOAD PUSH3 0x16B SWAP1 PUSH3 0x93F JUMP JUMPDEST SWAP1 DUP2 MSTORE PUSH1 0x20 ADD PUSH1 0x40 MLOAD DUP1 SWAP2 SUB SWAP1 KECCAK256 PUSH1 0x40 MLOAD PUSH3 0x187 SWAP1 PUSH3 0x9A6 JUMP JUMPDEST SWAP1 DUP2 MSTORE PUSH1 0x20 ADD PUSH1 0x40 MLOAD DUP1 SWAP2 SUB SWAP1 KECCAK256 PUSH1 0x40 MLOAD PUSH3 0x1A3 SWAP1 PUSH3 0xA0D JUMP JUMPDEST SWAP1 DUP2 MSTORE PUSH1 0x20 ADD PUSH1 0x40 MLOAD DUP1 SWAP2 SUB SWAP1 KECCAK256 DUP2 SWAP1 SSTORE POP PUSH1 0x1 PUSH1 0x6 PUSH1 0x40 MLOAD PUSH3 0x1C7 SWAP1 PUSH3 0x93F JUMP JUMPDEST SWAP1 DUP2 MSTORE PUSH1 0x20 ADD PUSH1 0x40 MLOAD DUP1 SWAP2 SUB SWAP1 KECCAK256 DUP2 SWAP1 SSTORE POP PUSH1 0x1 PUSH1 0x6 PUSH1 0x40 MLOAD PUSH3 0x1EB SWAP1 PUSH3 0xA74 JUMP JUMPDEST SWAP1 DUP2 MSTORE PUSH1 0x20 ADD PUSH1 0x40 MLOAD DUP1 SWAP2 SUB SWAP1 KECCAK256 DUP2 SWAP1 SSTORE POP PUSH1 0x1 PUSH1 0x6 PUSH1 0x40 MLOAD PUSH3 0x20F SWAP1 PUSH3 0xADB JUMP JUMPDEST SWAP1 DUP2 MSTORE PUSH1 0x20 ADD PUSH1 0x40 MLOAD DUP1 SWAP2 SUB SWAP1 KECCAK256 DUP2 SWAP1 SSTORE POP PUSH1 0x8 PUSH1 0x0 DUP2 SLOAD DUP1 SWAP3 SWAP2 SWAP1 PUSH3 0x236 SWAP1 PUSH3 0xB2B JUMP JUMPDEST SWAP2 SWAP1 POP SSTORE POP PUSH1 0x9 PUSH1 0x0 PUSH1 0x1 DUP2 MSTORE PUSH1 0x20 ADD SWAP1 DUP2 MSTORE PUSH1 0x20 ADD PUSH1 0x0 KECCAK256 PUSH1 0x0 DUP2 SLOAD DUP1 SWAP3 SWAP2 SWAP1 PUSH3 0x262 SWAP1 PUSH3 0xB2B JUMP JUMPDEST SWAP2 SWAP1 POP SSTORE POP PUSH1 0xA PUSH1 0x0 PUSH1 0x1 DUP2 MSTORE PUSH1 0x20 ADD SWAP1 DUP2 MSTORE PUSH1 0x20 ADD PUSH1 0x0 KECCAK256 PUSH1 0x0 PUSH1 0x1 DUP2 MSTORE PUSH1 0x20 ADD SWAP1 DUP2 MSTORE PUSH1 0x20 ADD PUSH1 0x0 KECCAK256 PUSH1 0x0 DUP2 SLOAD DUP1 SWAP3 SWAP2 SWAP1 PUSH3 0x2A0 SWAP1 PUSH3 0xB2B JUMP JUMPDEST SWAP2 SWAP1 POP SSTORE POP PUSH1 0x1 PUSH1 0x5 PUSH1 0x40 MLOAD PUSH3 0x2B7 SWAP1 PUSH3 0x93F JUMP JUMPDEST SWAP1 DUP2 MSTORE PUSH1 0x20 ADD PUSH1 0x40 MLOAD DUP1 SWAP2 SUB SWAP1 KECCAK256 PUSH1 0x40 MLOAD PUSH3 0x2D3 SWAP1 PUSH3 0xBC8 JUMP JUMPDEST SWAP1 DUP2 MSTORE PUSH1 0x20 ADD PUSH1 0x40 MLOAD DUP1 SWAP2 SUB SWAP1 KECCAK256 PUSH1 0x40 MLOAD PUSH3 0x2EF SWAP1 PUSH3 0x73C JUMP JUMPDEST SWAP1 DUP2 MSTORE PUSH1 0x20 ADD PUSH1 0x40 MLOAD DUP1 SWAP2 SUB SWAP1 KECCAK256 DUP2 SWAP1 SSTORE POP PUSH1 0x2 PUSH1 0x6 PUSH1 0x40 MLOAD PUSH3 0x313 SWAP1 PUSH3 0xC2F JUMP JUMPDEST SWAP1 DUP2 MSTORE PUSH1 0x20 ADD PUSH1 0x40 MLOAD DUP1 SWAP2 SUB SWAP1 KECCAK256 DUP2 SWAP1 SSTORE POP PUSH1 0x1 PUSH1 0x6 PUSH1 0x40 MLOAD PUSH3 0x337 SWAP1 PUSH3 0xCBC JUMP JUMPDEST SWAP1 DUP2 MSTORE PUSH1 0x20 ADD PUSH1 0x40 MLOAD DUP1 SWAP2 SUB SWAP1 KECCAK256 DUP2 SWAP1 SSTORE POP PUSH1 0x9 PUSH1 0x0 PUSH1 0x1 DUP2 MSTORE PUSH1 0x20 ADD SWAP1 DUP2 MSTORE PUSH1 0x20 ADD PUSH1 0x0 KECCAK256 PUSH1 0x0 DUP2 SLOAD DUP1 SWAP3 SWAP2 SWAP1 PUSH3 0x370 SWAP1 PUSH3 0xB2B JUMP JUMPDEST SWAP2 SWAP1 POP SSTORE POP PUSH1 0xA PUSH1 0x0 PUSH1 0x1 DUP2 MSTORE PUSH1 0x20 ADD SWAP1 DUP2 MSTORE PUSH1 0x20 ADD PUSH1 0x0 KECCAK256 PUSH1 0x0 PUSH1 0x2 DUP2 MSTORE PUSH1 0x20 ADD SWAP1 DUP2 MSTORE PUSH1 0x20 ADD PUSH1 0x0 KECCAK256 PUSH1 0x0 DUP2 SLOAD DUP1 SWAP3 SWAP2 SWAP1 PUSH3 0x3AE SWAP1 PUSH3 0xB2B JUMP JUMPDEST SWAP2 SWAP1 POP SSTORE POP PUSH1 0x1 PUSH1 0x5 PUSH1 0x40 MLOAD PUSH3 0x3C5 SWAP1 PUSH3 0x93F JUMP JUMPDEST SWAP1 DUP2 MSTORE PUSH1 0x20 ADD PUSH1 0x40 MLOAD DUP1 SWAP2 SUB SWAP1 KECCAK256 PUSH1 0x40 MLOAD PUSH3 0x3E1 SWAP1 PUSH3 0xD23 JUMP JUMPDEST SWAP1 DUP2 MSTORE PUSH1 0x20 ADD PUSH1 0x40 MLOAD DUP1 SWAP2 SUB SWAP1 KECCAK256 PUSH1 0x40 MLOAD PUSH3 0x3FD SWAP1 PUSH3 0x7A3 JUMP JUMPDEST SWAP1 DUP2 MSTORE PUSH1 0x20 ADD PUSH1 0x40 MLOAD DUP1 SWAP2 SUB SWAP1 KECCAK256 DUP2 SWAP1 SSTORE POP PUSH1 0x3 PUSH1 0x6 PUSH1 0x40 MLOAD PUSH3 0x421 SWAP1 PUSH3 0xD8A JUMP JUMPDEST SWAP1 DUP2 MSTORE PUSH1 0x20 ADD PUSH1 0x40 MLOAD DUP1 SWAP2 SUB SWAP1 KECCAK256 DUP2 SWAP1 SSTORE POP PUSH1 0x1 PUSH1 0x6 PUSH1 0x40 MLOAD PUSH3 0x445 SWAP1 PUSH3 0xE17 JUMP JUMPDEST SWAP1 DUP2 MSTORE PUSH1 0x20 ADD PUSH1 0x40 MLOAD DUP1 SWAP2 SUB SWAP1 KECCAK256 DUP2 SWAP1 SSTORE POP PUSH1 0x9 PUSH1 0x0 PUSH1 0x1 DUP2 MSTORE PUSH1 0x20 ADD SWAP1 DUP2 MSTORE PUSH1 0x20 ADD PUSH1 0x0 KECCAK256 PUSH1 0x0 DUP2 SLOAD DUP1 SWAP3 SWAP2 SWAP1 PUSH3 0x47E SWAP1 PUSH3 0xB2B JUMP JUMPDEST SWAP2 SWAP1 POP SSTORE POP PUSH1 0xA PUSH1 0x0 PUSH1 0x1 DUP2 MSTORE PUSH1 0x20 ADD SWAP1 DUP2 MSTORE PUSH1 0x20 ADD PUSH1 0x0 KECCAK256 PUSH1 0x0 PUSH1 0x3 DUP2 MSTORE PUSH1 0x20 ADD SWAP1 DUP2 MSTORE PUSH1 0x20 ADD PUSH1 0x0 KECCAK256 PUSH1 0x0 DUP2 SLOAD DUP1 SWAP3 SWAP2 SWAP1 PUSH3 0x4BC SWAP1 PUSH3 0xB2B JUMP JUMPDEST SWAP2 SWAP1 POP SSTORE POP PUSH1 0x1 PUSH1 0x5 PUSH1 0x40 MLOAD PUSH3 0x4D3 SWAP1 PUSH3 0xE7E JUMP JUMPDEST SWAP1 DUP2 MSTORE PUSH1 0x20 ADD PUSH1 0x40 MLOAD DUP1 SWAP2 SUB SWAP1 KECCAK256 PUSH1 0x40 MLOAD PUSH3 0x4EF SWAP1 PUSH3 0xEE5 JUMP JUMPDEST SWAP1 DUP2 MSTORE PUSH1 0x20 ADD PUSH1 0x40 MLOAD DUP1 SWAP2 SUB SWAP1 KECCAK256 PUSH1 0x40 MLOAD PUSH3 0x50B SWAP1 PUSH3 0x80A JUMP JUMPDEST SWAP1 DUP2 MSTORE PUSH1 0x20 ADD PUSH1 0x40 MLOAD DUP1 SWAP2 SUB SWAP1 KECCAK256 DUP2 SWAP1 SSTORE POP PUSH1 0x2 PUSH1 0x6 PUSH1 0x40 MLOAD PUSH3 0x52F SWAP1 PUSH3 0xE7E JUMP JUMPDEST SWAP1 DUP2 MSTORE PUSH1 0x20 ADD PUSH1 0x40 MLOAD DUP1 SWAP2 SUB SWAP1 KECCAK256 DUP2 SWAP1 SSTORE POP PUSH1 0x1 PUSH1 0x6 PUSH1 0x40 MLOAD PUSH3 0x553 SWAP1 PUSH3 0xF4C JUMP JUMPDEST SWAP1 DUP2 MSTORE PUSH1 0x20 ADD PUSH1 0x40 MLOAD DUP1 SWAP2 SUB SWAP1 KECCAK256 DUP2 SWAP1 SSTORE POP PUSH1 0x1 PUSH1 0x6 PUSH1 0x40 MLOAD PUSH3 0x577 SWAP1 PUSH3 0xFB3 JUMP JUMPDEST SWAP1 DUP2 MSTORE PUSH1 0x20 ADD PUSH1 0x40 MLOAD DUP1 SWAP2 SUB SWAP1 KECCAK256 DUP2 SWAP1 SSTORE POP PUSH1 0x8 PUSH1 0x0 DUP2 SLOAD DUP1 SWAP3 SWAP2 SWAP1 PUSH3 0x59E SWAP1 PUSH3 0xB2B JUMP JUMPDEST SWAP2 SWAP1 POP SSTORE POP PUSH1 0x9 PUSH1 0x0 PUSH1 0x2 DUP2 MSTORE PUSH1 0x20 ADD SWAP1 DUP2 MSTORE PUSH1 0x20 ADD PUSH1 0x0 KECCAK256 PUSH1 0x0 DUP2 SLOAD DUP1 SWAP3 SWAP2 SWAP1 PUSH3 0x5CA SWAP1 PUSH3 0xB2B JUMP JUMPDEST SWAP2 SWAP1 POP SSTORE POP PUSH1 0xA PUSH1 0x0 PUSH1 0x2 DUP2 MSTORE PUSH1 0x20 ADD SWAP1 DUP2 MSTORE PUSH1 0x20 ADD PUSH1 0x0 KECCAK256 PUSH1 0x0 PUSH1 0x1 DUP2 MSTORE PUSH1 0x20 ADD SWAP1 DUP2 MSTORE PUSH1 0x20 ADD PUSH1 0x0 KECCAK256 PUSH1 0x0 DUP2 SLOAD DUP1 SWAP3 SWAP2 SWAP1 PUSH3 0x608 SWAP1 PUSH3 0xB2B JUMP JUMPDEST SWAP2 SWAP1 POP SSTORE POP PUSH3 0xFCA JUMP JUMPDEST PUSH1 0x0 DUP2 SWAP1 POP SWAP3 SWAP2 POP POP JUMP JUMPDEST PUSH32 0x646F633132330000000000000000000000000000000000000000000000000000 PUSH1 0x0 DUP3 ADD MSTORE POP JUMP JUMPDEST PUSH1 0x0 PUSH3 0x656 PUSH1 0x6 DUP4 PUSH3 0x613 JUMP JUMPDEST SWAP2 POP PUSH3 0x663 DUP3 PUSH3 0x61E JUMP JUMPDEST PUSH1 0x6 DUP3 ADD SWAP1 POP SWAP2 SWAP1 POP JUMP JUMPDEST PUSH1 0x0 PUSH3 0x67B DUP3 PUSH3 0x647 JUMP JUMPDEST SWAP2 POP DUP2 SWAP1 POP SWAP2 SWAP1 POP JUMP JUMPDEST PUSH32 0x686F73706974616C410000000000000000000000000000000000000000000000 PUSH1 0x0 DUP3 ADD MSTORE POP JUMP JUMPDEST PUSH1 0x0 PUSH3 0x6BD PUSH1 0x9 DUP4 PUSH3 0x613 JUMP JUMPDEST SWAP2 POP PUSH3 0x6CA DUP3 PUSH3 0x685 JUMP JUMPDEST PUSH1 0x9 DUP3 ADD SWAP1 POP SWAP2 SWAP1 POP JUMP JUMPDEST PUSH1 0x0 PUSH3 0x6E2 DUP3 PUSH3 0x6AE JUMP JUMPDEST SWAP2 POP DUP2 SWAP1 POP SWAP2 SWAP1 POP JUMP JUMPDEST PUSH32 0x43617264696F6C6F677900000000000000000000000000000000000000000000 PUSH1 0x0 DUP3 ADD MSTORE POP JUMP JUMPDEST PUSH1 0x0 PUSH3 0x724 PUSH1 0xA DUP4 PUSH3 0x613 JUMP JUMPDEST SWAP2 POP PUSH3 0x731 DUP3 PUSH3 0x6EC JUMP JUMPDEST PUSH1 0xA DUP3 ADD SWAP1 POP SWAP2 SWAP1 POP JUMP JUMPDEST PUSH1 0x0 PUSH3 0x749 DUP3 PUSH3 0x715 JUMP JUMPDEST SWAP2 POP DUP2 SWAP1 POP SWAP2 SWAP1 POP JUMP JUMPDEST PUSH32 0x526561642D577269746500000000000000000000000000000000000000000000 PUSH1 0x0 DUP3 ADD MSTORE POP JUMP JUMPDEST PUSH1 0x0 PUSH3 0x78B PUSH1 0xA DUP4 PUSH3 0x613 JUMP JUMPDEST SWAP2 POP PUSH3 0x798 DUP3 PUSH3 0x753 JUMP JUMPDEST PUSH1 0xA DUP3 ADD SWAP1 POP SWAP2 SWAP1 POP JUMP JUMPDEST PUSH1 0x0 PUSH3 0x7B0 DUP3 PUSH3 0x77C JUMP JUMPDEST SWAP2 POP DUP2 SWAP1 POP SWAP2 SWAP1 POP JUMP JUMPDEST PUSH32 0x436C6F7564000000000000000000000000000000000000000000000000000000 PUSH1 0x0 DUP3 ADD MSTORE POP JUMP JUMPDEST PUSH1 0x0 PUSH3 0x7F2 PUSH1 0x5 DUP4 PUSH3 0x613 JUMP JUMPDEST SWAP2 POP PUSH3 0x7FF DUP3 PUSH3 0x7BA JUMP JUMPDEST PUSH1 0x5 DUP3 ADD SWAP1 POP SWAP2 SWAP1 POP JUMP JUMPDEST PUSH1 0x0 PUSH3 0x817 DUP3 PUSH3 0x7E3 JUMP JUMPDEST SWAP2 POP DUP2 SWAP1 POP SWAP2 SWAP1 POP JUMP JUMPDEST PUSH32 0x686F73706974616C420000000000000000000000000000000000000000000000 PUSH1 0x0 DUP3 ADD MSTORE POP JUMP JUMPDEST PUSH1 0x0 PUSH3 0x859 PUSH1 0x9 DUP4 PUSH3 0x613 JUMP JUMPDEST SWAP2 POP PUSH3 0x866 DUP3 PUSH3 0x821 JUMP JUMPDEST PUSH1 0x9 DUP3 ADD SWAP1 POP SWAP2 SWAP1 POP JUMP JUMPDEST PUSH1 0x0 PUSH3 0x87E DUP3 PUSH3 0x84A JUMP JUMPDEST SWAP2 POP DUP2 SWAP1 POP SWAP2 SWAP1 POP JUMP JUMPDEST PUSH32 0x4C6F63616C000000000000000000000000000000000000000000000000000000 PUSH1 0x0 DUP3 ADD MSTORE POP JUMP JUMPDEST PUSH1 0x0 PUSH3 0x8C0 PUSH1 0x5 DUP4 PUSH3 0x613 JUMP JUMPDEST SWAP2 POP PUSH3 0x8CD DUP3 PUSH3 0x888 JUMP JUMPDEST PUSH1 0x5 DUP3 ADD SWAP1 POP SWAP2 SWAP1 POP JUMP JUMPDEST PUSH1 0x0 PUSH3 0x8E5 DUP3 PUSH3 0x8B1 JUMP JUMPDEST SWAP2 POP DUP2 SWAP1 POP SWAP2 SWAP1 POP JUMP JUMPDEST PUSH32 0x6163636573732D7375626A656374000000000000000000000000000000000000 PUSH1 0x0 DUP3 ADD MSTORE POP JUMP JUMPDEST PUSH1 0x0 PUSH3 0x927 PUSH1 0xE DUP4 PUSH3 0x613 JUMP JUMPDEST SWAP2 POP PUSH3 0x934 DUP3 PUSH3 0x8EF JUMP JUMPDEST PUSH1 0xE DUP3 ADD SWAP1 POP SWAP2 SWAP1 POP JUMP JUMPDEST PUSH1 0x0 PUSH3 0x94C DUP3 PUSH3 0x918 JUMP JUMPDEST SWAP2 POP DUP2 SWAP1 POP SWAP2 SWAP1 POP JUMP JUMPDEST PUSH32 0x6973417574686F72697A65640000000000000000000000000000000000000000 PUSH1 0x0 DUP3 ADD MSTORE POP JUMP JUMPDEST PUSH1 0x0 PUSH3 0x98E PUSH1 0xC DUP4 PUSH3 0x613 JUMP JUMPDEST SWAP2 POP PUSH3 0x99B DUP3 PUSH3 0x956 JUMP JUMPDEST PUSH1 0xC DUP3 ADD SWAP1 POP SWAP2 SWAP1 POP JUMP JUMPDEST PUSH1 0x0 PUSH3 0x9B3 DUP3 PUSH3 0x97F JUMP JUMPDEST SWAP2 POP DUP2 SWAP1 POP SWAP2 SWAP1 POP JUMP JUMPDEST PUSH32 0x7472756500000000000000000000000000000000000000000000000000000000 PUSH1 0x0 DUP3 ADD MSTORE POP JUMP JUMPDEST PUSH1 0x0 PUSH3 0x9F5 PUSH1 0x4 DUP4 PUSH3 0x613 JUMP JUMPDEST SWAP2 POP PUSH3 0xA02 DUP3 PUSH3 0x9BD JUMP JUMPDEST PUSH1 0x4 DUP3 ADD SWAP1 POP SWAP2 SWAP1 POP JUMP JUMPDEST PUSH1 0x0 PUSH3 0xA1A DUP3 PUSH3 0x9E6 JUMP JUMPDEST SWAP2 POP DUP2 SWAP1 POP SWAP2 SWAP1 POP JUMP JUMPDEST PUSH32 0x6163636573732D7375626A6563746973417574686F72697A6564000000000000 PUSH1 0x0 DUP3 ADD MSTORE POP JUMP JUMPDEST PUSH1 0x0 PUSH3 0xA5C PUSH1 0x1A DUP4 PUSH3 0x613 JUMP JUMPDEST SWAP2 POP PUSH3 0xA69 DUP3 PUSH3 0xA24 JUMP JUMPDEST PUSH1 0x1A DUP3 ADD SWAP1 POP SWAP2 SWAP1 POP JUMP JUMPDEST PUSH1 0x0 PUSH3 0xA81 DUP3 PUSH3 0xA4D JUMP JUMPDEST SWAP2 POP DUP2 SWAP1 POP SWAP2 SWAP1 POP JUMP JUMPDEST PUSH32 0x6163636573732D7375626A6563746973417574686F72697A6564747275650000 PUSH1 0x0 DUP3 ADD MSTORE POP JUMP JUMPDEST PUSH1 0x0 PUSH3 0xAC3 PUSH1 0x1E DUP4 PUSH3 0x613 JUMP JUMPDEST SWAP2 POP PUSH3 0xAD0 DUP3 PUSH3 0xA8B JUMP JUMPDEST PUSH1 0x1E DUP3 ADD SWAP1 POP SWAP2 SWAP1 POP JUMP JUMPDEST PUSH1 0x0 PUSH3 0xAE8 DUP3 PUSH3 0xAB4 JUMP JUMPDEST SWAP2 POP DUP2 SWAP1 POP SWAP2 SWAP1 POP JUMP JUMPDEST PUSH32 0x4E487B7100000000000000000000000000000000000000000000000000000000 PUSH1 0x0 MSTORE PUSH1 0x11 PUSH1 0x4 MSTORE PUSH1 0x24 PUSH1 0x0 REVERT JUMPDEST PUSH1 0x0 DUP2 SWAP1 POP SWAP2 SWAP1 POP JUMP JUMPDEST PUSH1 0x0 PUSH3 0xB38 DUP3 PUSH3 0xB21 JUMP JUMPDEST SWAP2 POP PUSH32 0xFFFFFFFFFFFFFFFFFFFFFFFFFFFFFFFFFFFFFFFFFFFFFFFFFFFFFFFFFFFFFFFF DUP3 SUB PUSH3 0xB6D JUMPI PUSH3 0xB6C PUSH3 0xAF2 JUMP JUMPDEST JUMPDEST PUSH1 0x1 DUP3 ADD SWAP1 POP SWAP2 SWAP1 POP JUMP JUMPDEST PUSH32 0x7370656369616C697A6174696F6E000000000000000000000000000000000000 PUSH1 0x0 DUP3 ADD MSTORE POP JUMP JUMPDEST PUSH1 0x0 PUSH3 0xBB0 PUSH1 0xE DUP4 PUSH3 0x613 JUMP JUMPDEST SWAP2 POP PUSH3 0xBBD DUP3 PUSH3 0xB78 JUMP JUMPDEST PUSH1 0xE DUP3 ADD SWAP1 POP SWAP2 SWAP1 POP JUMP JUMPDEST PUSH1 0x0 PUSH3 0xBD5 DUP3 PUSH3 0xBA1 JUMP JUMPDEST SWAP2 POP DUP2 SWAP1 POP SWAP2 SWAP1 POP JUMP JUMPDEST PUSH32 0x6163636573732D7375626A6563747370656369616C697A6174696F6E00000000 PUSH1 0x0 DUP3 ADD MSTORE POP JUMP JUMPDEST PUSH1 0x0 PUSH3 0xC17 PUSH1 0x1C DUP4 PUSH3 0x613 JUMP JUMPDEST SWAP2 POP PUSH3 0xC24 DUP3 PUSH3 0xBDF JUMP JUMPDEST PUSH1 0x1C DUP3 ADD SWAP1 POP SWAP2 SWAP1 POP JUMP JUMPDEST PUSH1 0x0 PUSH3 0xC3C DUP3 PUSH3 0xC08 JUMP JUMPDEST SWAP2 POP DUP2 SWAP1 POP SWAP2 SWAP1 POP JUMP JUMPDEST PUSH32 0x6163636573732D7375626A6563747370656369616C697A6174696F6E43617264 PUSH1 0x0 DUP3 ADD MSTORE PUSH32 0x696F6C6F67790000000000000000000000000000000000000000000000000000 PUSH1 0x20 DUP3 ADD MSTORE POP JUMP JUMPDEST PUSH1 0x0 PUSH3 0xCA4 PUSH1 0x26 DUP4 PUSH3 0x613 JUMP JUMPDEST SWAP2 POP PUSH3 0xCB1 DUP3 PUSH3 0xC46 JUMP JUMPDEST PUSH1 0x26 DUP3 ADD SWAP1 POP SWAP2 SWAP1 POP JUMP JUMPDEST PUSH1 0x0 PUSH3 0xCC9 DUP3 PUSH3 0xC95 JUMP JUMPDEST SWAP2 POP DUP2 SWAP1 POP SWAP2 SWAP1 POP JUMP JUMPDEST PUSH32 0x6861734163636573735269676874730000000000000000000000000000000000 PUSH1 0x0 DUP3 ADD MSTORE POP JUMP JUMPDEST PUSH1 0x0 PUSH3 0xD0B PUSH1 0xF DUP4 PUSH3 0x613 JUMP JUMPDEST SWAP2 POP PUSH3 0xD18 DUP3 PUSH3 0xCD3 JUMP JUMPDEST PUSH1 0xF DUP3 ADD SWAP1 POP SWAP2 SWAP1 POP JUMP JUMPDEST PUSH1 0x0 PUSH3 0xD30 DUP3 PUSH3 0xCFC JUMP JUMPDEST SWAP2 POP DUP2 SWAP1 POP SWAP2 SWAP1 POP JUMP JUMPDEST PUSH32 0x6163636573732D7375626A656374686173416363657373526967687473000000 PUSH1 0x0 DUP3 ADD MSTORE POP JUMP JUMPDEST PUSH1 0x0 PUSH3 0xD72 PUSH1 0x1D DUP4 PUSH3 0x613 JUMP JUMPDEST SWAP2 POP PUSH3 0xD7F DUP3 PUSH3 0xD3A JUMP JUMPDEST PUSH1 0x1D DUP3 ADD SWAP1 POP SWAP2 SWAP1 POP JUMP JUMPDEST PUSH1 0x0 PUSH3 0xD97 DUP3 PUSH3 0xD63 JUMP JUMPDEST SWAP2 POP DUP2 SWAP1 POP SWAP2 SWAP1 POP JUMP JUMPDEST PUSH32 0x6163636573732D7375626A656374686173416363657373526967687473526561 PUSH1 0x0 DUP3 ADD MSTORE PUSH32 0x642D577269746500000000000000000000000000000000000000000000000000 PUSH1 0x20 DUP3 ADD MSTORE POP JUMP JUMPDEST PUSH1 0x0 PUSH3 0xDFF PUSH1 0x27 DUP4 PUSH3 0x613 JUMP JUMPDEST SWAP2 POP PUSH3 0xE0C DUP3 PUSH3 0xDA1 JUMP JUMPDEST PUSH1 0x27 DUP3 ADD SWAP1 POP SWAP2 SWAP1 POP JUMP JUMPDEST PUSH1 0x0 PUSH3 0xE24 DUP3 PUSH3 0xDF0 JUMP JUMPDEST SWAP2 POP DUP2 SWAP1 POP SWAP2 SWAP1 POP JUMP JUMPDEST PUSH32 0x6461746173657400000000000000000000000000000000000000000000000000 PUSH1 0x0 DUP3 ADD MSTORE POP JUMP JUMPDEST PUSH1 0x0 PUSH3 0xE66 PUSH1 0x7 DUP4 PUSH3 0x613 JUMP JUMPDEST SWAP2 POP PUSH3 0xE73 DUP3 PUSH3 0xE2E JUMP JUMPDEST PUSH1 0x7 DUP3 ADD SWAP1 POP SWAP2 SWAP1 POP JUMP JUMPDEST PUSH1 0x0 PUSH3 0xE8B DUP3 PUSH3 0xE57 JUMP JUMPDEST SWAP2 POP DUP2 SWAP1 POP SWAP2 SWAP1 POP JUMP JUMPDEST PUSH32 0x6C6F636174696F6E000000000000000000000000000000000000000000000000 PUSH1 0x0 DUP3 ADD MSTORE POP JUMP JUMPDEST PUSH1 0x0 PUSH3 0xECD PUSH1 0x8 DUP4 PUSH3 0x613 JUMP JUMPDEST SWAP2 POP PUSH3 0xEDA DUP3 PUSH3 0xE95 JUMP JUMPDEST PUSH1 0x8 DUP3 ADD SWAP1 POP SWAP2 SWAP1 POP JUMP JUMPDEST PUSH1 0x0 PUSH3 0xEF2 DUP3 PUSH3 0xEBE JUMP JUMPDEST SWAP2 POP DUP2 SWAP1 POP SWAP2 SWAP1 POP JUMP JUMPDEST PUSH32 0x646174617365746C6F636174696F6E0000000000000000000000000000000000 PUSH1 0x0 DUP3 ADD MSTORE POP JUMP JUMPDEST PUSH1 0x0 PUSH3 0xF34 PUSH1 0xF DUP4 PUSH3 0x613 JUMP JUMPDEST SWAP2 POP PUSH3 0xF41 DUP3 PUSH3 0xEFC JUMP JUMPDEST PUSH1 0xF DUP3 ADD SWAP1 POP SWAP2 SWAP1 POP JUMP JUMPDEST PUSH1 0x0 PUSH3 0xF59 DUP3 PUSH3 0xF25 JUMP JUMPDEST SWAP2 POP DUP2 SWAP1 POP SWAP2 SWAP1 POP JUMP JUMPDEST PUSH32 0x646174617365746C6F636174696F6E436C6F7564000000000000000000000000 PUSH1 0x0 DUP3 ADD MSTORE POP JUMP JUMPDEST PUSH1 0x0 PUSH3 0xF9B PUSH1 0x14 DUP4 PUSH3 0x613 JUMP JUMPDEST SWAP2 POP PUSH3 0xFA8 DUP3 PUSH3 0xF63 JUMP JUMPDEST PUSH1 0x14 DUP3 ADD SWAP1 POP SWAP2 SWAP1 POP JUMP JUMPDEST PUSH1 0x0 PUSH3 0xFC0 DUP3 PUSH3 0xF8C JUMP JUMPDEST SWAP2 POP DUP2 SWAP1 POP SWAP2 SWAP1 POP JUMP JUMPDEST PUSH2 0x25E8 DUP1 PUSH3 0xFDA PUSH1 0x0 CODECOPY PUSH1 0x0 RETURN INVALID PUSH1 0x80 PUSH1 0x40 MSTORE CALLVALUE DUP1 ISZERO PUSH2 0x10 JUMPI PUSH1 0x0 DUP1 REVERT JUMPDEST POP PUSH1 0x4 CALLDATASIZE LT PUSH2 0xA8 JUMPI PUSH1 0x0 CALLDATALOAD PUSH1 0xE0 SHR DUP1 PUSH4 0x63FFAB31 GT PUSH2 0x71 JUMPI DUP1 PUSH4 0x63FFAB31 EQ PUSH2 0x165 JUMPI DUP1 PUSH4 0x7B009128 EQ PUSH2 0x183 JUMPI DUP1 PUSH4 0x97ABA7F9 EQ PUSH2 0x19F JUMPI DUP1 PUSH4 0xA7BB5803 EQ PUSH2 0x1CF JUMPI DUP1 PUSH4 0xB446F3B2 EQ PUSH2 0x201 JUMPI DUP1 PUSH4 0xFA540801 EQ PUSH2 0x231 JUMPI PUSH2 0xA8 JUMP JUMPDEST DUP1 PUSH3 0x9FE9AC EQ PUSH2 0xAD JUMPI DUP1 PUSH4 0x2DD34F0F EQ PUSH2 0xC9 JUMPI DUP1 PUSH4 0x305F72B7 EQ PUSH2 0xF9 JUMPI DUP1 PUSH4 0x354FC470 EQ PUSH2 0x117 JUMPI DUP1 PUSH4 0x5E01EB5A EQ PUSH2 0x147 JUMPI JUMPDEST PUSH1 0x0 DUP1 REVERT JUMPDEST PUSH2 0xC7 PUSH1 0x4 DUP1 CALLDATASIZE SUB DUP2 ADD SWAP1 PUSH2 0xC2 SWAP2 SWAP1 PUSH2 0x1894 JUMP JUMPDEST PUSH2 0x261 JUMP JUMPDEST STOP JUMPDEST PUSH2 0xE3 PUSH1 0x4 DUP1 CALLDATASIZE SUB DUP2 ADD SWAP1 PUSH2 0xDE SWAP2 SWAP1 PUSH2 0x1A58 JUMP JUMPDEST PUSH2 0xB0A JUMP JUMPDEST PUSH1 0x40 MLOAD PUSH2 0xF0 SWAP2 SWAP1 PUSH2 0x1AFE JUMP JUMPDEST PUSH1 0x40 MLOAD DUP1 SWAP2 SUB SWAP1 RETURN JUMPDEST PUSH2 0x101 PUSH2 0xB68 JUMP JUMPDEST PUSH1 0x40 MLOAD PUSH2 0x10E SWAP2 SWAP1 PUSH2 0x1B32 JUMP JUMPDEST PUSH1 0x40 MLOAD DUP1 SWAP2 SUB SWAP1 RETURN JUMPDEST PUSH2 0x131 PUSH1 0x4 DUP1 CALLDATASIZE SUB DUP2 ADD SWAP1 PUSH2 0x12C SWAP2 SWAP1 PUSH2 0x1B4D JUMP JUMPDEST PUSH2 0xB6E JUMP JUMPDEST PUSH1 0x40 MLOAD PUSH2 0x13E SWAP2 SWAP1 PUSH2 0x1C15 JUMP JUMPDEST PUSH1 0x40 MLOAD DUP1 SWAP2 SUB SWAP1 RETURN JUMPDEST PUSH2 0x14F PUSH2 0xC1E JUMP JUMPDEST PUSH1 0x40 MLOAD PUSH2 0x15C SWAP2 SWAP1 PUSH2 0x1C46 JUMP JUMPDEST PUSH1 0x40 MLOAD DUP1 SWAP2 SUB SWAP1 RETURN JUMPDEST PUSH2 0x16D PUSH2 0xC26 JUMP JUMPDEST PUSH1 0x40 MLOAD PUSH2 0x17A SWAP2 SWAP1 PUSH2 0x1C46 JUMP JUMPDEST PUSH1 0x40 MLOAD DUP1 SWAP2 SUB SWAP1 RETURN JUMPDEST PUSH2 0x19D PUSH1 0x4 DUP1 CALLDATASIZE SUB DUP2 ADD SWAP1 PUSH2 0x198 SWAP2 SWAP1 PUSH2 0x1C61 JUMP JUMPDEST PUSH2 0xC3E JUMP JUMPDEST STOP JUMPDEST PUSH2 0x1B9 PUSH1 0x4 DUP1 CALLDATASIZE SUB DUP2 ADD SWAP1 PUSH2 0x1B4 SWAP2 SWAP1 PUSH2 0x1DCC JUMP JUMPDEST PUSH2 0x150B JUMP JUMPDEST PUSH1 0x40 MLOAD PUSH2 0x1C6 SWAP2 SWAP1 PUSH2 0x1C46 JUMP JUMPDEST PUSH1 0x40 MLOAD DUP1 SWAP2 SUB SWAP1 RETURN JUMPDEST PUSH2 0x1E9 PUSH1 0x4 DUP1 CALLDATASIZE SUB DUP2 ADD SWAP1 PUSH2 0x1E4 SWAP2 SWAP1 PUSH2 0x1E28 JUMP JUMPDEST PUSH2 0x157A JUMP JUMPDEST PUSH1 0x40 MLOAD PUSH2 0x1F8 SWAP4 SWAP3 SWAP2 SWAP1 PUSH2 0x1E9C JUMP JUMPDEST PUSH1 0x40 MLOAD DUP1 SWAP2 SUB SWAP1 RETURN JUMPDEST PUSH2 0x21B PUSH1 0x4 DUP1 CALLDATASIZE SUB DUP2 ADD SWAP1 PUSH2 0x216 SWAP2 SWAP1 PUSH2 0x1B4D JUMP JUMPDEST PUSH2 0x15E2 JUMP JUMPDEST PUSH1 0x40 MLOAD PUSH2 0x228 SWAP2 SWAP1 PUSH2 0x1ED3 JUMP JUMPDEST PUSH1 0x40 MLOAD DUP1 SWAP2 SUB SWAP1 RETURN JUMPDEST PUSH2 0x24B PUSH1 0x4 DUP1 CALLDATASIZE SUB DUP2 ADD SWAP1 PUSH2 0x246 SWAP2 SWAP1 PUSH2 0x1EEE JUMP JUMPDEST PUSH2 0x1612 JUMP JUMPDEST PUSH1 0x40 MLOAD PUSH2 0x258 SWAP2 SWAP1 PUSH2 0x1ED3 JUMP JUMPDEST PUSH1 0x40 MLOAD DUP1 SWAP2 SUB SWAP1 RETURN JUMPDEST PUSH2 0x269 PUSH2 0x1671 JUMP JUMPDEST PUSH1 0x0 PUSH1 0x1 ISZERO ISZERO PUSH2 0x2B3 PUSH20 0x7264D9FD1A56D865D8B7D96E5251A6EFE820B483 DUP11 DUP11 DUP11 DUP10 PUSH1 0x40 MLOAD PUSH1 0x20 ADD PUSH2 0x29E SWAP5 SWAP4 SWAP3 SWAP2 SWAP1 PUSH2 0x1FA3 JUMP JUMPDEST PUSH1 0x40 MLOAD PUSH1 0x20 DUP2 DUP4 SUB SUB DUP2 MSTORE SWAP1 PUSH1 0x40 MSTORE DUP7 PUSH2 0xB0A JUMP JUMPDEST ISZERO ISZERO EQ PUSH2 0x2F5 JUMPI PUSH1 0x40 MLOAD PUSH32 0x8C379A000000000000000000000000000000000000000000000000000000000 DUP2 MSTORE PUSH1 0x4 ADD PUSH2 0x2EC SWAP1 PUSH2 0x204E JUMP JUMPDEST PUSH1 0x40 MLOAD DUP1 SWAP2 SUB SWAP1 REVERT JUMPDEST PUSH1 0x1 PUSH1 0x0 DUP10 PUSH1 0x40 MLOAD PUSH2 0x307 SWAP2 SWAP1 PUSH2 0x206E JUMP JUMPDEST SWAP1 DUP2 MSTORE PUSH1 0x20 ADD PUSH1 0x40 MLOAD DUP1 SWAP2 SUB SWAP1 KECCAK256 DUP9 PUSH1 0x40 MLOAD PUSH2 0x323 SWAP2 SWAP1 PUSH2 0x206E JUMP JUMPDEST SWAP1 DUP2 MSTORE PUSH1 0x20 ADD PUSH1 0x40 MLOAD DUP1 SWAP2 SUB SWAP1 KECCAK256 SLOAD SUB PUSH2 0x452 JUMPI PUSH1 0x40 MLOAD DUP1 PUSH1 0x40 ADD PUSH1 0x40 MSTORE DUP1 PUSH1 0xE DUP2 MSTORE PUSH1 0x20 ADD PUSH32 0x6163636573732D7375626A656374000000000000000000000000000000000000 DUP2 MSTORE POP DUP3 DUP3 PUSH1 0xC DUP2 LT PUSH2 0x380 JUMPI PUSH2 0x37F PUSH2 0x2085 JUMP JUMPDEST JUMPDEST PUSH1 0x20 MUL ADD DUP2 SWAP1 MSTORE POP PUSH1 0x40 MLOAD DUP1 PUSH1 0x40 ADD PUSH1 0x40 MSTORE DUP1 PUSH1 0xC DUP2 MSTORE PUSH1 0x20 ADD PUSH32 0x6973417574686F72697A65640000000000000000000000000000000000000000 DUP2 MSTORE POP DUP3 PUSH1 0x1 DUP4 PUSH2 0x3CC SWAP2 SWAP1 PUSH2 0x20E3 JUMP JUMPDEST PUSH1 0xC DUP2 LT PUSH2 0x3DD JUMPI PUSH2 0x3DC PUSH2 0x2085 JUMP JUMPDEST JUMPDEST PUSH1 0x20 MUL ADD DUP2 SWAP1 MSTORE POP PUSH1 0x40 MLOAD DUP1 PUSH1 0x40 ADD PUSH1 0x40 MSTORE DUP1 PUSH1 0x4 DUP2 MSTORE PUSH1 0x20 ADD PUSH32 0x7472756500000000000000000000000000000000000000000000000000000000 DUP2 MSTORE POP DUP3 PUSH1 0x2 DUP4 PUSH2 0x429 SWAP2 SWAP1 PUSH2 0x20E3 JUMP JUMPDEST PUSH1 0xC DUP2 LT PUSH2 0x43A JUMPI PUSH2 0x439 PUSH2 0x2085 JUMP JUMPDEST JUMPDEST PUSH1 0x20 MUL ADD DUP2 SWAP1 MSTORE POP PUSH1 0x3 DUP2 PUSH2 0x44F SWAP2 SWAP1 PUSH2 0x20E3 JUMP JUMPDEST SWAP1 POP JUMPDEST PUSH1 0x1 DUP1 DUP10 PUSH1 0x40 MLOAD PUSH2 0x463 SWAP2 SWAP1 PUSH2 0x206E JUMP JUMPDEST SWAP1 DUP2 MSTORE PUSH1 0x20 ADD PUSH1 0x40 MLOAD DUP1 SWAP2 SUB SWAP1 KECCAK256 DUP8 PUSH1 0x40 MLOAD PUSH2 0x47F SWAP2 SWAP1 PUSH2 0x206E JUMP JUMPDEST SWAP1 DUP2 MSTORE PUSH1 0x20 ADD PUSH1 0x40 MLOAD DUP1 SWAP2 SUB SWAP1 KECCAK256 SLOAD SUB PUSH2 0x579 JUMPI PUSH1 0x40 MLOAD DUP1 PUSH1 0x40 ADD PUSH1 0x40 MSTORE DUP1 PUSH1 0xE DUP2 MSTORE PUSH1 0x20 ADD PUSH32 0x6163636573732D7375626A656374000000000000000000000000000000000000 DUP2 MSTORE POP DUP3 DUP3 PUSH1 0xC DUP2 LT PUSH2 0x4DC JUMPI PUSH2 0x4DB PUSH2 0x2085 JUMP JUMPDEST JUMPDEST PUSH1 0x20 MUL ADD DUP2 SWAP1 MSTORE POP PUSH1 0x40 MLOAD DUP1 PUSH1 0x40 ADD PUSH1 0x40 MSTORE DUP1 PUSH1 0xE DUP2 MSTORE PUSH1 0x20 ADD PUSH32 0x7370656369616C697A6174696F6E000000000000000000000000000000000000 DUP2 MSTORE POP DUP3 PUSH1 0x1 DUP4 PUSH2 0x528 SWAP2 SWAP1 PUSH2 0x20E3 JUMP JUMPDEST PUSH1 0xC DUP2 LT PUSH2 0x539 JUMPI PUSH2 0x538 PUSH2 0x2085 JUMP JUMPDEST JUMPDEST PUSH1 0x20 MUL ADD DUP2 SWAP1 MSTORE POP DUP6 DUP3 PUSH1 0x2 DUP4 PUSH2 0x550 SWAP2 SWAP1 PUSH2 0x20E3 JUMP JUMPDEST PUSH1 0xC DUP2 LT PUSH2 0x561 JUMPI PUSH2 0x560 PUSH2 0x2085 JUMP JUMPDEST JUMPDEST PUSH1 0x20 MUL ADD DUP2 SWAP1 MSTORE POP PUSH1 0x3 DUP2 PUSH2 0x576 SWAP2 SWAP1 PUSH2 0x20E3 JUMP JUMPDEST SWAP1 POP JUMPDEST PUSH1 0x1 PUSH1 0x2 DUP10 PUSH1 0x40 MLOAD PUSH2 0x58B SWAP2 SWAP1 PUSH2 0x206E JUMP JUMPDEST SWAP1 DUP2 MSTORE PUSH1 0x20 ADD PUSH1 0x40 MLOAD DUP1 SWAP2 SUB SWAP1 KECCAK256 DUP7 PUSH1 0x40 MLOAD PUSH2 0x5A7 SWAP2 SWAP1 PUSH2 0x206E JUMP JUMPDEST SWAP1 DUP2 MSTORE PUSH1 0x20 ADD PUSH1 0x40 MLOAD DUP1 SWAP2 SUB SWAP1 KECCAK256 SLOAD SUB PUSH2 0x6A1 JUMPI PUSH1 0x40 MLOAD DUP1 PUSH1 0x40 ADD PUSH1 0x40 MSTORE DUP1 PUSH1 0xE DUP2 MSTORE PUSH1 0x20 ADD PUSH32 0x6163636573732D7375626A656374000000000000000000000000000000000000 DUP2 MSTORE POP DUP3 DUP3 PUSH1 0xC DUP2 LT PUSH2 0x604 JUMPI PUSH2 0x603 PUSH2 0x2085 JUMP JUMPDEST JUMPDEST PUSH1 0x20 MUL ADD DUP2 SWAP1 MSTORE POP PUSH1 0x40 MLOAD DUP1 PUSH1 0x40 ADD PUSH1 0x40 MSTORE DUP1 PUSH1 0xF DUP2 MSTORE PUSH1 0x20 ADD PUSH32 0x6861734163636573735269676874730000000000000000000000000000000000 DUP2 MSTORE POP DUP3 PUSH1 0x1 DUP4 PUSH2 0x650 SWAP2 SWAP1 PUSH2 0x20E3 JUMP JUMPDEST PUSH1 0xC DUP2 LT PUSH2 0x661 JUMPI PUSH2 0x660 PUSH2 0x2085 JUMP JUMPDEST JUMPDEST PUSH1 0x20 MUL ADD DUP2 SWAP1 MSTORE POP DUP5 DUP3 PUSH1 0x2 DUP4 PUSH2 0x678 SWAP2 SWAP1 PUSH2 0x20E3 JUMP JUMPDEST PUSH1 0xC DUP2 LT PUSH2 0x689 JUMPI PUSH2 0x688 PUSH2 0x2085 JUMP JUMPDEST JUMPDEST PUSH1 0x20 MUL ADD DUP2 SWAP1 MSTORE POP PUSH1 0x3 DUP2 PUSH2 0x69E SWAP2 SWAP1 PUSH2 0x20E3 JUMP JUMPDEST SWAP1 POP JUMPDEST PUSH1 0x1 PUSH1 0x3 DUP9 PUSH1 0x40 MLOAD PUSH2 0x6B3 SWAP2 SWAP1 PUSH2 0x206E JUMP JUMPDEST SWAP1 DUP2 MSTORE PUSH1 0x20 ADD PUSH1 0x40 MLOAD DUP1 SWAP2 SUB SWAP1 KECCAK256 DUP6 PUSH1 0x40 MLOAD PUSH2 0x6CF SWAP2 SWAP1 PUSH2 0x206E JUMP JUMPDEST SWAP1 DUP2 MSTORE PUSH1 0x20 ADD PUSH1 0x40 MLOAD DUP1 SWAP2 SUB SWAP1 KECCAK256 SLOAD SUB PUSH2 0x7C9 JUMPI PUSH1 0x40 MLOAD DUP1 PUSH1 0x40 ADD PUSH1 0x40 MSTORE DUP1 PUSH1 0x7 DUP2 MSTORE PUSH1 0x20 ADD PUSH32 0x6461746173657400000000000000000000000000000000000000000000000000 DUP2 MSTORE POP DUP3 DUP3 PUSH1 0xC DUP2 LT PUSH2 0x72C JUMPI PUSH2 0x72B PUSH2 0x2085 JUMP JUMPDEST JUMPDEST PUSH1 0x20 MUL ADD DUP2 SWAP1 MSTORE POP PUSH1 0x40 MLOAD DUP1 PUSH1 0x40 ADD PUSH1 0x40 MSTORE DUP1 PUSH1 0x8 DUP2 MSTORE PUSH1 0x20 ADD PUSH32 0x6C6F636174696F6E000000000000000000000000000000000000000000000000 DUP2 MSTORE POP DUP3 PUSH1 0x1 DUP4 PUSH2 0x778 SWAP2 SWAP1 PUSH2 0x20E3 JUMP JUMPDEST PUSH1 0xC DUP2 LT PUSH2 0x789 JUMPI PUSH2 0x788 PUSH2 0x2085 JUMP JUMPDEST JUMPDEST PUSH1 0x20 MUL ADD DUP2 SWAP1 MSTORE POP DUP4 DUP3 PUSH1 0x2 DUP4 PUSH2 0x7A0 SWAP2 SWAP1 PUSH2 0x20E3 JUMP JUMPDEST PUSH1 0xC DUP2 LT PUSH2 0x7B1 JUMPI PUSH2 0x7B0 PUSH2 0x2085 JUMP JUMPDEST JUMPDEST PUSH1 0x20 MUL ADD DUP2 SWAP1 MSTORE POP PUSH1 0x3 DUP2 PUSH2 0x7C6 SWAP2 SWAP1 PUSH2 0x20E3 JUMP JUMPDEST SWAP1 POP JUMPDEST PUSH1 0x0 JUMPDEST DUP2 DUP2 LT ISZERO PUSH2 0x981 JUMPI PUSH1 0x0 DUP4 DUP3 PUSH1 0xC DUP2 LT PUSH2 0x7E9 JUMPI PUSH2 0x7E8 PUSH2 0x2085 JUMP JUMPDEST JUMPDEST PUSH1 0x20 MUL ADD MLOAD SWAP1 POP PUSH1 0x0 DUP5 PUSH1 0x1 DUP5 PUSH2 0x800 SWAP2 SWAP1 PUSH2 0x20E3 JUMP JUMPDEST PUSH1 0xC DUP2 LT PUSH2 0x811 JUMPI PUSH2 0x810 PUSH2 0x2085 JUMP JUMPDEST JUMPDEST PUSH1 0x20 MUL ADD MLOAD SWAP1 POP PUSH1 0x0 DUP6 PUSH1 0x2 DUP6 PUSH2 0x828 SWAP2 SWAP1 PUSH2 0x20E3 JUMP JUMPDEST PUSH1 0xC DUP2 LT PUSH2 0x839 JUMPI PUSH2 0x838 PUSH2 0x2085 JUMP JUMPDEST JUMPDEST PUSH1 0x20 MUL ADD MLOAD SWAP1 POP PUSH1 0x1 PUSH1 0xD DUP15 PUSH1 0x40 MLOAD PUSH2 0x852 SWAP2 SWAP1 PUSH2 0x206E JUMP JUMPDEST SWAP1 DUP2 MSTORE PUSH1 0x20 ADD PUSH1 0x40 MLOAD DUP1 SWAP2 SUB SWAP1 KECCAK256 DUP5 PUSH1 0x40 MLOAD PUSH2 0x86E SWAP2 SWAP1 PUSH2 0x206E JUMP JUMPDEST SWAP1 DUP2 MSTORE PUSH1 0x20 ADD PUSH1 0x40 MLOAD DUP1 SWAP2 SUB SWAP1 KECCAK256 DUP4 PUSH1 0x40 MLOAD PUSH2 0x88A SWAP2 SWAP1 PUSH2 0x206E JUMP JUMPDEST SWAP1 DUP2 MSTORE PUSH1 0x20 ADD PUSH1 0x40 MLOAD DUP1 SWAP2 SUB SWAP1 KECCAK256 SLOAD SUB PUSH2 0x96A JUMPI PUSH1 0x1 PUSH1 0x7 PUSH1 0x0 PUSH1 0x6 DUP7 PUSH1 0x40 MLOAD PUSH2 0x8B4 SWAP2 SWAP1 PUSH2 0x206E JUMP JUMPDEST SWAP1 DUP2 MSTORE PUSH1 0x20 ADD PUSH1 0x40 MLOAD DUP1 SWAP2 SUB SWAP1 KECCAK256 SLOAD DUP2 MSTORE PUSH1 0x20 ADD SWAP1 DUP2 MSTORE PUSH1 0x20 ADD PUSH1 0x0 KECCAK256 PUSH1 0x0 PUSH1 0x6 PUSH2 0x8EF DUP8 DUP8 PUSH1 0x40 MLOAD DUP1 PUSH1 0x20 ADD PUSH1 0x40 MSTORE DUP1 PUSH1 0x0 DUP2 MSTORE POP PUSH2 0x1642 JUMP JUMPDEST PUSH1 0x40 MLOAD PUSH2 0x8FC SWAP2 SWAP1 PUSH2 0x206E JUMP JUMPDEST SWAP1 DUP2 MSTORE PUSH1 0x20 ADD PUSH1 0x40 MLOAD DUP1 SWAP2 SUB SWAP1 KECCAK256 SLOAD DUP2 MSTORE PUSH1 0x20 ADD SWAP1 DUP2 MSTORE PUSH1 0x20 ADD PUSH1 0x0 KECCAK256 PUSH1 0x0 PUSH1 0x6 PUSH2 0x928 DUP8 DUP8 DUP8 PUSH2 0x1642 JUMP JUMPDEST PUSH1 0x40 MLOAD PUSH2 0x935 SWAP2 SWAP1 PUSH2 0x206E JUMP JUMPDEST SWAP1 DUP2 MSTORE PUSH1 0x20 ADD PUSH1 0x40 MLOAD DUP1 SWAP2 SUB SWAP1 KECCAK256 SLOAD DUP2 MSTORE PUSH1 0x20 ADD SWAP1 DUP2 MSTORE PUSH1 0x20 ADD PUSH1 0x0 KECCAK256 PUSH1 0x0 PUSH2 0x100 EXP DUP2 SLOAD DUP2 PUSH1 0xFF MUL NOT AND SWAP1 DUP4 ISZERO ISZERO MUL OR SWAP1 SSTORE POP JUMPDEST POP POP POP PUSH1 0x3 DUP2 PUSH2 0x97A SWAP2 SWAP1 PUSH2 0x20E3 JUMP JUMPDEST SWAP1 POP PUSH2 0x7CC JUMP JUMPDEST POP PUSH1 0x0 PUSH1 0x1 SWAP1 POP PUSH1 0x0 PUSH1 0x1 SWAP1 POP JUMPDEST PUSH1 0x8 SLOAD DUP2 GT PUSH2 0xAC6 JUMPI PUSH1 0x0 PUSH1 0x1 SWAP1 POP JUMPDEST PUSH1 0x9 PUSH1 0x0 DUP4 DUP2 MSTORE PUSH1 0x20 ADD SWAP1 DUP2 MSTORE PUSH1 0x20 ADD PUSH1 0x0 KECCAK256 SLOAD DUP2 GT PUSH2 0xAB2 JUMPI PUSH1 0x0 PUSH1 0x1 SWAP1 POP JUMPDEST PUSH1 0xA PUSH1 0x0 DUP5 DUP2 MSTORE PUSH1 0x20 ADD SWAP1 DUP2 MSTORE PUSH1 0x20 ADD PUSH1 0x0 KECCAK256 PUSH1 0x0 DUP4 DUP2 MSTORE PUSH1 0x20 ADD SWAP1 DUP2 MSTORE PUSH1 0x20 ADD PUSH1 0x0 KECCAK256 SLOAD DUP2 GT PUSH2 0xA9E JUMPI PUSH1 0x7 PUSH1 0x0 DUP5 DUP2 MSTORE PUSH1 0x20 ADD SWAP1 DUP2 MSTORE PUSH1 0x20 ADD PUSH1 0x0 KECCAK256 PUSH1 0x0 DUP4 DUP2 MSTORE PUSH1 0x20 ADD SWAP1 DUP2 MSTORE PUSH1 0x20 ADD PUSH1 0x0 KECCAK256 PUSH1 0x0 DUP3 DUP2 MSTORE PUSH1 0x20 ADD SWAP1 DUP2 MSTORE PUSH1 0x20 ADD PUSH1 0x0 KECCAK256 PUSH1 0x0 SWAP1 SLOAD SWAP1 PUSH2 0x100 EXP SWAP1 DIV PUSH1 0xFF AND ISZERO PUSH2 0xA86 JUMPI PUSH1 0x0 PUSH1 0x7 PUSH1 0x0 DUP6 DUP2 MSTORE PUSH1 0x20 ADD SWAP1 DUP2 MSTORE PUSH1 0x20 ADD PUSH1 0x0 KECCAK256 PUSH1 0x0 DUP5 DUP2 MSTORE PUSH1 0x20 ADD SWAP1 DUP2 MSTORE PUSH1 0x20 ADD PUSH1 0x0 KECCAK256 PUSH1 0x0 DUP4 DUP2 MSTORE PUSH1 0x20 ADD SWAP1 DUP2 MSTORE PUSH1 0x20 ADD PUSH1 0x0 KECCAK256 PUSH1 0x0 PUSH2 0x100 EXP DUP2 SLOAD DUP2 PUSH1 0xFF MUL NOT AND SWAP1 DUP4 ISZERO ISZERO MUL OR SWAP1 SSTORE POP PUSH2 0xA8B JUMP JUMPDEST PUSH1 0x0 SWAP4 POP JUMPDEST DUP1 DUP1 PUSH2 0xA96 SWAP1 PUSH2 0x2117 JUMP JUMPDEST SWAP2 POP POP PUSH2 0x9C0 JUMP JUMPDEST POP DUP1 DUP1 PUSH2 0xAAA SWAP1 PUSH2 0x2117 JUMP JUMPDEST SWAP2 POP POP PUSH2 0x99F JUMP JUMPDEST POP DUP1 DUP1 PUSH2 0xABE SWAP1 PUSH2 0x2117 JUMP JUMPDEST SWAP2 POP POP PUSH2 0x98F JUMP JUMPDEST POP PUSH32 0x5CD542CCD54CABC7CEA4B1ABD891216618E038CAC6F207CE46ADFCBF2E6550A DUP2 PUSH1 0x40 MLOAD PUSH2 0xAF6 SWAP2 SWAP1 PUSH2 0x1AFE JUMP JUMPDEST PUSH1 0x40 MLOAD DUP1 SWAP2 SUB SWAP1 LOG1 POP POP POP POP POP POP POP POP POP POP JUMP JUMPDEST PUSH1 0x0 DUP1 PUSH2 0xB16 DUP5 PUSH2 0x15E2 JUMP JUMPDEST SWAP1 POP PUSH1 0x0 PUSH2 0xB23 DUP3 PUSH2 0x1612 JUMP JUMPDEST SWAP1 POP DUP6 PUSH20 0xFFFFFFFFFFFFFFFFFFFFFFFFFFFFFFFFFFFFFFFF AND PUSH2 0xB46 DUP3 DUP7 PUSH2 0x150B JUMP JUMPDEST PUSH20 0xFFFFFFFFFFFFFFFFFFFFFFFFFFFFFFFFFFFFFFFF AND EQ SWAP3 POP POP POP SWAP4 SWAP3 POP POP POP JUMP JUMPDEST PUSH1 0x4 SLOAD DUP2 JUMP JUMPDEST PUSH1 0x60 PUSH1 0xC DUP3 PUSH1 0x40 MLOAD PUSH2 0xB80 SWAP2 SWAP1 PUSH2 0x206E JUMP JUMPDEST SWAP1 DUP2 MSTORE PUSH1 0x20 ADD PUSH1 0x40 MLOAD DUP1 SWAP2 SUB SWAP1 KECCAK256 DUP1 SLOAD PUSH2 0xB99 SWAP1 PUSH2 0x218E JUMP JUMPDEST DUP1 PUSH1 0x1F ADD PUSH1 0x20 DUP1 SWAP2 DIV MUL PUSH1 0x20 ADD PUSH1 0x40 MLOAD SWAP1 DUP2 ADD PUSH1 0x40 MSTORE DUP1 SWAP3 SWAP2 SWAP1 DUP2 DUP2 MSTORE PUSH1 0x20 ADD DUP3 DUP1 SLOAD PUSH2 0xBC5 SWAP1 PUSH2 0x218E JUMP JUMPDEST DUP1 ISZERO PUSH2 0xC12 JUMPI DUP1 PUSH1 0x1F LT PUSH2 0xBE7 JUMPI PUSH2 0x100 DUP1 DUP4 SLOAD DIV MUL DUP4 MSTORE SWAP2 PUSH1 0x20 ADD SWAP2 PUSH2 0xC12 JUMP JUMPDEST DUP3 ADD SWAP2 SWAP1 PUSH1 0x0 MSTORE PUSH1 0x20 PUSH1 0x0 KECCAK256 SWAP1 JUMPDEST DUP2 SLOAD DUP2 MSTORE SWAP1 PUSH1 0x1 ADD SWAP1 PUSH1 0x20 ADD DUP1 DUP4 GT PUSH2 0xBF5 JUMPI DUP3 SWAP1 SUB PUSH1 0x1F AND DUP3 ADD SWAP2 JUMPDEST POP POP POP POP POP SWAP1 POP SWAP2 SWAP1 POP JUMP JUMPDEST PUSH1 0x0 CALLER SWAP1 POP SWAP1 JUMP JUMPDEST PUSH20 0x7264D9FD1A56D865D8B7D96E5251A6EFE820B483 DUP2 JUMP JUMPDEST PUSH2 0xC46 PUSH2 0x1671 JUMP JUMPDEST PUSH1 0x0 PUSH1 0x1 PUSH1 0x0 DUP9 PUSH1 0x40 MLOAD PUSH2 0xC5A SWAP2 SWAP1 PUSH2 0x206E JUMP JUMPDEST SWAP1 DUP2 MSTORE PUSH1 0x20 ADD PUSH1 0x40 MLOAD DUP1 SWAP2 SUB SWAP1 KECCAK256 DUP8 PUSH1 0x40 MLOAD PUSH2 0xC76 SWAP2 SWAP1 PUSH2 0x206E JUMP JUMPDEST SWAP1 DUP2 MSTORE PUSH1 0x20 ADD PUSH1 0x40 MLOAD DUP1 SWAP2 SUB SWAP1 KECCAK256 SLOAD SUB PUSH2 0xDA5 JUMPI PUSH1 0x40 MLOAD DUP1 PUSH1 0x40 ADD PUSH1 0x40 MSTORE DUP1 PUSH1 0xE DUP2 MSTORE PUSH1 0x20 ADD PUSH32 0x6163636573732D7375626A656374000000000000000000000000000000000000 DUP2 MSTORE POP DUP3 DUP3 PUSH1 0xC DUP2 LT PUSH2 0xCD3 JUMPI PUSH2 0xCD2 PUSH2 0x2085 JUMP JUMPDEST JUMPDEST PUSH1 0x20 MUL ADD DUP2 SWAP1 MSTORE POP PUSH1 0x40 MLOAD DUP1 PUSH1 0x40 ADD PUSH1 0x40 MSTORE DUP1 PUSH1 0xC DUP2 MSTORE PUSH1 0x20 ADD PUSH32 0x6973417574686F72697A65640000000000000000000000000000000000000000 DUP2 MSTORE POP DUP3 PUSH1 0x1 DUP4 PUSH2 0xD1F SWAP2 SWAP1 PUSH2 0x20E3 JUMP JUMPDEST PUSH1 0xC DUP2 LT PUSH2 0xD30 JUMPI PUSH2 0xD2F PUSH2 0x2085 JUMP JUMPDEST JUMPDEST PUSH1 0x20 MUL ADD DUP2 SWAP1 MSTORE POP PUSH1 0x40 MLOAD DUP1 PUSH1 0x40 ADD PUSH1 0x40 MSTORE DUP1 PUSH1 0x4 DUP2 MSTORE PUSH1 0x20 ADD PUSH32 0x7472756500000000000000000000000000000000000000000000000000000000 DUP2 MSTORE POP DUP3 PUSH1 0x2 DUP4 PUSH2 0xD7C SWAP2 SWAP1 PUSH2 0x20E3 JUMP JUMPDEST PUSH1 0xC DUP2 LT PUSH2 0xD8D JUMPI PUSH2 0xD8C PUSH2 0x2085 JUMP JUMPDEST JUMPDEST PUSH1 0x20 MUL ADD DUP2 SWAP1 MSTORE POP PUSH1 0x3 DUP2 PUSH2 0xDA2 SWAP2 SWAP1 PUSH2 0x20E3 JUMP JUMPDEST SWAP1 POP JUMPDEST PUSH1 0x1 DUP1 DUP9 PUSH1 0x40 MLOAD PUSH2 0xDB6 SWAP2 SWAP1 PUSH2 0x206E JUMP JUMPDEST SWAP1 DUP2 MSTORE PUSH1 0x20 ADD PUSH1 0x40 MLOAD DUP1 SWAP2 SUB SWAP1 KECCAK256 DUP7 PUSH1 0x40 MLOAD PUSH2 0xDD2 SWAP2 SWAP1 PUSH2 0x206E JUMP JUMPDEST SWAP1 DUP2 MSTORE PUSH1 0x20 ADD PUSH1 0x40 MLOAD DUP1 SWAP2 SUB SWAP1 KECCAK256 SLOAD SUB PUSH2 0xECC JUMPI PUSH1 0x40 MLOAD DUP1 PUSH1 0x40 ADD PUSH1 0x40 MSTORE DUP1 PUSH1 0xE DUP2 MSTORE PUSH1 0x20 ADD PUSH32 0x6163636573732D7375626A656374000000000000000000000000000000000000 DUP2 MSTORE POP DUP3 DUP3 PUSH1 0xC DUP2 LT PUSH2 0xE2F JUMPI PUSH2 0xE2E PUSH2 0x2085 JUMP JUMPDEST JUMPDEST PUSH1 0x20 MUL ADD DUP2 SWAP1 MSTORE POP PUSH1 0x40 MLOAD DUP1 PUSH1 0x40 ADD PUSH1 0x40 MSTORE DUP1 PUSH1 0xE DUP2 MSTORE PUSH1 0x20 ADD PUSH32 0x7370656369616C697A6174696F6E000000000000000000000000000000000000 DUP2 MSTORE POP DUP3 PUSH1 0x1 DUP4 PUSH2 0xE7B SWAP2 SWAP1 PUSH2 0x20E3 JUMP JUMPDEST PUSH1 0xC DUP2 LT PUSH2 0xE8C JUMPI PUSH2 0xE8B PUSH2 0x2085 JUMP JUMPDEST JUMPDEST PUSH1 0x20 MUL ADD DUP2 SWAP1 MSTORE POP DUP5 DUP3 PUSH1 0x2 DUP4 PUSH2 0xEA3 SWAP2 SWAP1 PUSH2 0x20E3 JUMP JUMPDEST PUSH1 0xC DUP2 LT PUSH2 0xEB4 JUMPI PUSH2 0xEB3 PUSH2 0x2085 JUMP JUMPDEST JUMPDEST PUSH1 0x20 MUL ADD DUP2 SWAP1 MSTORE POP PUSH1 0x3 DUP2 PUSH2 0xEC9 SWAP2 SWAP1 PUSH2 0x20E3 JUMP JUMPDEST SWAP1 POP JUMPDEST PUSH1 0x1 PUSH1 0x2 DUP9 PUSH1 0x40 MLOAD PUSH2 0xEDE SWAP2 SWAP1 PUSH2 0x206E JUMP JUMPDEST SWAP1 DUP2 MSTORE PUSH1 0x20 ADD PUSH1 0x40 MLOAD DUP1 SWAP2 SUB SWAP1 KECCAK256 DUP6 PUSH1 0x40 MLOAD PUSH2 0xEFA SWAP2 SWAP1 PUSH2 0x206E JUMP JUMPDEST SWAP1 DUP2 MSTORE PUSH1 0x20 ADD PUSH1 0x40 MLOAD DUP1 SWAP2 SUB SWAP1 KECCAK256 SLOAD SUB PUSH2 0xFF4 JUMPI PUSH1 0x40 MLOAD DUP1 PUSH1 0x40 ADD PUSH1 0x40 MSTORE DUP1 PUSH1 0xE DUP2 MSTORE PUSH1 0x20 ADD PUSH32 0x6163636573732D7375626A656374000000000000000000000000000000000000 DUP2 MSTORE POP DUP3 DUP3 PUSH1 0xC DUP2 LT PUSH2 0xF57 JUMPI PUSH2 0xF56 PUSH2 0x2085 JUMP JUMPDEST JUMPDEST PUSH1 0x20 MUL ADD DUP2 SWAP1 MSTORE POP PUSH1 0x40 MLOAD DUP1 PUSH1 0x40 ADD PUSH1 0x40 MSTORE DUP1 PUSH1 0xF DUP2 MSTORE PUSH1 0x20 ADD PUSH32 0x6861734163636573735269676874730000000000000000000000000000000000 DUP2 MSTORE POP DUP3 PUSH1 0x1 DUP4 PUSH2 0xFA3 SWAP2 SWAP1 PUSH2 0x20E3 JUMP JUMPDEST PUSH1 0xC DUP2 LT PUSH2 0xFB4 JUMPI PUSH2 0xFB3 PUSH2 0x2085 JUMP JUMPDEST JUMPDEST PUSH1 0x20 MUL ADD DUP2 SWAP1 MSTORE POP DUP4 DUP3 PUSH1 0x2 DUP4 PUSH2 0xFCB SWAP2 SWAP1 PUSH2 0x20E3 JUMP JUMPDEST PUSH1 0xC DUP2 LT PUSH2 0xFDC JUMPI PUSH2 0xFDB PUSH2 0x2085 JUMP JUMPDEST JUMPDEST PUSH1 0x20 MUL ADD DUP2 SWAP1 MSTORE POP PUSH1 0x3 DUP2 PUSH2 0xFF1 SWAP2 SWAP1 PUSH2 0x20E3 JUMP JUMPDEST SWAP1 POP JUMPDEST PUSH1 0x1 PUSH1 0x3 DUP8 PUSH1 0x40 MLOAD PUSH2 0x1006 SWAP2 SWAP1 PUSH2 0x206E JUMP JUMPDEST SWAP1 DUP2 MSTORE PUSH1 0x20 ADD PUSH1 0x40 MLOAD DUP1 SWAP2 SUB SWAP1 KECCAK256 DUP5 PUSH1 0x40 MLOAD PUSH2 0x1022 SWAP2 SWAP1 PUSH2 0x206E JUMP JUMPDEST SWAP1 DUP2 MSTORE PUSH1 0x20 ADD PUSH1 0x40 MLOAD DUP1 SWAP2 SUB SWAP1 KECCAK256 SLOAD SUB PUSH2 0x111C JUMPI PUSH1 0x40 MLOAD DUP1 PUSH1 0x40 ADD PUSH1 0x40 MSTORE DUP1 PUSH1 0x7 DUP2 MSTORE PUSH1 0x20 ADD PUSH32 0x6461746173657400000000000000000000000000000000000000000000000000 DUP2 MSTORE POP DUP3 DUP3 PUSH1 0xC DUP2 LT PUSH2 0x107F JUMPI PUSH2 0x107E PUSH2 0x2085 JUMP JUMPDEST JUMPDEST PUSH1 0x20 MUL ADD DUP2 SWAP1 MSTORE POP PUSH1 0x40 MLOAD DUP1 PUSH1 0x40 ADD PUSH1 0x40 MSTORE DUP1 PUSH1 0x8 DUP2 MSTORE PUSH1 0x20 ADD PUSH32 0x6C6F636174696F6E000000000000000000000000000000000000000000000000 DUP2 MSTORE POP DUP3 PUSH1 0x1 DUP4 PUSH2 0x10CB SWAP2 SWAP1 PUSH2 0x20E3 JUMP JUMPDEST PUSH1 0xC DUP2 LT PUSH2 0x10DC JUMPI PUSH2 0x10DB PUSH2 0x2085 JUMP JUMPDEST JUMPDEST PUSH1 0x20 MUL ADD DUP2 SWAP1 MSTORE POP DUP3 DUP3 PUSH1 0x2 DUP4 PUSH2 0x10F3 SWAP2 SWAP1 PUSH2 0x20E3 JUMP JUMPDEST PUSH1 0xC DUP2 LT PUSH2 0x1104 JUMPI PUSH2 0x1103 PUSH2 0x2085 JUMP JUMPDEST JUMPDEST PUSH1 0x20 MUL ADD DUP2 SWAP1 MSTORE POP PUSH1 0x3 DUP2 PUSH2 0x1119 SWAP2 SWAP1 PUSH2 0x20E3 JUMP JUMPDEST SWAP1 POP JUMPDEST PUSH1 0x0 JUMPDEST DUP2 DUP2 LT ISZERO PUSH2 0x12D4 JUMPI PUSH1 0x0 DUP4 DUP3 PUSH1 0xC DUP2 LT PUSH2 0x113C JUMPI PUSH2 0x113B PUSH2 0x2085 JUMP JUMPDEST JUMPDEST PUSH1 0x20 MUL ADD MLOAD SWAP1 POP PUSH1 0x0 DUP5 PUSH1 0x1 DUP5 PUSH2 0x1153 SWAP2 SWAP1 PUSH2 0x20E3 JUMP JUMPDEST PUSH1 0xC DUP2 LT PUSH2 0x1164 JUMPI PUSH2 0x1163 PUSH2 0x2085 JUMP JUMPDEST JUMPDEST PUSH1 0x20 MUL ADD MLOAD SWAP1 POP PUSH1 0x0 DUP6 PUSH1 0x2 DUP6 PUSH2 0x117B SWAP2 SWAP1 PUSH2 0x20E3 JUMP JUMPDEST PUSH1 0xC DUP2 LT PUSH2 0x118C JUMPI PUSH2 0x118B PUSH2 0x2085 JUMP JUMPDEST JUMPDEST PUSH1 0x20 MUL ADD MLOAD SWAP1 POP PUSH1 0x1 PUSH1 0xD DUP14 PUSH1 0x40 MLOAD PUSH2 0x11A5 SWAP2 SWAP1 PUSH2 0x206E JUMP JUMPDEST SWAP1 DUP2 MSTORE PUSH1 0x20 ADD PUSH1 0x40 MLOAD DUP1 SWAP2 SUB SWAP1 KECCAK256 DUP5 PUSH1 0x40 MLOAD PUSH2 0x11C1 SWAP2 SWAP1 PUSH2 0x206E JUMP JUMPDEST SWAP1 DUP2 MSTORE PUSH1 0x20 ADD PUSH1 0x40 MLOAD DUP1 SWAP2 SUB SWAP1 KECCAK256 DUP4 PUSH1 0x40 MLOAD PUSH2 0x11DD SWAP2 SWAP1 PUSH2 0x206E JUMP JUMPDEST SWAP1 DUP2 MSTORE PUSH1 0x20 ADD PUSH1 0x40 MLOAD DUP1 SWAP2 SUB SWAP1 KECCAK256 SLOAD SUB PUSH2 0x12BD JUMPI PUSH1 0x1 PUSH1 0x7 PUSH1 0x0 PUSH1 0x6 DUP7 PUSH1 0x40 MLOAD PUSH2 0x1207 SWAP2 SWAP1 PUSH2 0x206E JUMP JUMPDEST SWAP1 DUP2 MSTORE PUSH1 0x20 ADD PUSH1 0x40 MLOAD DUP1 SWAP2 SUB SWAP1 KECCAK256 SLOAD DUP2 MSTORE PUSH1 0x20 ADD SWAP1 DUP2 MSTORE PUSH1 0x20 ADD PUSH1 0x0 KECCAK256 PUSH1 0x0 PUSH1 0x6 PUSH2 0x1242 DUP8 DUP8 PUSH1 0x40 MLOAD DUP1 PUSH1 0x20 ADD PUSH1 0x40 MSTORE DUP1 PUSH1 0x0 DUP2 MSTORE POP PUSH2 0x1642 JUMP JUMPDEST PUSH1 0x40 MLOAD PUSH2 0x124F SWAP2 SWAP1 PUSH2 0x206E JUMP JUMPDEST SWAP1 DUP2 MSTORE PUSH1 0x20 ADD PUSH1 0x40 MLOAD DUP1 SWAP2 SUB SWAP1 KECCAK256 SLOAD DUP2 MSTORE PUSH1 0x20 ADD SWAP1 DUP2 MSTORE PUSH1 0x20 ADD PUSH1 0x0 KECCAK256 PUSH1 0x0 PUSH1 0x6 PUSH2 0x127B DUP8 DUP8 DUP8 PUSH2 0x1642 JUMP JUMPDEST PUSH1 0x40 MLOAD PUSH2 0x1288 SWAP2 SWAP1 PUSH2 0x206E JUMP JUMPDEST SWAP1 DUP2 MSTORE PUSH1 0x20 ADD PUSH1 0x40 MLOAD DUP1 SWAP2 SUB SWAP1 KECCAK256 SLOAD DUP2 MSTORE PUSH1 0x20 ADD SWAP1 DUP2 MSTORE PUSH1 0x20 ADD PUSH1 0x0 KECCAK256 PUSH1 0x0 PUSH2 0x100 EXP DUP2 SLOAD DUP2 PUSH1 0xFF MUL NOT AND SWAP1 DUP4 ISZERO ISZERO MUL OR SWAP1 SSTORE POP JUMPDEST POP POP POP PUSH1 0x3 DUP2 PUSH2 0x12CD SWAP2 SWAP1 PUSH2 0x20E3 JUMP JUMPDEST SWAP1 POP PUSH2 0x111F JUMP JUMPDEST POP PUSH1 0x0 PUSH1 0x1 SWAP1 POP PUSH1 0x0 PUSH1 0x1 SWAP1 POP JUMPDEST PUSH1 0x8 SLOAD DUP2 GT PUSH2 0x1419 JUMPI PUSH1 0x0 PUSH1 0x1 SWAP1 POP JUMPDEST PUSH1 0x9 PUSH1 0x0 DUP4 DUP2 MSTORE PUSH1 0x20 ADD SWAP1 DUP2 MSTORE PUSH1 0x20 ADD PUSH1 0x0 KECCAK256 SLOAD DUP2 GT PUSH2 0x1405 JUMPI PUSH1 0x0 PUSH1 0x1 SWAP1 POP JUMPDEST PUSH1 0xA PUSH1 0x0 DUP5 DUP2 MSTORE PUSH1 0x20 ADD SWAP1 DUP2 MSTORE PUSH1 0x20 ADD PUSH1 0x0 KECCAK256 PUSH1 0x0 DUP4 DUP2 MSTORE PUSH1 0x20 ADD SWAP1 DUP2 MSTORE PUSH1 0x20 ADD PUSH1 0x0 KECCAK256 SLOAD DUP2 GT PUSH2 0x13F1 JUMPI PUSH1 0x7 PUSH1 0x0 DUP5 DUP2 MSTORE PUSH1 0x20 ADD SWAP1 DUP2 MSTORE PUSH1 0x20 ADD PUSH1 0x0 KECCAK256 PUSH1 0x0 DUP4 DUP2 MSTORE PUSH1 0x20 ADD SWAP1 DUP2 MSTORE PUSH1 0x20 ADD PUSH1 0x0 KECCAK256 PUSH1 0x0 DUP3 DUP2 MSTORE PUSH1 0x20 ADD SWAP1 DUP2 MSTORE PUSH1 0x20 ADD PUSH1 0x0 KECCAK256 PUSH1 0x0 SWAP1 SLOAD SWAP1 PUSH2 0x100 EXP SWAP1 DIV PUSH1 0xFF AND ISZERO PUSH2 0x13D9 JUMPI PUSH1 0x0 PUSH1 0x7 PUSH1 0x0 DUP6 DUP2 MSTORE PUSH1 0x20 ADD SWAP1 DUP2 MSTORE PUSH1 0x20 ADD PUSH1 0x0 KECCAK256 PUSH1 0x0 DUP5 DUP2 MSTORE PUSH1 0x20 ADD SWAP1 DUP2 MSTORE PUSH1 0x20 ADD PUSH1 0x0 KECCAK256 PUSH1 0x0 DUP4 DUP2 MSTORE PUSH1 0x20 ADD SWAP1 DUP2 MSTORE PUSH1 0x20 ADD PUSH1 0x0 KECCAK256 PUSH1 0x0 PUSH2 0x100 EXP DUP2 SLOAD DUP2 PUSH1 0xFF MUL NOT AND SWAP1 DUP4 ISZERO ISZERO MUL OR SWAP1 SSTORE POP PUSH2 0x13DE JUMP JUMPDEST PUSH1 0x0 SWAP4 POP JUMPDEST DUP1 DUP1 PUSH2 0x13E9 SWAP1 PUSH2 0x2117 JUMP JUMPDEST SWAP2 POP POP PUSH2 0x1313 JUMP JUMPDEST POP DUP1 DUP1 PUSH2 0x13FD SWAP1 PUSH2 0x2117 JUMP JUMPDEST SWAP2 POP POP PUSH2 0x12F2 JUMP JUMPDEST POP DUP1 DUP1 PUSH2 0x1411 SWAP1 PUSH2 0x2117 JUMP JUMPDEST SWAP2 POP POP PUSH2 0x12E2 JUMP JUMPDEST POP DUP1 ISZERO PUSH2 0x1486 JUMPI PUSH1 0x40 MLOAD DUP1 PUSH1 0x40 ADD PUSH1 0x40 MSTORE DUP1 PUSH1 0x6 DUP2 MSTORE PUSH1 0x20 ADD PUSH32 0x5065726D69740000000000000000000000000000000000000000000000000000 DUP2 MSTORE POP PUSH1 0xC DUP11 PUSH1 0x40 MLOAD PUSH2 0x1466 SWAP2 SWAP1 PUSH2 0x206E JUMP JUMPDEST SWAP1 DUP2 MSTORE PUSH1 0x20 ADD PUSH1 0x40 MLOAD DUP1 SWAP2 SUB SWAP1 KECCAK256 SWAP1 DUP2 PUSH2 0x1480 SWAP2 SWAP1 PUSH2 0x236B JUMP JUMPDEST POP PUSH2 0x14E8 JUMP JUMPDEST PUSH1 0x40 MLOAD DUP1 PUSH1 0x40 ADD PUSH1 0x40 MSTORE DUP1 PUSH1 0x4 DUP2 MSTORE PUSH1 0x20 ADD PUSH32 0x44656E7900000000000000000000000000000000000000000000000000000000 DUP2 MSTORE POP PUSH1 0xC DUP11 PUSH1 0x40 MLOAD PUSH2 0x14CC SWAP2 SWAP1 PUSH2 0x206E JUMP JUMPDEST SWAP1 DUP2 MSTORE PUSH1 0x20 ADD PUSH1 0x40 MLOAD DUP1 SWAP2 SUB SWAP1 KECCAK256 SWAP1 DUP2 PUSH2 0x14E6 SWAP2 SWAP1 PUSH2 0x236B JUMP JUMPDEST POP JUMPDEST PUSH1 0x4 PUSH1 0x0 DUP2 SLOAD DUP1 SWAP3 SWAP2 SWAP1 PUSH2 0x14FB SWAP1 PUSH2 0x2117 JUMP JUMPDEST SWAP2 SWAP1 POP SSTORE POP POP POP POP POP POP POP POP POP POP JUMP JUMPDEST PUSH1 0x0 DUP1 PUSH1 0x0 DUP1 PUSH2 0x151A DUP6 PUSH2 0x157A JUMP JUMPDEST SWAP3 POP SWAP3 POP SWAP3 POP PUSH1 0x1 DUP7 DUP3 DUP6 DUP6 PUSH1 0x40 MLOAD PUSH1 0x0 DUP2 MSTORE PUSH1 0x20 ADD PUSH1 0x40 MSTORE PUSH1 0x40 MLOAD PUSH2 0x1543 SWAP5 SWAP4 SWAP3 SWAP2 SWAP1 PUSH2 0x243D JUMP JUMPDEST PUSH1 0x20 PUSH1 0x40 MLOAD PUSH1 0x20 DUP2 SUB SWAP1 DUP1 DUP5 SUB SWAP1 DUP6 GAS STATICCALL ISZERO DUP1 ISZERO PUSH2 0x1565 JUMPI RETURNDATASIZE PUSH1 0x0 DUP1 RETURNDATACOPY RETURNDATASIZE PUSH1 0x0 REVERT JUMPDEST POP POP POP PUSH1 0x20 PUSH1 0x40 MLOAD SUB MLOAD SWAP4 POP POP POP POP SWAP3 SWAP2 POP POP JUMP JUMPDEST PUSH1 0x0 DUP1 PUSH1 0x0 PUSH1 0x41 DUP5 MLOAD EQ PUSH2 0x15C3 JUMPI PUSH1 0x40 MLOAD PUSH32 0x8C379A000000000000000000000000000000000000000000000000000000000 DUP2 MSTORE PUSH1 0x4 ADD PUSH2 0x15BA SWAP1 PUSH2 0x24CE JUMP JUMPDEST PUSH1 0x40 MLOAD DUP1 SWAP2 SUB SWAP1 REVERT JUMPDEST PUSH1 0x20 DUP5 ADD MLOAD SWAP3 POP PUSH1 0x40 DUP5 ADD MLOAD SWAP2 POP PUSH1 0x60 DUP5 ADD MLOAD PUSH1 0x0 BYTE SWAP1 POP SWAP2 SWAP4 SWAP1 SWAP3 POP JUMP JUMPDEST PUSH1 0x0 DUP2 PUSH1 0x40 MLOAD PUSH1 0x20 ADD PUSH2 0x15F5 SWAP2 SWAP1 PUSH2 0x206E JUMP JUMPDEST PUSH1 0x40 MLOAD PUSH1 0x20 DUP2 DUP4 SUB SUB DUP2 MSTORE SWAP1 PUSH1 0x40 MSTORE DUP1 MLOAD SWAP1 PUSH1 0x20 ADD KECCAK256 SWAP1 POP SWAP2 SWAP1 POP JUMP JUMPDEST PUSH1 0x0 DUP2 PUSH1 0x40 MLOAD PUSH1 0x20 ADD PUSH2 0x1625 SWAP2 SWAP1 PUSH2 0x255B JUMP JUMPDEST PUSH1 0x40 MLOAD PUSH1 0x20 DUP2 DUP4 SUB SUB DUP2 MSTORE SWAP1 PUSH1 0x40 MSTORE DUP1 MLOAD SWAP1 PUSH1 0x20 ADD KECCAK256 SWAP1 POP SWAP2 SWAP1 POP JUMP JUMPDEST PUSH1 0x60 DUP4 DUP4 DUP4 PUSH1 0x40 MLOAD PUSH1 0x20 ADD PUSH2 0x1659 SWAP4 SWAP3 SWAP2 SWAP1 PUSH2 0x2581 JUMP JUMPDEST PUSH1 0x40 MLOAD PUSH1 0x20 DUP2 DUP4 SUB SUB DUP2 MSTORE SWAP1 PUSH1 0x40 MSTORE SWAP1 POP SWAP4 SWAP3 POP POP POP JUMP JUMPDEST PUSH1 0x40 MLOAD DUP1 PUSH2 0x180 ADD PUSH1 0x40 MSTORE DUP1 PUSH1 0xC SWAP1 JUMPDEST PUSH1 0x60 DUP2 MSTORE PUSH1 0x20 ADD SWAP1 PUSH1 0x1 SWAP1 SUB SWAP1 DUP2 PUSH2 0x1681 JUMPI SWAP1 POP POP SWAP1 JUMP JUMPDEST PUSH1 0x0 PUSH1 0x40 MLOAD SWAP1 POP SWAP1 JUMP JUMPDEST PUSH1 0x0 DUP1 REVERT JUMPDEST PUSH1 0x0 DUP1 REVERT JUMPDEST PUSH1 0x0 DUP1 REVERT JUMPDEST PUSH1 0x0 DUP1 REVERT JUMPDEST PUSH1 0x0 PUSH1 0x1F NOT PUSH1 0x1F DUP4 ADD AND SWAP1 POP SWAP2 SWAP1 POP JUMP JUMPDEST PUSH32 0x4E487B7100000000000000000000000000000000000000000000000000000000 PUSH1 0x0 MSTORE PUSH1 0x41 PUSH1 0x4 MSTORE PUSH1 0x24 PUSH1 0x0 REVERT JUMPDEST PUSH2 0x1700 DUP3 PUSH2 0x16B7 JUMP JUMPDEST DUP2 ADD DUP2 DUP2 LT PUSH8 0xFFFFFFFFFFFFFFFF DUP3 GT OR ISZERO PUSH2 0x171F JUMPI PUSH2 0x171E PUSH2 0x16C8 JUMP JUMPDEST JUMPDEST DUP1 PUSH1 0x40 MSTORE POP POP POP JUMP JUMPDEST PUSH1 0x0 PUSH2 0x1732 PUSH2 0x1699 JUMP JUMPDEST SWAP1 POP PUSH2 0x173E DUP3 DUP3 PUSH2 0x16F7 JUMP JUMPDEST SWAP2 SWAP1 POP JUMP JUMPDEST PUSH1 0x0 PUSH8 0xFFFFFFFFFFFFFFFF DUP3 GT ISZERO PUSH2 0x175E JUMPI PUSH2 0x175D PUSH2 0x16C8 JUMP JUMPDEST JUMPDEST PUSH2 0x1767 DUP3 PUSH2 0x16B7 JUMP JUMPDEST SWAP1 POP PUSH1 0x20 DUP2 ADD SWAP1 POP SWAP2 SWAP1 POP JUMP JUMPDEST DUP3 DUP2 DUP4 CALLDATACOPY PUSH1 0x0 DUP4 DUP4 ADD MSTORE POP POP POP JUMP JUMPDEST PUSH1 0x0 PUSH2 0x1796 PUSH2 0x1791 DUP5 PUSH2 0x1743 JUMP JUMPDEST PUSH2 0x1728 JUMP JUMPDEST SWAP1 POP DUP3 DUP2 MSTORE PUSH1 0x20 DUP2 ADD DUP5 DUP5 DUP5 ADD GT ISZERO PUSH2 0x17B2 JUMPI PUSH2 0x17B1 PUSH2 0x16B2 JUMP JUMPDEST JUMPDEST PUSH2 0x17BD DUP5 DUP3 DUP6 PUSH2 0x1774 JUMP JUMPDEST POP SWAP4 SWAP3 POP POP POP JUMP JUMPDEST PUSH1 0x0 DUP3 PUSH1 0x1F DUP4 ADD SLT PUSH2 0x17DA JUMPI PUSH2 0x17D9 PUSH2 0x16AD JUMP JUMPDEST JUMPDEST DUP2 CALLDATALOAD PUSH2 0x17EA DUP5 DUP3 PUSH1 0x20 DUP7 ADD PUSH2 0x1783 JUMP JUMPDEST SWAP2 POP POP SWAP3 SWAP2 POP POP JUMP JUMPDEST PUSH1 0x0 PUSH8 0xFFFFFFFFFFFFFFFF DUP3 GT ISZERO PUSH2 0x180E JUMPI PUSH2 0x180D PUSH2 0x16C8 JUMP JUMPDEST JUMPDEST PUSH2 0x1817 DUP3 PUSH2 0x16B7 JUMP JUMPDEST SWAP1 POP PUSH1 0x20 DUP2 ADD SWAP1 POP SWAP2 SWAP1 POP JUMP JUMPDEST PUSH1 0x0 PUSH2 0x1837 PUSH2 0x1832 DUP5 PUSH2 0x17F3 JUMP JUMPDEST PUSH2 0x1728 JUMP JUMPDEST SWAP1 POP DUP3 DUP2 MSTORE PUSH1 0x20 DUP2 ADD DUP5 DUP5 DUP5 ADD GT ISZERO PUSH2 0x1853 JUMPI PUSH2 0x1852 PUSH2 0x16B2 JUMP JUMPDEST JUMPDEST PUSH2 0x185E DUP5 DUP3 DUP6 PUSH2 0x1774 JUMP JUMPDEST POP SWAP4 SWAP3 POP POP POP JUMP JUMPDEST PUSH1 0x0 DUP3 PUSH1 0x1F DUP4 ADD SLT PUSH2 0x187B JUMPI PUSH2 0x187A PUSH2 0x16AD JUMP JUMPDEST JUMPDEST DUP2 CALLDATALOAD PUSH2 0x188B DUP5 DUP3 PUSH1 0x20 DUP7 ADD PUSH2 0x1824 JUMP JUMPDEST SWAP2 POP POP SWAP3 SWAP2 POP POP JUMP JUMPDEST PUSH1 0x0 DUP1 PUSH1 0x0 DUP1 PUSH1 0x0 DUP1 PUSH1 0x0 PUSH1 0xE0 DUP9 DUP11 SUB SLT ISZERO PUSH2 0x18B3 JUMPI PUSH2 0x18B2 PUSH2 0x16A3 JUMP JUMPDEST JUMPDEST PUSH1 0x0 DUP9 ADD CALLDATALOAD PUSH8 0xFFFFFFFFFFFFFFFF DUP2 GT ISZERO PUSH2 0x18D1 JUMPI PUSH2 0x18D0 PUSH2 0x16A8 JUMP JUMPDEST JUMPDEST PUSH2 0x18DD DUP11 DUP3 DUP12 ADD PUSH2 0x17C5 JUMP JUMPDEST SWAP8 POP POP PUSH1 0x20 DUP9 ADD CALLDATALOAD PUSH8 0xFFFFFFFFFFFFFFFF DUP2 GT ISZERO PUSH2 0x18FE JUMPI PUSH2 0x18FD PUSH2 0x16A8 JUMP JUMPDEST JUMPDEST PUSH2 0x190A DUP11 DUP3 DUP12 ADD PUSH2 0x17C5 JUMP JUMPDEST SWAP7 POP POP PUSH1 0x40 DUP9 ADD CALLDATALOAD PUSH8 0xFFFFFFFFFFFFFFFF DUP2 GT ISZERO PUSH2 0x192B JUMPI PUSH2 0x192A PUSH2 0x16A8 JUMP JUMPDEST JUMPDEST PUSH2 0x1937 DUP11 DUP3 DUP12 ADD PUSH2 0x17C5 JUMP JUMPDEST SWAP6 POP POP PUSH1 0x60 DUP9 ADD CALLDATALOAD PUSH8 0xFFFFFFFFFFFFFFFF DUP2 GT ISZERO PUSH2 0x1958 JUMPI PUSH2 0x1957 PUSH2 0x16A8 JUMP JUMPDEST JUMPDEST PUSH2 0x1964 DUP11 DUP3 DUP12 ADD PUSH2 0x17C5 JUMP JUMPDEST SWAP5 POP POP PUSH1 0x80 DUP9 ADD CALLDATALOAD PUSH8 0xFFFFFFFFFFFFFFFF DUP2 GT ISZERO PUSH2 0x1985 JUMPI PUSH2 0x1984 PUSH2 0x16A8 JUMP JUMPDEST JUMPDEST PUSH2 0x1991 DUP11 DUP3 DUP12 ADD PUSH2 0x17C5 JUMP JUMPDEST SWAP4 POP POP PUSH1 0xA0 DUP9 ADD CALLDATALOAD PUSH8 0xFFFFFFFFFFFFFFFF DUP2 GT ISZERO PUSH2 0x19B2 JUMPI PUSH2 0x19B1 PUSH2 0x16A8 JUMP JUMPDEST JUMPDEST PUSH2 0x19BE DUP11 DUP3 DUP12 ADD PUSH2 0x17C5 JUMP JUMPDEST SWAP3 POP POP PUSH1 0xC0 DUP9 ADD CALLDATALOAD PUSH8 0xFFFFFFFFFFFFFFFF DUP2 GT ISZERO PUSH2 0x19DF JUMPI PUSH2 0x19DE PUSH2 0x16A8 JUMP JUMPDEST JUMPDEST PUSH2 0x19EB DUP11 DUP3 DUP12 ADD PUSH2 0x1866 JUMP JUMPDEST SWAP2 POP POP SWAP3 SWAP6 SWAP9 SWAP2 SWAP5 SWAP8 POP SWAP3 SWAP6 POP JUMP JUMPDEST PUSH1 0x0 PUSH20 0xFFFFFFFFFFFFFFFFFFFFFFFFFFFFFFFFFFFFFFFF DUP3 AND SWAP1 POP SWAP2 SWAP1 POP JUMP JUMPDEST PUSH1 0x0 PUSH2 0x1A25 DUP3 PUSH2 0x19FA JUMP JUMPDEST SWAP1 POP SWAP2 SWAP1 POP JUMP JUMPDEST PUSH2 0x1A35 DUP2 PUSH2 0x1A1A JUMP JUMPDEST DUP2 EQ PUSH2 0x1A40 JUMPI PUSH1 0x0 DUP1 REVERT JUMPDEST POP JUMP JUMPDEST PUSH1 0x0 DUP2 CALLDATALOAD SWAP1 POP PUSH2 0x1A52 DUP2 PUSH2 0x1A2C JUMP JUMPDEST SWAP3 SWAP2 POP POP JUMP JUMPDEST PUSH1 0x0 DUP1 PUSH1 0x0 PUSH1 0x60 DUP5 DUP7 SUB SLT ISZERO PUSH2 0x1A71 JUMPI PUSH2 0x1A70 PUSH2 0x16A3 JUMP JUMPDEST JUMPDEST PUSH1 0x0 PUSH2 0x1A7F DUP7 DUP3 DUP8 ADD PUSH2 0x1A43 JUMP JUMPDEST SWAP4 POP POP PUSH1 0x20 DUP5 ADD CALLDATALOAD PUSH8 0xFFFFFFFFFFFFFFFF DUP2 GT ISZERO PUSH2 0x1AA0 JUMPI PUSH2 0x1A9F PUSH2 0x16A8 JUMP JUMPDEST JUMPDEST PUSH2 0x1AAC DUP7 DUP3 DUP8 ADD PUSH2 0x17C5 JUMP JUMPDEST SWAP3 POP POP PUSH1 0x40 DUP5 ADD CALLDATALOAD PUSH8 0xFFFFFFFFFFFFFFFF DUP2 GT ISZERO PUSH2 0x1ACD JUMPI PUSH2 0x1ACC PUSH2 0x16A8 JUMP JUMPDEST JUMPDEST PUSH2 0x1AD9 DUP7 DUP3 DUP8 ADD PUSH2 0x1866 JUMP JUMPDEST SWAP2 POP POP SWAP3 POP SWAP3 POP SWAP3 JUMP JUMPDEST PUSH1 0x0 DUP2 ISZERO ISZERO SWAP1 POP SWAP2 SWAP1 POP JUMP JUMPDEST PUSH2 0x1AF8 DUP2 PUSH2 0x1AE3 JUMP JUMPDEST DUP3 MSTORE POP POP JUMP JUMPDEST PUSH1 0x0 PUSH1 0x20 DUP3 ADD SWAP1 POP PUSH2 0x1B13 PUSH1 0x0 DUP4 ADD DUP5 PUSH2 0x1AEF JUMP JUMPDEST SWAP3 SWAP2 POP POP JUMP JUMPDEST PUSH1 0x0 DUP2 SWAP1 POP SWAP2 SWAP1 POP JUMP JUMPDEST PUSH2 0x1B2C DUP2 PUSH2 0x1B19 JUMP JUMPDEST DUP3 MSTORE POP POP JUMP JUMPDEST PUSH1 0x0 PUSH1 0x20 DUP3 ADD SWAP1 POP PUSH2 0x1B47 PUSH1 0x0 DUP4 ADD DUP5 PUSH2 0x1B23 JUMP JUMPDEST SWAP3 SWAP2 POP POP JUMP JUMPDEST PUSH1 0x0 PUSH1 0x20 DUP3 DUP5 SUB SLT ISZERO PUSH2 0x1B63 JUMPI PUSH2 0x1B62 PUSH2 0x16A3 JUMP JUMPDEST JUMPDEST PUSH1 0x0 DUP3 ADD CALLDATALOAD PUSH8 0xFFFFFFFFFFFFFFFF DUP2 GT ISZERO PUSH2 0x1B81 JUMPI PUSH2 0x1B80 PUSH2 0x16A8 JUMP JUMPDEST JUMPDEST PUSH2 0x1B8D DUP5 DUP3 DUP6 ADD PUSH2 0x17C5 JUMP JUMPDEST SWAP2 POP POP SWAP3 SWAP2 POP POP JUMP JUMPDEST PUSH1 0x0 DUP2 MLOAD SWAP1 POP SWAP2 SWAP1 POP JUMP JUMPDEST PUSH1 0x0 DUP3 DUP3 MSTORE PUSH1 0x20 DUP3 ADD SWAP1 POP SWAP3 SWAP2 POP POP JUMP JUMPDEST PUSH1 0x0 JUMPDEST DUP4 DUP2 LT ISZERO PUSH2 0x1BD0 JUMPI DUP1 DUP3 ADD MLOAD DUP2 DUP5 ADD MSTORE PUSH1 0x20 DUP2 ADD SWAP1 POP PUSH2 0x1BB5 JUMP JUMPDEST PUSH1 0x0 DUP5 DUP5 ADD MSTORE POP POP POP POP JUMP JUMPDEST PUSH1 0x0 PUSH2 0x1BE7 DUP3 PUSH2 0x1B96 JUMP JUMPDEST PUSH2 0x1BF1 DUP2 DUP6 PUSH2 0x1BA1 JUMP JUMPDEST SWAP4 POP PUSH2 0x1C01 DUP2 DUP6 PUSH1 0x20 DUP7 ADD PUSH2 0x1BB2 JUMP JUMPDEST PUSH2 0x1C0A DUP2 PUSH2 0x16B7 JUMP JUMPDEST DUP5 ADD SWAP2 POP POP SWAP3 SWAP2 POP POP JUMP JUMPDEST PUSH1 0x0 PUSH1 0x20 DUP3 ADD SWAP1 POP DUP2 DUP2 SUB PUSH1 0x0 DUP4 ADD MSTORE PUSH2 0x1C2F DUP2 DUP5 PUSH2 0x1BDC JUMP JUMPDEST SWAP1 POP SWAP3 SWAP2 POP POP JUMP JUMPDEST PUSH2 0x1C40 DUP2 PUSH2 0x1A1A JUMP JUMPDEST DUP3 MSTORE POP POP JUMP JUMPDEST PUSH1 0x0 PUSH1 0x20 DUP3 ADD SWAP1 POP PUSH2 0x1C5B PUSH1 0x0 DUP4 ADD DUP5 PUSH2 0x1C37 JUMP JUMPDEST SWAP3 SWAP2 POP POP JUMP JUMPDEST PUSH1 0x0 DUP1 PUSH1 0x0 DUP1 PUSH1 0x0 DUP1 PUSH1 0xC0 DUP8 DUP10 SUB SLT ISZERO PUSH2 0x1C7E JUMPI PUSH2 0x1C7D PUSH2 0x16A3 JUMP JUMPDEST JUMPDEST PUSH1 0x0 DUP8 ADD CALLDATALOAD PUSH8 0xFFFFFFFFFFFFFFFF DUP2 GT ISZERO PUSH2 0x1C9C JUMPI PUSH2 0x1C9B PUSH2 0x16A8 JUMP JUMPDEST JUMPDEST PUSH2 0x1CA8 DUP10 DUP3 DUP11 ADD PUSH2 0x17C5 JUMP JUMPDEST SWAP7 POP POP PUSH1 0x20 DUP8 ADD CALLDATALOAD PUSH8 0xFFFFFFFFFFFFFFFF DUP2 GT ISZERO PUSH2 0x1CC9 JUMPI PUSH2 0x1CC8 PUSH2 0x16A8 JUMP JUMPDEST JUMPDEST PUSH2 0x1CD5 DUP10 DUP3 DUP11 ADD PUSH2 0x17C5 JUMP JUMPDEST SWAP6 POP POP PUSH1 0x40 DUP8 ADD CALLDATALOAD PUSH8 0xFFFFFFFFFFFFFFFF DUP2 GT ISZERO PUSH2 0x1CF6 JUMPI PUSH2 0x1CF5 PUSH2 0x16A8 JUMP JUMPDEST JUMPDEST PUSH2 0x1D02 DUP10 DUP3 DUP11 ADD PUSH2 0x17C5 JUMP JUMPDEST SWAP5 POP POP PUSH1 0x60 DUP8 ADD CALLDATALOAD PUSH8 0xFFFFFFFFFFFFFFFF DUP2 GT ISZERO PUSH2 0x1D23 JUMPI PUSH2 0x1D22 PUSH2 0x16A8 JUMP JUMPDEST JUMPDEST PUSH2 0x1D2F DUP10 DUP3 DUP11 ADD PUSH2 0x17C5 JUMP JUMPDEST SWAP4 POP POP PUSH1 0x80 DUP8 ADD CALLDATALOAD PUSH8 0xFFFFFFFFFFFFFFFF DUP2 GT ISZERO PUSH2 0x1D50 JUMPI PUSH2 0x1D4F PUSH2 0x16A8 JUMP JUMPDEST JUMPDEST PUSH2 0x1D5C DUP10 DUP3 DUP11 ADD PUSH2 0x17C5 JUMP JUMPDEST SWAP3 POP POP PUSH1 0xA0 DUP8 ADD CALLDATALOAD PUSH8 0xFFFFFFFFFFFFFFFF DUP2 GT ISZERO PUSH2 0x1D7D JUMPI PUSH2 0x1D7C PUSH2 0x16A8 JUMP JUMPDEST JUMPDEST PUSH2 0x1D89 DUP10 DUP3 DUP11 ADD PUSH2 0x17C5 JUMP JUMPDEST SWAP2 POP POP SWAP3 SWAP6 POP SWAP3 SWAP6 POP SWAP3 SWAP6 JUMP JUMPDEST PUSH1 0x0 DUP2 SWAP1 POP SWAP2 SWAP1 POP JUMP JUMPDEST PUSH2 0x1DA9 DUP2 PUSH2 0x1D96 JUMP JUMPDEST DUP2 EQ PUSH2 0x1DB4 JUMPI PUSH1 0x0 DUP1 REVERT JUMPDEST POP JUMP JUMPDEST PUSH1 0x0 DUP2 CALLDATALOAD SWAP1 POP PUSH2 0x1DC6 DUP2 PUSH2 0x1DA0 JUMP JUMPDEST SWAP3 SWAP2 POP POP JUMP JUMPDEST PUSH1 0x0 DUP1 PUSH1 0x40 DUP4 DUP6 SUB SLT ISZERO PUSH2 0x1DE3 JUMPI PUSH2 0x1DE2 PUSH2 0x16A3 JUMP JUMPDEST JUMPDEST PUSH1 0x0 PUSH2 0x1DF1 DUP6 DUP3 DUP7 ADD PUSH2 0x1DB7 JUMP JUMPDEST SWAP3 POP POP PUSH1 0x20 DUP4 ADD CALLDATALOAD PUSH8 0xFFFFFFFFFFFFFFFF DUP2 GT ISZERO PUSH2 0x1E12 JUMPI PUSH2 0x1E11 PUSH2 0x16A8 JUMP JUMPDEST JUMPDEST PUSH2 0x1E1E DUP6 DUP3 DUP7 ADD PUSH2 0x1866 JUMP JUMPDEST SWAP2 POP POP SWAP3 POP SWAP3 SWAP1 POP JUMP JUMPDEST PUSH1 0x0 PUSH1 0x20 DUP3 DUP5 SUB SLT ISZERO PUSH2 0x1E3E JUMPI PUSH2 0x1E3D PUSH2 0x16A3 JUMP JUMPDEST JUMPDEST PUSH1 0x0 DUP3 ADD CALLDATALOAD PUSH8 0xFFFFFFFFFFFFFFFF DUP2 GT ISZERO PUSH2 0x1E5C JUMPI PUSH2 0x1E5B PUSH2 0x16A8 JUMP JUMPDEST JUMPDEST PUSH2 0x1E68 DUP5 DUP3 DUP6 ADD PUSH2 0x1866 JUMP JUMPDEST SWAP2 POP POP SWAP3 SWAP2 POP POP JUMP JUMPDEST PUSH2 0x1E7A DUP2 PUSH2 0x1D96 JUMP JUMPDEST DUP3 MSTORE POP POP JUMP JUMPDEST PUSH1 0x0 PUSH1 0xFF DUP3 AND SWAP1 POP SWAP2 SWAP1 POP JUMP JUMPDEST PUSH2 0x1E96 DUP2 PUSH2 0x1E80 JUMP JUMPDEST DUP3 MSTORE POP POP JUMP JUMPDEST PUSH1 0x0 PUSH1 0x60 DUP3 ADD SWAP1 POP PUSH2 0x1EB1 PUSH1 0x0 DUP4 ADD DUP7 PUSH2 0x1E71 JUMP JUMPDEST PUSH2 0x1EBE PUSH1 0x20 DUP4 ADD DUP6 PUSH2 0x1E71 JUMP JUMPDEST PUSH2 0x1ECB PUSH1 0x40 DUP4 ADD DUP5 PUSH2 0x1E8D JUMP JUMPDEST SWAP5 SWAP4 POP POP POP POP JUMP JUMPDEST PUSH1 0x0 PUSH1 0x20 DUP3 ADD SWAP1 POP PUSH2 0x1EE8 PUSH1 0x0 DUP4 ADD DUP5 PUSH2 0x1E71 JUMP JUMPDEST SWAP3 SWAP2 POP POP JUMP JUMPDEST PUSH1 0x0 PUSH1 0x20 DUP3 DUP5 SUB SLT ISZERO PUSH2 0x1F04 JUMPI PUSH2 0x1F03 PUSH2 0x16A3 JUMP JUMPDEST JUMPDEST PUSH1 0x0 PUSH2 0x1F12 DUP5 DUP3 DUP6 ADD PUSH2 0x1DB7 JUMP JUMPDEST SWAP2 POP POP SWAP3 SWAP2 POP POP JUMP JUMPDEST PUSH1 0x0 DUP2 SWAP1 POP SWAP3 SWAP2 POP POP JUMP JUMPDEST PUSH1 0x0 PUSH2 0x1F31 DUP3 PUSH2 0x1B96 JUMP JUMPDEST PUSH2 0x1F3B DUP2 DUP6 PUSH2 0x1F1B JUMP JUMPDEST SWAP4 POP PUSH2 0x1F4B DUP2 DUP6 PUSH1 0x20 DUP7 ADD PUSH2 0x1BB2 JUMP JUMPDEST DUP1 DUP5 ADD SWAP2 POP POP SWAP3 SWAP2 POP POP JUMP JUMPDEST PUSH32 0x2C00000000000000000000000000000000000000000000000000000000000000 PUSH1 0x0 DUP3 ADD MSTORE POP JUMP JUMPDEST PUSH1 0x0 PUSH2 0x1F8D PUSH1 0x1 DUP4 PUSH2 0x1F1B JUMP JUMPDEST SWAP2 POP PUSH2 0x1F98 DUP3 PUSH2 0x1F57 JUMP JUMPDEST PUSH1 0x1 DUP3 ADD SWAP1 POP SWAP2 SWAP1 POP JUMP JUMPDEST PUSH1 0x0 PUSH2 0x1FAF DUP3 DUP8 PUSH2 0x1F26 JUMP JUMPDEST SWAP2 POP PUSH2 0x1FBA DUP3 PUSH2 0x1F80 JUMP JUMPDEST SWAP2 POP PUSH2 0x1FC6 DUP3 DUP7 PUSH2 0x1F26 JUMP JUMPDEST SWAP2 POP PUSH2 0x1FD1 DUP3 PUSH2 0x1F80 JUMP JUMPDEST SWAP2 POP PUSH2 0x1FDD DUP3 DUP6 PUSH2 0x1F26 JUMP JUMPDEST SWAP2 POP PUSH2 0x1FE8 DUP3 PUSH2 0x1F80 JUMP JUMPDEST SWAP2 POP PUSH2 0x1FF4 DUP3 DUP5 PUSH2 0x1F26 JUMP JUMPDEST SWAP2 POP DUP2 SWAP1 POP SWAP6 SWAP5 POP POP POP POP POP JUMP JUMPDEST PUSH32 0x496E76616C6964207369676E6174757265000000000000000000000000000000 PUSH1 0x0 DUP3 ADD MSTORE POP JUMP JUMPDEST PUSH1 0x0 PUSH2 0x2038 PUSH1 0x11 DUP4 PUSH2 0x1BA1 JUMP JUMPDEST SWAP2 POP PUSH2 0x2043 DUP3 PUSH2 0x2002 JUMP JUMPDEST PUSH1 0x20 DUP3 ADD SWAP1 POP SWAP2 SWAP1 POP JUMP JUMPDEST PUSH1 0x0 PUSH1 0x20 DUP3 ADD SWAP1 POP DUP2 DUP2 SUB PUSH1 0x0 DUP4 ADD MSTORE PUSH2 0x2067 DUP2 PUSH2 0x202B JUMP JUMPDEST SWAP1 POP SWAP2 SWAP1 POP JUMP JUMPDEST PUSH1 0x0 PUSH2 0x207A DUP3 DUP5 PUSH2 0x1F26 JUMP JUMPDEST SWAP2 POP DUP2 SWAP1 POP SWAP3 SWAP2 POP POP JUMP JUMPDEST PUSH32 0x4E487B7100000000000000000000000000000000000000000000000000000000 PUSH1 0x0 MSTORE PUSH1 0x32 PUSH1 0x4 MSTORE PUSH1 0x24 PUSH1 0x0 REVERT JUMPDEST PUSH32 0x4E487B7100000000000000000000000000000000000000000000000000000000 PUSH1 0x0 MSTORE PUSH1 0x11 PUSH1 0x4 MSTORE PUSH1 0x24 PUSH1 0x0 REVERT JUMPDEST PUSH1 0x0 PUSH2 0x20EE DUP3 PUSH2 0x1B19 JUMP JUMPDEST SWAP2 POP PUSH2 0x20F9 DUP4 PUSH2 0x1B19 JUMP JUMPDEST SWAP3 POP DUP3 DUP3 ADD SWAP1 POP DUP1 DUP3 GT ISZERO PUSH2 0x2111 JUMPI PUSH2 0x2110 PUSH2 0x20B4 JUMP JUMPDEST JUMPDEST SWAP3 SWAP2 POP POP JUMP JUMPDEST PUSH1 0x0 PUSH2 0x2122 DUP3 PUSH2 0x1B19 JUMP JUMPDEST SWAP2 POP PUSH32 0xFFFFFFFFFFFFFFFFFFFFFFFFFFFFFFFFFFFFFFFFFFFFFFFFFFFFFFFFFFFFFFFF DUP3 SUB PUSH2 0x2154 JUMPI PUSH2 0x2153 PUSH2 0x20B4 JUMP JUMPDEST JUMPDEST PUSH1 0x1 DUP3 ADD SWAP1 POP SWAP2 SWAP1 POP JUMP JUMPDEST PUSH32 0x4E487B7100000000000000000000000000000000000000000000000000000000 PUSH1 0x0 MSTORE PUSH1 0x22 PUSH1 0x4 MSTORE PUSH1 0x24 PUSH1 0x0 REVERT JUMPDEST PUSH1 0x0 PUSH1 0x2 DUP3 DIV SWAP1 POP PUSH1 0x1 DUP3 AND DUP1 PUSH2 0x21A6 JUMPI PUSH1 0x7F DUP3 AND SWAP2 POP JUMPDEST PUSH1 0x20 DUP3 LT DUP2 SUB PUSH2 0x21B9 JUMPI PUSH2 0x21B8 PUSH2 0x215F JUMP JUMPDEST JUMPDEST POP SWAP2 SWAP1 POP JUMP JUMPDEST PUSH1 0x0 DUP2 SWAP1 POP DUP2 PUSH1 0x0 MSTORE PUSH1 0x20 PUSH1 0x0 KECCAK256 SWAP1 POP SWAP2 SWAP1 POP JUMP JUMPDEST PUSH1 0x0 PUSH1 0x20 PUSH1 0x1F DUP4 ADD DIV SWAP1 POP SWAP2 SWAP1 POP JUMP JUMPDEST PUSH1 0x0 DUP3 DUP3 SHL SWAP1 POP SWAP3 SWAP2 POP POP JUMP JUMPDEST PUSH1 0x0 PUSH1 0x8 DUP4 MUL PUSH2 0x2221 PUSH32 0xFFFFFFFFFFFFFFFFFFFFFFFFFFFFFFFFFFFFFFFFFFFFFFFFFFFFFFFFFFFFFFFF DUP3 PUSH2 0x21E4 JUMP JUMPDEST PUSH2 0x222B DUP7 DUP4 PUSH2 0x21E4 JUMP JUMPDEST SWAP6 POP DUP1 NOT DUP5 AND SWAP4 POP DUP1 DUP7 AND DUP5 OR SWAP3 POP POP POP SWAP4 SWAP3 POP POP POP JUMP JUMPDEST PUSH1 0x0 DUP2 SWAP1 POP SWAP2 SWAP1 POP JUMP JUMPDEST PUSH1 0x0 PUSH2 0x2268 PUSH2 0x2263 PUSH2 0x225E DUP5 PUSH2 0x1B19 JUMP JUMPDEST PUSH2 0x2243 JUMP JUMPDEST PUSH2 0x1B19 JUMP JUMPDEST SWAP1 POP SWAP2 SWAP1 POP JUMP JUMPDEST PUSH1 0x0 DUP2 SWAP1 POP SWAP2 SWAP1 POP JUMP JUMPDEST PUSH2 0x2282 DUP4 PUSH2 0x224D JUMP JUMPDEST PUSH2 0x2296 PUSH2 0x228E DUP3 PUSH2 0x226F JUMP JUMPDEST DUP5 DUP5 SLOAD PUSH2 0x21F1 JUMP JUMPDEST DUP3 SSTORE POP POP POP POP JUMP JUMPDEST PUSH1 0x0 SWAP1 JUMP JUMPDEST PUSH2 0x22AB PUSH2 0x229E JUMP JUMPDEST PUSH2 0x22B6 DUP2 DUP5 DUP5 PUSH2 0x2279 JUMP JUMPDEST POP POP POP JUMP JUMPDEST JUMPDEST DUP2 DUP2 LT ISZERO PUSH2 0x22DA JUMPI PUSH2 0x22CF PUSH1 0x0 DUP3 PUSH2 0x22A3 JUMP JUMPDEST PUSH1 0x1 DUP2 ADD SWAP1 POP PUSH2 0x22BC JUMP JUMPDEST POP POP JUMP JUMPDEST PUSH1 0x1F DUP3 GT ISZERO PUSH2 0x231F JUMPI PUSH2 0x22F0 DUP2 PUSH2 0x21BF JUMP JUMPDEST PUSH2 0x22F9 DUP5 PUSH2 0x21D4 JUMP JUMPDEST DUP2 ADD PUSH1 0x20 DUP6 LT ISZERO PUSH2 0x2308 JUMPI DUP2 SWAP1 POP JUMPDEST PUSH2 0x231C PUSH2 0x2314 DUP6 PUSH2 0x21D4 JUMP JUMPDEST DUP4 ADD DUP3 PUSH2 0x22BB JUMP JUMPDEST POP POP JUMPDEST POP POP POP JUMP JUMPDEST PUSH1 0x0 DUP3 DUP3 SHR SWAP1 POP SWAP3 SWAP2 POP POP JUMP JUMPDEST PUSH1 0x0 PUSH2 0x2342 PUSH1 0x0 NOT DUP5 PUSH1 0x8 MUL PUSH2 0x2324 JUMP JUMPDEST NOT DUP1 DUP4 AND SWAP2 POP POP SWAP3 SWAP2 POP POP JUMP JUMPDEST PUSH1 0x0 PUSH2 0x235B DUP4 DUP4 PUSH2 0x2331 JUMP JUMPDEST SWAP2 POP DUP3 PUSH1 0x2 MUL DUP3 OR SWAP1 POP SWAP3 SWAP2 POP POP JUMP JUMPDEST PUSH2 0x2374 DUP3 PUSH2 0x1B96 JUMP JUMPDEST PUSH8 0xFFFFFFFFFFFFFFFF DUP2 GT ISZERO PUSH2 0x238D JUMPI PUSH2 0x238C PUSH2 0x16C8 JUMP JUMPDEST JUMPDEST PUSH2 0x2397 DUP3 SLOAD PUSH2 0x218E JUMP JUMPDEST PUSH2 0x23A2 DUP3 DUP3 DUP6 PUSH2 0x22DE JUMP JUMPDEST PUSH1 0x0 PUSH1 0x20 SWAP1 POP PUSH1 0x1F DUP4 GT PUSH1 0x1 DUP2 EQ PUSH2 0x23D5 JUMPI PUSH1 0x0 DUP5 ISZERO PUSH2 0x23C3 JUMPI DUP3 DUP8 ADD MLOAD SWAP1 POP JUMPDEST PUSH2 0x23CD DUP6 DUP3 PUSH2 0x234F JUMP JUMPDEST DUP7 SSTORE POP PUSH2 0x2435 JUMP JUMPDEST PUSH1 0x1F NOT DUP5 AND PUSH2 0x23E3 DUP7 PUSH2 0x21BF JUMP JUMPDEST PUSH1 0x0 JUMPDEST DUP3 DUP2 LT ISZERO PUSH2 0x240B JUMPI DUP5 DUP10 ADD MLOAD DUP3 SSTORE PUSH1 0x1 DUP3 ADD SWAP2 POP PUSH1 0x20 DUP6 ADD SWAP5 POP PUSH1 0x20 DUP2 ADD SWAP1 POP PUSH2 0x23E6 JUMP JUMPDEST DUP7 DUP4 LT ISZERO PUSH2 0x2428 JUMPI DUP5 DUP10 ADD MLOAD PUSH2 0x2424 PUSH1 0x1F DUP10 AND DUP3 PUSH2 0x2331 JUMP JUMPDEST DUP4 SSTORE POP JUMPDEST PUSH1 0x1 PUSH1 0x2 DUP9 MUL ADD DUP9 SSTORE POP POP POP JUMPDEST POP POP POP POP POP POP JUMP JUMPDEST PUSH1 0x0 PUSH1 0x80 DUP3 ADD SWAP1 POP PUSH2 0x2452 PUSH1 0x0 DUP4 ADD DUP8 PUSH2 0x1E71 JUMP JUMPDEST PUSH2 0x245F PUSH1 0x20 DUP4 ADD DUP7 PUSH2 0x1E8D JUMP JUMPDEST PUSH2 0x246C PUSH1 0x40 DUP4 ADD DUP6 PUSH2 0x1E71 JUMP JUMPDEST PUSH2 0x2479 PUSH1 0x60 DUP4 ADD DUP5 PUSH2 0x1E71 JUMP JUMPDEST SWAP6 SWAP5 POP POP POP POP POP JUMP JUMPDEST PUSH32 0x696E76616C6964207369676E6174757265206C656E6774680000000000000000 PUSH1 0x0 DUP3 ADD MSTORE POP JUMP JUMPDEST PUSH1 0x0 PUSH2 0x24B8 PUSH1 0x18 DUP4 PUSH2 0x1BA1 JUMP JUMPDEST SWAP2 POP PUSH2 0x24C3 DUP3 PUSH2 0x2482 JUMP JUMPDEST PUSH1 0x20 DUP3 ADD SWAP1 POP SWAP2 SWAP1 POP JUMP JUMPDEST PUSH1 0x0 PUSH1 0x20 DUP3 ADD SWAP1 POP DUP2 DUP2 SUB PUSH1 0x0 DUP4 ADD MSTORE PUSH2 0x24E7 DUP2 PUSH2 0x24AB JUMP JUMPDEST SWAP1 POP SWAP2 SWAP1 POP JUMP JUMPDEST PUSH32 0x19457468657265756D205369676E6564204D6573736167653A0A333200000000 PUSH1 0x0 DUP3 ADD MSTORE POP JUMP JUMPDEST PUSH1 0x0 PUSH2 0x2524 PUSH1 0x1C DUP4 PUSH2 0x1F1B JUMP JUMPDEST SWAP2 POP PUSH2 0x252F DUP3 PUSH2 0x24EE JUMP JUMPDEST PUSH1 0x1C DUP3 ADD SWAP1 POP SWAP2 SWAP1 POP JUMP JUMPDEST PUSH1 0x0 DUP2 SWAP1 POP SWAP2 SWAP1 POP JUMP JUMPDEST PUSH2 0x2555 PUSH2 0x2550 DUP3 PUSH2 0x1D96 JUMP JUMPDEST PUSH2 0x253A JUMP JUMPDEST DUP3 MSTORE POP POP JUMP JUMPDEST PUSH1 0x0 PUSH2 0x2566 DUP3 PUSH2 0x2517 JUMP JUMPDEST SWAP2 POP PUSH2 0x2572 DUP3 DUP5 PUSH2 0x2544 JUMP JUMPDEST PUSH1 0x20 DUP3 ADD SWAP2 POP DUP2 SWAP1 POP SWAP3 SWAP2 POP POP JUMP JUMPDEST PUSH1 0x0 PUSH2 0x258D DUP3 DUP7 PUSH2 0x1F26 JUMP JUMPDEST SWAP2 POP PUSH2 0x2599 DUP3 DUP6 PUSH2 0x1F26 JUMP JUMPDEST SWAP2 POP PUSH2 0x25A5 DUP3 DUP5 PUSH2 0x1F26 JUMP JUMPDEST SWAP2 POP DUP2 SWAP1 POP SWAP5 SWAP4 POP POP POP POP JUMP INVALID LOG2 PUSH5 0x6970667358 0x22 SLT KECCAK256 CALLDATASIZE ADDMOD SWAP15 EXTCODESIZE REVERT 0x1E BLOCKHASH 0xA8 CALLVALUE 0xD7 SWAP15 BYTE PUSH21 0x2B0A5BC060BA0F988E5A9DA3784F6E1CCBA2B66473 PUSH16 0x6C634300081800330000000000000000 "},"methodIdentifiers":{"calls()":"305f72b7","evaluate(string,string,string,string,string,string)":"7b009128","evaluate2(string,string,string,string,string,string,bytes)":"009fe9ac","getEthSignedMessageHash(bytes32)":"fa540801","getEvaluationResult(string)":"354fc470","getMessageHash(string)":"b446f3b2","getSender()":"5e01eb5a","publicKey()":"63ffab31","recoverSigner(bytes32,bytes)":"97aba7f9","splitSignature(bytes)":"a7bb5803","verify(address,string,bytes)":"2dd34f0f"}}}}}