{"contracts/SC_20_21_13_28.sol":{"SC_20_21_13_28":{"abi":[{"inputs":[],"stateMutability":"nonpayable","type":"constructor"},{"anonymous":false,"inputs":[{"indexed":false,"internalType":"string","name":"success","type":"string"}],"name":"SignUpResult","type":"event"},{"inputs":[],"name":"convert","outputs":[{"internalType":"string","name":"","type":"string"}],"stateMutability":"view","type":"function"},{"inputs":[{"internalType":"string","name":"datasetID","type":"string"},{"internalType":"string","name":"doctorID","type":"string"},{"internalType":"string","name":"hospitalID","type":"string"},{"internalType":"string","name":"specialization","type":"string"},{"internalType":"string","name":"accessRights","type":"string"},{"internalType":"string","name":"location","type":"string"},{"internalType":"bytes","name":"signature","type":"bytes"}],"name":"evaluate","outputs":[],"stateMutability":"nonpayable","type":"function"},{"inputs":[{"internalType":"bytes32","name":"_messageHash","type":"bytes32"}],"name":"getEthSignedMessageHash","outputs":[{"internalType":"bytes32","name":"","type":"bytes32"}],"stateMutability":"pure","type":"function"},{"inputs":[{"internalType":"string","name":"_message","type":"string"}],"name":"getMessageHash","outputs":[{"internalType":"bytes32","name":"","type":"bytes32"}],"stateMutability":"pure","type":"function"},{"inputs":[],"name":"getSender","outputs":[{"internalType":"address","name":"","type":"address"}],"stateMutability":"view","type":"function"},{"inputs":[],"name":"publicKey","outputs":[{"internalType":"address","name":"","type":"address"}],"stateMutability":"view","type":"function"},{"inputs":[{"internalType":"bytes32","name":"_ethSignedMessageHash","type":"bytes32"},{"internalType":"bytes","name":"_signature","type":"bytes"}],"name":"recoverSigner","outputs":[{"internalType":"address","name":"","type":"address"}],"stateMutability":"pure","type":"function"},{"inputs":[{"internalType":"bytes","name":"sig","type":"bytes"}],"name":"splitSignature","outputs":[{"internalType":"bytes32","name":"r","type":"bytes32"},{"internalType":"bytes32","name":"s","type":"bytes32"},{"internalType":"uint8","name":"v","type":"uint8"}],"stateMutability":"pure","type":"function"},{"inputs":[{"internalType":"address","name":"_signer","type":"address"},{"internalType":"string","name":"_message","type":"string"},{"internalType":"bytes","name":"signature","type":"bytes"}],"name":"verify","outputs":[{"internalType":"bool","name":"","type":"bool"}],"stateMutability":"pure","type":"function"}],"evm":{"bytecode":{"linkReferences":{},"object":"60806040523480156200001157600080fd5b50600160006040516200002490620004c5565b908152602001604051809103902060405162000040906200052c565b908152602001604051809103902060006101000a81548160ff0219169083151502179055506001806040516200007690620004c5565b9081526020016040518091039020604051620000929062000593565b908152602001604051809103902060006101000a81548160ff02191690831515021790555060016002604051620000c990620004c5565b9081526020016040518091039020604051620000e590620005fa565b908152602001604051809103902060006101000a81548160ff0219169083151502179055506000806040516200011b9062000661565b908152602001604051809103902060405162000137906200052c565b908152602001604051809103902060006101000a81548160ff021916908315150217905550600060016040516200016e9062000661565b90815260200160405180910390206040516200018a9062000593565b908152602001604051809103902060006101000a81548160ff02191690831515021790555060006002604051620001c19062000661565b9081526020016040518091039020604051620001dd90620005fa565b908152602001604051809103902060006101000a81548160ff0219169083151502179055506001600360405162000214906200052c565b90815260200160405180910390206040516200023090620006c8565b908152602001604051809103902060006101000a81548160ff0219169083151502179055506001600360405162000267906200072f565b9081526020016040518091039020604051620002839062000796565b908152602001604051809103902060006101000a81548160ff02191690831515021790555060016004604051620002ba90620007fd565b9081526020016040518091039020604051620002d69062000864565b9081526020016040518091039020604051620002f290620008cb565b908152602001604051809103902060006101000a81548160ff021916908315150217905550600160046040516200032990620007fd565b9081526020016040518091039020604051620003459062000864565b9081526020016040518091039020604051620003619062000932565b908152602001604051809103902060006101000a81548160ff021916908315150217905550600160046040516200039890620007fd565b9081526020016040518091039020604051620003b49062000864565b9081526020016040518091039020604051620003d09062000999565b908152602001604051809103902060006101000a81548160ff021916908315150217905550600160046040516200040790620007fd565b9081526020016040518091039020604051620004239062000a00565b90815260200160405180910390206040516200043f9062000a67565b908152602001604051809103902060006101000a81548160ff02191690831515021790555062000a7e565b600081905092915050565b7f646f633132330000000000000000000000000000000000000000000000000000600082015250565b6000620004ad6006836200046a565b9150620004ba8262000475565b600682019050919050565b6000620004d2826200049e565b9150819050919050565b7f686f73706974616c410000000000000000000000000000000000000000000000600082015250565b6000620005146009836200046a565b91506200052182620004dc565b600982019050919050565b6000620005398262000505565b9150819050919050565b7f43617264696f6c6f677900000000000000000000000000000000000000000000600082015250565b60006200057b600a836200046a565b9150620005888262000543565b600a82019050919050565b6000620005a0826200056c565b9150819050919050565b7f526561642d577269746500000000000000000000000000000000000000000000600082015250565b6000620005e2600a836200046a565b9150620005ef82620005aa565b600a82019050919050565b60006200060782620005d3565b9150819050919050565b7f646f633435360000000000000000000000000000000000000000000000000000600082015250565b6000620006496006836200046a565b9150620006568262000611565b600682019050919050565b60006200066e826200063a565b9150819050919050565b7f436c6f7564000000000000000000000000000000000000000000000000000000600082015250565b6000620006b06005836200046a565b9150620006bd8262000678565b600582019050919050565b6000620006d582620006a1565b9150819050919050565b7f686f73706974616c420000000000000000000000000000000000000000000000600082015250565b6000620007176009836200046a565b91506200072482620006df565b600982019050919050565b60006200073c8262000708565b9150819050919050565b7f4c6f63616c000000000000000000000000000000000000000000000000000000600082015250565b60006200077e6005836200046a565b91506200078b8262000746565b600582019050919050565b6000620007a3826200076f565b9150819050919050565b7f6461746173657431000000000000000000000000000000000000000000000000600082015250565b6000620007e56008836200046a565b9150620007f282620007ad565b600882019050919050565b60006200080a82620007d6565b9150819050919050565b7f6163636573732d7375626a656374000000000000000000000000000000000000600082015250565b60006200084c600e836200046a565b9150620008598262000814565b600e82019050919050565b600062000871826200083d565b9150819050919050565b7f6973417574686f72697a65640000000000000000000000000000000000000000600082015250565b6000620008b3600c836200046a565b9150620008c0826200087b565b600c82019050919050565b6000620008d882620008a4565b9150819050919050565b7f7370656369616c697a6174696f6e43617264696f6c6f67790000000000000000600082015250565b60006200091a6018836200046a565b91506200092782620008e2565b601882019050919050565b60006200093f826200090b565b9150819050919050565b7f686173416363657373526967687473526561642d577269746500000000000000600082015250565b6000620009816019836200046a565b91506200098e8262000949565b601982019050919050565b6000620009a68262000972565b9150819050919050565b7f6461746173657400000000000000000000000000000000000000000000000000600082015250565b6000620009e86007836200046a565b9150620009f582620009b0565b600782019050919050565b600062000a0d82620009d9565b9150819050919050565b7f6c6f636174696f6e436c6f756400000000000000000000000000000000000000600082015250565b600062000a4f600d836200046a565b915062000a5c8262000a17565b600d82019050919050565b600062000a748262000a40565b9150819050919050565b61198c8062000a8e6000396000f3fe608060405234801561001057600080fd5b50600436106100935760003560e01c806391bbdcc71161006657806391bbdcc71461012057806397aba7f91461013e578063a7bb58031461016e578063b446f3b2146101a0578063fa540801146101d057610093565b80632dd34f0f146100985780635e01eb5a146100c857806363ffab31146100e6578063894da5c114610104575b600080fd5b6100b260048036038101906100ad9190610e0a565b610200565b6040516100bf9190610eb0565b60405180910390f35b6100d061025e565b6040516100dd9190610eda565b60405180910390f35b6100ee610266565b6040516100fb9190610eda565b60405180910390f35b61011e60048036038101906101199190610ef5565b61027e565b005b610128610759565b60405161013591906110da565b60405180910390f35b61015860048036038101906101539190611132565b610775565b6040516101659190610eda565b60405180910390f35b6101886004803603810190610183919061118e565b6107e4565b60405161019793929190611202565b60405180910390f35b6101ba60048036038101906101b59190611239565b61084c565b6040516101c79190611282565b60405180910390f35b6101ea60048036038101906101e5919061129d565b61087c565b6040516101f79190611282565b60405180910390f35b60008061020c8461084c565b905060006102198261087c565b90508573ffffffffffffffffffffffffffffffffffffffff1661023c8286610775565b73ffffffffffffffffffffffffffffffffffffffff1614925050509392505050565b600033905090565b737264d9fd1a56d865d8b7d96e5251a6efe820b48381565b600115156102c6737264d9fd1a56d865d8b7d96e5251a6efe820b483888888876040516020016102b19493929190611352565b60405160208183030381529060405284610200565b151514610308576040517f08c379a00000000000000000000000000000000000000000000000000000000081526004016102ff906113fd565b60405180910390fd5b60008087604051610319919061141d565b908152602001604051809103902086604051610335919061141d565b908152602001604051809103902060009054906101000a900460ff1690506000600188604051610365919061141d565b908152602001604051809103902086604051610381919061141d565b908152602001604051809103902060009054906101000a900460ff16905060006002896040516103b1919061141d565b9081526020016040518091039020866040516103cd919061141d565b908152602001604051809103902060009054906101000a900460ff16905060006003896040516103fd919061141d565b908152602001604051809103902086604051610419919061141d565b908152602001604051809103902060009054906101000a900460ff16905060006001905060048c60405161044d919061141d565b908152602001604051809103902060405161046790611480565b9081526020016040518091039020604051610481906114e1565b908152602001604051809103902060009054906101000a900460ff16156104af578080156104ac5750845b90505b60048c6040516104bf919061141d565b90815260200160405180910390206040516104d990611480565b9081526020016040518091039020896040516020016104f89190611542565b604051602081830303815290604052604051610514919061141d565b908152602001604051809103902060009054906101000a900460ff16156105425780801561053f5750835b90505b60048c604051610552919061141d565b908152602001604051809103902060405161056c90611480565b90815260200160405180910390208860405160200161058b91906115b0565b6040516020818303038152906040526040516105a7919061141d565b908152602001604051809103902060009054906101000a900460ff16156105d5578080156105d25750825b90505b60048c6040516105e5919061141d565b90815260200160405180910390206040516105ff9061161e565b90815260200160405180910390208760405160200161061e919061167f565b60405160208183030381529060405260405161063a919061141d565b908152602001604051809103902060009054906101000a900460ff1615610668578080156106655750815b90505b6000610672610759565b90506000826106b6576040518060400160405280600581526020017f66616c73650000000000000000000000000000000000000000000000000000008152506106ed565b6040518060400160405280600481526020017f74727565000000000000000000000000000000000000000000000000000000008152505b828f604051602001610701939291906116ed565b60405160208183030381529060405290507f0d296dbb8bcdfde31faa165965bf6e3983386c6dd968f1947b22137719fdde578160405161074191906110da565b60405180910390a15050505050505050505050505050565b60606000339050600061076b826108ac565b9050809250505090565b600080600080610784856107e4565b925092509250600186828585604051600081526020016040526040516107ad9493929190611734565b6020604051602081039080840390855afa1580156107cf573d6000803e3d6000fd5b50505060206040510351935050505092915050565b6000806000604184511461082d576040517f08c379a0000000000000000000000000000000000000000000000000000000008152600401610824906117c5565b60405180910390fd5b6020840151925060408401519150606084015160001a90509193909250565b60008160405160200161085f919061141d565b604051602081830303815290604052805190602001209050919050565b60008160405160200161088f9190611852565b604051602081830303815290604052805190602001209050919050565b606060008273ffffffffffffffffffffffffffffffffffffffff1660001b905060006040518060400160405280601081526020017f303132333435363738396162636465660000000000000000000000000000000081525090506000602a67ffffffffffffffff81111561092357610922610c3e565b5b6040519080825280601f01601f1916602001820160405280156109555781602001600182028036833780820191505090505b5090507f30000000000000000000000000000000000000000000000000000000000000008160008151811061098d5761098c611878565b5b60200101907effffffffffffffffffffffffffffffffffffffffffffffffffffffffffffff1916908160001a9053507f7800000000000000000000000000000000000000000000000000000000000000816001815181106109f1576109f0611878565b5b60200101907effffffffffffffffffffffffffffffffffffffffffffffffffffffffffffff1916908160001a90535060005b6014811015610ba55782600485600c84610a3d91906118e0565b60208110610a4e57610a4d611878565b5b1a60f81b7effffffffffffffffffffffffffffffffffffffffffffffffffffffffffffff1916901c60f81c60ff1681518110610a8d57610a8c611878565b5b602001015160f81c60f81b82600283610aa69190611914565b6002610ab291906118e0565b81518110610ac357610ac2611878565b5b60200101907effffffffffffffffffffffffffffffffffffffffffffffffffffffffffffff1916908160001a90535082600f60f81b85600c84610b0691906118e0565b60208110610b1757610b16611878565b5b1a60f81b1660f81c60ff1681518110610b3357610b32611878565b5b602001015160f81c60f81b82600283610b4c9190611914565b6003610b5891906118e0565b81518110610b6957610b68611878565b5b60200101907effffffffffffffffffffffffffffffffffffffffffffffffffffffffffffff1916908160001a9053508080600101915050610a23565b50809350505050919050565b6000604051905090565b600080fd5b600080fd5b600073ffffffffffffffffffffffffffffffffffffffff82169050919050565b6000610bf082610bc5565b9050919050565b610c0081610be5565b8114610c0b57600080fd5b50565b600081359050610c1d81610bf7565b92915050565b600080fd5b600080fd5b6000601f19601f8301169050919050565b7f4e487b7100000000000000000000000000000000000000000000000000000000600052604160045260246000fd5b610c7682610c2d565b810181811067ffffffffffffffff82111715610c9557610c94610c3e565b5b80604052505050565b6000610ca8610bb1565b9050610cb48282610c6d565b919050565b600067ffffffffffffffff821115610cd457610cd3610c3e565b5b610cdd82610c2d565b9050602081019050919050565b82818337600083830152505050565b6000610d0c610d0784610cb9565b610c9e565b905082815260208101848484011115610d2857610d27610c28565b5b610d33848285610cea565b509392505050565b600082601f830112610d5057610d4f610c23565b5b8135610d60848260208601610cf9565b91505092915050565b600067ffffffffffffffff821115610d8457610d83610c3e565b5b610d8d82610c2d565b9050602081019050919050565b6000610dad610da884610d69565b610c9e565b905082815260208101848484011115610dc957610dc8610c28565b5b610dd4848285610cea565b509392505050565b600082601f830112610df157610df0610c23565b5b8135610e01848260208601610d9a565b91505092915050565b600080600060608486031215610e2357610e22610bbb565b5b6000610e3186828701610c0e565b935050602084013567ffffffffffffffff811115610e5257610e51610bc0565b5b610e5e86828701610d3b565b925050604084013567ffffffffffffffff811115610e7f57610e7e610bc0565b5b610e8b86828701610ddc565b9150509250925092565b60008115159050919050565b610eaa81610e95565b82525050565b6000602082019050610ec56000830184610ea1565b92915050565b610ed481610be5565b82525050565b6000602082019050610eef6000830184610ecb565b92915050565b600080600080600080600060e0888a031215610f1457610f13610bbb565b5b600088013567ffffffffffffffff811115610f3257610f31610bc0565b5b610f3e8a828b01610d3b565b975050602088013567ffffffffffffffff811115610f5f57610f5e610bc0565b5b610f6b8a828b01610d3b565b965050604088013567ffffffffffffffff811115610f8c57610f8b610bc0565b5b610f988a828b01610d3b565b955050606088013567ffffffffffffffff811115610fb957610fb8610bc0565b5b610fc58a828b01610d3b565b945050608088013567ffffffffffffffff811115610fe657610fe5610bc0565b5b610ff28a828b01610d3b565b93505060a088013567ffffffffffffffff81111561101357611012610bc0565b5b61101f8a828b01610d3b565b92505060c088013567ffffffffffffffff8111156110405761103f610bc0565b5b61104c8a828b01610ddc565b91505092959891949750929550565b600081519050919050565b600082825260208201905092915050565b60005b8381101561109557808201518184015260208101905061107a565b60008484015250505050565b60006110ac8261105b565b6110b68185611066565b93506110c6818560208601611077565b6110cf81610c2d565b840191505092915050565b600060208201905081810360008301526110f481846110a1565b905092915050565b6000819050919050565b61110f816110fc565b811461111a57600080fd5b50565b60008135905061112c81611106565b92915050565b6000806040838503121561114957611148610bbb565b5b60006111578582860161111d565b925050602083013567ffffffffffffffff81111561117857611177610bc0565b5b61118485828601610ddc565b9150509250929050565b6000602082840312156111a4576111a3610bbb565b5b600082013567ffffffffffffffff8111156111c2576111c1610bc0565b5b6111ce84828501610ddc565b91505092915050565b6111e0816110fc565b82525050565b600060ff82169050919050565b6111fc816111e6565b82525050565b600060608201905061121760008301866111d7565b61122460208301856111d7565b61123160408301846111f3565b949350505050565b60006020828403121561124f5761124e610bbb565b5b600082013567ffffffffffffffff81111561126d5761126c610bc0565b5b61127984828501610d3b565b91505092915050565b600060208201905061129760008301846111d7565b92915050565b6000602082840312156112b3576112b2610bbb565b5b60006112c18482850161111d565b91505092915050565b600081905092915050565b60006112e08261105b565b6112ea81856112ca565b93506112fa818560208601611077565b80840191505092915050565b7f2c00000000000000000000000000000000000000000000000000000000000000600082015250565b600061133c6001836112ca565b915061134782611306565b600182019050919050565b600061135e82876112d5565b91506113698261132f565b915061137582866112d5565b91506113808261132f565b915061138c82856112d5565b91506113978261132f565b91506113a382846112d5565b915081905095945050505050565b7f496e76616c6964207369676e6174757265000000000000000000000000000000600082015250565b60006113e7601183611066565b91506113f2826113b1565b602082019050919050565b60006020820190508181036000830152611416816113da565b9050919050565b600061142982846112d5565b915081905092915050565b7f6163636573732d7375626a656374000000000000000000000000000000000000600082015250565b600061146a600e836112ca565b915061147582611434565b600e82019050919050565b600061148b8261145d565b9150819050919050565b7f6973417574686f72697a65640000000000000000000000000000000000000000600082015250565b60006114cb600c836112ca565b91506114d682611495565b600c82019050919050565b60006114ec826114be565b9150819050919050565b7f7370656369616c697a6174696f6e000000000000000000000000000000000000600082015250565b600061152c600e836112ca565b9150611537826114f6565b600e82019050919050565b600061154d8261151f565b915061155982846112d5565b915081905092915050565b7f6861734163636573735269676874730000000000000000000000000000000000600082015250565b600061159a600f836112ca565b91506115a582611564565b600f82019050919050565b60006115bb8261158d565b91506115c782846112d5565b915081905092915050565b7f6461746173657400000000000000000000000000000000000000000000000000600082015250565b60006116086007836112ca565b9150611613826115d2565b600782019050919050565b6000611629826115fb565b9150819050919050565b7f6c6f636174696f6e000000000000000000000000000000000000000000000000600082015250565b60006116696008836112ca565b915061167482611633565b600882019050919050565b600061168a8261165c565b915061169682846112d5565b915081905092915050565b7f3a00000000000000000000000000000000000000000000000000000000000000600082015250565b60006116d76001836112ca565b91506116e2826116a1565b600182019050919050565b60006116f982866112d5565b9150611704826116ca565b915061171082856112d5565b915061171b826116ca565b915061172782846112d5565b9150819050949350505050565b600060808201905061174960008301876111d7565b61175660208301866111f3565b61176360408301856111d7565b61177060608301846111d7565b95945050505050565b7f696e76616c6964207369676e6174757265206c656e6774680000000000000000600082015250565b60006117af601883611066565b91506117ba82611779565b602082019050919050565b600060208201905081810360008301526117de816117a2565b9050919050565b7f19457468657265756d205369676e6564204d6573736167653a0a333200000000600082015250565b600061181b601c836112ca565b9150611826826117e5565b601c82019050919050565b6000819050919050565b61184c611847826110fc565b611831565b82525050565b600061185d8261180e565b9150611869828461183b565b60208201915081905092915050565b7f4e487b7100000000000000000000000000000000000000000000000000000000600052603260045260246000fd5b6000819050919050565b7f4e487b7100000000000000000000000000000000000000000000000000000000600052601160045260246000fd5b60006118eb826118a7565b91506118f6836118a7565b925082820190508082111561190e5761190d6118b1565b5b92915050565b600061191f826118a7565b915061192a836118a7565b9250828202611938816118a7565b9150828204841483151761194f5761194e6118b1565b5b509291505056fea2646970667358221220154400901a5acca6bd472c16fed56fc17322df728cc269e2261002b69a432be164736f6c63430008180033","opcodes":"PUSH1 0x80 PUSH1 0x40 MSTORE CALLVALUE DUP1 ISZERO PUSH3 0x11 JUMPI PUSH1 0x0 DUP1 REVERT JUMPDEST POP PUSH1 0x1 PUSH1 0x0 PUSH1 0x40 MLOAD PUSH3 0x24 SWAP1 PUSH3 0x4C5 JUMP JUMPDEST SWAP1 DUP2 MSTORE PUSH1 0x20 ADD PUSH1 0x40 MLOAD DUP1 SWAP2 SUB SWAP1 KECCAK256 PUSH1 0x40 MLOAD PUSH3 0x40 SWAP1 PUSH3 0x52C JUMP JUMPDEST SWAP1 DUP2 MSTORE PUSH1 0x20 ADD PUSH1 0x40 MLOAD DUP1 SWAP2 SUB SWAP1 KECCAK256 PUSH1 0x0 PUSH2 0x100 EXP DUP2 SLOAD DUP2 PUSH1 0xFF MUL NOT AND SWAP1 DUP4 ISZERO ISZERO MUL OR SWAP1 SSTORE POP PUSH1 0x1 DUP1 PUSH1 0x40 MLOAD PUSH3 0x76 SWAP1 PUSH3 0x4C5 JUMP JUMPDEST SWAP1 DUP2 MSTORE PUSH1 0x20 ADD PUSH1 0x40 MLOAD DUP1 SWAP2 SUB SWAP1 KECCAK256 PUSH1 0x40 MLOAD PUSH3 0x92 SWAP1 PUSH3 0x593 JUMP JUMPDEST SWAP1 DUP2 MSTORE PUSH1 0x20 ADD PUSH1 0x40 MLOAD DUP1 SWAP2 SUB SWAP1 KECCAK256 PUSH1 0x0 PUSH2 0x100 EXP DUP2 SLOAD DUP2 PUSH1 0xFF MUL NOT AND SWAP1 DUP4 ISZERO ISZERO MUL OR SWAP1 SSTORE POP PUSH1 0x1 PUSH1 0x2 PUSH1 0x40 MLOAD PUSH3 0xC9 SWAP1 PUSH3 0x4C5 JUMP JUMPDEST SWAP1 DUP2 MSTORE PUSH1 0x20 ADD PUSH1 0x40 MLOAD DUP1 SWAP2 SUB SWAP1 KECCAK256 PUSH1 0x40 MLOAD PUSH3 0xE5 SWAP1 PUSH3 0x5FA JUMP JUMPDEST SWAP1 DUP2 MSTORE PUSH1 0x20 ADD PUSH1 0x40 MLOAD DUP1 SWAP2 SUB SWAP1 KECCAK256 PUSH1 0x0 PUSH2 0x100 EXP DUP2 SLOAD DUP2 PUSH1 0xFF MUL NOT AND SWAP1 DUP4 ISZERO ISZERO MUL OR SWAP1 SSTORE POP PUSH1 0x0 DUP1 PUSH1 0x40 MLOAD PUSH3 0x11B SWAP1 PUSH3 0x661 JUMP JUMPDEST SWAP1 DUP2 MSTORE PUSH1 0x20 ADD PUSH1 0x40 MLOAD DUP1 SWAP2 SUB SWAP1 KECCAK256 PUSH1 0x40 MLOAD PUSH3 0x137 SWAP1 PUSH3 0x52C JUMP JUMPDEST SWAP1 DUP2 MSTORE PUSH1 0x20 ADD PUSH1 0x40 MLOAD DUP1 SWAP2 SUB SWAP1 KECCAK256 PUSH1 0x0 PUSH2 0x100 EXP DUP2 SLOAD DUP2 PUSH1 0xFF MUL NOT AND SWAP1 DUP4 ISZERO ISZERO MUL OR SWAP1 SSTORE POP PUSH1 0x0 PUSH1 0x1 PUSH1 0x40 MLOAD PUSH3 0x16E SWAP1 PUSH3 0x661 JUMP JUMPDEST SWAP1 DUP2 MSTORE PUSH1 0x20 ADD PUSH1 0x40 MLOAD DUP1 SWAP2 SUB SWAP1 KECCAK256 PUSH1 0x40 MLOAD PUSH3 0x18A SWAP1 PUSH3 0x593 JUMP JUMPDEST SWAP1 DUP2 MSTORE PUSH1 0x20 ADD PUSH1 0x40 MLOAD DUP1 SWAP2 SUB SWAP1 KECCAK256 PUSH1 0x0 PUSH2 0x100 EXP DUP2 SLOAD DUP2 PUSH1 0xFF MUL NOT AND SWAP1 DUP4 ISZERO ISZERO MUL OR SWAP1 SSTORE POP PUSH1 0x0 PUSH1 0x2 PUSH1 0x40 MLOAD PUSH3 0x1C1 SWAP1 PUSH3 0x661 JUMP JUMPDEST SWAP1 DUP2 MSTORE PUSH1 0x20 ADD PUSH1 0x40 MLOAD DUP1 SWAP2 SUB SWAP1 KECCAK256 PUSH1 0x40 MLOAD PUSH3 0x1DD SWAP1 PUSH3 0x5FA JUMP JUMPDEST SWAP1 DUP2 MSTORE PUSH1 0x20 ADD PUSH1 0x40 MLOAD DUP1 SWAP2 SUB SWAP1 KECCAK256 PUSH1 0x0 PUSH2 0x100 EXP DUP2 SLOAD DUP2 PUSH1 0xFF MUL NOT AND SWAP1 DUP4 ISZERO ISZERO MUL OR SWAP1 SSTORE POP PUSH1 0x1 PUSH1 0x3 PUSH1 0x40 MLOAD PUSH3 0x214 SWAP1 PUSH3 0x52C JUMP JUMPDEST SWAP1 DUP2 MSTORE PUSH1 0x20 ADD PUSH1 0x40 MLOAD DUP1 SWAP2 SUB SWAP1 KECCAK256 PUSH1 0x40 MLOAD PUSH3 0x230 SWAP1 PUSH3 0x6C8 JUMP JUMPDEST SWAP1 DUP2 MSTORE PUSH1 0x20 ADD PUSH1 0x40 MLOAD DUP1 SWAP2 SUB SWAP1 KECCAK256 PUSH1 0x0 PUSH2 0x100 EXP DUP2 SLOAD DUP2 PUSH1 0xFF MUL NOT AND SWAP1 DUP4 ISZERO ISZERO MUL OR SWAP1 SSTORE POP PUSH1 0x1 PUSH1 0x3 PUSH1 0x40 MLOAD PUSH3 0x267 SWAP1 PUSH3 0x72F JUMP JUMPDEST SWAP1 DUP2 MSTORE PUSH1 0x20 ADD PUSH1 0x40 MLOAD DUP1 SWAP2 SUB SWAP1 KECCAK256 PUSH1 0x40 MLOAD PUSH3 0x283 SWAP1 PUSH3 0x796 JUMP JUMPDEST SWAP1 DUP2 MSTORE PUSH1 0x20 ADD PUSH1 0x40 MLOAD DUP1 SWAP2 SUB SWAP1 KECCAK256 PUSH1 0x0 PUSH2 0x100 EXP DUP2 SLOAD DUP2 PUSH1 0xFF MUL NOT AND SWAP1 DUP4 ISZERO ISZERO MUL OR SWAP1 SSTORE POP PUSH1 0x1 PUSH1 0x4 PUSH1 0x40 MLOAD PUSH3 0x2BA SWAP1 PUSH3 0x7FD JUMP JUMPDEST SWAP1 DUP2 MSTORE PUSH1 0x20 ADD PUSH1 0x40 MLOAD DUP1 SWAP2 SUB SWAP1 KECCAK256 PUSH1 0x40 MLOAD PUSH3 0x2D6 SWAP1 PUSH3 0x864 JUMP JUMPDEST SWAP1 DUP2 MSTORE PUSH1 0x20 ADD PUSH1 0x40 MLOAD DUP1 SWAP2 SUB SWAP1 KECCAK256 PUSH1 0x40 MLOAD PUSH3 0x2F2 SWAP1 PUSH3 0x8CB JUMP JUMPDEST SWAP1 DUP2 MSTORE PUSH1 0x20 ADD PUSH1 0x40 MLOAD DUP1 SWAP2 SUB SWAP1 KECCAK256 PUSH1 0x0 PUSH2 0x100 EXP DUP2 SLOAD DUP2 PUSH1 0xFF MUL NOT AND SWAP1 DUP4 ISZERO ISZERO MUL OR SWAP1 SSTORE POP PUSH1 0x1 PUSH1 0x4 PUSH1 0x40 MLOAD PUSH3 0x329 SWAP1 PUSH3 0x7FD JUMP JUMPDEST SWAP1 DUP2 MSTORE PUSH1 0x20 ADD PUSH1 0x40 MLOAD DUP1 SWAP2 SUB SWAP1 KECCAK256 PUSH1 0x40 MLOAD PUSH3 0x345 SWAP1 PUSH3 0x864 JUMP JUMPDEST SWAP1 DUP2 MSTORE PUSH1 0x20 ADD PUSH1 0x40 MLOAD DUP1 SWAP2 SUB SWAP1 KECCAK256 PUSH1 0x40 MLOAD PUSH3 0x361 SWAP1 PUSH3 0x932 JUMP JUMPDEST SWAP1 DUP2 MSTORE PUSH1 0x20 ADD PUSH1 0x40 MLOAD DUP1 SWAP2 SUB SWAP1 KECCAK256 PUSH1 0x0 PUSH2 0x100 EXP DUP2 SLOAD DUP2 PUSH1 0xFF MUL NOT AND SWAP1 DUP4 ISZERO ISZERO MUL OR SWAP1 SSTORE POP PUSH1 0x1 PUSH1 0x4 PUSH1 0x40 MLOAD PUSH3 0x398 SWAP1 PUSH3 0x7FD JUMP JUMPDEST SWAP1 DUP2 MSTORE PUSH1 0x20 ADD PUSH1 0x40 MLOAD DUP1 SWAP2 SUB SWAP1 KECCAK256 PUSH1 0x40 MLOAD PUSH3 0x3B4 SWAP1 PUSH3 0x864 JUMP JUMPDEST SWAP1 DUP2 MSTORE PUSH1 0x20 ADD PUSH1 0x40 MLOAD DUP1 SWAP2 SUB SWAP1 KECCAK256 PUSH1 0x40 MLOAD PUSH3 0x3D0 SWAP1 PUSH3 0x999 JUMP JUMPDEST SWAP1 DUP2 MSTORE PUSH1 0x20 ADD PUSH1 0x40 MLOAD DUP1 SWAP2 SUB SWAP1 KECCAK256 PUSH1 0x0 PUSH2 0x100 EXP DUP2 SLOAD DUP2 PUSH1 0xFF MUL NOT AND SWAP1 DUP4 ISZERO ISZERO MUL OR SWAP1 SSTORE POP PUSH1 0x1 PUSH1 0x4 PUSH1 0x40 MLOAD PUSH3 0x407 SWAP1 PUSH3 0x7FD JUMP JUMPDEST SWAP1 DUP2 MSTORE PUSH1 0x20 ADD PUSH1 0x40 MLOAD DUP1 SWAP2 SUB SWAP1 KECCAK256 PUSH1 0x40 MLOAD PUSH3 0x423 SWAP1 PUSH3 0xA00 JUMP JUMPDEST SWAP1 DUP2 MSTORE PUSH1 0x20 ADD PUSH1 0x40 MLOAD DUP1 SWAP2 SUB SWAP1 KECCAK256 PUSH1 0x40 MLOAD PUSH3 0x43F SWAP1 PUSH3 0xA67 JUMP JUMPDEST SWAP1 DUP2 MSTORE PUSH1 0x20 ADD PUSH1 0x40 MLOAD DUP1 SWAP2 SUB SWAP1 KECCAK256 PUSH1 0x0 PUSH2 0x100 EXP DUP2 SLOAD DUP2 PUSH1 0xFF MUL NOT AND SWAP1 DUP4 ISZERO ISZERO MUL OR SWAP1 SSTORE POP PUSH3 0xA7E JUMP JUMPDEST PUSH1 0x0 DUP2 SWAP1 POP SWAP3 SWAP2 POP POP JUMP JUMPDEST PUSH32 0x646F633132330000000000000000000000000000000000000000000000000000 PUSH1 0x0 DUP3 ADD MSTORE POP JUMP JUMPDEST PUSH1 0x0 PUSH3 0x4AD PUSH1 0x6 DUP4 PUSH3 0x46A JUMP JUMPDEST SWAP2 POP PUSH3 0x4BA DUP3 PUSH3 0x475 JUMP JUMPDEST PUSH1 0x6 DUP3 ADD SWAP1 POP SWAP2 SWAP1 POP JUMP JUMPDEST PUSH1 0x0 PUSH3 0x4D2 DUP3 PUSH3 0x49E JUMP JUMPDEST SWAP2 POP DUP2 SWAP1 POP SWAP2 SWAP1 POP JUMP JUMPDEST PUSH32 0x686F73706974616C410000000000000000000000000000000000000000000000 PUSH1 0x0 DUP3 ADD MSTORE POP JUMP JUMPDEST PUSH1 0x0 PUSH3 0x514 PUSH1 0x9 DUP4 PUSH3 0x46A JUMP JUMPDEST SWAP2 POP PUSH3 0x521 DUP3 PUSH3 0x4DC JUMP JUMPDEST PUSH1 0x9 DUP3 ADD SWAP1 POP SWAP2 SWAP1 POP JUMP JUMPDEST PUSH1 0x0 PUSH3 0x539 DUP3 PUSH3 0x505 JUMP JUMPDEST SWAP2 POP DUP2 SWAP1 POP SWAP2 SWAP1 POP JUMP JUMPDEST PUSH32 0x43617264696F6C6F677900000000000000000000000000000000000000000000 PUSH1 0x0 DUP3 ADD MSTORE POP JUMP JUMPDEST PUSH1 0x0 PUSH3 0x57B PUSH1 0xA DUP4 PUSH3 0x46A JUMP JUMPDEST SWAP2 POP PUSH3 0x588 DUP3 PUSH3 0x543 JUMP JUMPDEST PUSH1 0xA DUP3 ADD SWAP1 POP SWAP2 SWAP1 POP JUMP JUMPDEST PUSH1 0x0 PUSH3 0x5A0 DUP3 PUSH3 0x56C JUMP JUMPDEST SWAP2 POP DUP2 SWAP1 POP SWAP2 SWAP1 POP JUMP JUMPDEST PUSH32 0x526561642D577269746500000000000000000000000000000000000000000000 PUSH1 0x0 DUP3 ADD MSTORE POP JUMP JUMPDEST PUSH1 0x0 PUSH3 0x5E2 PUSH1 0xA DUP4 PUSH3 0x46A JUMP JUMPDEST SWAP2 POP PUSH3 0x5EF DUP3 PUSH3 0x5AA JUMP JUMPDEST PUSH1 0xA DUP3 ADD SWAP1 POP SWAP2 SWAP1 POP JUMP JUMPDEST PUSH1 0x0 PUSH3 0x607 DUP3 PUSH3 0x5D3 JUMP JUMPDEST SWAP2 POP DUP2 SWAP1 POP SWAP2 SWAP1 POP JUMP JUMPDEST PUSH32 0x646F633435360000000000000000000000000000000000000000000000000000 PUSH1 0x0 DUP3 ADD MSTORE POP JUMP JUMPDEST PUSH1 0x0 PUSH3 0x649 PUSH1 0x6 DUP4 PUSH3 0x46A JUMP JUMPDEST SWAP2 POP PUSH3 0x656 DUP3 PUSH3 0x611 JUMP JUMPDEST PUSH1 0x6 DUP3 ADD SWAP1 POP SWAP2 SWAP1 POP JUMP JUMPDEST PUSH1 0x0 PUSH3 0x66E DUP3 PUSH3 0x63A JUMP JUMPDEST SWAP2 POP DUP2 SWAP1 POP SWAP2 SWAP1 POP JUMP JUMPDEST PUSH32 0x436C6F7564000000000000000000000000000000000000000000000000000000 PUSH1 0x0 DUP3 ADD MSTORE POP JUMP JUMPDEST PUSH1 0x0 PUSH3 0x6B0 PUSH1 0x5 DUP4 PUSH3 0x46A JUMP JUMPDEST SWAP2 POP PUSH3 0x6BD DUP3 PUSH3 0x678 JUMP JUMPDEST PUSH1 0x5 DUP3 ADD SWAP1 POP SWAP2 SWAP1 POP JUMP JUMPDEST PUSH1 0x0 PUSH3 0x6D5 DUP3 PUSH3 0x6A1 JUMP JUMPDEST SWAP2 POP DUP2 SWAP1 POP SWAP2 SWAP1 POP JUMP JUMPDEST PUSH32 0x686F73706974616C420000000000000000000000000000000000000000000000 PUSH1 0x0 DUP3 ADD MSTORE POP JUMP JUMPDEST PUSH1 0x0 PUSH3 0x717 PUSH1 0x9 DUP4 PUSH3 0x46A JUMP JUMPDEST SWAP2 POP PUSH3 0x724 DUP3 PUSH3 0x6DF JUMP JUMPDEST PUSH1 0x9 DUP3 ADD SWAP1 POP SWAP2 SWAP1 POP JUMP JUMPDEST PUSH1 0x0 PUSH3 0x73C DUP3 PUSH3 0x708 JUMP JUMPDEST SWAP2 POP DUP2 SWAP1 POP SWAP2 SWAP1 POP JUMP JUMPDEST PUSH32 0x4C6F63616C000000000000000000000000000000000000000000000000000000 PUSH1 0x0 DUP3 ADD MSTORE POP JUMP JUMPDEST PUSH1 0x0 PUSH3 0x77E PUSH1 0x5 DUP4 PUSH3 0x46A JUMP JUMPDEST SWAP2 POP PUSH3 0x78B DUP3 PUSH3 0x746 JUMP JUMPDEST PUSH1 0x5 DUP3 ADD SWAP1 POP SWAP2 SWAP1 POP JUMP JUMPDEST PUSH1 0x0 PUSH3 0x7A3 DUP3 PUSH3 0x76F JUMP JUMPDEST SWAP2 POP DUP2 SWAP1 POP SWAP2 SWAP1 POP JUMP JUMPDEST PUSH32 0x6461746173657431000000000000000000000000000000000000000000000000 PUSH1 0x0 DUP3 ADD MSTORE POP JUMP JUMPDEST PUSH1 0x0 PUSH3 0x7E5 PUSH1 0x8 DUP4 PUSH3 0x46A JUMP JUMPDEST SWAP2 POP PUSH3 0x7F2 DUP3 PUSH3 0x7AD JUMP JUMPDEST PUSH1 0x8 DUP3 ADD SWAP1 POP SWAP2 SWAP1 POP JUMP JUMPDEST PUSH1 0x0 PUSH3 0x80A DUP3 PUSH3 0x7D6 JUMP JUMPDEST SWAP2 POP DUP2 SWAP1 POP SWAP2 SWAP1 POP JUMP JUMPDEST PUSH32 0x6163636573732D7375626A656374000000000000000000000000000000000000 PUSH1 0x0 DUP3 ADD MSTORE POP JUMP JUMPDEST PUSH1 0x0 PUSH3 0x84C PUSH1 0xE DUP4 PUSH3 0x46A JUMP JUMPDEST SWAP2 POP PUSH3 0x859 DUP3 PUSH3 0x814 JUMP JUMPDEST PUSH1 0xE DUP3 ADD SWAP1 POP SWAP2 SWAP1 POP JUMP JUMPDEST PUSH1 0x0 PUSH3 0x871 DUP3 PUSH3 0x83D JUMP JUMPDEST SWAP2 POP DUP2 SWAP1 POP SWAP2 SWAP1 POP JUMP JUMPDEST PUSH32 0x6973417574686F72697A65640000000000000000000000000000000000000000 PUSH1 0x0 DUP3 ADD MSTORE POP JUMP JUMPDEST PUSH1 0x0 PUSH3 0x8B3 PUSH1 0xC DUP4 PUSH3 0x46A JUMP JUMPDEST SWAP2 POP PUSH3 0x8C0 DUP3 PUSH3 0x87B JUMP JUMPDEST PUSH1 0xC DUP3 ADD SWAP1 POP SWAP2 SWAP1 POP JUMP JUMPDEST PUSH1 0x0 PUSH3 0x8D8 DUP3 PUSH3 0x8A4 JUMP JUMPDEST SWAP2 POP DUP2 SWAP1 POP SWAP2 SWAP1 POP JUMP JUMPDEST PUSH32 0x7370656369616C697A6174696F6E43617264696F6C6F67790000000000000000 PUSH1 0x0 DUP3 ADD MSTORE POP JUMP JUMPDEST PUSH1 0x0 PUSH3 0x91A PUSH1 0x18 DUP4 PUSH3 0x46A JUMP JUMPDEST SWAP2 POP PUSH3 0x927 DUP3 PUSH3 0x8E2 JUMP JUMPDEST PUSH1 0x18 DUP3 ADD SWAP1 POP SWAP2 SWAP1 POP JUMP JUMPDEST PUSH1 0x0 PUSH3 0x93F DUP3 PUSH3 0x90B JUMP JUMPDEST SWAP2 POP DUP2 SWAP1 POP SWAP2 SWAP1 POP JUMP JUMPDEST PUSH32 0x686173416363657373526967687473526561642D577269746500000000000000 PUSH1 0x0 DUP3 ADD MSTORE POP JUMP JUMPDEST PUSH1 0x0 PUSH3 0x981 PUSH1 0x19 DUP4 PUSH3 0x46A JUMP JUMPDEST SWAP2 POP PUSH3 0x98E DUP3 PUSH3 0x949 JUMP JUMPDEST PUSH1 0x19 DUP3 ADD SWAP1 POP SWAP2 SWAP1 POP JUMP JUMPDEST PUSH1 0x0 PUSH3 0x9A6 DUP3 PUSH3 0x972 JUMP JUMPDEST SWAP2 POP DUP2 SWAP1 POP SWAP2 SWAP1 POP JUMP JUMPDEST PUSH32 0x6461746173657400000000000000000000000000000000000000000000000000 PUSH1 0x0 DUP3 ADD MSTORE POP JUMP JUMPDEST PUSH1 0x0 PUSH3 0x9E8 PUSH1 0x7 DUP4 PUSH3 0x46A JUMP JUMPDEST SWAP2 POP PUSH3 0x9F5 DUP3 PUSH3 0x9B0 JUMP JUMPDEST PUSH1 0x7 DUP3 ADD SWAP1 POP SWAP2 SWAP1 POP JUMP JUMPDEST PUSH1 0x0 PUSH3 0xA0D DUP3 PUSH3 0x9D9 JUMP JUMPDEST SWAP2 POP DUP2 SWAP1 POP SWAP2 SWAP1 POP JUMP JUMPDEST PUSH32 0x6C6F636174696F6E436C6F756400000000000000000000000000000000000000 PUSH1 0x0 DUP3 ADD MSTORE POP JUMP JUMPDEST PUSH1 0x0 PUSH3 0xA4F PUSH1 0xD DUP4 PUSH3 0x46A JUMP JUMPDEST SWAP2 POP PUSH3 0xA5C DUP3 PUSH3 0xA17 JUMP JUMPDEST PUSH1 0xD DUP3 ADD SWAP1 POP SWAP2 SWAP1 POP JUMP JUMPDEST PUSH1 0x0 PUSH3 0xA74 DUP3 PUSH3 0xA40 JUMP JUMPDEST SWAP2 POP DUP2 SWAP1 POP SWAP2 SWAP1 POP JUMP JUMPDEST PUSH2 0x198C DUP1 PUSH3 0xA8E PUSH1 0x0 CODECOPY PUSH1 0x0 RETURN INVALID PUSH1 0x80 PUSH1 0x40 MSTORE CALLVALUE DUP1 ISZERO PUSH2 0x10 JUMPI PUSH1 0x0 DUP1 REVERT JUMPDEST POP PUSH1 0x4 CALLDATASIZE LT PUSH2 0x93 JUMPI PUSH1 0x0 CALLDATALOAD PUSH1 0xE0 SHR DUP1 PUSH4 0x91BBDCC7 GT PUSH2 0x66 JUMPI DUP1 PUSH4 0x91BBDCC7 EQ PUSH2 0x120 JUMPI DUP1 PUSH4 0x97ABA7F9 EQ PUSH2 0x13E JUMPI DUP1 PUSH4 0xA7BB5803 EQ PUSH2 0x16E JUMPI DUP1 PUSH4 0xB446F3B2 EQ PUSH2 0x1A0 JUMPI DUP1 PUSH4 0xFA540801 EQ PUSH2 0x1D0 JUMPI PUSH2 0x93 JUMP JUMPDEST DUP1 PUSH4 0x2DD34F0F EQ PUSH2 0x98 JUMPI DUP1 PUSH4 0x5E01EB5A EQ PUSH2 0xC8 JUMPI DUP1 PUSH4 0x63FFAB31 EQ PUSH2 0xE6 JUMPI DUP1 PUSH4 0x894DA5C1 EQ PUSH2 0x104 JUMPI JUMPDEST PUSH1 0x0 DUP1 REVERT JUMPDEST PUSH2 0xB2 PUSH1 0x4 DUP1 CALLDATASIZE SUB DUP2 ADD SWAP1 PUSH2 0xAD SWAP2 SWAP1 PUSH2 0xE0A JUMP JUMPDEST PUSH2 0x200 JUMP JUMPDEST PUSH1 0x40 MLOAD PUSH2 0xBF SWAP2 SWAP1 PUSH2 0xEB0 JUMP JUMPDEST PUSH1 0x40 MLOAD DUP1 SWAP2 SUB SWAP1 RETURN JUMPDEST PUSH2 0xD0 PUSH2 0x25E JUMP JUMPDEST PUSH1 0x40 MLOAD PUSH2 0xDD SWAP2 SWAP1 PUSH2 0xEDA JUMP JUMPDEST PUSH1 0x40 MLOAD DUP1 SWAP2 SUB SWAP1 RETURN JUMPDEST PUSH2 0xEE PUSH2 0x266 JUMP JUMPDEST PUSH1 0x40 MLOAD PUSH2 0xFB SWAP2 SWAP1 PUSH2 0xEDA JUMP JUMPDEST PUSH1 0x40 MLOAD DUP1 SWAP2 SUB SWAP1 RETURN JUMPDEST PUSH2 0x11E PUSH1 0x4 DUP1 CALLDATASIZE SUB DUP2 ADD SWAP1 PUSH2 0x119 SWAP2 SWAP1 PUSH2 0xEF5 JUMP JUMPDEST PUSH2 0x27E JUMP JUMPDEST STOP JUMPDEST PUSH2 0x128 PUSH2 0x759 JUMP JUMPDEST PUSH1 0x40 MLOAD PUSH2 0x135 SWAP2 SWAP1 PUSH2 0x10DA JUMP JUMPDEST PUSH1 0x40 MLOAD DUP1 SWAP2 SUB SWAP1 RETURN JUMPDEST PUSH2 0x158 PUSH1 0x4 DUP1 CALLDATASIZE SUB DUP2 ADD SWAP1 PUSH2 0x153 SWAP2 SWAP1 PUSH2 0x1132 JUMP JUMPDEST PUSH2 0x775 JUMP JUMPDEST PUSH1 0x40 MLOAD PUSH2 0x165 SWAP2 SWAP1 PUSH2 0xEDA JUMP JUMPDEST PUSH1 0x40 MLOAD DUP1 SWAP2 SUB SWAP1 RETURN JUMPDEST PUSH2 0x188 PUSH1 0x4 DUP1 CALLDATASIZE SUB DUP2 ADD SWAP1 PUSH2 0x183 SWAP2 SWAP1 PUSH2 0x118E JUMP JUMPDEST PUSH2 0x7E4 JUMP JUMPDEST PUSH1 0x40 MLOAD PUSH2 0x197 SWAP4 SWAP3 SWAP2 SWAP1 PUSH2 0x1202 JUMP JUMPDEST PUSH1 0x40 MLOAD DUP1 SWAP2 SUB SWAP1 RETURN JUMPDEST PUSH2 0x1BA PUSH1 0x4 DUP1 CALLDATASIZE SUB DUP2 ADD SWAP1 PUSH2 0x1B5 SWAP2 SWAP1 PUSH2 0x1239 JUMP JUMPDEST PUSH2 0x84C JUMP JUMPDEST PUSH1 0x40 MLOAD PUSH2 0x1C7 SWAP2 SWAP1 PUSH2 0x1282 JUMP JUMPDEST PUSH1 0x40 MLOAD DUP1 SWAP2 SUB SWAP1 RETURN JUMPDEST PUSH2 0x1EA PUSH1 0x4 DUP1 CALLDATASIZE SUB DUP2 ADD SWAP1 PUSH2 0x1E5 SWAP2 SWAP1 PUSH2 0x129D JUMP JUMPDEST PUSH2 0x87C JUMP JUMPDEST PUSH1 0x40 MLOAD PUSH2 0x1F7 SWAP2 SWAP1 PUSH2 0x1282 JUMP JUMPDEST PUSH1 0x40 MLOAD DUP1 SWAP2 SUB SWAP1 RETURN JUMPDEST PUSH1 0x0 DUP1 PUSH2 0x20C DUP5 PUSH2 0x84C JUMP JUMPDEST SWAP1 POP PUSH1 0x0 PUSH2 0x219 DUP3 PUSH2 0x87C JUMP JUMPDEST SWAP1 POP DUP6 PUSH20 0xFFFFFFFFFFFFFFFFFFFFFFFFFFFFFFFFFFFFFFFF AND PUSH2 0x23C DUP3 DUP7 PUSH2 0x775 JUMP JUMPDEST PUSH20 0xFFFFFFFFFFFFFFFFFFFFFFFFFFFFFFFFFFFFFFFF AND EQ SWAP3 POP POP POP SWAP4 SWAP3 POP POP POP JUMP JUMPDEST PUSH1 0x0 CALLER SWAP1 POP SWAP1 JUMP JUMPDEST PUSH20 0x7264D9FD1A56D865D8B7D96E5251A6EFE820B483 DUP2 JUMP JUMPDEST PUSH1 0x1 ISZERO ISZERO PUSH2 0x2C6 PUSH20 0x7264D9FD1A56D865D8B7D96E5251A6EFE820B483 DUP9 DUP9 DUP9 DUP8 PUSH1 0x40 MLOAD PUSH1 0x20 ADD PUSH2 0x2B1 SWAP5 SWAP4 SWAP3 SWAP2 SWAP1 PUSH2 0x1352 JUMP JUMPDEST PUSH1 0x40 MLOAD PUSH1 0x20 DUP2 DUP4 SUB SUB DUP2 MSTORE SWAP1 PUSH1 0x40 MSTORE DUP5 PUSH2 0x200 JUMP JUMPDEST ISZERO ISZERO EQ PUSH2 0x308 JUMPI PUSH1 0x40 MLOAD PUSH32 0x8C379A000000000000000000000000000000000000000000000000000000000 DUP2 MSTORE PUSH1 0x4 ADD PUSH2 0x2FF SWAP1 PUSH2 0x13FD JUMP JUMPDEST PUSH1 0x40 MLOAD DUP1 SWAP2 SUB SWAP1 REVERT JUMPDEST PUSH1 0x0 DUP1 DUP8 PUSH1 0x40 MLOAD PUSH2 0x319 SWAP2 SWAP1 PUSH2 0x141D JUMP JUMPDEST SWAP1 DUP2 MSTORE PUSH1 0x20 ADD PUSH1 0x40 MLOAD DUP1 SWAP2 SUB SWAP1 KECCAK256 DUP7 PUSH1 0x40 MLOAD PUSH2 0x335 SWAP2 SWAP1 PUSH2 0x141D JUMP JUMPDEST SWAP1 DUP2 MSTORE PUSH1 0x20 ADD PUSH1 0x40 MLOAD DUP1 SWAP2 SUB SWAP1 KECCAK256 PUSH1 0x0 SWAP1 SLOAD SWAP1 PUSH2 0x100 EXP SWAP1 DIV PUSH1 0xFF AND SWAP1 POP PUSH1 0x0 PUSH1 0x1 DUP9 PUSH1 0x40 MLOAD PUSH2 0x365 SWAP2 SWAP1 PUSH2 0x141D JUMP JUMPDEST SWAP1 DUP2 MSTORE PUSH1 0x20 ADD PUSH1 0x40 MLOAD DUP1 SWAP2 SUB SWAP1 KECCAK256 DUP7 PUSH1 0x40 MLOAD PUSH2 0x381 SWAP2 SWAP1 PUSH2 0x141D JUMP JUMPDEST SWAP1 DUP2 MSTORE PUSH1 0x20 ADD PUSH1 0x40 MLOAD DUP1 SWAP2 SUB SWAP1 KECCAK256 PUSH1 0x0 SWAP1 SLOAD SWAP1 PUSH2 0x100 EXP SWAP1 DIV PUSH1 0xFF AND SWAP1 POP PUSH1 0x0 PUSH1 0x2 DUP10 PUSH1 0x40 MLOAD PUSH2 0x3B1 SWAP2 SWAP1 PUSH2 0x141D JUMP JUMPDEST SWAP1 DUP2 MSTORE PUSH1 0x20 ADD PUSH1 0x40 MLOAD DUP1 SWAP2 SUB SWAP1 KECCAK256 DUP7 PUSH1 0x40 MLOAD PUSH2 0x3CD SWAP2 SWAP1 PUSH2 0x141D JUMP JUMPDEST SWAP1 DUP2 MSTORE PUSH1 0x20 ADD PUSH1 0x40 MLOAD DUP1 SWAP2 SUB SWAP1 KECCAK256 PUSH1 0x0 SWAP1 SLOAD SWAP1 PUSH2 0x100 EXP SWAP1 DIV PUSH1 0xFF AND SWAP1 POP PUSH1 0x0 PUSH1 0x3 DUP10 PUSH1 0x40 MLOAD PUSH2 0x3FD SWAP2 SWAP1 PUSH2 0x141D JUMP JUMPDEST SWAP1 DUP2 MSTORE PUSH1 0x20 ADD PUSH1 0x40 MLOAD DUP1 SWAP2 SUB SWAP1 KECCAK256 DUP7 PUSH1 0x40 MLOAD PUSH2 0x419 SWAP2 SWAP1 PUSH2 0x141D JUMP JUMPDEST SWAP1 DUP2 MSTORE PUSH1 0x20 ADD PUSH1 0x40 MLOAD DUP1 SWAP2 SUB SWAP1 KECCAK256 PUSH1 0x0 SWAP1 SLOAD SWAP1 PUSH2 0x100 EXP SWAP1 DIV PUSH1 0xFF AND SWAP1 POP PUSH1 0x0 PUSH1 0x1 SWAP1 POP PUSH1 0x4 DUP13 PUSH1 0x40 MLOAD PUSH2 0x44D SWAP2 SWAP1 PUSH2 0x141D JUMP JUMPDEST SWAP1 DUP2 MSTORE PUSH1 0x20 ADD PUSH1 0x40 MLOAD DUP1 SWAP2 SUB SWAP1 KECCAK256 PUSH1 0x40 MLOAD PUSH2 0x467 SWAP1 PUSH2 0x1480 JUMP JUMPDEST SWAP1 DUP2 MSTORE PUSH1 0x20 ADD PUSH1 0x40 MLOAD DUP1 SWAP2 SUB SWAP1 KECCAK256 PUSH1 0x40 MLOAD PUSH2 0x481 SWAP1 PUSH2 0x14E1 JUMP JUMPDEST SWAP1 DUP2 MSTORE PUSH1 0x20 ADD PUSH1 0x40 MLOAD DUP1 SWAP2 SUB SWAP1 KECCAK256 PUSH1 0x0 SWAP1 SLOAD SWAP1 PUSH2 0x100 EXP SWAP1 DIV PUSH1 0xFF AND ISZERO PUSH2 0x4AF JUMPI DUP1 DUP1 ISZERO PUSH2 0x4AC JUMPI POP DUP5 JUMPDEST SWAP1 POP JUMPDEST PUSH1 0x4 DUP13 PUSH1 0x40 MLOAD PUSH2 0x4BF SWAP2 SWAP1 PUSH2 0x141D JUMP JUMPDEST SWAP1 DUP2 MSTORE PUSH1 0x20 ADD PUSH1 0x40 MLOAD DUP1 SWAP2 SUB SWAP1 KECCAK256 PUSH1 0x40 MLOAD PUSH2 0x4D9 SWAP1 PUSH2 0x1480 JUMP JUMPDEST SWAP1 DUP2 MSTORE PUSH1 0x20 ADD PUSH1 0x40 MLOAD DUP1 SWAP2 SUB SWAP1 KECCAK256 DUP10 PUSH1 0x40 MLOAD PUSH1 0x20 ADD PUSH2 0x4F8 SWAP2 SWAP1 PUSH2 0x1542 JUMP JUMPDEST PUSH1 0x40 MLOAD PUSH1 0x20 DUP2 DUP4 SUB SUB DUP2 MSTORE SWAP1 PUSH1 0x40 MSTORE PUSH1 0x40 MLOAD PUSH2 0x514 SWAP2 SWAP1 PUSH2 0x141D JUMP JUMPDEST SWAP1 DUP2 MSTORE PUSH1 0x20 ADD PUSH1 0x40 MLOAD DUP1 SWAP2 SUB SWAP1 KECCAK256 PUSH1 0x0 SWAP1 SLOAD SWAP1 PUSH2 0x100 EXP SWAP1 DIV PUSH1 0xFF AND ISZERO PUSH2 0x542 JUMPI DUP1 DUP1 ISZERO PUSH2 0x53F JUMPI POP DUP4 JUMPDEST SWAP1 POP JUMPDEST PUSH1 0x4 DUP13 PUSH1 0x40 MLOAD PUSH2 0x552 SWAP2 SWAP1 PUSH2 0x141D JUMP JUMPDEST SWAP1 DUP2 MSTORE PUSH1 0x20 ADD PUSH1 0x40 MLOAD DUP1 SWAP2 SUB SWAP1 KECCAK256 PUSH1 0x40 MLOAD PUSH2 0x56C SWAP1 PUSH2 0x1480 JUMP JUMPDEST SWAP1 DUP2 MSTORE PUSH1 0x20 ADD PUSH1 0x40 MLOAD DUP1 SWAP2 SUB SWAP1 KECCAK256 DUP9 PUSH1 0x40 MLOAD PUSH1 0x20 ADD PUSH2 0x58B SWAP2 SWAP1 PUSH2 0x15B0 JUMP JUMPDEST PUSH1 0x40 MLOAD PUSH1 0x20 DUP2 DUP4 SUB SUB DUP2 MSTORE SWAP1 PUSH1 0x40 MSTORE PUSH1 0x40 MLOAD PUSH2 0x5A7 SWAP2 SWAP1 PUSH2 0x141D JUMP JUMPDEST SWAP1 DUP2 MSTORE PUSH1 0x20 ADD PUSH1 0x40 MLOAD DUP1 SWAP2 SUB SWAP1 KECCAK256 PUSH1 0x0 SWAP1 SLOAD SWAP1 PUSH2 0x100 EXP SWAP1 DIV PUSH1 0xFF AND ISZERO PUSH2 0x5D5 JUMPI DUP1 DUP1 ISZERO PUSH2 0x5D2 JUMPI POP DUP3 JUMPDEST SWAP1 POP JUMPDEST PUSH1 0x4 DUP13 PUSH1 0x40 MLOAD PUSH2 0x5E5 SWAP2 SWAP1 PUSH2 0x141D JUMP JUMPDEST SWAP1 DUP2 MSTORE PUSH1 0x20 ADD PUSH1 0x40 MLOAD DUP1 SWAP2 SUB SWAP1 KECCAK256 PUSH1 0x40 MLOAD PUSH2 0x5FF SWAP1 PUSH2 0x161E JUMP JUMPDEST SWAP1 DUP2 MSTORE PUSH1 0x20 ADD PUSH1 0x40 MLOAD DUP1 SWAP2 SUB SWAP1 KECCAK256 DUP8 PUSH1 0x40 MLOAD PUSH1 0x20 ADD PUSH2 0x61E SWAP2 SWAP1 PUSH2 0x167F JUMP JUMPDEST PUSH1 0x40 MLOAD PUSH1 0x20 DUP2 DUP4 SUB SUB DUP2 MSTORE SWAP1 PUSH1 0x40 MSTORE PUSH1 0x40 MLOAD PUSH2 0x63A SWAP2 SWAP1 PUSH2 0x141D JUMP JUMPDEST SWAP1 DUP2 MSTORE PUSH1 0x20 ADD PUSH1 0x40 MLOAD DUP1 SWAP2 SUB SWAP1 KECCAK256 PUSH1 0x0 SWAP1 SLOAD SWAP1 PUSH2 0x100 EXP SWAP1 DIV PUSH1 0xFF AND ISZERO PUSH2 0x668 JUMPI DUP1 DUP1 ISZERO PUSH2 0x665 JUMPI POP DUP2 JUMPDEST SWAP1 POP JUMPDEST PUSH1 0x0 PUSH2 0x672 PUSH2 0x759 JUMP JUMPDEST SWAP1 POP PUSH1 0x0 DUP3 PUSH2 0x6B6 JUMPI PUSH1 0x40 MLOAD DUP1 PUSH1 0x40 ADD PUSH1 0x40 MSTORE DUP1 PUSH1 0x5 DUP2 MSTORE PUSH1 0x20 ADD PUSH32 0x66616C7365000000000000000000000000000000000000000000000000000000 DUP2 MSTORE POP PUSH2 0x6ED JUMP JUMPDEST PUSH1 0x40 MLOAD DUP1 PUSH1 0x40 ADD PUSH1 0x40 MSTORE DUP1 PUSH1 0x4 DUP2 MSTORE PUSH1 0x20 ADD PUSH32 0x7472756500000000000000000000000000000000000000000000000000000000 DUP2 MSTORE POP JUMPDEST DUP3 DUP16 PUSH1 0x40 MLOAD PUSH1 0x20 ADD PUSH2 0x701 SWAP4 SWAP3 SWAP2 SWAP1 PUSH2 0x16ED JUMP JUMPDEST PUSH1 0x40 MLOAD PUSH1 0x20 DUP2 DUP4 SUB SUB DUP2 MSTORE SWAP1 PUSH1 0x40 MSTORE SWAP1 POP PUSH32 0xD296DBB8BCDFDE31FAA165965BF6E3983386C6DD968F1947B22137719FDDE57 DUP2 PUSH1 0x40 MLOAD PUSH2 0x741 SWAP2 SWAP1 PUSH2 0x10DA JUMP JUMPDEST PUSH1 0x40 MLOAD DUP1 SWAP2 SUB SWAP1 LOG1 POP POP POP POP POP POP POP POP POP POP POP POP POP POP JUMP JUMPDEST PUSH1 0x60 PUSH1 0x0 CALLER SWAP1 POP PUSH1 0x0 PUSH2 0x76B DUP3 PUSH2 0x8AC JUMP JUMPDEST SWAP1 POP DUP1 SWAP3 POP POP POP SWAP1 JUMP JUMPDEST PUSH1 0x0 DUP1 PUSH1 0x0 DUP1 PUSH2 0x784 DUP6 PUSH2 0x7E4 JUMP JUMPDEST SWAP3 POP SWAP3 POP SWAP3 POP PUSH1 0x1 DUP7 DUP3 DUP6 DUP6 PUSH1 0x40 MLOAD PUSH1 0x0 DUP2 MSTORE PUSH1 0x20 ADD PUSH1 0x40 MSTORE PUSH1 0x40 MLOAD PUSH2 0x7AD SWAP5 SWAP4 SWAP3 SWAP2 SWAP1 PUSH2 0x1734 JUMP JUMPDEST PUSH1 0x20 PUSH1 0x40 MLOAD PUSH1 0x20 DUP2 SUB SWAP1 DUP1 DUP5 SUB SWAP1 DUP6 GAS STATICCALL ISZERO DUP1 ISZERO PUSH2 0x7CF JUMPI RETURNDATASIZE PUSH1 0x0 DUP1 RETURNDATACOPY RETURNDATASIZE PUSH1 0x0 REVERT JUMPDEST POP POP POP PUSH1 0x20 PUSH1 0x40 MLOAD SUB MLOAD SWAP4 POP POP POP POP SWAP3 SWAP2 POP POP JUMP JUMPDEST PUSH1 0x0 DUP1 PUSH1 0x0 PUSH1 0x41 DUP5 MLOAD EQ PUSH2 0x82D JUMPI PUSH1 0x40 MLOAD PUSH32 0x8C379A000000000000000000000000000000000000000000000000000000000 DUP2 MSTORE PUSH1 0x4 ADD PUSH2 0x824 SWAP1 PUSH2 0x17C5 JUMP JUMPDEST PUSH1 0x40 MLOAD DUP1 SWAP2 SUB SWAP1 REVERT JUMPDEST PUSH1 0x20 DUP5 ADD MLOAD SWAP3 POP PUSH1 0x40 DUP5 ADD MLOAD SWAP2 POP PUSH1 0x60 DUP5 ADD MLOAD PUSH1 0x0 BYTE SWAP1 POP SWAP2 SWAP4 SWAP1 SWAP3 POP JUMP JUMPDEST PUSH1 0x0 DUP2 PUSH1 0x40 MLOAD PUSH1 0x20 ADD PUSH2 0x85F SWAP2 SWAP1 PUSH2 0x141D JUMP JUMPDEST PUSH1 0x40 MLOAD PUSH1 0x20 DUP2 DUP4 SUB SUB DUP2 MSTORE SWAP1 PUSH1 0x40 MSTORE DUP1 MLOAD SWAP1 PUSH1 0x20 ADD KECCAK256 SWAP1 POP SWAP2 SWAP1 POP JUMP JUMPDEST PUSH1 0x0 DUP2 PUSH1 0x40 MLOAD PUSH1 0x20 ADD PUSH2 0x88F SWAP2 SWAP1 PUSH2 0x1852 JUMP JUMPDEST PUSH1 0x40 MLOAD PUSH1 0x20 DUP2 DUP4 SUB SUB DUP2 MSTORE SWAP1 PUSH1 0x40 MSTORE DUP1 MLOAD SWAP1 PUSH1 0x20 ADD KECCAK256 SWAP1 POP SWAP2 SWAP1 POP JUMP JUMPDEST PUSH1 0x60 PUSH1 0x0 DUP3 PUSH20 0xFFFFFFFFFFFFFFFFFFFFFFFFFFFFFFFFFFFFFFFF AND PUSH1 0x0 SHL SWAP1 POP PUSH1 0x0 PUSH1 0x40 MLOAD DUP1 PUSH1 0x40 ADD PUSH1 0x40 MSTORE DUP1 PUSH1 0x10 DUP2 MSTORE PUSH1 0x20 ADD PUSH32 0x3031323334353637383961626364656600000000000000000000000000000000 DUP2 MSTORE POP SWAP1 POP PUSH1 0x0 PUSH1 0x2A PUSH8 0xFFFFFFFFFFFFFFFF DUP2 GT ISZERO PUSH2 0x923 JUMPI PUSH2 0x922 PUSH2 0xC3E JUMP JUMPDEST JUMPDEST PUSH1 0x40 MLOAD SWAP1 DUP1 DUP3 MSTORE DUP1 PUSH1 0x1F ADD PUSH1 0x1F NOT AND PUSH1 0x20 ADD DUP3 ADD PUSH1 0x40 MSTORE DUP1 ISZERO PUSH2 0x955 JUMPI DUP2 PUSH1 0x20 ADD PUSH1 0x1 DUP3 MUL DUP1 CALLDATASIZE DUP4 CALLDATACOPY DUP1 DUP3 ADD SWAP2 POP POP SWAP1 POP JUMPDEST POP SWAP1 POP PUSH32 0x3000000000000000000000000000000000000000000000000000000000000000 DUP2 PUSH1 0x0 DUP2 MLOAD DUP2 LT PUSH2 0x98D JUMPI PUSH2 0x98C PUSH2 0x1878 JUMP JUMPDEST JUMPDEST PUSH1 0x20 ADD ADD SWAP1 PUSH31 0xFFFFFFFFFFFFFFFFFFFFFFFFFFFFFFFFFFFFFFFFFFFFFFFFFFFFFFFFFFFFFF NOT AND SWAP1 DUP2 PUSH1 0x0 BYTE SWAP1 MSTORE8 POP PUSH32 0x7800000000000000000000000000000000000000000000000000000000000000 DUP2 PUSH1 0x1 DUP2 MLOAD DUP2 LT PUSH2 0x9F1 JUMPI PUSH2 0x9F0 PUSH2 0x1878 JUMP JUMPDEST JUMPDEST PUSH1 0x20 ADD ADD SWAP1 PUSH31 0xFFFFFFFFFFFFFFFFFFFFFFFFFFFFFFFFFFFFFFFFFFFFFFFFFFFFFFFFFFFFFF NOT AND SWAP1 DUP2 PUSH1 0x0 BYTE SWAP1 MSTORE8 POP PUSH1 0x0 JUMPDEST PUSH1 0x14 DUP2 LT ISZERO PUSH2 0xBA5 JUMPI DUP3 PUSH1 0x4 DUP6 PUSH1 0xC DUP5 PUSH2 0xA3D SWAP2 SWAP1 PUSH2 0x18E0 JUMP JUMPDEST PUSH1 0x20 DUP2 LT PUSH2 0xA4E JUMPI PUSH2 0xA4D PUSH2 0x1878 JUMP JUMPDEST JUMPDEST BYTE PUSH1 0xF8 SHL PUSH31 0xFFFFFFFFFFFFFFFFFFFFFFFFFFFFFFFFFFFFFFFFFFFFFFFFFFFFFFFFFFFFFF NOT AND SWAP1 SHR PUSH1 0xF8 SHR PUSH1 0xFF AND DUP2 MLOAD DUP2 LT PUSH2 0xA8D JUMPI PUSH2 0xA8C PUSH2 0x1878 JUMP JUMPDEST JUMPDEST PUSH1 0x20 ADD ADD MLOAD PUSH1 0xF8 SHR PUSH1 0xF8 SHL DUP3 PUSH1 0x2 DUP4 PUSH2 0xAA6 SWAP2 SWAP1 PUSH2 0x1914 JUMP JUMPDEST PUSH1 0x2 PUSH2 0xAB2 SWAP2 SWAP1 PUSH2 0x18E0 JUMP JUMPDEST DUP2 MLOAD DUP2 LT PUSH2 0xAC3 JUMPI PUSH2 0xAC2 PUSH2 0x1878 JUMP JUMPDEST JUMPDEST PUSH1 0x20 ADD ADD SWAP1 PUSH31 0xFFFFFFFFFFFFFFFFFFFFFFFFFFFFFFFFFFFFFFFFFFFFFFFFFFFFFFFFFFFFFF NOT AND SWAP1 DUP2 PUSH1 0x0 BYTE SWAP1 MSTORE8 POP DUP3 PUSH1 0xF PUSH1 0xF8 SHL DUP6 PUSH1 0xC DUP5 PUSH2 0xB06 SWAP2 SWAP1 PUSH2 0x18E0 JUMP JUMPDEST PUSH1 0x20 DUP2 LT PUSH2 0xB17 JUMPI PUSH2 0xB16 PUSH2 0x1878 JUMP JUMPDEST JUMPDEST BYTE PUSH1 0xF8 SHL AND PUSH1 0xF8 SHR PUSH1 0xFF AND DUP2 MLOAD DUP2 LT PUSH2 0xB33 JUMPI PUSH2 0xB32 PUSH2 0x1878 JUMP JUMPDEST JUMPDEST PUSH1 0x20 ADD ADD MLOAD PUSH1 0xF8 SHR PUSH1 0xF8 SHL DUP3 PUSH1 0x2 DUP4 PUSH2 0xB4C SWAP2 SWAP1 PUSH2 0x1914 JUMP JUMPDEST PUSH1 0x3 PUSH2 0xB58 SWAP2 SWAP1 PUSH2 0x18E0 JUMP JUMPDEST DUP2 MLOAD DUP2 LT PUSH2 0xB69 JUMPI PUSH2 0xB68 PUSH2 0x1878 JUMP JUMPDEST JUMPDEST PUSH1 0x20 ADD ADD SWAP1 PUSH31 0xFFFFFFFFFFFFFFFFFFFFFFFFFFFFFFFFFFFFFFFFFFFFFFFFFFFFFFFFFFFFFF NOT AND SWAP1 DUP2 PUSH1 0x0 BYTE SWAP1 MSTORE8 POP DUP1 DUP1 PUSH1 0x1 ADD SWAP2 POP POP PUSH2 0xA23 JUMP JUMPDEST POP DUP1 SWAP4 POP POP POP POP SWAP2 SWAP1 POP JUMP JUMPDEST PUSH1 0x0 PUSH1 0x40 MLOAD SWAP1 POP SWAP1 JUMP JUMPDEST PUSH1 0x0 DUP1 REVERT JUMPDEST PUSH1 0x0 DUP1 REVERT JUMPDEST PUSH1 0x0 PUSH20 0xFFFFFFFFFFFFFFFFFFFFFFFFFFFFFFFFFFFFFFFF DUP3 AND SWAP1 POP SWAP2 SWAP1 POP JUMP JUMPDEST PUSH1 0x0 PUSH2 0xBF0 DUP3 PUSH2 0xBC5 JUMP JUMPDEST SWAP1 POP SWAP2 SWAP1 POP JUMP JUMPDEST PUSH2 0xC00 DUP2 PUSH2 0xBE5 JUMP JUMPDEST DUP2 EQ PUSH2 0xC0B JUMPI PUSH1 0x0 DUP1 REVERT JUMPDEST POP JUMP JUMPDEST PUSH1 0x0 DUP2 CALLDATALOAD SWAP1 POP PUSH2 0xC1D DUP2 PUSH2 0xBF7 JUMP JUMPDEST SWAP3 SWAP2 POP POP JUMP JUMPDEST PUSH1 0x0 DUP1 REVERT JUMPDEST PUSH1 0x0 DUP1 REVERT JUMPDEST PUSH1 0x0 PUSH1 0x1F NOT PUSH1 0x1F DUP4 ADD AND SWAP1 POP SWAP2 SWAP1 POP JUMP JUMPDEST PUSH32 0x4E487B7100000000000000000000000000000000000000000000000000000000 PUSH1 0x0 MSTORE PUSH1 0x41 PUSH1 0x4 MSTORE PUSH1 0x24 PUSH1 0x0 REVERT JUMPDEST PUSH2 0xC76 DUP3 PUSH2 0xC2D JUMP JUMPDEST DUP2 ADD DUP2 DUP2 LT PUSH8 0xFFFFFFFFFFFFFFFF DUP3 GT OR ISZERO PUSH2 0xC95 JUMPI PUSH2 0xC94 PUSH2 0xC3E JUMP JUMPDEST JUMPDEST DUP1 PUSH1 0x40 MSTORE POP POP POP JUMP JUMPDEST PUSH1 0x0 PUSH2 0xCA8 PUSH2 0xBB1 JUMP JUMPDEST SWAP1 POP PUSH2 0xCB4 DUP3 DUP3 PUSH2 0xC6D JUMP JUMPDEST SWAP2 SWAP1 POP JUMP JUMPDEST PUSH1 0x0 PUSH8 0xFFFFFFFFFFFFFFFF DUP3 GT ISZERO PUSH2 0xCD4 JUMPI PUSH2 0xCD3 PUSH2 0xC3E JUMP JUMPDEST JUMPDEST PUSH2 0xCDD DUP3 PUSH2 0xC2D JUMP JUMPDEST SWAP1 POP PUSH1 0x20 DUP2 ADD SWAP1 POP SWAP2 SWAP1 POP JUMP JUMPDEST DUP3 DUP2 DUP4 CALLDATACOPY PUSH1 0x0 DUP4 DUP4 ADD MSTORE POP POP POP JUMP JUMPDEST PUSH1 0x0 PUSH2 0xD0C PUSH2 0xD07 DUP5 PUSH2 0xCB9 JUMP JUMPDEST PUSH2 0xC9E JUMP JUMPDEST SWAP1 POP DUP3 DUP2 MSTORE PUSH1 0x20 DUP2 ADD DUP5 DUP5 DUP5 ADD GT ISZERO PUSH2 0xD28 JUMPI PUSH2 0xD27 PUSH2 0xC28 JUMP JUMPDEST JUMPDEST PUSH2 0xD33 DUP5 DUP3 DUP6 PUSH2 0xCEA JUMP JUMPDEST POP SWAP4 SWAP3 POP POP POP JUMP JUMPDEST PUSH1 0x0 DUP3 PUSH1 0x1F DUP4 ADD SLT PUSH2 0xD50 JUMPI PUSH2 0xD4F PUSH2 0xC23 JUMP JUMPDEST JUMPDEST DUP2 CALLDATALOAD PUSH2 0xD60 DUP5 DUP3 PUSH1 0x20 DUP7 ADD PUSH2 0xCF9 JUMP JUMPDEST SWAP2 POP POP SWAP3 SWAP2 POP POP JUMP JUMPDEST PUSH1 0x0 PUSH8 0xFFFFFFFFFFFFFFFF DUP3 GT ISZERO PUSH2 0xD84 JUMPI PUSH2 0xD83 PUSH2 0xC3E JUMP JUMPDEST JUMPDEST PUSH2 0xD8D DUP3 PUSH2 0xC2D JUMP JUMPDEST SWAP1 POP PUSH1 0x20 DUP2 ADD SWAP1 POP SWAP2 SWAP1 POP JUMP JUMPDEST PUSH1 0x0 PUSH2 0xDAD PUSH2 0xDA8 DUP5 PUSH2 0xD69 JUMP JUMPDEST PUSH2 0xC9E JUMP JUMPDEST SWAP1 POP DUP3 DUP2 MSTORE PUSH1 0x20 DUP2 ADD DUP5 DUP5 DUP5 ADD GT ISZERO PUSH2 0xDC9 JUMPI PUSH2 0xDC8 PUSH2 0xC28 JUMP JUMPDEST JUMPDEST PUSH2 0xDD4 DUP5 DUP3 DUP6 PUSH2 0xCEA JUMP JUMPDEST POP SWAP4 SWAP3 POP POP POP JUMP JUMPDEST PUSH1 0x0 DUP3 PUSH1 0x1F DUP4 ADD SLT PUSH2 0xDF1 JUMPI PUSH2 0xDF0 PUSH2 0xC23 JUMP JUMPDEST JUMPDEST DUP2 CALLDATALOAD PUSH2 0xE01 DUP5 DUP3 PUSH1 0x20 DUP7 ADD PUSH2 0xD9A JUMP JUMPDEST SWAP2 POP POP SWAP3 SWAP2 POP POP JUMP JUMPDEST PUSH1 0x0 DUP1 PUSH1 0x0 PUSH1 0x60 DUP5 DUP7 SUB SLT ISZERO PUSH2 0xE23 JUMPI PUSH2 0xE22 PUSH2 0xBBB JUMP JUMPDEST JUMPDEST PUSH1 0x0 PUSH2 0xE31 DUP7 DUP3 DUP8 ADD PUSH2 0xC0E JUMP JUMPDEST SWAP4 POP POP PUSH1 0x20 DUP5 ADD CALLDATALOAD PUSH8 0xFFFFFFFFFFFFFFFF DUP2 GT ISZERO PUSH2 0xE52 JUMPI PUSH2 0xE51 PUSH2 0xBC0 JUMP JUMPDEST JUMPDEST PUSH2 0xE5E DUP7 DUP3 DUP8 ADD PUSH2 0xD3B JUMP JUMPDEST SWAP3 POP POP PUSH1 0x40 DUP5 ADD CALLDATALOAD PUSH8 0xFFFFFFFFFFFFFFFF DUP2 GT ISZERO PUSH2 0xE7F JUMPI PUSH2 0xE7E PUSH2 0xBC0 JUMP JUMPDEST JUMPDEST PUSH2 0xE8B DUP7 DUP3 DUP8 ADD PUSH2 0xDDC JUMP JUMPDEST SWAP2 POP POP SWAP3 POP SWAP3 POP SWAP3 JUMP JUMPDEST PUSH1 0x0 DUP2 ISZERO ISZERO SWAP1 POP SWAP2 SWAP1 POP JUMP JUMPDEST PUSH2 0xEAA DUP2 PUSH2 0xE95 JUMP JUMPDEST DUP3 MSTORE POP POP JUMP JUMPDEST PUSH1 0x0 PUSH1 0x20 DUP3 ADD SWAP1 POP PUSH2 0xEC5 PUSH1 0x0 DUP4 ADD DUP5 PUSH2 0xEA1 JUMP JUMPDEST SWAP3 SWAP2 POP POP JUMP JUMPDEST PUSH2 0xED4 DUP2 PUSH2 0xBE5 JUMP JUMPDEST DUP3 MSTORE POP POP JUMP JUMPDEST PUSH1 0x0 PUSH1 0x20 DUP3 ADD SWAP1 POP PUSH2 0xEEF PUSH1 0x0 DUP4 ADD DUP5 PUSH2 0xECB JUMP JUMPDEST SWAP3 SWAP2 POP POP JUMP JUMPDEST PUSH1 0x0 DUP1 PUSH1 0x0 DUP1 PUSH1 0x0 DUP1 PUSH1 0x0 PUSH1 0xE0 DUP9 DUP11 SUB SLT ISZERO PUSH2 0xF14 JUMPI PUSH2 0xF13 PUSH2 0xBBB JUMP JUMPDEST JUMPDEST PUSH1 0x0 DUP9 ADD CALLDATALOAD PUSH8 0xFFFFFFFFFFFFFFFF DUP2 GT ISZERO PUSH2 0xF32 JUMPI PUSH2 0xF31 PUSH2 0xBC0 JUMP JUMPDEST JUMPDEST PUSH2 0xF3E DUP11 DUP3 DUP12 ADD PUSH2 0xD3B JUMP JUMPDEST SWAP8 POP POP PUSH1 0x20 DUP9 ADD CALLDATALOAD PUSH8 0xFFFFFFFFFFFFFFFF DUP2 GT ISZERO PUSH2 0xF5F JUMPI PUSH2 0xF5E PUSH2 0xBC0 JUMP JUMPDEST JUMPDEST PUSH2 0xF6B DUP11 DUP3 DUP12 ADD PUSH2 0xD3B JUMP JUMPDEST SWAP7 POP POP PUSH1 0x40 DUP9 ADD CALLDATALOAD PUSH8 0xFFFFFFFFFFFFFFFF DUP2 GT ISZERO PUSH2 0xF8C JUMPI PUSH2 0xF8B PUSH2 0xBC0 JUMP JUMPDEST JUMPDEST PUSH2 0xF98 DUP11 DUP3 DUP12 ADD PUSH2 0xD3B JUMP JUMPDEST SWAP6 POP POP PUSH1 0x60 DUP9 ADD CALLDATALOAD PUSH8 0xFFFFFFFFFFFFFFFF DUP2 GT ISZERO PUSH2 0xFB9 JUMPI PUSH2 0xFB8 PUSH2 0xBC0 JUMP JUMPDEST JUMPDEST PUSH2 0xFC5 DUP11 DUP3 DUP12 ADD PUSH2 0xD3B JUMP JUMPDEST SWAP5 POP POP PUSH1 0x80 DUP9 ADD CALLDATALOAD PUSH8 0xFFFFFFFFFFFFFFFF DUP2 GT ISZERO PUSH2 0xFE6 JUMPI PUSH2 0xFE5 PUSH2 0xBC0 JUMP JUMPDEST JUMPDEST PUSH2 0xFF2 DUP11 DUP3 DUP12 ADD PUSH2 0xD3B JUMP JUMPDEST SWAP4 POP POP PUSH1 0xA0 DUP9 ADD CALLDATALOAD PUSH8 0xFFFFFFFFFFFFFFFF DUP2 GT ISZERO PUSH2 0x1013 JUMPI PUSH2 0x1012 PUSH2 0xBC0 JUMP JUMPDEST JUMPDEST PUSH2 0x101F DUP11 DUP3 DUP12 ADD PUSH2 0xD3B JUMP JUMPDEST SWAP3 POP POP PUSH1 0xC0 DUP9 ADD CALLDATALOAD PUSH8 0xFFFFFFFFFFFFFFFF DUP2 GT ISZERO PUSH2 0x1040 JUMPI PUSH2 0x103F PUSH2 0xBC0 JUMP JUMPDEST JUMPDEST PUSH2 0x104C DUP11 DUP3 DUP12 ADD PUSH2 0xDDC JUMP JUMPDEST SWAP2 POP POP SWAP3 SWAP6 SWAP9 SWAP2 SWAP5 SWAP8 POP SWAP3 SWAP6 POP JUMP JUMPDEST PUSH1 0x0 DUP2 MLOAD SWAP1 POP SWAP2 SWAP1 POP JUMP JUMPDEST PUSH1 0x0 DUP3 DUP3 MSTORE PUSH1 0x20 DUP3 ADD SWAP1 POP SWAP3 SWAP2 POP POP JUMP JUMPDEST PUSH1 0x0 JUMPDEST DUP4 DUP2 LT ISZERO PUSH2 0x1095 JUMPI DUP1 DUP3 ADD MLOAD DUP2 DUP5 ADD MSTORE PUSH1 0x20 DUP2 ADD SWAP1 POP PUSH2 0x107A JUMP JUMPDEST PUSH1 0x0 DUP5 DUP5 ADD MSTORE POP POP POP POP JUMP JUMPDEST PUSH1 0x0 PUSH2 0x10AC DUP3 PUSH2 0x105B JUMP JUMPDEST PUSH2 0x10B6 DUP2 DUP6 PUSH2 0x1066 JUMP JUMPDEST SWAP4 POP PUSH2 0x10C6 DUP2 DUP6 PUSH1 0x20 DUP7 ADD PUSH2 0x1077 JUMP JUMPDEST PUSH2 0x10CF DUP2 PUSH2 0xC2D JUMP JUMPDEST DUP5 ADD SWAP2 POP POP SWAP3 SWAP2 POP POP JUMP JUMPDEST PUSH1 0x0 PUSH1 0x20 DUP3 ADD SWAP1 POP DUP2 DUP2 SUB PUSH1 0x0 DUP4 ADD MSTORE PUSH2 0x10F4 DUP2 DUP5 PUSH2 0x10A1 JUMP JUMPDEST SWAP1 POP SWAP3 SWAP2 POP POP JUMP JUMPDEST PUSH1 0x0 DUP2 SWAP1 POP SWAP2 SWAP1 POP JUMP JUMPDEST PUSH2 0x110F DUP2 PUSH2 0x10FC JUMP JUMPDEST DUP2 EQ PUSH2 0x111A JUMPI PUSH1 0x0 DUP1 REVERT JUMPDEST POP JUMP JUMPDEST PUSH1 0x0 DUP2 CALLDATALOAD SWAP1 POP PUSH2 0x112C DUP2 PUSH2 0x1106 JUMP JUMPDEST SWAP3 SWAP2 POP POP JUMP JUMPDEST PUSH1 0x0 DUP1 PUSH1 0x40 DUP4 DUP6 SUB SLT ISZERO PUSH2 0x1149 JUMPI PUSH2 0x1148 PUSH2 0xBBB JUMP JUMPDEST JUMPDEST PUSH1 0x0 PUSH2 0x1157 DUP6 DUP3 DUP7 ADD PUSH2 0x111D JUMP JUMPDEST SWAP3 POP POP PUSH1 0x20 DUP4 ADD CALLDATALOAD PUSH8 0xFFFFFFFFFFFFFFFF DUP2 GT ISZERO PUSH2 0x1178 JUMPI PUSH2 0x1177 PUSH2 0xBC0 JUMP JUMPDEST JUMPDEST PUSH2 0x1184 DUP6 DUP3 DUP7 ADD PUSH2 0xDDC JUMP JUMPDEST SWAP2 POP POP SWAP3 POP SWAP3 SWAP1 POP JUMP JUMPDEST PUSH1 0x0 PUSH1 0x20 DUP3 DUP5 SUB SLT ISZERO PUSH2 0x11A4 JUMPI PUSH2 0x11A3 PUSH2 0xBBB JUMP JUMPDEST JUMPDEST PUSH1 0x0 DUP3 ADD CALLDATALOAD PUSH8 0xFFFFFFFFFFFFFFFF DUP2 GT ISZERO PUSH2 0x11C2 JUMPI PUSH2 0x11C1 PUSH2 0xBC0 JUMP JUMPDEST JUMPDEST PUSH2 0x11CE DUP5 DUP3 DUP6 ADD PUSH2 0xDDC JUMP JUMPDEST SWAP2 POP POP SWAP3 SWAP2 POP POP JUMP JUMPDEST PUSH2 0x11E0 DUP2 PUSH2 0x10FC JUMP JUMPDEST DUP3 MSTORE POP POP JUMP JUMPDEST PUSH1 0x0 PUSH1 0xFF DUP3 AND SWAP1 POP SWAP2 SWAP1 POP JUMP JUMPDEST PUSH2 0x11FC DUP2 PUSH2 0x11E6 JUMP JUMPDEST DUP3 MSTORE POP POP JUMP JUMPDEST PUSH1 0x0 PUSH1 0x60 DUP3 ADD SWAP1 POP PUSH2 0x1217 PUSH1 0x0 DUP4 ADD DUP7 PUSH2 0x11D7 JUMP JUMPDEST PUSH2 0x1224 PUSH1 0x20 DUP4 ADD DUP6 PUSH2 0x11D7 JUMP JUMPDEST PUSH2 0x1231 PUSH1 0x40 DUP4 ADD DUP5 PUSH2 0x11F3 JUMP JUMPDEST SWAP5 SWAP4 POP POP POP POP JUMP JUMPDEST PUSH1 0x0 PUSH1 0x20 DUP3 DUP5 SUB SLT ISZERO PUSH2 0x124F JUMPI PUSH2 0x124E PUSH2 0xBBB JUMP JUMPDEST JUMPDEST PUSH1 0x0 DUP3 ADD CALLDATALOAD PUSH8 0xFFFFFFFFFFFFFFFF DUP2 GT ISZERO PUSH2 0x126D JUMPI PUSH2 0x126C PUSH2 0xBC0 JUMP JUMPDEST JUMPDEST PUSH2 0x1279 DUP5 DUP3 DUP6 ADD PUSH2 0xD3B JUMP JUMPDEST SWAP2 POP POP SWAP3 SWAP2 POP POP JUMP JUMPDEST PUSH1 0x0 PUSH1 0x20 DUP3 ADD SWAP1 POP PUSH2 0x1297 PUSH1 0x0 DUP4 ADD DUP5 PUSH2 0x11D7 JUMP JUMPDEST SWAP3 SWAP2 POP POP JUMP JUMPDEST PUSH1 0x0 PUSH1 0x20 DUP3 DUP5 SUB SLT ISZERO PUSH2 0x12B3 JUMPI PUSH2 0x12B2 PUSH2 0xBBB JUMP JUMPDEST JUMPDEST PUSH1 0x0 PUSH2 0x12C1 DUP5 DUP3 DUP6 ADD PUSH2 0x111D JUMP JUMPDEST SWAP2 POP POP SWAP3 SWAP2 POP POP JUMP JUMPDEST PUSH1 0x0 DUP2 SWAP1 POP SWAP3 SWAP2 POP POP JUMP JUMPDEST PUSH1 0x0 PUSH2 0x12E0 DUP3 PUSH2 0x105B JUMP JUMPDEST PUSH2 0x12EA DUP2 DUP6 PUSH2 0x12CA JUMP JUMPDEST SWAP4 POP PUSH2 0x12FA DUP2 DUP6 PUSH1 0x20 DUP7 ADD PUSH2 0x1077 JUMP JUMPDEST DUP1 DUP5 ADD SWAP2 POP POP SWAP3 SWAP2 POP POP JUMP JUMPDEST PUSH32 0x2C00000000000000000000000000000000000000000000000000000000000000 PUSH1 0x0 DUP3 ADD MSTORE POP JUMP JUMPDEST PUSH1 0x0 PUSH2 0x133C PUSH1 0x1 DUP4 PUSH2 0x12CA JUMP JUMPDEST SWAP2 POP PUSH2 0x1347 DUP3 PUSH2 0x1306 JUMP JUMPDEST PUSH1 0x1 DUP3 ADD SWAP1 POP SWAP2 SWAP1 POP JUMP JUMPDEST PUSH1 0x0 PUSH2 0x135E DUP3 DUP8 PUSH2 0x12D5 JUMP JUMPDEST SWAP2 POP PUSH2 0x1369 DUP3 PUSH2 0x132F JUMP JUMPDEST SWAP2 POP PUSH2 0x1375 DUP3 DUP7 PUSH2 0x12D5 JUMP JUMPDEST SWAP2 POP PUSH2 0x1380 DUP3 PUSH2 0x132F JUMP JUMPDEST SWAP2 POP PUSH2 0x138C DUP3 DUP6 PUSH2 0x12D5 JUMP JUMPDEST SWAP2 POP PUSH2 0x1397 DUP3 PUSH2 0x132F JUMP JUMPDEST SWAP2 POP PUSH2 0x13A3 DUP3 DUP5 PUSH2 0x12D5 JUMP JUMPDEST SWAP2 POP DUP2 SWAP1 POP SWAP6 SWAP5 POP POP POP POP POP JUMP JUMPDEST PUSH32 0x496E76616C6964207369676E6174757265000000000000000000000000000000 PUSH1 0x0 DUP3 ADD MSTORE POP JUMP JUMPDEST PUSH1 0x0 PUSH2 0x13E7 PUSH1 0x11 DUP4 PUSH2 0x1066 JUMP JUMPDEST SWAP2 POP PUSH2 0x13F2 DUP3 PUSH2 0x13B1 JUMP JUMPDEST PUSH1 0x20 DUP3 ADD SWAP1 POP SWAP2 SWAP1 POP JUMP JUMPDEST PUSH1 0x0 PUSH1 0x20 DUP3 ADD SWAP1 POP DUP2 DUP2 SUB PUSH1 0x0 DUP4 ADD MSTORE PUSH2 0x1416 DUP2 PUSH2 0x13DA JUMP JUMPDEST SWAP1 POP SWAP2 SWAP1 POP JUMP JUMPDEST PUSH1 0x0 PUSH2 0x1429 DUP3 DUP5 PUSH2 0x12D5 JUMP JUMPDEST SWAP2 POP DUP2 SWAP1 POP SWAP3 SWAP2 POP POP JUMP JUMPDEST PUSH32 0x6163636573732D7375626A656374000000000000000000000000000000000000 PUSH1 0x0 DUP3 ADD MSTORE POP JUMP JUMPDEST PUSH1 0x0 PUSH2 0x146A PUSH1 0xE DUP4 PUSH2 0x12CA JUMP JUMPDEST SWAP2 POP PUSH2 0x1475 DUP3 PUSH2 0x1434 JUMP JUMPDEST PUSH1 0xE DUP3 ADD SWAP1 POP SWAP2 SWAP1 POP JUMP JUMPDEST PUSH1 0x0 PUSH2 0x148B DUP3 PUSH2 0x145D JUMP JUMPDEST SWAP2 POP DUP2 SWAP1 POP SWAP2 SWAP1 POP JUMP JUMPDEST PUSH32 0x6973417574686F72697A65640000000000000000000000000000000000000000 PUSH1 0x0 DUP3 ADD MSTORE POP JUMP JUMPDEST PUSH1 0x0 PUSH2 0x14CB PUSH1 0xC DUP4 PUSH2 0x12CA JUMP JUMPDEST SWAP2 POP PUSH2 0x14D6 DUP3 PUSH2 0x1495 JUMP JUMPDEST PUSH1 0xC DUP3 ADD SWAP1 POP SWAP2 SWAP1 POP JUMP JUMPDEST PUSH1 0x0 PUSH2 0x14EC DUP3 PUSH2 0x14BE JUMP JUMPDEST SWAP2 POP DUP2 SWAP1 POP SWAP2 SWAP1 POP JUMP JUMPDEST PUSH32 0x7370656369616C697A6174696F6E000000000000000000000000000000000000 PUSH1 0x0 DUP3 ADD MSTORE POP JUMP JUMPDEST PUSH1 0x0 PUSH2 0x152C PUSH1 0xE DUP4 PUSH2 0x12CA JUMP JUMPDEST SWAP2 POP PUSH2 0x1537 DUP3 PUSH2 0x14F6 JUMP JUMPDEST PUSH1 0xE DUP3 ADD SWAP1 POP SWAP2 SWAP1 POP JUMP JUMPDEST PUSH1 0x0 PUSH2 0x154D DUP3 PUSH2 0x151F JUMP JUMPDEST SWAP2 POP PUSH2 0x1559 DUP3 DUP5 PUSH2 0x12D5 JUMP JUMPDEST SWAP2 POP DUP2 SWAP1 POP SWAP3 SWAP2 POP POP JUMP JUMPDEST PUSH32 0x6861734163636573735269676874730000000000000000000000000000000000 PUSH1 0x0 DUP3 ADD MSTORE POP JUMP JUMPDEST PUSH1 0x0 PUSH2 0x159A PUSH1 0xF DUP4 PUSH2 0x12CA JUMP JUMPDEST SWAP2 POP PUSH2 0x15A5 DUP3 PUSH2 0x1564 JUMP JUMPDEST PUSH1 0xF DUP3 ADD SWAP1 POP SWAP2 SWAP1 POP JUMP JUMPDEST PUSH1 0x0 PUSH2 0x15BB DUP3 PUSH2 0x158D JUMP JUMPDEST SWAP2 POP PUSH2 0x15C7 DUP3 DUP5 PUSH2 0x12D5 JUMP JUMPDEST SWAP2 POP DUP2 SWAP1 POP SWAP3 SWAP2 POP POP JUMP JUMPDEST PUSH32 0x6461746173657400000000000000000000000000000000000000000000000000 PUSH1 0x0 DUP3 ADD MSTORE POP JUMP JUMPDEST PUSH1 0x0 PUSH2 0x1608 PUSH1 0x7 DUP4 PUSH2 0x12CA JUMP JUMPDEST SWAP2 POP PUSH2 0x1613 DUP3 PUSH2 0x15D2 JUMP JUMPDEST PUSH1 0x7 DUP3 ADD SWAP1 POP SWAP2 SWAP1 POP JUMP JUMPDEST PUSH1 0x0 PUSH2 0x1629 DUP3 PUSH2 0x15FB JUMP JUMPDEST SWAP2 POP DUP2 SWAP1 POP SWAP2 SWAP1 POP JUMP JUMPDEST PUSH32 0x6C6F636174696F6E000000000000000000000000000000000000000000000000 PUSH1 0x0 DUP3 ADD MSTORE POP JUMP JUMPDEST PUSH1 0x0 PUSH2 0x1669 PUSH1 0x8 DUP4 PUSH2 0x12CA JUMP JUMPDEST SWAP2 POP PUSH2 0x1674 DUP3 PUSH2 0x1633 JUMP JUMPDEST PUSH1 0x8 DUP3 ADD SWAP1 POP SWAP2 SWAP1 POP JUMP JUMPDEST PUSH1 0x0 PUSH2 0x168A DUP3 PUSH2 0x165C JUMP JUMPDEST SWAP2 POP PUSH2 0x1696 DUP3 DUP5 PUSH2 0x12D5 JUMP JUMPDEST SWAP2 POP DUP2 SWAP1 POP SWAP3 SWAP2 POP POP JUMP JUMPDEST PUSH32 0x3A00000000000000000000000000000000000000000000000000000000000000 PUSH1 0x0 DUP3 ADD MSTORE POP JUMP JUMPDEST PUSH1 0x0 PUSH2 0x16D7 PUSH1 0x1 DUP4 PUSH2 0x12CA JUMP JUMPDEST SWAP2 POP PUSH2 0x16E2 DUP3 PUSH2 0x16A1 JUMP JUMPDEST PUSH1 0x1 DUP3 ADD SWAP1 POP SWAP2 SWAP1 POP JUMP JUMPDEST PUSH1 0x0 PUSH2 0x16F9 DUP3 DUP7 PUSH2 0x12D5 JUMP JUMPDEST SWAP2 POP PUSH2 0x1704 DUP3 PUSH2 0x16CA JUMP JUMPDEST SWAP2 POP PUSH2 0x1710 DUP3 DUP6 PUSH2 0x12D5 JUMP JUMPDEST SWAP2 POP PUSH2 0x171B DUP3 PUSH2 0x16CA JUMP JUMPDEST SWAP2 POP PUSH2 0x1727 DUP3 DUP5 PUSH2 0x12D5 JUMP JUMPDEST SWAP2 POP DUP2 SWAP1 POP SWAP5 SWAP4 POP POP POP POP JUMP JUMPDEST PUSH1 0x0 PUSH1 0x80 DUP3 ADD SWAP1 POP PUSH2 0x1749 PUSH1 0x0 DUP4 ADD DUP8 PUSH2 0x11D7 JUMP JUMPDEST PUSH2 0x1756 PUSH1 0x20 DUP4 ADD DUP7 PUSH2 0x11F3 JUMP JUMPDEST PUSH2 0x1763 PUSH1 0x40 DUP4 ADD DUP6 PUSH2 0x11D7 JUMP JUMPDEST PUSH2 0x1770 PUSH1 0x60 DUP4 ADD DUP5 PUSH2 0x11D7 JUMP JUMPDEST SWAP6 SWAP5 POP POP POP POP POP JUMP JUMPDEST PUSH32 0x696E76616C6964207369676E6174757265206C656E6774680000000000000000 PUSH1 0x0 DUP3 ADD MSTORE POP JUMP JUMPDEST PUSH1 0x0 PUSH2 0x17AF PUSH1 0x18 DUP4 PUSH2 0x1066 JUMP JUMPDEST SWAP2 POP PUSH2 0x17BA DUP3 PUSH2 0x1779 JUMP JUMPDEST PUSH1 0x20 DUP3 ADD SWAP1 POP SWAP2 SWAP1 POP JUMP JUMPDEST PUSH1 0x0 PUSH1 0x20 DUP3 ADD SWAP1 POP DUP2 DUP2 SUB PUSH1 0x0 DUP4 ADD MSTORE PUSH2 0x17DE DUP2 PUSH2 0x17A2 JUMP JUMPDEST SWAP1 POP SWAP2 SWAP1 POP JUMP JUMPDEST PUSH32 0x19457468657265756D205369676E6564204D6573736167653A0A333200000000 PUSH1 0x0 DUP3 ADD MSTORE POP JUMP JUMPDEST PUSH1 0x0 PUSH2 0x181B PUSH1 0x1C DUP4 PUSH2 0x12CA JUMP JUMPDEST SWAP2 POP PUSH2 0x1826 DUP3 PUSH2 0x17E5 JUMP JUMPDEST PUSH1 0x1C DUP3 ADD SWAP1 POP SWAP2 SWAP1 POP JUMP JUMPDEST PUSH1 0x0 DUP2 SWAP1 POP SWAP2 SWAP1 POP JUMP JUMPDEST PUSH2 0x184C PUSH2 0x1847 DUP3 PUSH2 0x10FC JUMP JUMPDEST PUSH2 0x1831 JUMP JUMPDEST DUP3 MSTORE POP POP JUMP JUMPDEST PUSH1 0x0 PUSH2 0x185D DUP3 PUSH2 0x180E JUMP JUMPDEST SWAP2 POP PUSH2 0x1869 DUP3 DUP5 PUSH2 0x183B JUMP JUMPDEST PUSH1 0x20 DUP3 ADD SWAP2 POP DUP2 SWAP1 POP SWAP3 SWAP2 POP POP JUMP JUMPDEST PUSH32 0x4E487B7100000000000000000000000000000000000000000000000000000000 PUSH1 0x0 MSTORE PUSH1 0x32 PUSH1 0x4 MSTORE PUSH1 0x24 PUSH1 0x0 REVERT JUMPDEST PUSH1 0x0 DUP2 SWAP1 POP SWAP2 SWAP1 POP JUMP JUMPDEST PUSH32 0x4E487B7100000000000000000000000000000000000000000000000000000000 PUSH1 0x0 MSTORE PUSH1 0x11 PUSH1 0x4 MSTORE PUSH1 0x24 PUSH1 0x0 REVERT JUMPDEST PUSH1 0x0 PUSH2 0x18EB DUP3 PUSH2 0x18A7 JUMP JUMPDEST SWAP2 POP PUSH2 0x18F6 DUP4 PUSH2 0x18A7 JUMP JUMPDEST SWAP3 POP DUP3 DUP3 ADD SWAP1 POP DUP1 DUP3 GT ISZERO PUSH2 0x190E JUMPI PUSH2 0x190D PUSH2 0x18B1 JUMP JUMPDEST JUMPDEST SWAP3 SWAP2 POP POP JUMP JUMPDEST PUSH1 0x0 PUSH2 0x191F DUP3 PUSH2 0x18A7 JUMP JUMPDEST SWAP2 POP PUSH2 0x192A DUP4 PUSH2 0x18A7 JUMP JUMPDEST SWAP3 POP DUP3 DUP3 MUL PUSH2 0x1938 DUP2 PUSH2 0x18A7 JUMP JUMPDEST SWAP2 POP DUP3 DUP3 DIV DUP5 EQ DUP4 ISZERO OR PUSH2 0x194F JUMPI PUSH2 0x194E PUSH2 0x18B1 JUMP JUMPDEST JUMPDEST POP SWAP3 SWAP2 POP POP JUMP INVALID LOG2 PUSH5 0x6970667358 0x22 SLT KECCAK256 ISZERO PREVRANDAO STOP SWAP1 BYTE GAS 0xCC 0xA6 0xBD SELFBALANCE 0x2C AND INVALID 0xD5 PUSH16 0xC17322DF728CC269E2261002B69A432B 0xE1 PUSH5 0x736F6C6343 STOP ADDMOD XOR STOP CALLER "},"methodIdentifiers":{"convert()":"91bbdcc7","evaluate(string,string,string,string,string,string,bytes)":"894da5c1","getEthSignedMessageHash(bytes32)":"fa540801","getMessageHash(string)":"b446f3b2","getSender()":"5e01eb5a","publicKey()":"63ffab31","recoverSigner(bytes32,bytes)":"97aba7f9","splitSignature(bytes)":"a7bb5803","verify(address,string,bytes)":"2dd34f0f"}}}}}