{
  "_format": "hh-sol-artifact-1",
  "contractName": "SC_20_21_13_28",
  "sourceName": "contracts/SC_20_21_13_28.sol",
  "abi": [
    {
      "inputs": [],
      "stateMutability": "nonpayable",
      "type": "constructor"
    },
    {
      "anonymous": false,
      "inputs": [
        {
          "indexed": false,
          "internalType": "string",
          "name": "success",
          "type": "string"
        }
      ],
      "name": "SignUpResult",
      "type": "event"
    },
    {
      "inputs": [],
      "name": "convert",
      "outputs": [
        {
          "internalType": "string",
          "name": "",
          "type": "string"
        }
      ],
      "stateMutability": "view",
      "type": "function"
    },
    {
      "inputs": [
        {
          "internalType": "string",
          "name": "datasetID",
          "type": "string"
        },
        {
          "internalType": "string",
          "name": "doctorID",
          "type": "string"
        },
        {
          "internalType": "string",
          "name": "hospitalID",
          "type": "string"
        },
        {
          "internalType": "string",
          "name": "specialization",
          "type": "string"
        },
        {
          "internalType": "string",
          "name": "accessRights",
          "type": "string"
        },
        {
          "internalType": "string",
          "name": "location",
          "type": "string"
        },
        {
          "internalType": "bytes",
          "name": "signature",
          "type": "bytes"
        }
      ],
      "name": "evaluate",
      "outputs": [],
      "stateMutability": "nonpayable",
      "type": "function"
    },
    {
      "inputs": [
        {
          "internalType": "bytes32",
          "name": "_messageHash",
          "type": "bytes32"
        }
      ],
      "name": "getEthSignedMessageHash",
      "outputs": [
        {
          "internalType": "bytes32",
          "name": "",
          "type": "bytes32"
        }
      ],
      "stateMutability": "pure",
      "type": "function"
    },
    {
      "inputs": [
        {
          "internalType": "string",
          "name": "_message",
          "type": "string"
        }
      ],
      "name": "getMessageHash",
      "outputs": [
        {
          "internalType": "bytes32",
          "name": "",
          "type": "bytes32"
        }
      ],
      "stateMutability": "pure",
      "type": "function"
    },
    {
      "inputs": [],
      "name": "getSender",
      "outputs": [
        {
          "internalType": "address",
          "name": "",
          "type": "address"
        }
      ],
      "stateMutability": "view",
      "type": "function"
    },
    {
      "inputs": [],
      "name": "publicKey",
      "outputs": [
        {
          "internalType": "address",
          "name": "",
          "type": "address"
        }
      ],
      "stateMutability": "view",
      "type": "function"
    },
    {
      "inputs": [
        {
          "internalType": "bytes32",
          "name": "_ethSignedMessageHash",
          "type": "bytes32"
        },
        {
          "internalType": "bytes",
          "name": "_signature",
          "type": "bytes"
        }
      ],
      "name": "recoverSigner",
      "outputs": [
        {
          "internalType": "address",
          "name": "",
          "type": "address"
        }
      ],
      "stateMutability": "pure",
      "type": "function"
    },
    {
      "inputs": [
        {
          "internalType": "bytes",
          "name": "sig",
          "type": "bytes"
        }
      ],
      "name": "splitSignature",
      "outputs": [
        {
          "internalType": "bytes32",
          "name": "r",
          "type": "bytes32"
        },
        {
          "internalType": "bytes32",
          "name": "s",
          "type": "bytes32"
        },
        {
          "internalType": "uint8",
          "name": "v",
          "type": "uint8"
        }
      ],
      "stateMutability": "pure",
      "type": "function"
    },
    {
      "inputs": [
        {
          "internalType": "address",
          "name": "_signer",
          "type": "address"
        },
        {
          "internalType": "string",
          "name": "_message",
          "type": "string"
        },
        {
          "internalType": "bytes",
          "name": "signature",
          "type": "bytes"
        }
      ],
      "name": "verify",
      "outputs": [
        {
          "internalType": "bool",
          "name": "",
          "type": "bool"
        }
      ],
      "stateMutability": "pure",
      "type": "function"
    }
  ],
  "bytecode": "0x60806040523480156200001157600080fd5b50600160006040516200002490620004c5565b908152602001604051809103902060405162000040906200052c565b908152602001604051809103902060006101000a81548160ff0219169083151502179055506001806040516200007690620004c5565b9081526020016040518091039020604051620000929062000593565b908152602001604051809103902060006101000a81548160ff02191690831515021790555060016002604051620000c990620004c5565b9081526020016040518091039020604051620000e590620005fa565b908152602001604051809103902060006101000a81548160ff0219169083151502179055506000806040516200011b9062000661565b908152602001604051809103902060405162000137906200052c565b908152602001604051809103902060006101000a81548160ff021916908315150217905550600060016040516200016e9062000661565b90815260200160405180910390206040516200018a9062000593565b908152602001604051809103902060006101000a81548160ff02191690831515021790555060006002604051620001c19062000661565b9081526020016040518091039020604051620001dd90620005fa565b908152602001604051809103902060006101000a81548160ff0219169083151502179055506001600360405162000214906200052c565b90815260200160405180910390206040516200023090620006c8565b908152602001604051809103902060006101000a81548160ff0219169083151502179055506001600360405162000267906200072f565b9081526020016040518091039020604051620002839062000796565b908152602001604051809103902060006101000a81548160ff02191690831515021790555060016004604051620002ba90620007fd565b9081526020016040518091039020604051620002d69062000864565b9081526020016040518091039020604051620002f290620008cb565b908152602001604051809103902060006101000a81548160ff021916908315150217905550600160046040516200032990620007fd565b9081526020016040518091039020604051620003459062000864565b9081526020016040518091039020604051620003619062000932565b908152602001604051809103902060006101000a81548160ff021916908315150217905550600160046040516200039890620007fd565b9081526020016040518091039020604051620003b49062000864565b9081526020016040518091039020604051620003d09062000999565b908152602001604051809103902060006101000a81548160ff021916908315150217905550600160046040516200040790620007fd565b9081526020016040518091039020604051620004239062000a00565b90815260200160405180910390206040516200043f9062000a67565b908152602001604051809103902060006101000a81548160ff02191690831515021790555062000a7e565b600081905092915050565b7f646f633132330000000000000000000000000000000000000000000000000000600082015250565b6000620004ad6006836200046a565b9150620004ba8262000475565b600682019050919050565b6000620004d2826200049e565b9150819050919050565b7f686f73706974616c410000000000000000000000000000000000000000000000600082015250565b6000620005146009836200046a565b91506200052182620004dc565b600982019050919050565b6000620005398262000505565b9150819050919050565b7f43617264696f6c6f677900000000000000000000000000000000000000000000600082015250565b60006200057b600a836200046a565b9150620005888262000543565b600a82019050919050565b6000620005a0826200056c565b9150819050919050565b7f526561642d577269746500000000000000000000000000000000000000000000600082015250565b6000620005e2600a836200046a565b9150620005ef82620005aa565b600a82019050919050565b60006200060782620005d3565b9150819050919050565b7f646f633435360000000000000000000000000000000000000000000000000000600082015250565b6000620006496006836200046a565b9150620006568262000611565b600682019050919050565b60006200066e826200063a565b9150819050919050565b7f436c6f7564000000000000000000000000000000000000000000000000000000600082015250565b6000620006b06005836200046a565b9150620006bd8262000678565b600582019050919050565b6000620006d582620006a1565b9150819050919050565b7f686f73706974616c420000000000000000000000000000000000000000000000600082015250565b6000620007176009836200046a565b91506200072482620006df565b600982019050919050565b60006200073c8262000708565b9150819050919050565b7f4c6f63616c000000000000000000000000000000000000000000000000000000600082015250565b60006200077e6005836200046a565b91506200078b8262000746565b600582019050919050565b6000620007a3826200076f565b9150819050919050565b7f6461746173657431000000000000000000000000000000000000000000000000600082015250565b6000620007e56008836200046a565b9150620007f282620007ad565b600882019050919050565b60006200080a82620007d6565b9150819050919050565b7f6163636573732d7375626a656374000000000000000000000000000000000000600082015250565b60006200084c600e836200046a565b9150620008598262000814565b600e82019050919050565b600062000871826200083d565b9150819050919050565b7f6973417574686f72697a65640000000000000000000000000000000000000000600082015250565b6000620008b3600c836200046a565b9150620008c0826200087b565b600c82019050919050565b6000620008d882620008a4565b9150819050919050565b7f7370656369616c697a6174696f6e43617264696f6c6f67790000000000000000600082015250565b60006200091a6018836200046a565b91506200092782620008e2565b601882019050919050565b60006200093f826200090b565b9150819050919050565b7f686173416363657373526967687473526561642d577269746500000000000000600082015250565b6000620009816019836200046a565b91506200098e8262000949565b601982019050919050565b6000620009a68262000972565b9150819050919050565b7f6461746173657400000000000000000000000000000000000000000000000000600082015250565b6000620009e86007836200046a565b9150620009f582620009b0565b600782019050919050565b600062000a0d82620009d9565b9150819050919050565b7f6c6f636174696f6e436c6f756400000000000000000000000000000000000000600082015250565b600062000a4f600d836200046a565b915062000a5c8262000a17565b600d82019050919050565b600062000a748262000a40565b9150819050919050565b61198c8062000a8e6000396000f3fe608060405234801561001057600080fd5b50600436106100935760003560e01c806391bbdcc71161006657806391bbdcc71461012057806397aba7f91461013e578063a7bb58031461016e578063b446f3b2146101a0578063fa540801146101d057610093565b80632dd34f0f146100985780635e01eb5a146100c857806363ffab31146100e6578063894da5c114610104575b600080fd5b6100b260048036038101906100ad9190610e0a565b610200565b6040516100bf9190610eb0565b60405180910390f35b6100d061025e565b6040516100dd9190610eda565b60405180910390f35b6100ee610266565b6040516100fb9190610eda565b60405180910390f35b61011e60048036038101906101199190610ef5565b61027e565b005b610128610759565b60405161013591906110da565b60405180910390f35b61015860048036038101906101539190611132565b610775565b6040516101659190610eda565b60405180910390f35b6101886004803603810190610183919061118e565b6107e4565b60405161019793929190611202565b60405180910390f35b6101ba60048036038101906101b59190611239565b61084c565b6040516101c79190611282565b60405180910390f35b6101ea60048036038101906101e5919061129d565b61087c565b6040516101f79190611282565b60405180910390f35b60008061020c8461084c565b905060006102198261087c565b90508573ffffffffffffffffffffffffffffffffffffffff1661023c8286610775565b73ffffffffffffffffffffffffffffffffffffffff1614925050509392505050565b600033905090565b737264d9fd1a56d865d8b7d96e5251a6efe820b48381565b600115156102c6737264d9fd1a56d865d8b7d96e5251a6efe820b483888888876040516020016102b19493929190611352565b60405160208183030381529060405284610200565b151514610308576040517f08c379a00000000000000000000000000000000000000000000000000000000081526004016102ff906113fd565b60405180910390fd5b60008087604051610319919061141d565b908152602001604051809103902086604051610335919061141d565b908152602001604051809103902060009054906101000a900460ff1690506000600188604051610365919061141d565b908152602001604051809103902086604051610381919061141d565b908152602001604051809103902060009054906101000a900460ff16905060006002896040516103b1919061141d565b9081526020016040518091039020866040516103cd919061141d565b908152602001604051809103902060009054906101000a900460ff16905060006003896040516103fd919061141d565b908152602001604051809103902086604051610419919061141d565b908152602001604051809103902060009054906101000a900460ff16905060006001905060048c60405161044d919061141d565b908152602001604051809103902060405161046790611480565b9081526020016040518091039020604051610481906114e1565b908152602001604051809103902060009054906101000a900460ff16156104af578080156104ac5750845b90505b60048c6040516104bf919061141d565b90815260200160405180910390206040516104d990611480565b9081526020016040518091039020896040516020016104f89190611542565b604051602081830303815290604052604051610514919061141d565b908152602001604051809103902060009054906101000a900460ff16156105425780801561053f5750835b90505b60048c604051610552919061141d565b908152602001604051809103902060405161056c90611480565b90815260200160405180910390208860405160200161058b91906115b0565b6040516020818303038152906040526040516105a7919061141d565b908152602001604051809103902060009054906101000a900460ff16156105d5578080156105d25750825b90505b60048c6040516105e5919061141d565b90815260200160405180910390206040516105ff9061161e565b90815260200160405180910390208760405160200161061e919061167f565b60405160208183030381529060405260405161063a919061141d565b908152602001604051809103902060009054906101000a900460ff1615610668578080156106655750815b90505b6000610672610759565b90506000826106b6576040518060400160405280600581526020017f66616c73650000000000000000000000000000000000000000000000000000008152506106ed565b6040518060400160405280600481526020017f74727565000000000000000000000000000000000000000000000000000000008152505b828f604051602001610701939291906116ed565b60405160208183030381529060405290507f0d296dbb8bcdfde31faa165965bf6e3983386c6dd968f1947b22137719fdde578160405161074191906110da565b60405180910390a15050505050505050505050505050565b60606000339050600061076b826108ac565b9050809250505090565b600080600080610784856107e4565b925092509250600186828585604051600081526020016040526040516107ad9493929190611734565b6020604051602081039080840390855afa1580156107cf573d6000803e3d6000fd5b50505060206040510351935050505092915050565b6000806000604184511461082d576040517f08c379a0000000000000000000000000000000000000000000000000000000008152600401610824906117c5565b60405180910390fd5b6020840151925060408401519150606084015160001a90509193909250565b60008160405160200161085f919061141d565b604051602081830303815290604052805190602001209050919050565b60008160405160200161088f9190611852565b604051602081830303815290604052805190602001209050919050565b606060008273ffffffffffffffffffffffffffffffffffffffff1660001b905060006040518060400160405280601081526020017f303132333435363738396162636465660000000000000000000000000000000081525090506000602a67ffffffffffffffff81111561092357610922610c3e565b5b6040519080825280601f01601f1916602001820160405280156109555781602001600182028036833780820191505090505b5090507f30000000000000000000000000000000000000000000000000000000000000008160008151811061098d5761098c611878565b5b60200101907effffffffffffffffffffffffffffffffffffffffffffffffffffffffffffff1916908160001a9053507f7800000000000000000000000000000000000000000000000000000000000000816001815181106109f1576109f0611878565b5b60200101907effffffffffffffffffffffffffffffffffffffffffffffffffffffffffffff1916908160001a90535060005b6014811015610ba55782600485600c84610a3d91906118e0565b60208110610a4e57610a4d611878565b5b1a60f81b7effffffffffffffffffffffffffffffffffffffffffffffffffffffffffffff1916901c60f81c60ff1681518110610a8d57610a8c611878565b5b602001015160f81c60f81b82600283610aa69190611914565b6002610ab291906118e0565b81518110610ac357610ac2611878565b5b60200101907effffffffffffffffffffffffffffffffffffffffffffffffffffffffffffff1916908160001a90535082600f60f81b85600c84610b0691906118e0565b60208110610b1757610b16611878565b5b1a60f81b1660f81c60ff1681518110610b3357610b32611878565b5b602001015160f81c60f81b82600283610b4c9190611914565b6003610b5891906118e0565b81518110610b6957610b68611878565b5b60200101907effffffffffffffffffffffffffffffffffffffffffffffffffffffffffffff1916908160001a9053508080600101915050610a23565b50809350505050919050565b6000604051905090565b600080fd5b600080fd5b600073ffffffffffffffffffffffffffffffffffffffff82169050919050565b6000610bf082610bc5565b9050919050565b610c0081610be5565b8114610c0b57600080fd5b50565b600081359050610c1d81610bf7565b92915050565b600080fd5b600080fd5b6000601f19601f8301169050919050565b7f4e487b7100000000000000000000000000000000000000000000000000000000600052604160045260246000fd5b610c7682610c2d565b810181811067ffffffffffffffff82111715610c9557610c94610c3e565b5b80604052505050565b6000610ca8610bb1565b9050610cb48282610c6d565b919050565b600067ffffffffffffffff821115610cd457610cd3610c3e565b5b610cdd82610c2d565b9050602081019050919050565b82818337600083830152505050565b6000610d0c610d0784610cb9565b610c9e565b905082815260208101848484011115610d2857610d27610c28565b5b610d33848285610cea565b509392505050565b600082601f830112610d5057610d4f610c23565b5b8135610d60848260208601610cf9565b91505092915050565b600067ffffffffffffffff821115610d8457610d83610c3e565b5b610d8d82610c2d565b9050602081019050919050565b6000610dad610da884610d69565b610c9e565b905082815260208101848484011115610dc957610dc8610c28565b5b610dd4848285610cea565b509392505050565b600082601f830112610df157610df0610c23565b5b8135610e01848260208601610d9a565b91505092915050565b600080600060608486031215610e2357610e22610bbb565b5b6000610e3186828701610c0e565b935050602084013567ffffffffffffffff811115610e5257610e51610bc0565b5b610e5e86828701610d3b565b925050604084013567ffffffffffffffff811115610e7f57610e7e610bc0565b5b610e8b86828701610ddc565b9150509250925092565b60008115159050919050565b610eaa81610e95565b82525050565b6000602082019050610ec56000830184610ea1565b92915050565b610ed481610be5565b82525050565b6000602082019050610eef6000830184610ecb565b92915050565b600080600080600080600060e0888a031215610f1457610f13610bbb565b5b600088013567ffffffffffffffff811115610f3257610f31610bc0565b5b610f3e8a828b01610d3b565b975050602088013567ffffffffffffffff811115610f5f57610f5e610bc0565b5b610f6b8a828b01610d3b565b965050604088013567ffffffffffffffff811115610f8c57610f8b610bc0565b5b610f988a828b01610d3b565b955050606088013567ffffffffffffffff811115610fb957610fb8610bc0565b5b610fc58a828b01610d3b565b945050608088013567ffffffffffffffff811115610fe657610fe5610bc0565b5b610ff28a828b01610d3b565b93505060a088013567ffffffffffffffff81111561101357611012610bc0565b5b61101f8a828b01610d3b565b92505060c088013567ffffffffffffffff8111156110405761103f610bc0565b5b61104c8a828b01610ddc565b91505092959891949750929550565b600081519050919050565b600082825260208201905092915050565b60005b8381101561109557808201518184015260208101905061107a565b60008484015250505050565b60006110ac8261105b565b6110b68185611066565b93506110c6818560208601611077565b6110cf81610c2d565b840191505092915050565b600060208201905081810360008301526110f481846110a1565b905092915050565b6000819050919050565b61110f816110fc565b811461111a57600080fd5b50565b60008135905061112c81611106565b92915050565b6000806040838503121561114957611148610bbb565b5b60006111578582860161111d565b925050602083013567ffffffffffffffff81111561117857611177610bc0565b5b61118485828601610ddc565b9150509250929050565b6000602082840312156111a4576111a3610bbb565b5b600082013567ffffffffffffffff8111156111c2576111c1610bc0565b5b6111ce84828501610ddc565b91505092915050565b6111e0816110fc565b82525050565b600060ff82169050919050565b6111fc816111e6565b82525050565b600060608201905061121760008301866111d7565b61122460208301856111d7565b61123160408301846111f3565b949350505050565b60006020828403121561124f5761124e610bbb565b5b600082013567ffffffffffffffff81111561126d5761126c610bc0565b5b61127984828501610d3b565b91505092915050565b600060208201905061129760008301846111d7565b92915050565b6000602082840312156112b3576112b2610bbb565b5b60006112c18482850161111d565b91505092915050565b600081905092915050565b60006112e08261105b565b6112ea81856112ca565b93506112fa818560208601611077565b80840191505092915050565b7f2c00000000000000000000000000000000000000000000000000000000000000600082015250565b600061133c6001836112ca565b915061134782611306565b600182019050919050565b600061135e82876112d5565b91506113698261132f565b915061137582866112d5565b91506113808261132f565b915061138c82856112d5565b91506113978261132f565b91506113a382846112d5565b915081905095945050505050565b7f496e76616c6964207369676e6174757265000000000000000000000000000000600082015250565b60006113e7601183611066565b91506113f2826113b1565b602082019050919050565b60006020820190508181036000830152611416816113da565b9050919050565b600061142982846112d5565b915081905092915050565b7f6163636573732d7375626a656374000000000000000000000000000000000000600082015250565b600061146a600e836112ca565b915061147582611434565b600e82019050919050565b600061148b8261145d565b9150819050919050565b7f6973417574686f72697a65640000000000000000000000000000000000000000600082015250565b60006114cb600c836112ca565b91506114d682611495565b600c82019050919050565b60006114ec826114be565b9150819050919050565b7f7370656369616c697a6174696f6e000000000000000000000000000000000000600082015250565b600061152c600e836112ca565b9150611537826114f6565b600e82019050919050565b600061154d8261151f565b915061155982846112d5565b915081905092915050565b7f6861734163636573735269676874730000000000000000000000000000000000600082015250565b600061159a600f836112ca565b91506115a582611564565b600f82019050919050565b60006115bb8261158d565b91506115c782846112d5565b915081905092915050565b7f6461746173657400000000000000000000000000000000000000000000000000600082015250565b60006116086007836112ca565b9150611613826115d2565b600782019050919050565b6000611629826115fb565b9150819050919050565b7f6c6f636174696f6e000000000000000000000000000000000000000000000000600082015250565b60006116696008836112ca565b915061167482611633565b600882019050919050565b600061168a8261165c565b915061169682846112d5565b915081905092915050565b7f3a00000000000000000000000000000000000000000000000000000000000000600082015250565b60006116d76001836112ca565b91506116e2826116a1565b600182019050919050565b60006116f982866112d5565b9150611704826116ca565b915061171082856112d5565b915061171b826116ca565b915061172782846112d5565b9150819050949350505050565b600060808201905061174960008301876111d7565b61175660208301866111f3565b61176360408301856111d7565b61177060608301846111d7565b95945050505050565b7f696e76616c6964207369676e6174757265206c656e6774680000000000000000600082015250565b60006117af601883611066565b91506117ba82611779565b602082019050919050565b600060208201905081810360008301526117de816117a2565b9050919050565b7f19457468657265756d205369676e6564204d6573736167653a0a333200000000600082015250565b600061181b601c836112ca565b9150611826826117e5565b601c82019050919050565b6000819050919050565b61184c611847826110fc565b611831565b82525050565b600061185d8261180e565b9150611869828461183b565b60208201915081905092915050565b7f4e487b7100000000000000000000000000000000000000000000000000000000600052603260045260246000fd5b6000819050919050565b7f4e487b7100000000000000000000000000000000000000000000000000000000600052601160045260246000fd5b60006118eb826118a7565b91506118f6836118a7565b925082820190508082111561190e5761190d6118b1565b5b92915050565b600061191f826118a7565b915061192a836118a7565b9250828202611938816118a7565b9150828204841483151761194f5761194e6118b1565b5b509291505056fea2646970667358221220154400901a5acca6bd472c16fed56fc17322df728cc269e2261002b69a432be164736f6c63430008180033",
  "linkReferences": {},
  "deployedLinkReferences": {}
}