{
  "_format": "hh-sol-artifact-1",
  "contractName": "SC_20_21_13_28",
  "sourceName": "contracts/SC_20_21_13_28.sol",
  "abi": [
    {
      "inputs": [],
      "stateMutability": "nonpayable",
      "type": "constructor"
    },
    {
      "anonymous": false,
      "inputs": [
        {
          "indexed": false,
          "internalType": "string",
          "name": "success",
          "type": "string"
        }
      ],
      "name": "SignUpResult",
      "type": "event"
    },
    {
      "inputs": [],
      "name": "convert",
      "outputs": [
        {
          "internalType": "string",
          "name": "",
          "type": "string"
        }
      ],
      "stateMutability": "view",
      "type": "function"
    },
    {
      "inputs": [
        {
          "internalType": "string",
          "name": "datasetID",
          "type": "string"
        },
        {
          "internalType": "string",
          "name": "doctorID",
          "type": "string"
        },
        {
          "internalType": "string",
          "name": "hospitalID",
          "type": "string"
        },
        {
          "internalType": "string",
          "name": "specialization",
          "type": "string"
        },
        {
          "internalType": "string",
          "name": "accessRights",
          "type": "string"
        },
        {
          "internalType": "string",
          "name": "location",
          "type": "string"
        },
        {
          "internalType": "bytes",
          "name": "signature",
          "type": "bytes"
        }
      ],
      "name": "evaluate",
      "outputs": [],
      "stateMutability": "nonpayable",
      "type": "function"
    },
    {
      "inputs": [
        {
          "internalType": "bytes32",
          "name": "_messageHash",
          "type": "bytes32"
        }
      ],
      "name": "getEthSignedMessageHash",
      "outputs": [
        {
          "internalType": "bytes32",
          "name": "",
          "type": "bytes32"
        }
      ],
      "stateMutability": "pure",
      "type": "function"
    },
    {
      "inputs": [
        {
          "internalType": "string",
          "name": "_message",
          "type": "string"
        }
      ],
      "name": "getMessageHash",
      "outputs": [
        {
          "internalType": "bytes32",
          "name": "",
          "type": "bytes32"
        }
      ],
      "stateMutability": "pure",
      "type": "function"
    },
    {
      "inputs": [],
      "name": "getSender",
      "outputs": [
        {
          "internalType": "address",
          "name": "",
          "type": "address"
        }
      ],
      "stateMutability": "view",
      "type": "function"
    },
    {
      "inputs": [],
      "name": "publicKey",
      "outputs": [
        {
          "internalType": "address",
          "name": "",
          "type": "address"
        }
      ],
      "stateMutability": "view",
      "type": "function"
    },
    {
      "inputs": [
        {
          "internalType": "bytes32",
          "name": "_ethSignedMessageHash",
          "type": "bytes32"
        },
        {
          "internalType": "bytes",
          "name": "_signature",
          "type": "bytes"
        }
      ],
      "name": "recoverSigner",
      "outputs": [
        {
          "internalType": "address",
          "name": "",
          "type": "address"
        }
      ],
      "stateMutability": "pure",
      "type": "function"
    },
    {
      "inputs": [
        {
          "internalType": "bytes",
          "name": "sig",
          "type": "bytes"
        }
      ],
      "name": "splitSignature",
      "outputs": [
        {
          "internalType": "bytes32",
          "name": "r",
          "type": "bytes32"
        },
        {
          "internalType": "bytes32",
          "name": "s",
          "type": "bytes32"
        },
        {
          "internalType": "uint8",
          "name": "v",
          "type": "uint8"
        }
      ],
      "stateMutability": "pure",
      "type": "function"
    },
    {
      "inputs": [
        {
          "internalType": "address",
          "name": "_signer",
          "type": "address"
        },
        {
          "internalType": "string",
          "name": "_message",
          "type": "string"
        },
        {
          "internalType": "bytes",
          "name": "signature",
          "type": "bytes"
        }
      ],
      "name": "verify",
      "outputs": [
        {
          "internalType": "bool",
          "name": "",
          "type": "bool"
        }
      ],
      "stateMutability": "pure",
      "type": "function"
    }
  ],
  "bytecode": "0x60806040523480156200001157600080fd5b50600160006040516200002490620004c5565b908152602001604051809103902060405162000040906200052c565b908152602001604051809103902060006101000a81548160ff0219169083151502179055506001806040516200007690620004c5565b9081526020016040518091039020604051620000929062000593565b908152602001604051809103902060006101000a81548160ff02191690831515021790555060016002604051620000c990620004c5565b9081526020016040518091039020604051620000e590620005fa565b908152602001604051809103902060006101000a81548160ff0219169083151502179055506000806040516200011b9062000661565b908152602001604051809103902060405162000137906200052c565b908152602001604051809103902060006101000a81548160ff021916908315150217905550600060016040516200016e9062000661565b90815260200160405180910390206040516200018a9062000593565b908152602001604051809103902060006101000a81548160ff02191690831515021790555060006002604051620001c19062000661565b9081526020016040518091039020604051620001dd90620005fa565b908152602001604051809103902060006101000a81548160ff0219169083151502179055506001600360405162000214906200052c565b90815260200160405180910390206040516200023090620006c8565b908152602001604051809103902060006101000a81548160ff0219169083151502179055506001600360405162000267906200072f565b9081526020016040518091039020604051620002839062000796565b908152602001604051809103902060006101000a81548160ff02191690831515021790555060016004604051620002ba90620007fd565b9081526020016040518091039020604051620002d69062000864565b9081526020016040518091039020604051620002f290620008cb565b908152602001604051809103902060006101000a81548160ff021916908315150217905550600160046040516200032990620007fd565b9081526020016040518091039020604051620003459062000864565b9081526020016040518091039020604051620003619062000932565b908152602001604051809103902060006101000a81548160ff021916908315150217905550600160046040516200039890620007fd565b9081526020016040518091039020604051620003b49062000864565b9081526020016040518091039020604051620003d09062000999565b908152602001604051809103902060006101000a81548160ff021916908315150217905550600160046040516200040790620007fd565b9081526020016040518091039020604051620004239062000a00565b90815260200160405180910390206040516200043f9062000a67565b908152602001604051809103902060006101000a81548160ff02191690831515021790555062000a7e565b600081905092915050565b7f646f633132330000000000000000000000000000000000000000000000000000600082015250565b6000620004ad6006836200046a565b9150620004ba8262000475565b600682019050919050565b6000620004d2826200049e565b9150819050919050565b7f686f73706974616c410000000000000000000000000000000000000000000000600082015250565b6000620005146009836200046a565b91506200052182620004dc565b600982019050919050565b6000620005398262000505565b9150819050919050565b7f43617264696f6c6f677900000000000000000000000000000000000000000000600082015250565b60006200057b600a836200046a565b9150620005888262000543565b600a82019050919050565b6000620005a0826200056c565b9150819050919050565b7f526561642d577269746500000000000000000000000000000000000000000000600082015250565b6000620005e2600a836200046a565b9150620005ef82620005aa565b600a82019050919050565b60006200060782620005d3565b9150819050919050565b7f646f633435360000000000000000000000000000000000000000000000000000600082015250565b6000620006496006836200046a565b9150620006568262000611565b600682019050919050565b60006200066e826200063a565b9150819050919050565b7f436c6f7564000000000000000000000000000000000000000000000000000000600082015250565b6000620006b06005836200046a565b9150620006bd8262000678565b600582019050919050565b6000620006d582620006a1565b9150819050919050565b7f686f73706974616c420000000000000000000000000000000000000000000000600082015250565b6000620007176009836200046a565b91506200072482620006df565b600982019050919050565b60006200073c8262000708565b9150819050919050565b7f4c6f63616c000000000000000000000000000000000000000000000000000000600082015250565b60006200077e6005836200046a565b91506200078b8262000746565b600582019050919050565b6000620007a3826200076f565b9150819050919050565b7f6461746173657431000000000000000000000000000000000000000000000000600082015250565b6000620007e56008836200046a565b9150620007f282620007ad565b600882019050919050565b60006200080a82620007d6565b9150819050919050565b7f6163636573732d7375626a656374000000000000000000000000000000000000600082015250565b60006200084c600e836200046a565b9150620008598262000814565b600e82019050919050565b600062000871826200083d565b9150819050919050565b7f6973417574686f72697a65640000000000000000000000000000000000000000600082015250565b6000620008b3600c836200046a565b9150620008c0826200087b565b600c82019050919050565b6000620008d882620008a4565b9150819050919050565b7f7370656369616c697a6174696f6e43617264696f6c6f67790000000000000000600082015250565b60006200091a6018836200046a565b91506200092782620008e2565b601882019050919050565b60006200093f826200090b565b9150819050919050565b7f686173416363657373526967687473526561642d577269746500000000000000600082015250565b6000620009816019836200046a565b91506200098e8262000949565b601982019050919050565b6000620009a68262000972565b9150819050919050565b7f6461746173657400000000000000000000000000000000000000000000000000600082015250565b6000620009e86007836200046a565b9150620009f582620009b0565b600782019050919050565b600062000a0d82620009d9565b9150819050919050565b7f6c6f636174696f6e436c6f756400000000000000000000000000000000000000600082015250565b600062000a4f600d836200046a565b915062000a5c8262000a17565b600d82019050919050565b600062000a748262000a40565b9150819050919050565b6119728062000a8e6000396000f3fe608060405234801561001057600080fd5b50600436106100935760003560e01c806391bbdcc71161006657806391bbdcc71461012057806397aba7f91461013e578063a7bb58031461016e578063b446f3b2146101a0578063fa540801146101d057610093565b80632dd34f0f146100985780635e01eb5a146100c857806363ffab31146100e6578063894da5c114610104575b600080fd5b6100b260048036038101906100ad9190610e08565b610200565b6040516100bf9190610eae565b60405180910390f35b6100d061025e565b6040516100dd9190610ed8565b60405180910390f35b6100ee610266565b6040516100fb9190610ed8565b60405180910390f35b61011e60048036038101906101199190610ef3565b61027e565b005b610128610757565b60405161013591906110d8565b60405180910390f35b61015860048036038101906101539190611130565b610773565b6040516101659190610ed8565b60405180910390f35b6101886004803603810190610183919061118c565b6107e2565b60405161019793929190611200565b60405180910390f35b6101ba60048036038101906101b59190611237565b61084a565b6040516101c79190611280565b60405180910390f35b6101ea60048036038101906101e5919061129b565b61087a565b6040516101f79190611280565b60405180910390f35b60008061020c8461084a565b905060006102198261087a565b90508573ffffffffffffffffffffffffffffffffffffffff1661023c8286610773565b73ffffffffffffffffffffffffffffffffffffffff1614925050509392505050565b600033905090565b737264d9fd1a56d865d8b7d96e5251a6efe820b48381565b600115156102c6737264d9fd1a56d865d8b7d96e5251a6efe820b483888888876040516020016102b19493929190611350565b60405160208183030381529060405284610200565b151514610308576040517f08c379a00000000000000000000000000000000000000000000000000000000081526004016102ff906113fb565b60405180910390fd5b60008087604051610319919061141b565b908152602001604051809103902086604051610335919061141b565b908152602001604051809103902060009054906101000a900460ff1690506000600188604051610365919061141b565b908152602001604051809103902086604051610381919061141b565b908152602001604051809103902060009054906101000a900460ff16905060006002896040516103b1919061141b565b9081526020016040518091039020866040516103cd919061141b565b908152602001604051809103902060009054906101000a900460ff16905060006003896040516103fd919061141b565b908152602001604051809103902086604051610419919061141b565b908152602001604051809103902060009054906101000a900460ff16905060006001905060048c60405161044d919061141b565b90815260200160405180910390206040516104679061147e565b9081526020016040518091039020604051610481906114df565b908152602001604051809103902060009054906101000a900460ff16156104af578080156104ac5750845b90505b60048c6040516104bf919061141b565b90815260200160405180910390206040516104d99061147e565b9081526020016040518091039020896040516020016104f89190611540565b604051602081830303815290604052604051610514919061141b565b908152602001604051809103902060009054906101000a900460ff16156105425780801561053f5750835b90505b60048c604051610552919061141b565b908152602001604051809103902060405161056c9061147e565b90815260200160405180910390208860405160200161058b91906115ae565b6040516020818303038152906040526040516105a7919061141b565b908152602001604051809103902060009054906101000a900460ff16156105d5578080156105d25750825b90505b60048c6040516105e5919061141b565b90815260200160405180910390206040516105ff9061161c565b90815260200160405180910390208760405160200161061e919061167d565b60405160208183030381529060405260405161063a919061141b565b908152602001604051809103902060009054906101000a900460ff1615610668578080156106655750815b90505b6000610672610757565b90506000826106b6576040518060400160405280600581526020017f66616c73650000000000000000000000000000000000000000000000000000008152506106ed565b6040518060400160405280600481526020017f74727565000000000000000000000000000000000000000000000000000000008152505b826040516020016106ff9291906116eb565b60405160208183030381529060405290507f0d296dbb8bcdfde31faa165965bf6e3983386c6dd968f1947b22137719fdde578160405161073f91906110d8565b60405180910390a15050505050505050505050505050565b606060003390506000610769826108aa565b9050809250505090565b600080600080610782856107e2565b925092509250600186828585604051600081526020016040526040516107ab949392919061171a565b6020604051602081039080840390855afa1580156107cd573d6000803e3d6000fd5b50505060206040510351935050505092915050565b6000806000604184511461082b576040517f08c379a0000000000000000000000000000000000000000000000000000000008152600401610822906117ab565b60405180910390fd5b6020840151925060408401519150606084015160001a90509193909250565b60008160405160200161085d919061141b565b604051602081830303815290604052805190602001209050919050565b60008160405160200161088d9190611838565b604051602081830303815290604052805190602001209050919050565b606060008273ffffffffffffffffffffffffffffffffffffffff1660001b905060006040518060400160405280601081526020017f303132333435363738396162636465660000000000000000000000000000000081525090506000602a67ffffffffffffffff81111561092157610920610c3c565b5b6040519080825280601f01601f1916602001820160405280156109535781602001600182028036833780820191505090505b5090507f30000000000000000000000000000000000000000000000000000000000000008160008151811061098b5761098a61185e565b5b60200101907effffffffffffffffffffffffffffffffffffffffffffffffffffffffffffff1916908160001a9053507f7800000000000000000000000000000000000000000000000000000000000000816001815181106109ef576109ee61185e565b5b60200101907effffffffffffffffffffffffffffffffffffffffffffffffffffffffffffff1916908160001a90535060005b6014811015610ba35782600485600c84610a3b91906118c6565b60208110610a4c57610a4b61185e565b5b1a60f81b7effffffffffffffffffffffffffffffffffffffffffffffffffffffffffffff1916901c60f81c60ff1681518110610a8b57610a8a61185e565b5b602001015160f81c60f81b82600283610aa491906118fa565b6002610ab091906118c6565b81518110610ac157610ac061185e565b5b60200101907effffffffffffffffffffffffffffffffffffffffffffffffffffffffffffff1916908160001a90535082600f60f81b85600c84610b0491906118c6565b60208110610b1557610b1461185e565b5b1a60f81b1660f81c60ff1681518110610b3157610b3061185e565b5b602001015160f81c60f81b82600283610b4a91906118fa565b6003610b5691906118c6565b81518110610b6757610b6661185e565b5b60200101907effffffffffffffffffffffffffffffffffffffffffffffffffffffffffffff1916908160001a9053508080600101915050610a21565b50809350505050919050565b6000604051905090565b600080fd5b600080fd5b600073ffffffffffffffffffffffffffffffffffffffff82169050919050565b6000610bee82610bc3565b9050919050565b610bfe81610be3565b8114610c0957600080fd5b50565b600081359050610c1b81610bf5565b92915050565b600080fd5b600080fd5b6000601f19601f8301169050919050565b7f4e487b7100000000000000000000000000000000000000000000000000000000600052604160045260246000fd5b610c7482610c2b565b810181811067ffffffffffffffff82111715610c9357610c92610c3c565b5b80604052505050565b6000610ca6610baf565b9050610cb28282610c6b565b919050565b600067ffffffffffffffff821115610cd257610cd1610c3c565b5b610cdb82610c2b565b9050602081019050919050565b82818337600083830152505050565b6000610d0a610d0584610cb7565b610c9c565b905082815260208101848484011115610d2657610d25610c26565b5b610d31848285610ce8565b509392505050565b600082601f830112610d4e57610d4d610c21565b5b8135610d5e848260208601610cf7565b91505092915050565b600067ffffffffffffffff821115610d8257610d81610c3c565b5b610d8b82610c2b565b9050602081019050919050565b6000610dab610da684610d67565b610c9c565b905082815260208101848484011115610dc757610dc6610c26565b5b610dd2848285610ce8565b509392505050565b600082601f830112610def57610dee610c21565b5b8135610dff848260208601610d98565b91505092915050565b600080600060608486031215610e2157610e20610bb9565b5b6000610e2f86828701610c0c565b935050602084013567ffffffffffffffff811115610e5057610e4f610bbe565b5b610e5c86828701610d39565b925050604084013567ffffffffffffffff811115610e7d57610e7c610bbe565b5b610e8986828701610dda565b9150509250925092565b60008115159050919050565b610ea881610e93565b82525050565b6000602082019050610ec36000830184610e9f565b92915050565b610ed281610be3565b82525050565b6000602082019050610eed6000830184610ec9565b92915050565b600080600080600080600060e0888a031215610f1257610f11610bb9565b5b600088013567ffffffffffffffff811115610f3057610f2f610bbe565b5b610f3c8a828b01610d39565b975050602088013567ffffffffffffffff811115610f5d57610f5c610bbe565b5b610f698a828b01610d39565b965050604088013567ffffffffffffffff811115610f8a57610f89610bbe565b5b610f968a828b01610d39565b955050606088013567ffffffffffffffff811115610fb757610fb6610bbe565b5b610fc38a828b01610d39565b945050608088013567ffffffffffffffff811115610fe457610fe3610bbe565b5b610ff08a828b01610d39565b93505060a088013567ffffffffffffffff81111561101157611010610bbe565b5b61101d8a828b01610d39565b92505060c088013567ffffffffffffffff81111561103e5761103d610bbe565b5b61104a8a828b01610dda565b91505092959891949750929550565b600081519050919050565b600082825260208201905092915050565b60005b83811015611093578082015181840152602081019050611078565b60008484015250505050565b60006110aa82611059565b6110b48185611064565b93506110c4818560208601611075565b6110cd81610c2b565b840191505092915050565b600060208201905081810360008301526110f2818461109f565b905092915050565b6000819050919050565b61110d816110fa565b811461111857600080fd5b50565b60008135905061112a81611104565b92915050565b6000806040838503121561114757611146610bb9565b5b60006111558582860161111b565b925050602083013567ffffffffffffffff81111561117657611175610bbe565b5b61118285828601610dda565b9150509250929050565b6000602082840312156111a2576111a1610bb9565b5b600082013567ffffffffffffffff8111156111c0576111bf610bbe565b5b6111cc84828501610dda565b91505092915050565b6111de816110fa565b82525050565b600060ff82169050919050565b6111fa816111e4565b82525050565b600060608201905061121560008301866111d5565b61122260208301856111d5565b61122f60408301846111f1565b949350505050565b60006020828403121561124d5761124c610bb9565b5b600082013567ffffffffffffffff81111561126b5761126a610bbe565b5b61127784828501610d39565b91505092915050565b600060208201905061129560008301846111d5565b92915050565b6000602082840312156112b1576112b0610bb9565b5b60006112bf8482850161111b565b91505092915050565b600081905092915050565b60006112de82611059565b6112e881856112c8565b93506112f8818560208601611075565b80840191505092915050565b7f2c00000000000000000000000000000000000000000000000000000000000000600082015250565b600061133a6001836112c8565b915061134582611304565b600182019050919050565b600061135c82876112d3565b91506113678261132d565b915061137382866112d3565b915061137e8261132d565b915061138a82856112d3565b91506113958261132d565b91506113a182846112d3565b915081905095945050505050565b7f496e76616c6964207369676e6174757265000000000000000000000000000000600082015250565b60006113e5601183611064565b91506113f0826113af565b602082019050919050565b60006020820190508181036000830152611414816113d8565b9050919050565b600061142782846112d3565b915081905092915050565b7f6163636573732d7375626a656374000000000000000000000000000000000000600082015250565b6000611468600e836112c8565b915061147382611432565b600e82019050919050565b60006114898261145b565b9150819050919050565b7f6973417574686f72697a65640000000000000000000000000000000000000000600082015250565b60006114c9600c836112c8565b91506114d482611493565b600c82019050919050565b60006114ea826114bc565b9150819050919050565b7f7370656369616c697a6174696f6e000000000000000000000000000000000000600082015250565b600061152a600e836112c8565b9150611535826114f4565b600e82019050919050565b600061154b8261151d565b915061155782846112d3565b915081905092915050565b7f6861734163636573735269676874730000000000000000000000000000000000600082015250565b6000611598600f836112c8565b91506115a382611562565b600f82019050919050565b60006115b98261158b565b91506115c582846112d3565b915081905092915050565b7f6461746173657400000000000000000000000000000000000000000000000000600082015250565b60006116066007836112c8565b9150611611826115d0565b600782019050919050565b6000611627826115f9565b9150819050919050565b7f6c6f636174696f6e000000000000000000000000000000000000000000000000600082015250565b60006116676008836112c8565b915061167282611631565b600882019050919050565b60006116888261165a565b915061169482846112d3565b915081905092915050565b7f3a00000000000000000000000000000000000000000000000000000000000000600082015250565b60006116d56001836112c8565b91506116e08261169f565b600182019050919050565b60006116f782856112d3565b9150611702826116c8565b915061170e82846112d3565b91508190509392505050565b600060808201905061172f60008301876111d5565b61173c60208301866111f1565b61174960408301856111d5565b61175660608301846111d5565b95945050505050565b7f696e76616c6964207369676e6174757265206c656e6774680000000000000000600082015250565b6000611795601883611064565b91506117a08261175f565b602082019050919050565b600060208201905081810360008301526117c481611788565b9050919050565b7f19457468657265756d205369676e6564204d6573736167653a0a333200000000600082015250565b6000611801601c836112c8565b915061180c826117cb565b601c82019050919050565b6000819050919050565b61183261182d826110fa565b611817565b82525050565b6000611843826117f4565b915061184f8284611821565b60208201915081905092915050565b7f4e487b7100000000000000000000000000000000000000000000000000000000600052603260045260246000fd5b6000819050919050565b7f4e487b7100000000000000000000000000000000000000000000000000000000600052601160045260246000fd5b60006118d18261188d565b91506118dc8361188d565b92508282019050808211156118f4576118f3611897565b5b92915050565b60006119058261188d565b91506119108361188d565b925082820261191e8161188d565b9150828204841483151761193557611934611897565b5b509291505056fea2646970667358221220d0f97994de2cd717bb15aad6023d619e507d2d505d0684e1c8d10ead8e2c5ba564736f6c63430008180033",
  "linkReferences": {},
  "deployedLinkReferences": {}
}