{
  "_format": "hh-sol-artifact-1",
  "contractName": "VerifySignature",
  "sourceName": "contracts/VerifySignature.sol",
  "abi": [
    {
      "anonymous": false,
      "inputs": [
        {
          "indexed": false,
          "internalType": "bool",
          "name": "success",
          "type": "bool"
        }
      ],
      "name": "SignUpResult",
      "type": "event"
    },
    {
      "inputs": [
        {
          "internalType": "bytes32",
          "name": "_messageHash",
          "type": "bytes32"
        }
      ],
      "name": "getEthSignedMessageHash",
      "outputs": [
        {
          "internalType": "bytes32",
          "name": "",
          "type": "bytes32"
        }
      ],
      "stateMutability": "pure",
      "type": "function"
    },
    {
      "inputs": [
        {
          "internalType": "string",
          "name": "_message",
          "type": "string"
        }
      ],
      "name": "getMessageHash",
      "outputs": [
        {
          "internalType": "bytes32",
          "name": "",
          "type": "bytes32"
        }
      ],
      "stateMutability": "pure",
      "type": "function"
    },
    {
      "inputs": [],
      "name": "getSender",
      "outputs": [
        {
          "internalType": "address",
          "name": "",
          "type": "address"
        }
      ],
      "stateMutability": "view",
      "type": "function"
    },
    {
      "inputs": [
        {
          "internalType": "address",
          "name": "_account",
          "type": "address"
        },
        {
          "internalType": "string",
          "name": "_username",
          "type": "string"
        },
        {
          "internalType": "string",
          "name": "_password",
          "type": "string"
        },
        {
          "internalType": "bytes",
          "name": "_signature",
          "type": "bytes"
        }
      ],
      "name": "login",
      "outputs": [
        {
          "internalType": "bool",
          "name": "",
          "type": "bool"
        }
      ],
      "stateMutability": "view",
      "type": "function"
    },
    {
      "inputs": [
        {
          "internalType": "bytes",
          "name": "_signature",
          "type": "bytes"
        }
      ],
      "name": "loginWithSignature",
      "outputs": [
        {
          "internalType": "bool",
          "name": "",
          "type": "bool"
        }
      ],
      "stateMutability": "view",
      "type": "function"
    },
    {
      "inputs": [
        {
          "internalType": "address",
          "name": "_account",
          "type": "address"
        },
        {
          "internalType": "bytes",
          "name": "_signature",
          "type": "bytes"
        }
      ],
      "name": "loginWithSignature2",
      "outputs": [
        {
          "internalType": "bool",
          "name": "",
          "type": "bool"
        }
      ],
      "stateMutability": "view",
      "type": "function"
    },
    {
      "inputs": [
        {
          "internalType": "bytes32",
          "name": "_ethSignedMessageHash",
          "type": "bytes32"
        },
        {
          "internalType": "bytes",
          "name": "_signature",
          "type": "bytes"
        }
      ],
      "name": "recoverSigner",
      "outputs": [
        {
          "internalType": "address",
          "name": "",
          "type": "address"
        }
      ],
      "stateMutability": "pure",
      "type": "function"
    },
    {
      "inputs": [
        {
          "internalType": "address",
          "name": "_account",
          "type": "address"
        },
        {
          "internalType": "string",
          "name": "_username",
          "type": "string"
        },
        {
          "internalType": "string",
          "name": "_password",
          "type": "string"
        },
        {
          "internalType": "bytes",
          "name": "_signature",
          "type": "bytes"
        }
      ],
      "name": "signUp",
      "outputs": [],
      "stateMutability": "nonpayable",
      "type": "function"
    },
    {
      "inputs": [
        {
          "internalType": "bytes",
          "name": "sig",
          "type": "bytes"
        }
      ],
      "name": "splitSignature",
      "outputs": [
        {
          "internalType": "bytes32",
          "name": "r",
          "type": "bytes32"
        },
        {
          "internalType": "bytes32",
          "name": "s",
          "type": "bytes32"
        },
        {
          "internalType": "uint8",
          "name": "v",
          "type": "uint8"
        }
      ],
      "stateMutability": "pure",
      "type": "function"
    },
    {
      "inputs": [
        {
          "internalType": "address",
          "name": "_signer",
          "type": "address"
        },
        {
          "internalType": "string",
          "name": "_message",
          "type": "string"
        },
        {
          "internalType": "bytes",
          "name": "signature",
          "type": "bytes"
        }
      ],
      "name": "verify",
      "outputs": [
        {
          "internalType": "bool",
          "name": "",
          "type": "bool"
        }
      ],
      "stateMutability": "pure",
      "type": "function"
    }
  ],
  "bytecode": "0x608060405234801561001057600080fd5b50611b11806100206000396000f3fe608060405234801561001057600080fd5b506004361061009e5760003560e01c806397aba7f91161006657806397aba7f91461016d578063a7bb58031461019d578063b446f3b2146101cf578063dea2507c146101ff578063fa5408011461022f5761009e565b8063131dd94c146100a357806328aacfdf146100d35780632bbfd547146101035780632dd34f0f1461011f5780635e01eb5a1461014f575b600080fd5b6100bd60048036038101906100b89190610de4565b61025f565b6040516100ca9190610e48565b60405180910390f35b6100ed60048036038101906100e89190610ec1565b610413565b6040516100fa9190610e48565b60405180910390f35b61011d60048036038101906101189190610fbe565b6105c8565b005b61013960048036038101906101349190611079565b61083e565b6040516101469190610e48565b60405180910390f35b61015761089c565b6040516101649190611113565b60405180910390f35b61018760048036038101906101829190611164565b6108a4565b6040516101949190611113565b60405180910390f35b6101b760048036038101906101b29190610de4565b610913565b6040516101c6939291906111eb565b60405180910390f35b6101e960048036038101906101e49190611222565b61097b565b6040516101f6919061126b565b60405180910390f35b61021960048036038101906102149190610fbe565b6109ab565b6040516102269190610e48565b60405180910390f35b61024960048036038101906102449190611286565b610c5a565b604051610256919061126b565b60405180910390f35b6000806000803373ffffffffffffffffffffffffffffffffffffffff1673ffffffffffffffffffffffffffffffffffffffff1681526020019081526020016000206040518060400160405290816000820180546102bb906112e2565b80601f01602080910402602001604051908101604052809291908181526020018280546102e7906112e2565b80156103345780601f1061030957610100808354040283529160200191610334565b820191906000526020600020905b81548152906001019060200180831161031757829003601f168201915b5050505050815260200160018201805461034d906112e2565b80601f0160208091040260200160405190810160405280929190818152602001828054610379906112e2565b80156103c65780601f1061039b576101008083540402835291602001916103c6565b820191906000526020600020905b8154815290600101906020018083116103a957829003601f168201915b50505050508152505090506000816000015182602001516040516020016103ee9291906113d0565b604051602081830303815290604052905061040a33828661083e565b92505050919050565b6000806000808573ffffffffffffffffffffffffffffffffffffffff1673ffffffffffffffffffffffffffffffffffffffff16815260200190815260200160002060405180604001604052908160008201805461046f906112e2565b80601f016020809104026020016040519081016040528092919081815260200182805461049b906112e2565b80156104e85780601f106104bd576101008083540402835291602001916104e8565b820191906000526020600020905b8154815290600101906020018083116104cb57829003601f168201915b50505050508152602001600182018054610501906112e2565b80601f016020809104026020016040519081016040528092919081815260200182805461052d906112e2565b801561057a5780601f1061054f5761010080835404028352916020019161057a565b820191906000526020600020905b81548152906001019060200180831161055d57829003601f168201915b50505050508152505090506000816000015182602001516040516020016105a29291906113d0565b60405160208183030381529060405290506105be33828661083e565b9250505092915050565b600073ffffffffffffffffffffffffffffffffffffffff168473ffffffffffffffffffffffffffffffffffffffff1603610637576040517f08c379a000000000000000000000000000000000000000000000000000000000815260040161062e9061145c565b60405180910390fd5b600083511161067b576040517f08c379a0000000000000000000000000000000000000000000000000000000008152600401610672906114c8565b60405180910390fd5b60008251116106bf576040517f08c379a00000000000000000000000000000000000000000000000000000000081526004016106b690611534565b60405180910390fd5b600115156106ef8585856040516020016106da9291906113d0565b6040516020818303038152906040528461083e565b151514610731576040517f08c379a0000000000000000000000000000000000000000000000000000000008152600401610728906115a0565b60405180910390fd5b6040518060400160405280848152602001838152506000808673ffffffffffffffffffffffffffffffffffffffff1673ffffffffffffffffffffffffffffffffffffffff16815260200190815260200160002060008201518160000190816107999190611776565b5060208201518160010190816107af9190611776565b5090505080600160008673ffffffffffffffffffffffffffffffffffffffff1673ffffffffffffffffffffffffffffffffffffffff16815260200190815260200160002090816107ff91906118ae565b507f05cd542ccd54cabc7cea4b1abd891216618e038cac6f207ce46adfcbf2e6550a60016040516108309190610e48565b60405180910390a150505050565b60008061084a8461097b565b9050600061085782610c5a565b90508573ffffffffffffffffffffffffffffffffffffffff1661087a82866108a4565b73ffffffffffffffffffffffffffffffffffffffff1614925050509392505050565b600033905090565b6000806000806108b385610913565b925092509250600186828585604051600081526020016040526040516108dc9493929190611980565b6020604051602081039080840390855afa1580156108fe573d6000803e3d6000fd5b50505060206040510351935050505092915050565b6000806000604184511461095c576040517f08c379a000000000000000000000000000000000000000000000000000000000815260040161095390611a11565b60405180910390fd5b6020840151925060408401519150606084015160001a90509193909250565b60008160405160200161098e9190611a31565b604051602081830303815290604052805190602001209050919050565b6000806000808773ffffffffffffffffffffffffffffffffffffffff1673ffffffffffffffffffffffffffffffffffffffff168152602001908152602001600020604051806040016040529081600082018054610a07906112e2565b80601f0160208091040260200160405190810160405280929190818152602001828054610a33906112e2565b8015610a805780601f10610a5557610100808354040283529160200191610a80565b820191906000526020600020905b815481529060010190602001808311610a6357829003601f168201915b50505050508152602001600182018054610a99906112e2565b80601f0160208091040260200160405190810160405280929190818152602001828054610ac5906112e2565b8015610b125780601f10610ae757610100808354040283529160200191610b12565b820191906000526020600020905b815481529060010190602001808311610af557829003601f168201915b505050505081525050905084604051602001610b2e9190611a31565b604051602081830303815290604052805190602001208160000151604051602001610b599190611a31565b60405160208183030381529060405280519060200120148015610bcb575083604051602001610b889190611a31565b604051602081830303815290604052805190602001208160200151604051602001610bb39190611a31565b60405160208183030381529060405280519060200120145b15610c4c5760011515610c00878787604051602001610beb9291906113d0565b6040516020818303038152906040528661083e565b151514610c42576040517f08c379a0000000000000000000000000000000000000000000000000000000008152600401610c39906115a0565b60405180910390fd5b6001915050610c52565b60009150505b949350505050565b600081604051602001610c6d9190611ab5565b604051602081830303815290604052805190602001209050919050565b6000604051905090565b600080fd5b600080fd5b600080fd5b600080fd5b6000601f19601f8301169050919050565b7f4e487b7100000000000000000000000000000000000000000000000000000000600052604160045260246000fd5b610cf182610ca8565b810181811067ffffffffffffffff82111715610d1057610d0f610cb9565b5b80604052505050565b6000610d23610c8a565b9050610d2f8282610ce8565b919050565b600067ffffffffffffffff821115610d4f57610d4e610cb9565b5b610d5882610ca8565b9050602081019050919050565b82818337600083830152505050565b6000610d87610d8284610d34565b610d19565b905082815260208101848484011115610da357610da2610ca3565b5b610dae848285610d65565b509392505050565b600082601f830112610dcb57610dca610c9e565b5b8135610ddb848260208601610d74565b91505092915050565b600060208284031215610dfa57610df9610c94565b5b600082013567ffffffffffffffff811115610e1857610e17610c99565b5b610e2484828501610db6565b91505092915050565b60008115159050919050565b610e4281610e2d565b82525050565b6000602082019050610e5d6000830184610e39565b92915050565b600073ffffffffffffffffffffffffffffffffffffffff82169050919050565b6000610e8e82610e63565b9050919050565b610e9e81610e83565b8114610ea957600080fd5b50565b600081359050610ebb81610e95565b92915050565b60008060408385031215610ed857610ed7610c94565b5b6000610ee685828601610eac565b925050602083013567ffffffffffffffff811115610f0757610f06610c99565b5b610f1385828601610db6565b9150509250929050565b600067ffffffffffffffff821115610f3857610f37610cb9565b5b610f4182610ca8565b9050602081019050919050565b6000610f61610f5c84610f1d565b610d19565b905082815260208101848484011115610f7d57610f7c610ca3565b5b610f88848285610d65565b509392505050565b600082601f830112610fa557610fa4610c9e565b5b8135610fb5848260208601610f4e565b91505092915050565b60008060008060808587031215610fd857610fd7610c94565b5b6000610fe687828801610eac565b945050602085013567ffffffffffffffff81111561100757611006610c99565b5b61101387828801610f90565b935050604085013567ffffffffffffffff81111561103457611033610c99565b5b61104087828801610f90565b925050606085013567ffffffffffffffff81111561106157611060610c99565b5b61106d87828801610db6565b91505092959194509250565b60008060006060848603121561109257611091610c94565b5b60006110a086828701610eac565b935050602084013567ffffffffffffffff8111156110c1576110c0610c99565b5b6110cd86828701610f90565b925050604084013567ffffffffffffffff8111156110ee576110ed610c99565b5b6110fa86828701610db6565b9150509250925092565b61110d81610e83565b82525050565b60006020820190506111286000830184611104565b92915050565b6000819050919050565b6111418161112e565b811461114c57600080fd5b50565b60008135905061115e81611138565b92915050565b6000806040838503121561117b5761117a610c94565b5b60006111898582860161114f565b925050602083013567ffffffffffffffff8111156111aa576111a9610c99565b5b6111b685828601610db6565b9150509250929050565b6111c98161112e565b82525050565b600060ff82169050919050565b6111e5816111cf565b82525050565b600060608201905061120060008301866111c0565b61120d60208301856111c0565b61121a60408301846111dc565b949350505050565b60006020828403121561123857611237610c94565b5b600082013567ffffffffffffffff81111561125657611255610c99565b5b61126284828501610f90565b91505092915050565b600060208201905061128060008301846111c0565b92915050565b60006020828403121561129c5761129b610c94565b5b60006112aa8482850161114f565b91505092915050565b7f4e487b7100000000000000000000000000000000000000000000000000000000600052602260045260246000fd5b600060028204905060018216806112fa57607f821691505b60208210810361130d5761130c6112b3565b5b50919050565b600081519050919050565b600081905092915050565b60005b8381101561134757808201518184015260208101905061132c565b60008484015250505050565b600061135e82611313565b611368818561131e565b9350611378818560208601611329565b80840191505092915050565b7f2c00000000000000000000000000000000000000000000000000000000000000600082015250565b60006113ba60018361131e565b91506113c582611384565b600182019050919050565b60006113dc8285611353565b91506113e7826113ad565b91506113f38284611353565b91508190509392505050565b600082825260208201905092915050565b7f496e76616c6964206163636f756e742061646472657373000000000000000000600082015250565b60006114466017836113ff565b915061145182611410565b602082019050919050565b6000602082019050818103600083015261147581611439565b9050919050565b7f557365726e616d652063616e6e6f7420626520656d7074790000000000000000600082015250565b60006114b26018836113ff565b91506114bd8261147c565b602082019050919050565b600060208201905081810360008301526114e1816114a5565b9050919050565b7f50617373776f72642063616e6e6f7420626520656d7074790000000000000000600082015250565b600061151e6018836113ff565b9150611529826114e8565b602082019050919050565b6000602082019050818103600083015261154d81611511565b9050919050565b7f496e76616c6964207369676e6174757265000000000000000000000000000000600082015250565b600061158a6011836113ff565b915061159582611554565b602082019050919050565b600060208201905081810360008301526115b98161157d565b9050919050565b60008190508160005260206000209050919050565b60006020601f8301049050919050565b600082821b905092915050565b6000600883026116227fffffffffffffffffffffffffffffffffffffffffffffffffffffffffffffffff826115e5565b61162c86836115e5565b95508019841693508086168417925050509392505050565b6000819050919050565b6000819050919050565b600061167361166e61166984611644565b61164e565b611644565b9050919050565b6000819050919050565b61168d83611658565b6116a16116998261167a565b8484546115f2565b825550505050565b600090565b6116b66116a9565b6116c1818484611684565b505050565b5b818110156116e5576116da6000826116ae565b6001810190506116c7565b5050565b601f82111561172a576116fb816115c0565b611704846115d5565b81016020851015611713578190505b61172761171f856115d5565b8301826116c6565b50505b505050565b600082821c905092915050565b600061174d6000198460080261172f565b1980831691505092915050565b6000611766838361173c565b9150826002028217905092915050565b61177f82611313565b67ffffffffffffffff81111561179857611797610cb9565b5b6117a282546112e2565b6117ad8282856116e9565b600060209050601f8311600181146117e057600084156117ce578287015190505b6117d8858261175a565b865550611840565b601f1984166117ee866115c0565b60005b82811015611816578489015182556001820191506020850194506020810190506117f1565b86831015611833578489015161182f601f89168261173c565b8355505b6001600288020188555050505b505050505050565b600081519050919050565b60008190508160005260206000209050919050565b601f8211156118a95761187a81611853565b611883846115d5565b81016020851015611892578190505b6118a661189e856115d5565b8301826116c6565b50505b505050565b6118b782611848565b67ffffffffffffffff8111156118d0576118cf610cb9565b5b6118da82546112e2565b6118e5828285611868565b600060209050601f8311600181146119185760008415611906578287015190505b611910858261175a565b865550611978565b601f19841661192686611853565b60005b8281101561194e57848901518255600182019150602085019450602081019050611929565b8683101561196b5784890151611967601f89168261173c565b8355505b6001600288020188555050505b505050505050565b600060808201905061199560008301876111c0565b6119a260208301866111dc565b6119af60408301856111c0565b6119bc60608301846111c0565b95945050505050565b7f696e76616c6964207369676e6174757265206c656e6774680000000000000000600082015250565b60006119fb6018836113ff565b9150611a06826119c5565b602082019050919050565b60006020820190508181036000830152611a2a816119ee565b9050919050565b6000611a3d8284611353565b915081905092915050565b7f19457468657265756d205369676e6564204d6573736167653a0a333200000000600082015250565b6000611a7e601c8361131e565b9150611a8982611a48565b601c82019050919050565b6000819050919050565b611aaf611aaa8261112e565b611a94565b82525050565b6000611ac082611a71565b9150611acc8284611a9e565b6020820191508190509291505056fea264697066735822122050c7dc9e2c828d86727c22765c764425d2103c769c612609ee972622835cdd8f64736f6c63430008180033",
  "linkReferences": {},
  "deployedLinkReferences": {}
}